{
  "contractName": "Charities",
  "abi": [
    {
      "inputs": [],
      "stateMutability": "nonpayable",
      "type": "constructor"
    },
    {
      "stateMutability": "payable",
      "type": "fallback"
    },
    {
      "inputs": [],
      "name": "numOfCharities",
      "outputs": [
        {
          "internalType": "uint256",
          "name": "",
          "type": "uint256"
        }
      ],
      "stateMutability": "view",
      "type": "function"
    },
    {
      "inputs": [],
      "name": "token",
      "outputs": [
        {
          "internalType": "contract IToken",
          "name": "",
          "type": "address"
        }
      ],
      "stateMutability": "view",
      "type": "function"
    },
    {
      "stateMutability": "payable",
      "type": "receive"
    },
    {
      "inputs": [],
      "name": "getTokenBalance",
      "outputs": [
        {
          "internalType": "uint256",
          "name": "",
          "type": "uint256"
        }
      ],
      "stateMutability": "view",
      "type": "function"
    },
    {
      "inputs": [],
      "name": "getTokenAddress",
      "outputs": [
        {
          "internalType": "address",
          "name": "",
          "type": "address"
        }
      ],
      "stateMutability": "view",
      "type": "function"
    },
    {
      "inputs": [],
      "name": "owner",
      "outputs": [
        {
          "internalType": "address",
          "name": "",
          "type": "address"
        }
      ],
      "stateMutability": "view",
      "type": "function"
    },
    {
      "inputs": [],
      "name": "buy",
      "outputs": [],
      "stateMutability": "payable",
      "type": "function"
    },
    {
      "inputs": [
        {
          "internalType": "uint256",
          "name": "numOfTokens",
          "type": "uint256"
        }
      ],
      "name": "sell",
      "outputs": [],
      "stateMutability": "nonpayable",
      "type": "function"
    },
    {
      "inputs": [
        {
          "internalType": "address",
          "name": "beneficiary",
          "type": "address"
        }
      ],
      "name": "newCharity",
      "outputs": [],
      "stateMutability": "nonpayable",
      "type": "function"
    },
    {
      "inputs": [
        {
          "internalType": "uint256",
          "name": "id",
          "type": "uint256"
        },
        {
          "internalType": "uint256",
          "name": "numOfTokens",
          "type": "uint256"
        }
      ],
      "name": "donateToCharity",
      "outputs": [],
      "stateMutability": "nonpayable",
      "type": "function"
    },
    {
      "inputs": [
        {
          "internalType": "uint256",
          "name": "id",
          "type": "uint256"
        }
      ],
      "name": "getCharityAmount",
      "outputs": [
        {
          "internalType": "uint256",
          "name": "",
          "type": "uint256"
        }
      ],
      "stateMutability": "view",
      "type": "function"
    },
    {
      "inputs": [
        {
          "internalType": "uint256",
          "name": "id",
          "type": "uint256"
        },
        {
          "internalType": "uint256",
          "name": "numOfTokens",
          "type": "uint256"
        }
      ],
      "name": "withdraw",
      "outputs": [],
      "stateMutability": "nonpayable",
      "type": "function"
    }
  ],
  "bytecode": "0x608060405234801561001057600080fd5b5033600360006101000a81548173ffffffffffffffffffffffffffffffffffffffff021916908373ffffffffffffffffffffffffffffffffffffffff1602179055506000600181905550604051610066906100c8565b604051809103906000f080158015610082573d6000803e3d6000fd5b50600260006101000a81548173ffffffffffffffffffffffffffffffffffffffff021916908373ffffffffffffffffffffffffffffffffffffffff1602179055506100d5565b6116e28061183183390190565b61174d806100e46000396000f3fe6080604052600436106100a05760003560e01c80637c296059116100645780637c2960591461018e57806382b2e257146101b75780638da5cb5b146101e2578063a6f2ae3a1461020d578063e4849b3214610217578063fc0c546a14610240576100a7565b806310fe9ae8146100a95780632fa52baf146100d4578063441a3e70146100ff57806346a8a07a146101285780635025e05414610151576100a7565b366100a757005b005b3480156100b557600080fd5b506100be61026b565b6040516100cb9190610e62565b60405180910390f35b3480156100e057600080fd5b506100e9610295565b6040516100f69190610e96565b60405180910390f35b34801561010b57600080fd5b5061012660048036038101906101219190610ee2565b61029b565b005b34801561013457600080fd5b5061014f600480360381019061014a9190610f4e565b6105b2565b005b34801561015d57600080fd5b5061017860048036038101906101739190610f7b565b6106a4565b6040516101859190610e96565b60405180910390f35b34801561019a57600080fd5b506101b560048036038101906101b09190610ee2565b6106c3565b005b3480156101c357600080fd5b506101cc6108dd565b6040516101d99190610e96565b60405180910390f35b3480156101ee57600080fd5b506101f761098f565b6040516102049190610e62565b60405180910390f35b6102156109b9565b005b34801561022357600080fd5b5061023e60048036038101906102399190610f7b565b610bb4565b005b34801561024c57600080fd5b50610255610dfb565b6040516102629190611007565b60405180910390f35b6000600260009054906101000a900473ffffffffffffffffffffffffffffffffffffffff16905090565b60015481565b600080600084815260200190815260200160002060000160009054906101000a900473ffffffffffffffffffffffffffffffffffffffff1690508073ffffffffffffffffffffffffffffffffffffffff163373ffffffffffffffffffffffffffffffffffffffff1614610343576040517f08c379a000000000000000000000000000000000000000000000000000000000815260040161033a906110a5565b60405180910390fd5b6000600260009054906101000a900473ffffffffffffffffffffffffffffffffffffffff1673ffffffffffffffffffffffffffffffffffffffff166370a08231306040518263ffffffff1660e01b81526004016103a09190610e62565b60206040518083038186803b1580156103b857600080fd5b505afa1580156103cc573d6000803e3d6000fd5b505050506040513d601f19601f820116820180604052508101906103f091906110da565b905060008311610435576040517f08c379a000000000000000000000000000000000000000000000000000000000815260040161042c90611179565b60405180910390fd5b6000808581526020019081526020016000206001015483111561048d576040517f08c379a0000000000000000000000000000000000000000000000000000000008152600401610484906111e5565b60405180910390fd5b808311156104d0576040517f08c379a00000000000000000000000000000000000000000000000000000000081526004016104c790611251565b60405180910390fd5b600260009054906101000a900473ffffffffffffffffffffffffffffffffffffffff1673ffffffffffffffffffffffffffffffffffffffff1663a9059cbb33856040518363ffffffff1660e01b815260040161052d929190611271565b602060405180830381600087803b15801561054757600080fd5b505af115801561055b573d6000803e3d6000fd5b505050506040513d601f19601f8201168201806040525081019061057f91906112d2565b508260008086815260200190815260200160002060010160008282546105a5919061132e565b9250508190555050505050565b8073ffffffffffffffffffffffffffffffffffffffff163373ffffffffffffffffffffffffffffffffffffffff16148061061e57506105ef61098f565b73ffffffffffffffffffffffffffffffffffffffff163373ffffffffffffffffffffffffffffffffffffffff16145b61062757600080fd5b6001600081548092919061063a90611362565b91905055506000600154905060008060008381526020019081526020016000209050828160000160006101000a81548173ffffffffffffffffffffffffffffffffffffffff021916908373ffffffffffffffffffffffffffffffffffffffff160217905550505050565b6000806000838152602001908152602001600020600101549050919050565b60008111610706576040517f08c379a00000000000000000000000000000000000000000000000000000000081526004016106fd9061141d565b60405180910390fd5b6000600260009054906101000a900473ffffffffffffffffffffffffffffffffffffffff1673ffffffffffffffffffffffffffffffffffffffff1663dd62ed3e33306040518363ffffffff1660e01b815260040161076592919061143d565b60206040518083038186803b15801561077d57600080fd5b505afa158015610791573d6000803e3d6000fd5b505050506040513d601f19601f820116820180604052508101906107b591906110da565b9050818110156107fa576040517f08c379a00000000000000000000000000000000000000000000000000000000081526004016107f1906114d8565b60405180910390fd5b600260009054906101000a900473ffffffffffffffffffffffffffffffffffffffff1673ffffffffffffffffffffffffffffffffffffffff166323b872dd3330856040518463ffffffff1660e01b8152600401610859939291906114f8565b602060405180830381600087803b15801561087357600080fd5b505af1158015610887573d6000803e3d6000fd5b505050506040513d601f19601f820116820180604052508101906108ab91906112d2565b508160008085815260200190815260200160002060010160008282546108d1919061152f565b92505081905550505050565b6000600260009054906101000a900473ffffffffffffffffffffffffffffffffffffffff1673ffffffffffffffffffffffffffffffffffffffff166370a08231336040518263ffffffff1660e01b815260040161093a9190610e62565b60206040518083038186803b15801561095257600080fd5b505afa158015610966573d6000803e3d6000fd5b505050506040513d601f19601f8201168201806040525081019061098a91906110da565b905090565b6000600360009054906101000a900473ffffffffffffffffffffffffffffffffffffffff16905090565b6000612710346109c99190611585565b90506000600260009054906101000a900473ffffffffffffffffffffffffffffffffffffffff1673ffffffffffffffffffffffffffffffffffffffff166370a08231306040518263ffffffff1660e01b8152600401610a289190610e62565b60206040518083038186803b158015610a4057600080fd5b505afa158015610a54573d6000803e3d6000fd5b505050506040513d601f19601f82011682018060405250810190610a7891906110da565b905060008211610abd576040517f08c379a0000000000000000000000000000000000000000000000000000000008152600401610ab49061162b565b60405180910390fd5b80821115610b00576040517f08c379a0000000000000000000000000000000000000000000000000000000008152600401610af790611251565b60405180910390fd5b600260009054906101000a900473ffffffffffffffffffffffffffffffffffffffff1673ffffffffffffffffffffffffffffffffffffffff1663a9059cbb33846040518363ffffffff1660e01b8152600401610b5d929190611271565b602060405180830381600087803b158015610b7757600080fd5b505af1158015610b8b573d6000803e3d6000fd5b505050506040513d601f19601f82011682018060405250810190610baf91906112d2565b505050565b60008111610bf7576040517f08c379a0000000000000000000000000000000000000000000000000000000008152600401610bee90611697565b60405180910390fd5b6000600260009054906101000a900473ffffffffffffffffffffffffffffffffffffffff1673ffffffffffffffffffffffffffffffffffffffff1663dd62ed3e33306040518363ffffffff1660e01b8152600401610c5692919061143d565b60206040518083038186803b158015610c6e57600080fd5b505afa158015610c82573d6000803e3d6000fd5b505050506040513d601f19601f82011682018060405250810190610ca691906110da565b905081811015610ceb576040517f08c379a0000000000000000000000000000000000000000000000000000000008152600401610ce2906114d8565b60405180910390fd5b600260009054906101000a900473ffffffffffffffffffffffffffffffffffffffff1673ffffffffffffffffffffffffffffffffffffffff166323b872dd3330856040518463ffffffff1660e01b8152600401610d4a939291906114f8565b602060405180830381600087803b158015610d6457600080fd5b505af1158015610d78573d6000803e3d6000fd5b505050506040513d601f19601f82011682018060405250810190610d9c91906112d2565b50600061271083610dad91906116e6565b90503373ffffffffffffffffffffffffffffffffffffffff166108fc829081150290604051600060405180830381858888f19350505050158015610df5573d6000803e3d6000fd5b50505050565b600260009054906101000a900473ffffffffffffffffffffffffffffffffffffffff1681565b600073ffffffffffffffffffffffffffffffffffffffff82169050919050565b6000610e4c82610e21565b9050919050565b610e5c81610e41565b82525050565b6000602082019050610e776000830184610e53565b92915050565b6000819050919050565b610e9081610e7d565b82525050565b6000602082019050610eab6000830184610e87565b92915050565b600080fd5b610ebf81610e7d565b8114610eca57600080fd5b50565b600081359050610edc81610eb6565b92915050565b60008060408385031215610ef957610ef8610eb1565b5b6000610f0785828601610ecd565b9250506020610f1885828601610ecd565b9150509250929050565b610f2b81610e41565b8114610f3657600080fd5b50565b600081359050610f4881610f22565b92915050565b600060208284031215610f6457610f63610eb1565b5b6000610f7284828501610f39565b91505092915050565b600060208284031215610f9157610f90610eb1565b5b6000610f9f84828501610ecd565b91505092915050565b6000819050919050565b6000610fcd610fc8610fc384610e21565b610fa8565b610e21565b9050919050565b6000610fdf82610fb2565b9050919050565b6000610ff182610fd4565b9050919050565b61100181610fe6565b82525050565b600060208201905061101c6000830184610ff8565b92915050565b600082825260208201905092915050565b7f596f7520617265206e6f7420746865206f776e6572206f66207468652063686160008201527f7269747900000000000000000000000000000000000000000000000000000000602082015250565b600061108f602483611022565b915061109a82611033565b604082019050919050565b600060208201905081810360008301526110be81611082565b9050919050565b6000815190506110d481610eb6565b92915050565b6000602082840312156110f0576110ef610eb1565b5b60006110fe848285016110c5565b91505092915050565b7f596f75206e65656420746f207472616e73666572206d6f7265207468616e203060008201527f20746f6b656e7300000000000000000000000000000000000000000000000000602082015250565b6000611163602783611022565b915061116e82611107565b604082019050919050565b6000602082019050818103600083015261119281611156565b9050919050565b7f596f7520646f206e6f7420686176652074686174206d616e7920746f6b656e73600082015250565b60006111cf602083611022565b91506111da82611199565b602082019050919050565b600060208201905081810360008301526111fe816111c2565b9050919050565b7f4e6f7420656e6f75676820746f6b656e7320696e207468652072657365727665600082015250565b600061123b602083611022565b915061124682611205565b602082019050919050565b6000602082019050818103600083015261126a8161122e565b9050919050565b60006040820190506112866000830185610e53565b6112936020830184610e87565b9392505050565b60008115159050919050565b6112af8161129a565b81146112ba57600080fd5b50565b6000815190506112cc816112a6565b92915050565b6000602082840312156112e8576112e7610eb1565b5b60006112f6848285016112bd565b91505092915050565b7f4e487b7100000000000000000000000000000000000000000000000000000000600052601160045260246000fd5b600061133982610e7d565b915061134483610e7d565b925082821015611357576113566112ff565b5b828203905092915050565b600061136d82610e7d565b91507fffffffffffffffffffffffffffffffffffffffffffffffffffffffffffffffff8214156113a05761139f6112ff565b5b600182019050919050565b7f596f75206e65656420746f20646f6e617465206d6f7265207468616e2030207460008201527f6f6b656e73000000000000000000000000000000000000000000000000000000602082015250565b6000611407602583611022565b9150611412826113ab565b604082019050919050565b60006020820190508181036000830152611436816113fa565b9050919050565b60006040820190506114526000830185610e53565b61145f6020830184610e53565b9392505050565b7f4e6f7420617070726f76656420746f207472616e736665722074686973206d6160008201527f6e7920746f6b656e730000000000000000000000000000000000000000000000602082015250565b60006114c2602983611022565b91506114cd82611466565b604082019050919050565b600060208201905081810360008301526114f1816114b5565b9050919050565b600060608201905061150d6000830186610e53565b61151a6020830185610e53565b6115276040830184610e87565b949350505050565b600061153a82610e7d565b915061154583610e7d565b9250827fffffffffffffffffffffffffffffffffffffffffffffffffffffffffffffffff0382111561157a576115796112ff565b5b828201905092915050565b600061159082610e7d565b915061159b83610e7d565b9250817fffffffffffffffffffffffffffffffffffffffffffffffffffffffffffffffff04831182151516156115d4576115d36112ff565b5b828202905092915050565b7f596f75206e65656420746f2073656e6420736f6d652065746865720000000000600082015250565b6000611615601b83611022565b9150611620826115df565b602082019050919050565b6000602082019050818103600083015261164481611608565b9050919050565b7f596f75206e65656420746f2073656c6c203020746f6b656e7300000000000000600082015250565b6000611681601983611022565b915061168c8261164b565b602082019050919050565b600060208201905081810360008301526116b081611674565b9050919050565b7f4e487b7100000000000000000000000000000000000000000000000000000000600052601260045260246000fd5b60006116f182610e7d565b91506116fc83610e7d565b92508261170c5761170b6116b7565b5b82820490509291505056fea26469706673582212205b9bf0a45972a23771e01dc315732a189447bc8ecd21037a821d791c361c8bf964736f6c6343000809003360806040526040518060400160405280600d81526020017f4368617269747920546f6b656e0000000000000000000000000000000000000081525060009080519060200190620000519291906200023e565b506040518060400160405280600381526020017f4348540000000000000000000000000000000000000000000000000000000000815250600190805190602001906200009f9291906200023e565b506012600260006101000a81548160ff021916908360ff1602179055506000600355348015620000ce57600080fd5b506200010f33620000e46200011560201b60201c565b600a620000f2919062000488565b633b9aca00620001039190620004d9565b6200012c60201b60201c565b6200062a565b6000600260009054906101000a900460ff16905090565b806003546200013c91906200053a565b60038190555080600460008473ffffffffffffffffffffffffffffffffffffffff1673ffffffffffffffffffffffffffffffffffffffff168152602001908152602001600020546200018f91906200053a565b600460008473ffffffffffffffffffffffffffffffffffffffff1673ffffffffffffffffffffffffffffffffffffffff168152602001908152602001600020819055508173ffffffffffffffffffffffffffffffffffffffff16600073ffffffffffffffffffffffffffffffffffffffff167fddf252ad1be2c89b69c2b068fc378daa952ba7f163c4a11628f55a4df523b3ef83604051620002329190620005a8565b60405180910390a35050565b8280546200024c90620005f4565b90600052602060002090601f016020900481019282620002705760008555620002bc565b82601f106200028b57805160ff1916838001178555620002bc565b82800160010185558215620002bc579182015b82811115620002bb5782518255916020019190600101906200029e565b5b509050620002cb9190620002cf565b5090565b5b80821115620002ea576000816000905550600101620002d0565b5090565b7f4e487b7100000000000000000000000000000000000000000000000000000000600052601160045260246000fd5b60008160011c9050919050565b6000808291508390505b60018511156200037c57808604811115620003545762000353620002ee565b5b6001851615620003645780820291505b808102905062000374856200031d565b945062000334565b94509492505050565b6000826200039757600190506200046a565b81620003a757600090506200046a565b8160018114620003c05760028114620003cb5762000401565b60019150506200046a565b60ff841115620003e057620003df620002ee565b5b8360020a915084821115620003fa57620003f9620002ee565b5b506200046a565b5060208310610133831016604e8410600b84101617156200043b5782820a905083811115620004355762000434620002ee565b5b6200046a565b6200044a84848460016200032a565b92509050818404811115620004645762000463620002ee565b5b81810290505b9392505050565b6000819050919050565b600060ff82169050919050565b6000620004958262000471565b9150620004a2836200047b565b9250620004d17fffffffffffffffffffffffffffffffffffffffffffffffffffffffffffffffff848462000385565b905092915050565b6000620004e68262000471565b9150620004f38362000471565b9250817fffffffffffffffffffffffffffffffffffffffffffffffffffffffffffffffff04831182151516156200052f576200052e620002ee565b5b828202905092915050565b6000620005478262000471565b9150620005548362000471565b9250827fffffffffffffffffffffffffffffffffffffffffffffffffffffffffffffffff038211156200058c576200058b620002ee565b5b828201905092915050565b620005a28162000471565b82525050565b6000602082019050620005bf600083018462000597565b92915050565b7f4e487b7100000000000000000000000000000000000000000000000000000000600052602260045260246000fd5b600060028204905060018216806200060d57607f821691505b60208210811415620006245762000623620005c5565b5b50919050565b6110a8806200063a6000396000f3fe608060405234801561001057600080fd5b50600436106100cf5760003560e01c80633eaaf86b1161008c578063a9059cbb11610066578063a9059cbb14610218578063b09f126614610248578063d28d885214610266578063dd62ed3e14610284576100cf565b80633eaaf86b146101ac57806370a08231146101ca57806395d89b41146101fa576100cf565b806306fdde03146100d4578063095ea7b3146100f257806318160ddd1461012257806323b872dd14610140578063313ce5671461017057806332424aa31461018e575b600080fd5b6100dc6102b4565b6040516100e99190610d06565b60405180910390f35b61010c60048036038101906101079190610dc1565b610346565b6040516101199190610e1c565b60405180910390f35b61012a610471565b6040516101379190610e46565b60405180910390f35b61015a60048036038101906101559190610e61565b61047b565b6040516101679190610e1c565b60405180910390f35b6101786107e6565b6040516101859190610ed0565b60405180910390f35b6101966107fd565b6040516101a39190610ed0565b60405180910390f35b6101b4610810565b6040516101c19190610e46565b60405180910390f35b6101e460048036038101906101df9190610eeb565b610816565b6040516101f19190610e46565b60405180910390f35b61020261085f565b60405161020f9190610d06565b60405180910390f35b610232600480360381019061022d9190610dc1565b6108f1565b60405161023f9190610e1c565b60405180910390f35b610250610aca565b60405161025d9190610d06565b60405180910390f35b61026e610b58565b60405161027b9190610d06565b60405180910390f35b61029e60048036038101906102999190610f18565b610be6565b6040516102ab9190610e46565b60405180910390f35b6060600080546102c390610f87565b80601f01602080910402602001604051908101604052809291908181526020018280546102ef90610f87565b801561033c5780601f106103115761010080835404028352916020019161033c565b820191906000526020600020905b81548152906001019060200180831161031f57829003601f168201915b5050505050905090565b60008073ffffffffffffffffffffffffffffffffffffffff168373ffffffffffffffffffffffffffffffffffffffff16141561038157600080fd5b81600560003373ffffffffffffffffffffffffffffffffffffffff1673ffffffffffffffffffffffffffffffffffffffff16815260200190815260200160002060008573ffffffffffffffffffffffffffffffffffffffff1673ffffffffffffffffffffffffffffffffffffffff168152602001908152602001600020819055508273ffffffffffffffffffffffffffffffffffffffff163373ffffffffffffffffffffffffffffffffffffffff167f8c5be1e5ebec7d5bd14f71427d1e84f3dd0314c0f7b2291e5b200ac8c7c3b9258460405161045f9190610e46565b60405180910390a36001905092915050565b6000600354905090565b600081600460008673ffffffffffffffffffffffffffffffffffffffff1673ffffffffffffffffffffffffffffffffffffffff1681526020019081526020016000205410156104c957600080fd5b81600560008673ffffffffffffffffffffffffffffffffffffffff1673ffffffffffffffffffffffffffffffffffffffff16815260200190815260200160002060003373ffffffffffffffffffffffffffffffffffffffff1673ffffffffffffffffffffffffffffffffffffffff16815260200190815260200160002054101561055257600080fd5b81600460008673ffffffffffffffffffffffffffffffffffffffff1673ffffffffffffffffffffffffffffffffffffffff1681526020019081526020016000205461059d9190610fe8565b600460008673ffffffffffffffffffffffffffffffffffffffff1673ffffffffffffffffffffffffffffffffffffffff1681526020019081526020016000208190555081600460008573ffffffffffffffffffffffffffffffffffffffff1673ffffffffffffffffffffffffffffffffffffffff1681526020019081526020016000205461062b919061101c565b600460008573ffffffffffffffffffffffffffffffffffffffff1673ffffffffffffffffffffffffffffffffffffffff1681526020019081526020016000208190555081600560008673ffffffffffffffffffffffffffffffffffffffff1673ffffffffffffffffffffffffffffffffffffffff16815260200190815260200160002060003373ffffffffffffffffffffffffffffffffffffffff1673ffffffffffffffffffffffffffffffffffffffff168152602001908152602001600020546106f69190610fe8565b600560008673ffffffffffffffffffffffffffffffffffffffff1673ffffffffffffffffffffffffffffffffffffffff16815260200190815260200160002060003373ffffffffffffffffffffffffffffffffffffffff1673ffffffffffffffffffffffffffffffffffffffff168152602001908152602001600020819055508273ffffffffffffffffffffffffffffffffffffffff163373ffffffffffffffffffffffffffffffffffffffff167fddf252ad1be2c89b69c2b068fc378daa952ba7f163c4a11628f55a4df523b3ef846040516107d39190610e46565b60405180910390a3600190509392505050565b6000600260009054906101000a900460ff16905090565b600260009054906101000a900460ff1681565b60035481565b6000600460008373ffffffffffffffffffffffffffffffffffffffff1673ffffffffffffffffffffffffffffffffffffffff168152602001908152602001600020549050919050565b60606001805461086e90610f87565b80601f016020809104026020016040519081016040528092919081815260200182805461089a90610f87565b80156108e75780601f106108bc576101008083540402835291602001916108e7565b820191906000526020600020905b8154815290600101906020018083116108ca57829003601f168201915b5050505050905090565b600081600460003373ffffffffffffffffffffffffffffffffffffffff1673ffffffffffffffffffffffffffffffffffffffff16815260200190815260200160002054101561093f57600080fd5b81600460003373ffffffffffffffffffffffffffffffffffffffff1673ffffffffffffffffffffffffffffffffffffffff1681526020019081526020016000205461098a9190610fe8565b600460003373ffffffffffffffffffffffffffffffffffffffff1673ffffffffffffffffffffffffffffffffffffffff1681526020019081526020016000208190555081600460008573ffffffffffffffffffffffffffffffffffffffff1673ffffffffffffffffffffffffffffffffffffffff16815260200190815260200160002054610a18919061101c565b600460008573ffffffffffffffffffffffffffffffffffffffff1673ffffffffffffffffffffffffffffffffffffffff168152602001908152602001600020819055508273ffffffffffffffffffffffffffffffffffffffff163373ffffffffffffffffffffffffffffffffffffffff167fddf252ad1be2c89b69c2b068fc378daa952ba7f163c4a11628f55a4df523b3ef84604051610ab89190610e46565b60405180910390a36001905092915050565b60018054610ad790610f87565b80601f0160208091040260200160405190810160405280929190818152602001828054610b0390610f87565b8015610b505780601f10610b2557610100808354040283529160200191610b50565b820191906000526020600020905b815481529060010190602001808311610b3357829003601f168201915b505050505081565b60008054610b6590610f87565b80601f0160208091040260200160405190810160405280929190818152602001828054610b9190610f87565b8015610bde5780601f10610bb357610100808354040283529160200191610bde565b820191906000526020600020905b815481529060010190602001808311610bc157829003601f168201915b505050505081565b6000600560008473ffffffffffffffffffffffffffffffffffffffff1673ffffffffffffffffffffffffffffffffffffffff16815260200190815260200160002060008373ffffffffffffffffffffffffffffffffffffffff1673ffffffffffffffffffffffffffffffffffffffff16815260200190815260200160002054905092915050565b600081519050919050565b600082825260208201905092915050565b60005b83811015610ca7578082015181840152602081019050610c8c565b83811115610cb6576000848401525b50505050565b6000601f19601f8301169050919050565b6000610cd882610c6d565b610ce28185610c78565b9350610cf2818560208601610c89565b610cfb81610cbc565b840191505092915050565b60006020820190508181036000830152610d208184610ccd565b905092915050565b600080fd5b600073ffffffffffffffffffffffffffffffffffffffff82169050919050565b6000610d5882610d2d565b9050919050565b610d6881610d4d565b8114610d7357600080fd5b50565b600081359050610d8581610d5f565b92915050565b6000819050919050565b610d9e81610d8b565b8114610da957600080fd5b50565b600081359050610dbb81610d95565b92915050565b60008060408385031215610dd857610dd7610d28565b5b6000610de685828601610d76565b9250506020610df785828601610dac565b9150509250929050565b60008115159050919050565b610e1681610e01565b82525050565b6000602082019050610e316000830184610e0d565b92915050565b610e4081610d8b565b82525050565b6000602082019050610e5b6000830184610e37565b92915050565b600080600060608486031215610e7a57610e79610d28565b5b6000610e8886828701610d76565b9350506020610e9986828701610d76565b9250506040610eaa86828701610dac565b9150509250925092565b600060ff82169050919050565b610eca81610eb4565b82525050565b6000602082019050610ee56000830184610ec1565b92915050565b600060208284031215610f0157610f00610d28565b5b6000610f0f84828501610d76565b91505092915050565b60008060408385031215610f2f57610f2e610d28565b5b6000610f3d85828601610d76565b9250506020610f4e85828601610d76565b9150509250929050565b7f4e487b7100000000000000000000000000000000000000000000000000000000600052602260045260246000fd5b60006002820490506001821680610f9f57607f821691505b60208210811415610fb357610fb2610f58565b5b50919050565b7f4e487b7100000000000000000000000000000000000000000000000000000000600052601160045260246000fd5b6000610ff382610d8b565b9150610ffe83610d8b565b92508282101561101157611010610fb9565b5b828203905092915050565b600061102782610d8b565b915061103283610d8b565b9250827fffffffffffffffffffffffffffffffffffffffffffffffffffffffffffffffff0382111561106757611066610fb9565b5b82820190509291505056fea26469706673582212200cccc9205cc0fa462a4184e021c27faaf0f509b86d8103e5a4b5bd7bca77990664736f6c63430008090033",
  "immutableReferences": {},
  "source": "// SPDX-License-Identifier: MIT\r\npragma solidity ^0.8.9;\r\n\r\nimport \"./Token.sol\";\r\n\r\ncontract Charities {\r\n\r\n    struct Charity {\r\n        // name of the charity\r\n        address beneficiary;\r\n        // total amount donated to this charity\r\n        uint amount;\r\n        // total donation from a certain address\r\n    }\r\n\r\n    mapping (uint => Charity) allCharities;\r\n\r\n    // number of registered charities\r\n    uint public numOfCharities;\r\n\r\n    IToken public token;\r\n\r\n    address private _owner;\r\n\r\n    constructor() {\r\n        _owner = msg.sender;\r\n        numOfCharities = 0;\r\n        token = new Token();\r\n    }\r\n\r\n    function getTokenBalance() public view returns (uint) {\r\n        return token.balanceOf(msg.sender);\r\n    }\r\n\r\n    function getTokenAddress() public view returns (address) {\r\n        return address(token);\r\n    }\r\n\r\n    function owner() public view returns (address) {\r\n        return _owner;\r\n    }\r\n\r\n    // user can buy tokens\r\n    function buy() payable public {\r\n        // currently 10000 token == 1 ether\r\n        uint amountTobuy = msg.value * 10000;\r\n        uint contractBalance = token.balanceOf(address(this));\r\n        require(amountTobuy > 0, \"You need to send some ether\");\r\n        require(amountTobuy <= contractBalance, \"Not enough tokens in the reserve\");\r\n        token.transfer(msg.sender, amountTobuy);\r\n    }\r\n\r\n    function sell(uint numOfTokens) public {\r\n        require(numOfTokens > 0, \"You need to sell 0 tokens\");\r\n        uint allowance = token.allowance(msg.sender, address(this));\r\n        require(allowance >= numOfTokens, \"Not approved to transfer this many tokens\");\r\n        \r\n        token.transferFrom(msg.sender, address(this), numOfTokens);\r\n        uint amountToSell = numOfTokens / 10000;\r\n        payable(msg.sender).transfer(amountToSell);\r\n    }\r\n\r\n    // register a new charity\r\n    function newCharity(address beneficiary) public {\r\n        require(msg.sender == beneficiary || msg.sender == owner());\r\n        numOfCharities++;\r\n        // each charity will have a unique ID\r\n        uint charityID = numOfCharities;\r\n        \r\n        Charity storage c = allCharities[charityID];\r\n        c.beneficiary = beneficiary;\r\n    }\r\n    \r\n    // the sender can send a donation to a charity\r\n    function donateToCharity(uint id, uint numOfTokens) public {\r\n        require(numOfTokens > 0, \"You need to donate more than 0 tokens\");\r\n        uint allowance = token.allowance(msg.sender, address(this));\r\n        require(allowance >= numOfTokens, \"Not approved to transfer this many tokens\");\r\n        token.transferFrom(msg.sender, address(this), numOfTokens);\r\n\r\n        allCharities[id].amount += numOfTokens;\r\n    }\r\n    \r\n    // get the amount that has been donated to the charity\r\n    function getCharityAmount(uint id) public view returns (uint) {\r\n        return allCharities[id].amount;\r\n    }\r\n    \r\n    // withdraw/send a given number of tokens to a charity\r\n    function withdraw(uint id, uint numOfTokens) public {\r\n        address charityAddress = allCharities[id].beneficiary;\r\n        require(msg.sender == charityAddress, \"You are not the owner of the charity\");\r\n\r\n        uint contractBalance = token.balanceOf(address(this));\r\n        require(numOfTokens > 0, \"You need to transfer more than 0 tokens\");\r\n        require(numOfTokens <= allCharities[id].amount, \"You do not have that many tokens\");\r\n        require(numOfTokens <= contractBalance, \"Not enough tokens in the reserve\");\r\n        token.transfer(msg.sender, numOfTokens);\r\n\r\n        allCharities[id].amount -= numOfTokens;\r\n    }\r\n    \r\n    // Function to receive Ether. msg.data must be empty\r\n    receive() external payable {}\r\n\r\n    // Fallback function is called when msg.data is not empty\r\n    fallback() external payable {}\r\n}",
  "sourcePath": "C:\\DEV\\Ethereum\\Charity\\contracts\\Charities.sol",
  "compiler": {
    "name": "solc",
    "version": "0.8.9+commit.e5eed63a.Emscripten.clang"
  },
  "schemaVersion": "3.4.3",
  "updatedAt": "2021-10-26T15:47:54.434Z",
  "devdoc": {
    "kind": "dev",
    "methods": {},
    "version": 1
  },
  "userdoc": {
    "kind": "user",
    "methods": {},
    "version": 1
  }
}