{
  "contractName": "Charities",
  "abi": [
    {
      "inputs": [],
      "stateMutability": "nonpayable",
      "type": "constructor"
    },
    {
      "anonymous": false,
      "inputs": [
        {
          "indexed": true,
          "internalType": "address",
          "name": "owner",
          "type": "address"
        },
        {
          "indexed": true,
          "internalType": "address",
          "name": "approved",
          "type": "address"
        },
        {
          "indexed": true,
          "internalType": "uint256",
          "name": "tokenId",
          "type": "uint256"
        }
      ],
      "name": "Approval",
      "type": "event"
    },
    {
      "anonymous": false,
      "inputs": [
        {
          "indexed": true,
          "internalType": "address",
          "name": "owner",
          "type": "address"
        },
        {
          "indexed": true,
          "internalType": "address",
          "name": "operator",
          "type": "address"
        },
        {
          "indexed": false,
          "internalType": "bool",
          "name": "approved",
          "type": "bool"
        }
      ],
      "name": "ApprovalForAll",
      "type": "event"
    },
    {
      "anonymous": false,
      "inputs": [
        {
          "indexed": true,
          "internalType": "address",
          "name": "from",
          "type": "address"
        },
        {
          "indexed": true,
          "internalType": "address",
          "name": "to",
          "type": "address"
        },
        {
          "indexed": true,
          "internalType": "uint256",
          "name": "tokenId",
          "type": "uint256"
        }
      ],
      "name": "Transfer",
      "type": "event"
    },
    {
      "stateMutability": "payable",
      "type": "fallback",
      "payable": true
    },
    {
      "inputs": [
        {
          "internalType": "address",
          "name": "",
          "type": "address"
        }
      ],
      "name": "allCharities",
      "outputs": [
        {
          "internalType": "bool",
          "name": "isRegistered",
          "type": "bool"
        },
        {
          "internalType": "string",
          "name": "name",
          "type": "string"
        },
        {
          "internalType": "uint256",
          "name": "amount",
          "type": "uint256"
        }
      ],
      "stateMutability": "view",
      "type": "function",
      "constant": true
    },
    {
      "inputs": [
        {
          "internalType": "uint256",
          "name": "",
          "type": "uint256"
        }
      ],
      "name": "allFunds",
      "outputs": [
        {
          "internalType": "address",
          "name": "owner",
          "type": "address"
        },
        {
          "internalType": "string",
          "name": "title",
          "type": "string"
        },
        {
          "internalType": "string",
          "name": "description",
          "type": "string"
        },
        {
          "internalType": "uint256",
          "name": "start",
          "type": "uint256"
        },
        {
          "internalType": "uint256",
          "name": "deadline",
          "type": "uint256"
        },
        {
          "internalType": "uint256",
          "name": "goal",
          "type": "uint256"
        },
        {
          "internalType": "uint256",
          "name": "balance",
          "type": "uint256"
        },
        {
          "internalType": "string",
          "name": "imageURI",
          "type": "string"
        },
        {
          "internalType": "bool",
          "name": "claimed",
          "type": "bool"
        }
      ],
      "stateMutability": "view",
      "type": "function",
      "constant": true
    },
    {
      "inputs": [
        {
          "internalType": "address",
          "name": "to",
          "type": "address"
        },
        {
          "internalType": "uint256",
          "name": "tokenId",
          "type": "uint256"
        }
      ],
      "name": "approve",
      "outputs": [],
      "stateMutability": "nonpayable",
      "type": "function"
    },
    {
      "inputs": [
        {
          "internalType": "address",
          "name": "owner",
          "type": "address"
        }
      ],
      "name": "balanceOf",
      "outputs": [
        {
          "internalType": "uint256",
          "name": "",
          "type": "uint256"
        }
      ],
      "stateMutability": "view",
      "type": "function",
      "constant": true
    },
    {
      "inputs": [
        {
          "internalType": "uint256",
          "name": "",
          "type": "uint256"
        }
      ],
      "name": "charityList",
      "outputs": [
        {
          "internalType": "address",
          "name": "",
          "type": "address"
        }
      ],
      "stateMutability": "view",
      "type": "function",
      "constant": true
    },
    {
      "inputs": [],
      "name": "fundCounter",
      "outputs": [
        {
          "internalType": "uint256",
          "name": "",
          "type": "uint256"
        }
      ],
      "stateMutability": "view",
      "type": "function",
      "constant": true
    },
    {
      "inputs": [
        {
          "internalType": "uint256",
          "name": "",
          "type": "uint256"
        }
      ],
      "name": "fundList",
      "outputs": [
        {
          "internalType": "address",
          "name": "owner",
          "type": "address"
        },
        {
          "internalType": "string",
          "name": "title",
          "type": "string"
        },
        {
          "internalType": "string",
          "name": "description",
          "type": "string"
        },
        {
          "internalType": "uint256",
          "name": "start",
          "type": "uint256"
        },
        {
          "internalType": "uint256",
          "name": "deadline",
          "type": "uint256"
        },
        {
          "internalType": "uint256",
          "name": "goal",
          "type": "uint256"
        },
        {
          "internalType": "uint256",
          "name": "balance",
          "type": "uint256"
        },
        {
          "internalType": "string",
          "name": "imageURI",
          "type": "string"
        },
        {
          "internalType": "bool",
          "name": "claimed",
          "type": "bool"
        }
      ],
      "stateMutability": "view",
      "type": "function",
      "constant": true
    },
    {
      "inputs": [
        {
          "internalType": "address",
          "name": "",
          "type": "address"
        },
        {
          "internalType": "uint256",
          "name": "",
          "type": "uint256"
        }
      ],
      "name": "fundsDonated",
      "outputs": [
        {
          "internalType": "uint256",
          "name": "",
          "type": "uint256"
        }
      ],
      "stateMutability": "view",
      "type": "function",
      "constant": true
    },
    {
      "inputs": [
        {
          "internalType": "uint256",
          "name": "tokenId",
          "type": "uint256"
        }
      ],
      "name": "getApproved",
      "outputs": [
        {
          "internalType": "address",
          "name": "",
          "type": "address"
        }
      ],
      "stateMutability": "view",
      "type": "function",
      "constant": true
    },
    {
      "inputs": [
        {
          "internalType": "address",
          "name": "owner",
          "type": "address"
        },
        {
          "internalType": "address",
          "name": "operator",
          "type": "address"
        }
      ],
      "name": "isApprovedForAll",
      "outputs": [
        {
          "internalType": "bool",
          "name": "",
          "type": "bool"
        }
      ],
      "stateMutability": "view",
      "type": "function",
      "constant": true
    },
    {
      "inputs": [],
      "name": "name",
      "outputs": [
        {
          "internalType": "string",
          "name": "",
          "type": "string"
        }
      ],
      "stateMutability": "view",
      "type": "function",
      "constant": true
    },
    {
      "inputs": [
        {
          "internalType": "uint256",
          "name": "",
          "type": "uint256"
        }
      ],
      "name": "nftAttributes",
      "outputs": [
        {
          "internalType": "string",
          "name": "title",
          "type": "string"
        },
        {
          "internalType": "string",
          "name": "description",
          "type": "string"
        },
        {
          "internalType": "uint256",
          "name": "amountDonated",
          "type": "uint256"
        },
        {
          "internalType": "string",
          "name": "imageURI",
          "type": "string"
        },
        {
          "internalType": "uint256",
          "name": "id",
          "type": "uint256"
        }
      ],
      "stateMutability": "view",
      "type": "function",
      "constant": true
    },
    {
      "inputs": [
        {
          "internalType": "uint256",
          "name": "tokenId",
          "type": "uint256"
        }
      ],
      "name": "ownerOf",
      "outputs": [
        {
          "internalType": "address",
          "name": "",
          "type": "address"
        }
      ],
      "stateMutability": "view",
      "type": "function",
      "constant": true
    },
    {
      "inputs": [
        {
          "internalType": "address",
          "name": "from",
          "type": "address"
        },
        {
          "internalType": "address",
          "name": "to",
          "type": "address"
        },
        {
          "internalType": "uint256",
          "name": "tokenId",
          "type": "uint256"
        }
      ],
      "name": "safeTransferFrom",
      "outputs": [],
      "stateMutability": "nonpayable",
      "type": "function"
    },
    {
      "inputs": [
        {
          "internalType": "address",
          "name": "from",
          "type": "address"
        },
        {
          "internalType": "address",
          "name": "to",
          "type": "address"
        },
        {
          "internalType": "uint256",
          "name": "tokenId",
          "type": "uint256"
        },
        {
          "internalType": "bytes",
          "name": "_data",
          "type": "bytes"
        }
      ],
      "name": "safeTransferFrom",
      "outputs": [],
      "stateMutability": "nonpayable",
      "type": "function"
    },
    {
      "inputs": [
        {
          "internalType": "address",
          "name": "operator",
          "type": "address"
        },
        {
          "internalType": "bool",
          "name": "approved",
          "type": "bool"
        }
      ],
      "name": "setApprovalForAll",
      "outputs": [],
      "stateMutability": "nonpayable",
      "type": "function"
    },
    {
      "inputs": [
        {
          "internalType": "bytes4",
          "name": "interfaceId",
          "type": "bytes4"
        }
      ],
      "name": "supportsInterface",
      "outputs": [
        {
          "internalType": "bool",
          "name": "",
          "type": "bool"
        }
      ],
      "stateMutability": "view",
      "type": "function",
      "constant": true
    },
    {
      "inputs": [],
      "name": "symbol",
      "outputs": [
        {
          "internalType": "string",
          "name": "",
          "type": "string"
        }
      ],
      "stateMutability": "view",
      "type": "function",
      "constant": true
    },
    {
      "inputs": [],
      "name": "token",
      "outputs": [
        {
          "internalType": "contract IToken",
          "name": "",
          "type": "address"
        }
      ],
      "stateMutability": "view",
      "type": "function",
      "constant": true
    },
    {
      "inputs": [],
      "name": "tokenCounter",
      "outputs": [
        {
          "internalType": "uint256",
          "name": "",
          "type": "uint256"
        }
      ],
      "stateMutability": "view",
      "type": "function",
      "constant": true
    },
    {
      "inputs": [
        {
          "internalType": "address",
          "name": "from",
          "type": "address"
        },
        {
          "internalType": "address",
          "name": "to",
          "type": "address"
        },
        {
          "internalType": "uint256",
          "name": "tokenId",
          "type": "uint256"
        }
      ],
      "name": "transferFrom",
      "outputs": [],
      "stateMutability": "nonpayable",
      "type": "function"
    },
    {
      "inputs": [
        {
          "internalType": "address",
          "name": "",
          "type": "address"
        },
        {
          "internalType": "uint256",
          "name": "",
          "type": "uint256"
        }
      ],
      "name": "userNFTs",
      "outputs": [
        {
          "internalType": "string",
          "name": "title",
          "type": "string"
        },
        {
          "internalType": "string",
          "name": "description",
          "type": "string"
        },
        {
          "internalType": "uint256",
          "name": "amountDonated",
          "type": "uint256"
        },
        {
          "internalType": "string",
          "name": "imageURI",
          "type": "string"
        },
        {
          "internalType": "uint256",
          "name": "id",
          "type": "uint256"
        }
      ],
      "stateMutability": "view",
      "type": "function",
      "constant": true
    },
    {
      "stateMutability": "payable",
      "type": "receive",
      "payable": true
    },
    {
      "inputs": [
        {
          "internalType": "uint256",
          "name": "_tokenId",
          "type": "uint256"
        }
      ],
      "name": "tokenURI",
      "outputs": [
        {
          "internalType": "string",
          "name": "",
          "type": "string"
        }
      ],
      "stateMutability": "view",
      "type": "function",
      "constant": true
    },
    {
      "inputs": [
        {
          "internalType": "address",
          "name": "owner",
          "type": "address"
        }
      ],
      "name": "getNFTs",
      "outputs": [
        {
          "components": [
            {
              "internalType": "string",
              "name": "title",
              "type": "string"
            },
            {
              "internalType": "string",
              "name": "description",
              "type": "string"
            },
            {
              "internalType": "uint256",
              "name": "amountDonated",
              "type": "uint256"
            },
            {
              "internalType": "string",
              "name": "imageURI",
              "type": "string"
            },
            {
              "internalType": "uint256",
              "name": "id",
              "type": "uint256"
            }
          ],
          "internalType": "struct Charities.NFTFund[]",
          "name": "",
          "type": "tuple[]"
        }
      ],
      "stateMutability": "view",
      "type": "function",
      "constant": true
    },
    {
      "inputs": [
        {
          "internalType": "string",
          "name": "title",
          "type": "string"
        },
        {
          "internalType": "string",
          "name": "description",
          "type": "string"
        },
        {
          "internalType": "uint256",
          "name": "start",
          "type": "uint256"
        },
        {
          "internalType": "uint256",
          "name": "end",
          "type": "uint256"
        },
        {
          "internalType": "uint256",
          "name": "goal",
          "type": "uint256"
        },
        {
          "internalType": "string",
          "name": "imageURI",
          "type": "string"
        }
      ],
      "name": "createFund",
      "outputs": [],
      "stateMutability": "nonpayable",
      "type": "function"
    },
    {
      "inputs": [
        {
          "internalType": "uint256",
          "name": "fundNum",
          "type": "uint256"
        },
        {
          "internalType": "uint256",
          "name": "numOfTokens",
          "type": "uint256"
        }
      ],
      "name": "pledge",
      "outputs": [],
      "stateMutability": "payable",
      "type": "function",
      "payable": true
    },
    {
      "inputs": [
        {
          "internalType": "uint256",
          "name": "fundNum",
          "type": "uint256"
        }
      ],
      "name": "refund",
      "outputs": [],
      "stateMutability": "nonpayable",
      "type": "function"
    },
    {
      "inputs": [
        {
          "internalType": "uint256",
          "name": "fundNum",
          "type": "uint256"
        }
      ],
      "name": "claim",
      "outputs": [],
      "stateMutability": "nonpayable",
      "type": "function"
    },
    {
      "inputs": [
        {
          "internalType": "uint256",
          "name": "fundNum",
          "type": "uint256"
        }
      ],
      "name": "claimNFT",
      "outputs": [],
      "stateMutability": "nonpayable",
      "type": "function"
    },
    {
      "inputs": [],
      "name": "buy",
      "outputs": [],
      "stateMutability": "payable",
      "type": "function",
      "payable": true
    },
    {
      "inputs": [
        {
          "internalType": "uint256",
          "name": "numOfTokens",
          "type": "uint256"
        }
      ],
      "name": "sell",
      "outputs": [],
      "stateMutability": "nonpayable",
      "type": "function"
    },
    {
      "inputs": [
        {
          "internalType": "address",
          "name": "beneficiary",
          "type": "address"
        },
        {
          "internalType": "string",
          "name": "name",
          "type": "string"
        }
      ],
      "name": "newCharity",
      "outputs": [],
      "stateMutability": "nonpayable",
      "type": "function"
    },
    {
      "inputs": [
        {
          "internalType": "address",
          "name": "beneficiary",
          "type": "address"
        },
        {
          "internalType": "uint256",
          "name": "numOfTokens",
          "type": "uint256"
        }
      ],
      "name": "donateToCharity",
      "outputs": [],
      "stateMutability": "nonpayable",
      "type": "function"
    },
    {
      "inputs": [
        {
          "internalType": "address",
          "name": "beneficiary",
          "type": "address"
        },
        {
          "internalType": "uint256",
          "name": "numOfTokens",
          "type": "uint256"
        }
      ],
      "name": "withdraw",
      "outputs": [],
      "stateMutability": "nonpayable",
      "type": "function"
    },
    {
      "inputs": [],
      "name": "getTokenBalance",
      "outputs": [
        {
          "internalType": "uint256",
          "name": "",
          "type": "uint256"
        }
      ],
      "stateMutability": "view",
      "type": "function",
      "constant": true
    },
    {
      "inputs": [],
      "name": "getTokenAddress",
      "outputs": [
        {
          "internalType": "address",
          "name": "",
          "type": "address"
        }
      ],
      "stateMutability": "view",
      "type": "function",
      "constant": true
    },
    {
      "inputs": [],
      "name": "getOwner",
      "outputs": [
        {
          "internalType": "address",
          "name": "",
          "type": "address"
        }
      ],
      "stateMutability": "view",
      "type": "function",
      "constant": true
    },
    {
      "inputs": [
        {
          "internalType": "address",
          "name": "beneficiary",
          "type": "address"
        }
      ],
      "name": "getCharity",
      "outputs": [
        {
          "components": [
            {
              "internalType": "bool",
              "name": "isRegistered",
              "type": "bool"
            },
            {
              "internalType": "string",
              "name": "name",
              "type": "string"
            },
            {
              "internalType": "uint256",
              "name": "amount",
              "type": "uint256"
            }
          ],
          "internalType": "struct Charities.Charity",
          "name": "",
          "type": "tuple"
        }
      ],
      "stateMutability": "view",
      "type": "function",
      "constant": true
    },
    {
      "inputs": [],
      "name": "getCharityList",
      "outputs": [
        {
          "internalType": "address[]",
          "name": "",
          "type": "address[]"
        }
      ],
      "stateMutability": "view",
      "type": "function",
      "constant": true
    },
    {
      "inputs": [
        {
          "internalType": "uint256",
          "name": "fundNum",
          "type": "uint256"
        }
      ],
      "name": "getFund",
      "outputs": [
        {
          "components": [
            {
              "internalType": "address",
              "name": "owner",
              "type": "address"
            },
            {
              "internalType": "string",
              "name": "title",
              "type": "string"
            },
            {
              "internalType": "string",
              "name": "description",
              "type": "string"
            },
            {
              "internalType": "uint256",
              "name": "start",
              "type": "uint256"
            },
            {
              "internalType": "uint256",
              "name": "deadline",
              "type": "uint256"
            },
            {
              "internalType": "uint256",
              "name": "goal",
              "type": "uint256"
            },
            {
              "internalType": "uint256",
              "name": "balance",
              "type": "uint256"
            },
            {
              "internalType": "string",
              "name": "imageURI",
              "type": "string"
            },
            {
              "internalType": "bool",
              "name": "claimed",
              "type": "bool"
            }
          ],
          "internalType": "struct Charities.Fund",
          "name": "",
          "type": "tuple"
        }
      ],
      "stateMutability": "view",
      "type": "function",
      "constant": true
    },
    {
      "inputs": [],
      "name": "getFundList",
      "outputs": [
        {
          "components": [
            {
              "internalType": "address",
              "name": "owner",
              "type": "address"
            },
            {
              "internalType": "string",
              "name": "title",
              "type": "string"
            },
            {
              "internalType": "string",
              "name": "description",
              "type": "string"
            },
            {
              "internalType": "uint256",
              "name": "start",
              "type": "uint256"
            },
            {
              "internalType": "uint256",
              "name": "deadline",
              "type": "uint256"
            },
            {
              "internalType": "uint256",
              "name": "goal",
              "type": "uint256"
            },
            {
              "internalType": "uint256",
              "name": "balance",
              "type": "uint256"
            },
            {
              "internalType": "string",
              "name": "imageURI",
              "type": "string"
            },
            {
              "internalType": "bool",
              "name": "claimed",
              "type": "bool"
            }
          ],
          "internalType": "struct Charities.Fund[]",
          "name": "",
          "type": "tuple[]"
        }
      ],
      "stateMutability": "view",
      "type": "function",
      "constant": true
    },
    {
      "inputs": [
        {
          "internalType": "address",
          "name": "beneficiary",
          "type": "address"
        },
        {
          "internalType": "uint256",
          "name": "fundNum",
          "type": "uint256"
        }
      ],
      "name": "getAmountDonatedToFund",
      "outputs": [
        {
          "internalType": "uint256",
          "name": "tokens",
          "type": "uint256"
        }
      ],
      "stateMutability": "view",
      "type": "function",
      "constant": true
    },
    {
      "inputs": [
        {
          "internalType": "address",
          "name": "beneficiary",
          "type": "address"
        }
      ],
      "name": "isRegistered",
      "outputs": [
        {
          "internalType": "bool",
          "name": "registered",
          "type": "bool"
        }
      ],
      "stateMutability": "view",
      "type": "function",
      "constant": true
    },
    {
      "inputs": [
        {
          "internalType": "address",
          "name": "beneficiary",
          "type": "address"
        }
      ],
      "name": "getTokensRecieved",
      "outputs": [
        {
          "internalType": "uint256",
          "name": "tokens",
          "type": "uint256"
        }
      ],
      "stateMutability": "view",
      "type": "function",
      "constant": true
    }
  ],
  "bytecode": "0x60806040523480156200001157600080fd5b50604080518082018252600981526813919514995dd85c9960ba1b60208083019182528351808501909452600384526252455760e81b9084015281519192916200005e91600091620000e5565b50805162000074906001906020840190620000e5565b5050600d80546001600160a01b0319163317905550604051620000979062000174565b604051809103906000f080158015620000b4573d6000803e3d6000fd5b50600c80546001600160a01b0319166001600160a01b03929092169190911790556000600f819055600955620001d6565b828054620000f39062000199565b90600052602060002090601f01602090048101928262000117576000855562000162565b82601f106200013257805160ff191683800117855562000162565b8280016001018555821562000162579182015b828111156200016257825182559160200191906001019062000145565b506200017092915062000182565b5090565b610b2580620049e683390190565b5b8082111562000170576000815560010162000183565b600181811c90821680620001ae57607f821691505b60208210811415620001d057634e487b7160e01b600052602260045260246000fd5b50919050565b61480080620001e66000396000f3fe6080604052600436106101f85760003560e01c806301ffc9a71461020157806306fdde0314610236578063081812fc14610258578063095ea7b3146102855780630b262d02146102a557806310fe9ae8146102da5780631bf230cd146102f857806323b872dd14610325578063278ecde11461034557806327d2fb8914610365578063291c73c3146103855780632b5ed9d8146103b6578063379607f5146103fd57806342842e0e1461041d5780634961a7b21461043d57806352c8df641461046c5780635b897c94146104995780636352211e146104b95780636ba4194a146104d957806370a08231146104fb57806371a016431461051b57806376867eae1461053d578063807b91a91461055357806382183fb01461057357806382b2e257146105a0578063893d20e8146105b55780638d2303cb146105d35780638ef06f731461061657806395d89b411461064e578063a22cb46514610663578063a6f2ae3a14610683578063b88d4fde1461068b578063c3c5a547146106ab578063c87b56dd146106cb578063d082e381146106eb578063d4b5d60314610701578063e4849b3214610721578063e60028bd14610741578063e7a2843114610761578063e985e9c514610781578063f3fef3a3146107a1578063fc0c546a146107c1578063fde327be146107e1578063fe5c873a146107f457005b366101ff57005b005b34801561020d57600080fd5b5061022161021c366004613aa7565b610814565b60405190151581526020015b60405180910390f35b34801561024257600080fd5b5061024b610866565b60405161022d9190613b23565b34801561026457600080fd5b50610278610273366004613b36565b6108f8565b60405161022d9190613b4f565b34801561029157600080fd5b506101ff6102a0366004613b7f565b610985565b3480156102b157600080fd5b506102c56102c0366004613b36565b610a96565b60405161022d99989796959493929190613ba9565b3480156102e657600080fd5b50600c546001600160a01b0316610278565b34801561030457600080fd5b50610318610313366004613c28565b610c95565b60405161022d9190613c43565b34801561033157600080fd5b506101ff610340366004613c81565b610d90565b34801561035157600080fd5b506101ff610360366004613b36565b610dc1565b34801561037157600080fd5b50610278610380366004613b36565b610f41565b34801561039157600080fd5b506103a56103a0366004613b7f565b610f6b565b60405161022d959493929190613cbd565b3480156103c257600080fd5b506103ef6103d1366004613c28565b6001600160a01b031660009081526007602052604090206002015490565b60405190815260200161022d565b34801561040957600080fd5b506101ff610418366004613b36565b611156565b34801561042957600080fd5b506101ff610438366004613c81565b611345565b34801561044957600080fd5b5061045d610458366004613c28565b611360565b60405161022d93929190613d0f565b34801561047857600080fd5b5061048c610487366004613b36565b61140f565b60405161022d9190613de0565b3480156104a557600080fd5b506101ff6104b4366004613b7f565b61168b565b3480156104c557600080fd5b506102786104d4366004613b36565b61189b565b3480156104e557600080fd5b506104ee611912565b60405161022d9190613df3565b34801561050757600080fd5b506103ef610516366004613c28565b611973565b34801561052757600080fd5b506105306119fa565b60405161022d9190613e40565b34801561054957600080fd5b506103ef60095481565b34801561055f57600080fd5b506101ff61056e366004613f4d565b611c60565b34801561057f57600080fd5b5061059361058e366004613c28565b611e27565b60405161022d9190613ff0565b3480156105ac57600080fd5b506103ef612066565b3480156105c157600080fd5b50600d546001600160a01b0316610278565b3480156105df57600080fd5b506103ef6105ee366004613b7f565b6001600160a01b03919091166000908152600660209081526040808320938352929052205490565b34801561062257600080fd5b506103ef610631366004613b7f565b600660209081526000928352604080842090915290825290205481565b34801561065a57600080fd5b5061024b6120ec565b34801561066f57600080fd5b506101ff61067e3660046140b5565b6120fb565b6101ff612106565b34801561069757600080fd5b506101ff6106a63660046140ec565b61223c565b3480156106b757600080fd5b506102216106c6366004613c28565b612274565b3480156106d757600080fd5b5061024b6106e6366004613b36565b612292565b3480156106f757600080fd5b506103ef600f5481565b34801561070d57600080fd5b506103a561071c366004613b36565b612514565b34801561072d57600080fd5b506101ff61073c366004613b36565b61252f565b34801561074d57600080fd5b506101ff61075c366004614167565b6126e5565b34801561076d57600080fd5b506102c561077c366004613b36565b6127dc565b34801561078d57600080fd5b5061022161079c3660046141b4565b612808565b3480156107ad57600080fd5b506101ff6107bc366004613b7f565b612836565b3480156107cd57600080fd5b50600c54610278906001600160a01b031681565b6101ff6107ef3660046141e7565b612ab8565b34801561080057600080fd5b506101ff61080f366004613b36565b612ce0565b60006001600160e01b031982166380ac58cd60e01b148061084557506001600160e01b03198216635b5e139f60e01b145b8061086057506301ffc9a760e01b6001600160e01b03198316145b92915050565b60606000805461087590614209565b80601f01602080910402602001604051908101604052809291908181526020018280546108a190614209565b80156108ee5780601f106108c3576101008083540402835291602001916108ee565b820191906000526020600020905b8154815290600101906020018083116108d157829003601f168201915b5050505050905090565b6000610903826130bf565b6109695760405162461bcd60e51b815260206004820152602c60248201527f4552433732313a20617070726f76656420717565727920666f72206e6f6e657860448201526b34b9ba32b73a103a37b5b2b760a11b60648201526084015b60405180910390fd5b506000908152600460205260409020546001600160a01b031690565b60006109908261189b565b9050806001600160a01b0316836001600160a01b031614156109fe5760405162461bcd60e51b815260206004820152602160248201527f4552433732313a20617070726f76616c20746f2063757272656e74206f776e656044820152603960f91b6064820152608401610960565b336001600160a01b0382161480610a1a5750610a1a8133612808565b610a875760405162461bcd60e51b815260206004820152603860248201527f4552433732313a20617070726f76652063616c6c6572206973206e6f74206f776044820152771b995c881b9bdc88185c1c1c9bdd995908199bdc88185b1b60421b6064820152608401610960565b610a9183836130dc565b505050565b600a8181548110610aa657600080fd5b6000918252602090912060099091020180546001820180546001600160a01b03909216935090610ad590614209565b80601f0160208091040260200160405190810160405280929190818152602001828054610b0190614209565b8015610b4e5780601f10610b2357610100808354040283529160200191610b4e565b820191906000526020600020905b815481529060010190602001808311610b3157829003601f168201915b505050505090806002018054610b6390614209565b80601f0160208091040260200160405190810160405280929190818152602001828054610b8f90614209565b8015610bdc5780601f10610bb157610100808354040283529160200191610bdc565b820191906000526020600020905b815481529060010190602001808311610bbf57829003601f168201915b505050505090806003015490806004015490806005015490806006015490806007018054610c0990614209565b80601f0160208091040260200160405190810160405280929190818152602001828054610c3590614209565b8015610c825780601f10610c5757610100808354040283529160200191610c82565b820191906000526020600020905b815481529060010190602001808311610c6557829003601f168201915b5050506008909301549192505060ff1689565b610cbb604051806060016040528060001515815260200160608152602001600081525090565b6001600160a01b038216600090815260076020908152604091829020825160608101909352805460ff16151583526001810180549192840191610cfd90614209565b80601f0160208091040260200160405190810160405280929190818152602001828054610d2990614209565b8015610d765780601f10610d4b57610100808354040283529160200191610d76565b820191906000526020600020905b815481529060010190602001808311610d5957829003601f168201915b505050505081526020016002820154815250509050919050565b610d9a338261314a565b610db65760405162461bcd60e51b815260040161096090614244565b610a91838383613214565b6000818152600b60205260409020600581015460069091015410610e1b5760405162461bcd60e51b815260206004820152601160248201527011dbd85b081a185cc81899595b881b595d607a1b6044820152606401610960565b6000818152600b60205260409020600401544211610e4b5760405162461bcd60e51b815260040161096090614295565b33600090815260066020908152604080832084845290915290205480610e835760405162461bcd60e51b8152600401610960906142cc565b3360009081526006602081815260408084208685528252808420849055600b9091528220018054839290610eb8908490614323565b9091555050600c5460405163a9059cbb60e01b81526001600160a01b039091169063a9059cbb90610eef903390859060040161433a565b602060405180830381600087803b158015610f0957600080fd5b505af1158015610f1d573d6000803e3d6000fd5b505050506040513d601f19601f82011682018060405250810190610a919190614353565b60088181548110610f5157600080fd5b6000918252602090912001546001600160a01b0316905081565b60106020528160005260406000208181548110610f8757600080fd5b906000526020600020906005020160009150915050806000018054610fab90614209565b80601f0160208091040260200160405190810160405280929190818152602001828054610fd790614209565b80156110245780601f10610ff957610100808354040283529160200191611024565b820191906000526020600020905b81548152906001019060200180831161100757829003601f168201915b50505050509080600101805461103990614209565b80601f016020809104026020016040519081016040528092919081815260200182805461106590614209565b80156110b25780601f10611087576101008083540402835291602001916110b2565b820191906000526020600020905b81548152906001019060200180831161109557829003601f168201915b5050505050908060020154908060030180546110cd90614209565b80601f01602080910402602001604051908101604052809291908181526020018280546110f990614209565b80156111465780601f1061111b57610100808354040283529160200191611146565b820191906000526020600020905b81548152906001019060200180831161112957829003601f168201915b5050505050908060040154905085565b6000818152600b602052604090206008015460ff16156111c35760405162461bcd60e51b815260206004820152602260248201527f596f75206861766520616c726561647920636c61696d6564207468652066756e604482015261647360f01b6064820152608401610960565b6000818152600b60205260409020600581015460069091015410156111fa5760405162461bcd60e51b815260040161096090614370565b6000818152600b6020526040902060040154421161122a5760405162461bcd60e51b815260040161096090614295565b6000818152600b60205260409020546001600160a01b0316331461129b5760405162461bcd60e51b815260206004820152602260248201527f596f7520617265206e6f7420746865206f776e6572206f6620746869732066756044820152611b9960f21b6064820152608401610960565b6000818152600b60205260409081902060088101805460ff19166001179055600c54600690910154915163a9059cbb60e01b81526001600160a01b039091169163a9059cbb916112ef91339160040161433a565b602060405180830381600087803b15801561130957600080fd5b505af115801561131d573d6000803e3d6000fd5b505050506040513d601f19601f820116820180604052508101906113419190614353565b5050565b610a918383836040518060200160405280600081525061223c565b6007602052600090815260409020805460018201805460ff909216929161138690614209565b80601f01602080910402602001604051908101604052809291908181526020018280546113b290614209565b80156113ff5780601f106113d4576101008083540402835291602001916113ff565b820191906000526020600020905b8154815290600101906020018083116113e257829003601f168201915b5050505050908060020154905083565b61146960405180610120016040528060006001600160a01b03168152602001606081526020016060815260200160008152602001600081526020016000815260200160008152602001606081526020016000151581525090565b6000828152600b60209081526040918290208251610120810190935280546001600160a01b0316835260018101805491928401916114a690614209565b80601f01602080910402602001604051908101604052809291908181526020018280546114d290614209565b801561151f5780601f106114f45761010080835404028352916020019161151f565b820191906000526020600020905b81548152906001019060200180831161150257829003601f168201915b5050505050815260200160028201805461153890614209565b80601f016020809104026020016040519081016040528092919081815260200182805461156490614209565b80156115b15780601f10611586576101008083540402835291602001916115b1565b820191906000526020600020905b81548152906001019060200180831161159457829003601f168201915b50505050508152602001600382015481526020016004820154815260200160058201548152602001600682015481526020016007820180546115f290614209565b80601f016020809104026020016040519081016040528092919081815260200182805461161e90614209565b801561166b5780601f106116405761010080835404028352916020019161166b565b820191906000526020600020905b81548152906001019060200180831161164e57829003601f168201915b50505091835250506008919091015460ff16151560209091015292915050565b600081116116e95760405162461bcd60e51b815260206004820152602560248201527f596f75206e65656420746f20646f6e617465206d6f7265207468616e203020746044820152646f6b656e7360d81b6064820152608401610960565b6116f282612274565b61173a5760405162461bcd60e51b815260206004820152601960248201527810da185c9a5d1e481a5cc81b9bdd081c9959da5cdd195c9959603a1b6044820152606401610960565b600c54604051636eb1769f60e11b81526000916001600160a01b03169063dd62ed3e9061176d903390309060040161439f565b60206040518083038186803b15801561178557600080fd5b505afa158015611799573d6000803e3d6000fd5b505050506040513d601f19601f820116820180604052508101906117bd91906143b9565b9050818110156117df5760405162461bcd60e51b8152600401610960906143d2565b600c546040516323b872dd60e01b81526001600160a01b03909116906323b872dd906118139033903090879060040161441b565b602060405180830381600087803b15801561182d57600080fd5b505af1158015611841573d6000803e3d6000fd5b505050506040513d601f19601f820116820180604052508101906118659190614353565b506001600160a01b0383166000908152600760205260408120600201805484929061189190849061443f565b9091555050505050565b6000818152600260205260408120546001600160a01b0316806108605760405162461bcd60e51b815260206004820152602960248201527f4552433732313a206f776e657220717565727920666f72206e6f6e657869737460448201526832b73a103a37b5b2b760b91b6064820152608401610960565b606060088054806020026020016040519081016040528092919081815260200182805480156108ee57602002820191906000526020600020905b81546001600160a01b0316815260019091019060200180831161194c575050505050905090565b60006001600160a01b0382166119de5760405162461bcd60e51b815260206004820152602a60248201527f4552433732313a2062616c616e636520717565727920666f7220746865207a65604482015269726f206164647265737360b01b6064820152608401610960565b506001600160a01b031660009081526003602052604090205490565b6060600a805480602002602001604051908101604052809291908181526020016000905b82821015611c575760008481526020908190206040805161012081019091526009850290910180546001600160a01b031682526001810180549293919291840191611a6890614209565b80601f0160208091040260200160405190810160405280929190818152602001828054611a9490614209565b8015611ae15780601f10611ab657610100808354040283529160200191611ae1565b820191906000526020600020905b815481529060010190602001808311611ac457829003601f168201915b50505050508152602001600282018054611afa90614209565b80601f0160208091040260200160405190810160405280929190818152602001828054611b2690614209565b8015611b735780601f10611b4857610100808354040283529160200191611b73565b820191906000526020600020905b815481529060010190602001808311611b5657829003601f168201915b5050505050815260200160038201548152602001600482015481526020016005820154815260200160068201548152602001600782018054611bb490614209565b80601f0160208091040260200160405190810160405280929190818152602001828054611be090614209565b8015611c2d5780601f10611c0257610100808354040283529160200191611c2d565b820191906000526020600020905b815481529060010190602001808311611c1057829003601f168201915b50505091835250506008919091015460ff1615156020918201529082526001929092019101611a1e565b50505050905090565b6009546000908152600b6020908152604090912080546001600160a01b0319163317815587519091611c999160018401918a019061397a565b508551611caf906002830190602089019061397a565b50600381018590556004810184905560058101839055600060068201558151611ce1906007830190602085019061397a565b5060088101805460ff19169055600a805460018181018355600092909252825460099091027fc65a7bb8d6351c1cf70c95a316cc6a92839c986682d98bc35f958f4883f9d2a8810180546001600160a01b0319166001600160a01b03909316929092178255918301805484937fc65a7bb8d6351c1cf70c95a316cc6a92839c986682d98bc35f958f4883f9d2a9019190611d7a90614209565b611d859291906139fe565b506002820181600201908054611d9a90614209565b611da59291906139fe565b50600382015481600301556004820154816004015560058201548160050155600682015481600601556007820181600701908054611de290614209565b611ded9291906139fe565b506008918201549101805460ff191660ff909216151591909117905560098054906000611e1983614457565b919050555050505050505050565b6001600160a01b0381166000908152601060209081526040808320805482518185028101850190935280835260609492939192909184015b8282101561205b57838290600052602060002090600502016040518060a0016040529081600082018054611e9290614209565b80601f0160208091040260200160405190810160405280929190818152602001828054611ebe90614209565b8015611f0b5780601f10611ee057610100808354040283529160200191611f0b565b820191906000526020600020905b815481529060010190602001808311611eee57829003601f168201915b50505050508152602001600182018054611f2490614209565b80601f0160208091040260200160405190810160405280929190818152602001828054611f5090614209565b8015611f9d5780601f10611f7257610100808354040283529160200191611f9d565b820191906000526020600020905b815481529060010190602001808311611f8057829003601f168201915b5050505050815260200160028201548152602001600382018054611fc090614209565b80601f0160208091040260200160405190810160405280929190818152602001828054611fec90614209565b80156120395780601f1061200e57610100808354040283529160200191612039565b820191906000526020600020905b81548152906001019060200180831161201c57829003601f168201915b5050505050815260200160048201548152505081526020019060010190611e5f565b505050509050919050565b600c546040516370a0823160e01b81526000916001600160a01b0316906370a0823190612097903390600401613b4f565b60206040518083038186803b1580156120af57600080fd5b505afa1580156120c3573d6000803e3d6000fd5b505050506040513d601f19601f820116820180604052508101906120e791906143b9565b905090565b60606001805461087590614209565b61134133838361339e565b600061211434612710614472565b600c546040516370a0823160e01b81529192506000916001600160a01b03909116906370a082319061214a903090600401613b4f565b60206040518083038186803b15801561216257600080fd5b505afa158015612176573d6000803e3d6000fd5b505050506040513d601f19601f8201168201806040525081019061219a91906143b9565b9050600082116121ea5760405162461bcd60e51b815260206004820152601b60248201527a2cb7ba903732b2b2103a379039b2b7321039b7b6b29032ba3432b960291b6044820152606401610960565b8082111561220a5760405162461bcd60e51b815260040161096090614491565b600c5460405163a9059cbb60e01b81526001600160a01b039091169063a9059cbb90610eef903390869060040161433a565b612246338361314a565b6122625760405162461bcd60e51b815260040161096090614244565b61226e84848484613469565b50505050565b6001600160a01b031660009081526007602052604090205460ff1690565b60606000600e60008481526020019081526020016000206040518060a00160405290816000820180546122c490614209565b80601f01602080910402602001604051908101604052809291908181526020018280546122f090614209565b801561233d5780601f106123125761010080835404028352916020019161233d565b820191906000526020600020905b81548152906001019060200180831161232057829003601f168201915b5050505050815260200160018201805461235690614209565b80601f016020809104026020016040519081016040528092919081815260200182805461238290614209565b80156123cf5780601f106123a4576101008083540402835291602001916123cf565b820191906000526020600020905b8154815290600101906020018083116123b257829003601f168201915b50505050508152602001600282015481526020016003820180546123f290614209565b80601f016020809104026020016040519081016040528092919081815260200182805461241e90614209565b801561246b5780601f106124405761010080835404028352916020019161246b565b820191906000526020600020905b81548152906001019060200180831161244e57829003601f168201915b5050505050815260200160048201548152505090506000816060015160405160200161249791906144c6565b60405160208183030381529060405290506124ec82600001516124b98661349c565b84602001518486604001516040516020016124d89594939291906144f5565b604051602081830303815290604052613599565b6040516020016124fc9190614625565b60405160208183030381529060405292505050919050565b600e60205260009081526040902080548190610fab90614209565b6000811161257b5760405162461bcd60e51b8152602060048201526019602482015278596f75206e65656420746f2073656c6c203020746f6b656e7360381b6044820152606401610960565b600c54604051636eb1769f60e11b81526000916001600160a01b03169063dd62ed3e906125ae903390309060040161439f565b60206040518083038186803b1580156125c657600080fd5b505afa1580156125da573d6000803e3d6000fd5b505050506040513d601f19601f820116820180604052508101906125fe91906143b9565b9050818110156126205760405162461bcd60e51b8152600401610960906143d2565b600c546040516323b872dd60e01b81526001600160a01b03909116906323b872dd906126549033903090879060040161441b565b602060405180830381600087803b15801561266e57600080fd5b505af1158015612682573d6000803e3d6000fd5b505050506040513d601f19601f820116820180604052508101906126a69190614353565b5060006126b561271084614680565b604051909150339082156108fc029083906000818181858888f1935050505015801561226e573d6000803e3d6000fd5b336001600160a01b03831614806127065750600d546001600160a01b031633145b61270f57600080fd5b61271882612274565b156127625760405162461bcd60e51b815260206004820152601a602482015279165bdd48185c9948185b1c9958591e481c9959da5cdd195c995960321b6044820152606401610960565b6008805460018082019092557ff3f7a9fe364faab93b216da50a3214154f22a0a2b415b23a84c8169e8b636ee30180546001600160a01b0319166001600160a01b0385169081179091556000908152600760209081526040909120805460ff1916831781558351909261226e92908401919085019061397a565b600b60205260009081526040902080546001820180546001600160a01b039092169291610ad590614209565b6001600160a01b03918216600090815260056020908152604080832093909416825291909152205460ff1690565b336001600160a01b0383161461289a5760405162461bcd60e51b8152602060048201526024808201527f596f7520617265206e6f7420746865206f776e6572206f6620746865206368616044820152637269747960e01b6064820152608401610960565b600c546040516370a0823160e01b81526000916001600160a01b0316906370a08231906128cb903090600401613b4f565b60206040518083038186803b1580156128e357600080fd5b505afa1580156128f7573d6000803e3d6000fd5b505050506040513d601f19601f8201168201806040525081019061291b91906143b9565b90506000821161297d5760405162461bcd60e51b815260206004820152602760248201527f596f75206e65656420746f207472616e73666572206d6f7265207468616e203060448201526620746f6b656e7360c81b6064820152608401610960565b6001600160a01b0383166000908152600760205260409020600201548211156129e85760405162461bcd60e51b815260206004820181905260248201527f596f7520646f206e6f7420686176652074686174206d616e7920746f6b656e736044820152606401610960565b80821115612a085760405162461bcd60e51b815260040161096090614491565b600c5460405163a9059cbb60e01b81526001600160a01b039091169063a9059cbb90612a3a903390869060040161433a565b602060405180830381600087803b158015612a5457600080fd5b505af1158015612a68573d6000803e3d6000fd5b505050506040513d601f19601f82011682018060405250810190612a8c9190614353565b506001600160a01b03831660009081526007602052604081206002018054849290611891908490614323565b6000828152600b60205260409020600301544211612b0e5760405162461bcd60e51b8152602060048201526013602482015272119d5b99081a185cdb89dd081cdd185c9d1959606a1b6044820152606401610960565b6000828152600b60205260409020600401544210612b645760405162461bcd60e51b8152602060048201526013602482015272111958591b1a5b99481a185cc81c185cdcd959606a1b6044820152606401610960565b600c54604051636eb1769f60e11b81526000916001600160a01b03169063dd62ed3e90612b97903390309060040161439f565b60206040518083038186803b158015612baf57600080fd5b505afa158015612bc3573d6000803e3d6000fd5b505050506040513d601f19601f82011682018060405250810190612be791906143b9565b905081811015612c095760405162461bcd60e51b8152600401610960906143d2565b600c546040516323b872dd60e01b81526001600160a01b03909116906323b872dd90612c3d9033903090879060040161441b565b602060405180830381600087803b158015612c5757600080fd5b505af1158015612c6b573d6000803e3d6000fd5b505050506040513d601f19601f82011682018060405250810190612c8f9190614353565b506000838152600b602052604081206006018054849290612cb190849061443f565b90915550503360009081526006602090815260408083208684529091528120805484929061189190849061443f565b6000818152600b6020526040902060058101546006909101541015612d175760405162461bcd60e51b815260040161096090614370565b6000818152600b60205260409020600401544211612d475760405162461bcd60e51b815260040161096090614295565b33600090815260066020908152604080832084845290915290205480612d7f5760405162461bcd60e51b8152600401610960906142cc565b3360009081526006602090815260408083208584528252808320839055600b90915281206001018054612db190614209565b80601f0160208091040260200160405190810160405280929190818152602001828054612ddd90614209565b8015612e2a5780601f10612dff57610100808354040283529160200191612e2a565b820191906000526020600020905b815481529060010190602001808311612e0d57829003601f168201915b505050505090506000600b60008581526020019081526020016000206002018054612e5490614209565b80601f0160208091040260200160405190810160405280929190818152602001828054612e8090614209565b8015612ecd5780601f10612ea257610100808354040283529160200191612ecd565b820191906000526020600020905b815481529060010190602001808311612eb057829003601f168201915b505050505090506000600b60008681526020019081526020016000206007018054612ef790614209565b80601f0160208091040260200160405190810160405280929190818152602001828054612f2390614209565b8015612f705780601f10612f4557610100808354040283529160200191612f70565b820191906000526020600020905b815481529060010190602001808311612f5357829003601f168201915b505050505090506000600f549050612f883382613700565b6000818152600e602090815260409091208551612fa79287019061397a565b506000818152600e602090815260409091208451612fcd9260019092019186019061397a565b506000818152600e60209081526040909120600281018790558351612ffa9260039092019185019061397a565b506000818152600e602081815260408084206004810186905533855260108352908420928252825460018101845592845292208254600590920201908190839061304390614209565b61304e9291906139fe565b50600182018160010190805461306390614209565b61306e9291906139fe565b5060028201548160020155600382018160030190805461308d90614209565b6130989291906139fe565b50600491820154910155600f80549060006130b283614457565b9190505550505050505050565b6000908152600260205260409020546001600160a01b0316151590565b600081815260046020526040902080546001600160a01b0319166001600160a01b03841690811790915581906131118261189b565b6001600160a01b03167f8c5be1e5ebec7d5bd14f71427d1e84f3dd0314c0f7b2291e5b200ac8c7c3b92560405160405180910390a45050565b6000613155826130bf565b6131b65760405162461bcd60e51b815260206004820152602c60248201527f4552433732313a206f70657261746f7220717565727920666f72206e6f6e657860448201526b34b9ba32b73a103a37b5b2b760a11b6064820152608401610960565b60006131c18361189b565b9050806001600160a01b0316846001600160a01b031614806131fc5750836001600160a01b03166131f1846108f8565b6001600160a01b0316145b8061320c575061320c8185612808565b949350505050565b826001600160a01b03166132278261189b565b6001600160a01b03161461328b5760405162461bcd60e51b815260206004820152602560248201527f4552433732313a207472616e736665722066726f6d20696e636f72726563742060448201526437bbb732b960d91b6064820152608401610960565b6001600160a01b0382166132ed5760405162461bcd60e51b8152602060048201526024808201527f4552433732313a207472616e7366657220746f20746865207a65726f206164646044820152637265737360e01b6064820152608401610960565b6132f86000826130dc565b6001600160a01b0383166000908152600360205260408120805460019290613321908490614323565b90915550506001600160a01b038216600090815260036020526040812080546001929061334f90849061443f565b909155505060008181526002602052604080822080546001600160a01b0319166001600160a01b0386811691821790925591518493918716916000805160206147ab83398151915291a4505050565b816001600160a01b0316836001600160a01b031614156133fc5760405162461bcd60e51b815260206004820152601960248201527822a9219b99189d1030b8383937bb32903a379031b0b63632b960391b6044820152606401610960565b6001600160a01b03838116600081815260056020908152604080832094871680845294825291829020805460ff191686151590811790915591519182527f17307eab39ab6107e8899845ad3d59bd9653f200f220920489ca2b5937696c31910160405180910390a3505050565b613474848484613214565b6134808484848461371a565b61226e5760405162461bcd60e51b815260040161096090614694565b6060816134c05750506040805180820190915260018152600360fc1b602082015290565b8160005b81156134ea57806134d481614457565b91506134e39050600a83614680565b91506134c4565b6000816001600160401b0381111561350457613504613ea2565b6040519080825280601f01601f19166020018201604052801561352e576020820181803683370190505b5090505b841561320c57613543600183614323565b9150613550600a866146e6565b61355b90603061443f565b60f81b818381518110613570576135706146fa565b60200101906001600160f81b031916908160001a905350613592600a86614680565b9450613532565b60608151600014156135b957505060408051602081019091526000815290565b600060405180606001604052806040815260200161476b60409139905060006003845160026135e8919061443f565b6135f29190614680565b6135fd906004614472565b9050600061360c82602061443f565b6001600160401b0381111561362357613623613ea2565b6040519080825280601f01601f19166020018201604052801561364d576020820181803683370190505b509050818152600183018586518101602084015b818310156136bb5760039283018051603f601282901c811687015160f890811b8552600c83901c8216880151811b6001860152600683901c8216880151811b60028601529116860151901b93820193909352600401613661565b6003895106600181146136d557600281146136e6576136f2565b613d3d60f01b6001198301526136f2565b603d60f81b6000198301525b509398975050505050505050565b611341828260405180602001604052806000815250613827565b60006001600160a01b0384163b1561381c57604051630a85bd0160e11b81526001600160a01b0385169063150b7a029061375e903390899088908890600401614710565b602060405180830381600087803b15801561377857600080fd5b505af19250505080156137a8575060408051601f3d908101601f191682019092526137a59181019061474d565b60015b613802573d8080156137d6576040519150601f19603f3d011682016040523d82523d6000602084013e6137db565b606091505b5080516137fa5760405162461bcd60e51b815260040161096090614694565b805181602001fd5b6001600160e01b031916630a85bd0160e11b14905061320c565b506001949350505050565b613831838361385a565b61383e600084848461371a565b610a915760405162461bcd60e51b815260040161096090614694565b6001600160a01b0382166138b05760405162461bcd60e51b815260206004820181905260248201527f4552433732313a206d696e7420746f20746865207a65726f20616464726573736044820152606401610960565b6138b9816130bf565b156139055760405162461bcd60e51b815260206004820152601c60248201527b115490cdcc8c4e881d1bdad95b88185b1c9958591e481b5a5b9d195960221b6044820152606401610960565b6001600160a01b038216600090815260036020526040812080546001929061392e90849061443f565b909155505060008181526002602052604080822080546001600160a01b0319166001600160a01b03861690811790915590518392906000805160206147ab833981519152908290a45050565b82805461398690614209565b90600052602060002090601f0160209004810192826139a857600085556139ee565b82601f106139c157805160ff19168380011785556139ee565b828001600101855582156139ee579182015b828111156139ee5782518255916020019190600101906139d3565b506139fa929150613a79565b5090565b828054613a0a90614209565b90600052602060002090601f016020900481019282613a2c57600085556139ee565b82601f10613a3d57805485556139ee565b828001600101855582156139ee57600052602060002091601f016020900482015b828111156139ee578254825591600101919060010190613a5e565b5b808211156139fa5760008155600101613a7a565b6001600160e01b031981168114613aa457600080fd5b50565b600060208284031215613ab957600080fd5b8135613ac481613a8e565b9392505050565b60005b83811015613ae6578181015183820152602001613ace565b8381111561226e5750506000910152565b60008151808452613b0f816020860160208601613acb565b601f01601f19169290920160200192915050565b602081526000613ac46020830184613af7565b600060208284031215613b4857600080fd5b5035919050565b6001600160a01b0391909116815260200190565b80356001600160a01b0381168114613b7a57600080fd5b919050565b60008060408385031215613b9257600080fd5b613b9b83613b63565b946020939093013593505050565b6001600160a01b038a16815261012060208201819052600090613bce8382018c613af7565b90508281036040840152613be2818b613af7565b90508860608401528760808401528660a08401528560c084015282810360e0840152613c0e8186613af7565b9150508215156101008301529a9950505050505050505050565b600060208284031215613c3a57600080fd5b613ac482613b63565b602081528151151560208201526000602083015160606040840152613c6b6080840182613af7565b9050604084015160608401528091505092915050565b600080600060608486031215613c9657600080fd5b613c9f84613b63565b9250613cad60208501613b63565b9150604084013590509250925092565b60a081526000613cd060a0830188613af7565b8281036020840152613ce28188613af7565b90508560408401528281036060840152613cfc8186613af7565b9150508260808301529695505050505050565b8315158152606060208201526000613d2a6060830185613af7565b9050826040830152949350505050565b80516001600160a01b0316825260006101206020830151816020860152613d6382860182613af7565b91505060408301518482036040860152613d7d8282613af7565b915050606083015160608501526080830151608085015260a083015160a085015260c083015160c085015260e083015184820360e0860152613dbf8282613af7565b91505061010080840151613dd68287018215159052565b5090949350505050565b602081526000613ac46020830184613d3a565b6020808252825182820181905260009190848201906040850190845b81811015613e345783516001600160a01b031683529284019291840191600101613e0f565b50909695505050505050565b6000602080830181845280855180835260408601915060408160051b870101925083870160005b82811015613e9557603f19888603018452613e83858351613d3a565b94509285019290850190600101613e67565b5092979650505050505050565b634e487b7160e01b600052604160045260246000fd5b60006001600160401b0380841115613ed257613ed2613ea2565b604051601f8501601f19908116603f01168101908282118183101715613efa57613efa613ea2565b81604052809350858152868686011115613f1357600080fd5b858560208301376000602087830101525050509392505050565b600082601f830112613f3e57600080fd5b613ac483833560208501613eb8565b60008060008060008060c08789031215613f6657600080fd5b86356001600160401b0380821115613f7d57600080fd5b613f898a838b01613f2d565b97506020890135915080821115613f9f57600080fd5b613fab8a838b01613f2d565b965060408901359550606089013594506080890135935060a0890135915080821115613fd657600080fd5b50613fe389828a01613f2d565b9150509295509295509295565b60006020808301818452808551808352604092508286019150828160051b87010184880160005b8381101561409957603f19898403018552815160a0815181865261403d82870182613af7565b915050888201518582038a8701526140558282613af7565b9150508782015188860152606080830151868303828801526140778382613af7565b6080948501519790940196909652505094870194925090860190600101614017565b509098975050505050505050565b8015158114613aa457600080fd5b600080604083850312156140c857600080fd5b6140d183613b63565b915060208301356140e1816140a7565b809150509250929050565b6000806000806080858703121561410257600080fd5b61410b85613b63565b935061411960208601613b63565b92506040850135915060608501356001600160401b0381111561413b57600080fd5b8501601f8101871361414c57600080fd5b61415b87823560208401613eb8565b91505092959194509250565b6000806040838503121561417a57600080fd5b61418383613b63565b915060208301356001600160401b0381111561419e57600080fd5b6141aa85828601613f2d565b9150509250929050565b600080604083850312156141c757600080fd5b6141d083613b63565b91506141de60208401613b63565b90509250929050565b600080604083850312156141fa57600080fd5b50508035926020909101359150565b600181811c9082168061421d57607f821691505b6020821081141561423e57634e487b7160e01b600052602260045260246000fd5b50919050565b60208082526031908201527f4552433732313a207472616e736665722063616c6c6572206973206e6f74206f6040820152701ddb995c881b9bdc88185c1c1c9bdd9959607a1b606082015260800190565b6020808252601d908201527f446561646c696e6520686173206e6f74206265656e2072656163686564000000604082015260600190565b60208082526021908201527f596f752068617665206e6f7420646f6e6174656420746f20746869732066756e6040820152601960fa1b606082015260800190565b634e487b7160e01b600052601160045260246000fd5b6000828210156143355761433561430d565b500390565b6001600160a01b03929092168252602082015260400190565b60006020828403121561436557600080fd5b8151613ac4816140a7565b60208082526015908201527411dbd85b081a185cc81b9bdd081899595b881b595d605a1b604082015260600190565b6001600160a01b0392831681529116602082015260400190565b6000602082840312156143cb57600080fd5b5051919050565b60208082526029908201527f4e6f7420617070726f76656420746f207472616e736665722074686973206d616040820152686e7920746f6b656e7360b81b606082015260800190565b6001600160a01b039384168152919092166020820152604081019190915260600190565b600082198211156144525761445261430d565b500190565b600060001982141561446b5761446b61430d565b5060010190565b600081600019048311821515161561448c5761448c61430d565b500290565b6020808252818101527f4e6f7420656e6f75676820746f6b656e7320696e207468652072657365727665604082015260600190565b66697066733a2f2f60c81b8152600082516144e8816007850160208701613acb565b9190910160070192915050565b693d913730b6b2911d101160b11b8152855160009061451b81600a850160208b01613acb565b7201016969021b430b934ba3c9027232a10119d1606d1b600a91840191820152865161454e81601d840160208b01613acb565b72111610113232b9b1b934b83a34b7b7111d101160691b601d92909101918201528551614582816030840160208a01613acb565b6c1116101134b6b0b3b2911d101160991b6030929091019182015284516145b081603d840160208901613acb565b7f222c202261747472696275746573223a205b7b2274726169745f74797065223a9101603d8101919091527b0101120b6b7bab73a102237b730ba32b2111610113b30b63ab2911d160251b605d82015260798101849052647d5d7d227d60d81b6099820152609e810198975050505050505050565b7f646174613a6170706c69636174696f6e2f6a736f6e3b6261736536342c00000081526000825161465d81601d850160208701613acb565b91909101601d0192915050565b634e487b7160e01b600052601260045260246000fd5b60008261468f5761468f61466a565b500490565b60208082526032908201527f4552433732313a207472616e7366657220746f206e6f6e20455243373231526560408201527131b2b4bb32b91034b6b83632b6b2b73a32b960711b606082015260800190565b6000826146f5576146f561466a565b500690565b634e487b7160e01b600052603260045260246000fd5b6001600160a01b038581168252841660208201526040810183905260806060820181905260009061474390830184613af7565b9695505050505050565b60006020828403121561475f57600080fd5b8151613ac481613a8e56fe4142434445464748494a4b4c4d4e4f505152535455565758595a6162636465666768696a6b6c6d6e6f707172737475767778797a303132333435363738392b2fddf252ad1be2c89b69c2b068fc378daa952ba7f163c4a11628f55a4df523b3efa2646970667358221220484026d5504052de94e5799d061f29a50dc4b2429a989353ad8467823634395b64736f6c6343000809003360c0604052600d60808190526c21b430b934ba3c902a37b5b2b760991b60a090815262000030916000919062000150565b506040805180820190915260038082526210d21560ea1b60209092019182526200005d9160019162000150565b506002805460ff1916601217905560006003553480156200007d57600080fd5b50620000b3336200009060025460ff1690565b6200009d90600a6200030b565b620000ad90633b9aca0062000323565b620000b9565b6200039d565b80600354620000c9919062000345565b6003556001600160a01b038216600090815260046020526040902054620000f290829062000345565b6001600160a01b0383166000818152600460205260408082209390935591519091907fddf252ad1be2c89b69c2b068fc378daa952ba7f163c4a11628f55a4df523b3ef90620001449085815260200190565b60405180910390a35050565b8280546200015e9062000360565b90600052602060002090601f016020900481019282620001825760008555620001cd565b82601f106200019d57805160ff1916838001178555620001cd565b82800160010185558215620001cd579182015b82811115620001cd578251825591602001919060010190620001b0565b50620001db929150620001df565b5090565b5b80821115620001db5760008155600101620001e0565b634e487b7160e01b600052601160045260246000fd5b600181815b808511156200024d578160001904821115620002315762000231620001f6565b808516156200023f57918102915b93841c939080029062000211565b509250929050565b600082620002665750600162000305565b81620002755750600062000305565b81600181146200028e57600281146200029957620002b9565b600191505062000305565b60ff841115620002ad57620002ad620001f6565b50506001821b62000305565b5060208310610133831016604e8410600b8410161715620002de575081810a62000305565b620002ea83836200020c565b8060001904821115620003015762000301620001f6565b0290505b92915050565b60006200031c60ff84168362000255565b9392505050565b6000816000190483118215151615620003405762000340620001f6565b500290565b600082198211156200035b576200035b620001f6565b500190565b600181811c908216806200037557607f821691505b602082108114156200039757634e487b7160e01b600052602260045260246000fd5b50919050565b61077880620003ad6000396000f3fe608060405234801561001057600080fd5b50600436106100af5760003560e01c806306fdde03146100b4578063095ea7b3146100d257806318160ddd146100f557806323b872dd14610107578063313ce5671461011a57806332424aa3146101335780633eaaf86b1461014057806370a082311461014957806395d89b4114610172578063a9059cbb1461017a578063b09f12661461018d578063d28d885214610195578063dd62ed3e1461019d575b600080fd5b6100bc6101d6565b6040516100c99190610576565b60405180910390f35b6100e56100e03660046105e7565b610268565b60405190151581526020016100c9565b6003545b6040519081526020016100c9565b6100e5610115366004610611565b6102e2565b60025460ff165b60405160ff90911681526020016100c9565b6002546101219060ff1681565b6100f960035481565b6100f961015736600461064d565b6001600160a01b031660009081526004602052604090205490565b6100bc610429565b6100e56101883660046105e7565b610438565b6100bc6104db565b6100bc610569565b6100f96101ab36600461066f565b6001600160a01b03918216600090815260056020908152604080832093909416825291909152205490565b6060600080546101e5906106a2565b80601f0160208091040260200160405190810160405280929190818152602001828054610211906106a2565b801561025e5780601f106102335761010080835404028352916020019161025e565b820191906000526020600020905b81548152906001019060200180831161024157829003601f168201915b5050505050905090565b60006001600160a01b03831661027d57600080fd5b3360008181526005602090815260408083206001600160a01b03881680855290835292819020869055518581529192917f8c5be1e5ebec7d5bd14f71427d1e84f3dd0314c0f7b2291e5b200ac8c7c3b92591015b60405180910390a350600192915050565b6001600160a01b03831660009081526004602052604081205482111561030757600080fd5b6001600160a01b038416600090815260056020908152604080832033845290915290205482111561033757600080fd5b6001600160a01b03841660009081526004602052604090205461035b9083906106f3565b6001600160a01b03808616600090815260046020526040808220939093559085168152205461038b90839061070a565b6001600160a01b0380851660009081526004602090815260408083209490945591871681526005825282812033825290915220546103ca9083906106f3565b6001600160a01b0380861660009081526005602090815260408083203380855292529182902093909355519085169190600080516020610723833981519152906104179086815260200190565b60405180910390a35060019392505050565b6060600180546101e5906106a2565b3360009081526004602052604081205482111561045457600080fd5b3360009081526004602052604090205461046f9083906106f3565b33600090815260046020526040808220929092556001600160a01b0385168152205461049c90839061070a565b6001600160a01b038416600081815260046020526040908190209290925590513390600080516020610723833981519152906102d19086815260200190565b600180546104e8906106a2565b80601f0160208091040260200160405190810160405280929190818152602001828054610514906106a2565b80156105615780601f1061053657610100808354040283529160200191610561565b820191906000526020600020905b81548152906001019060200180831161054457829003601f168201915b505050505081565b600080546104e8906106a2565b600060208083528351808285015260005b818110156105a357858101830151858201604001528201610587565b818111156105b5576000604083870101525b50601f01601f1916929092016040019392505050565b80356001600160a01b03811681146105e257600080fd5b919050565b600080604083850312156105fa57600080fd5b610603836105cb565b946020939093013593505050565b60008060006060848603121561062657600080fd5b61062f846105cb565b925061063d602085016105cb565b9150604084013590509250925092565b60006020828403121561065f57600080fd5b610668826105cb565b9392505050565b6000806040838503121561068257600080fd5b61068b836105cb565b9150610699602084016105cb565b90509250929050565b600181811c908216806106b657607f821691505b602082108114156106d757634e487b7160e01b600052602260045260246000fd5b50919050565b634e487b7160e01b600052601160045260246000fd5b600082821015610705576107056106dd565b500390565b6000821982111561071d5761071d6106dd565b50019056feddf252ad1be2c89b69c2b068fc378daa952ba7f163c4a11628f55a4df523b3efa26469706673582212208be800297b130b76d5d23183c4c027ec29465c96a29cd645ac4dc8a2fc9f8a0664736f6c63430008090033",
  "immutableReferences": {},
  "source": "// SPDX-License-Identifier: MIT\r\npragma solidity ^0.8.9;\r\n\r\nimport \"./Token.sol\";\r\nimport \"@openzeppelin/contracts/token/ERC721/ERC721.sol\";\r\nimport \"@openzeppelin/contracts/utils/Strings.sol\";\r\nimport 'base64-sol/base64.sol';\r\n\r\ncontract Charities is ERC721 {\r\n\r\n    struct Charity {\r\n        // whether the charity has registered\r\n        bool isRegistered;\r\n        // name of the charity\r\n        string name;\r\n        // total amount donated to this charity\r\n        uint amount;\r\n    }\r\n\r\n    struct Fund {\r\n        address owner;\r\n        string title;\r\n        string description;\r\n        uint start;\r\n        uint deadline;\r\n        uint goal;\r\n        uint balance;\r\n        string imageURI;\r\n        bool claimed;\r\n    }\r\n\r\n    struct NFTFund {\r\n        string title;\r\n        string description;\r\n        uint amountDonated;\r\n        string imageURI;\r\n        uint id;\r\n    }\r\n\r\n    mapping (address => mapping(uint => uint)) public fundsDonated;\r\n    \r\n    mapping (address => Charity) public allCharities;\r\n    // list of registered charities\r\n    address[] public charityList;\r\n\r\n    uint public fundCounter;\r\n\r\n    Fund[] public fundList;\r\n\r\n    mapping (uint => Fund) public allFunds;\r\n\r\n    IToken public token;\r\n\r\n    address private _owner;\r\n\r\n\r\n\r\n    // NFTs tokenId => that NFTs attributes.\r\n    mapping(uint256 => NFTFund) public nftAttributes;\r\n\r\n    uint public tokenCounter;\r\n\r\n    // track each users NFTs\r\n    mapping(address => NFTFund[]) public userNFTs;\r\n\r\n    constructor() ERC721(\"NFTReward\", \"REW\") {\r\n        _owner = msg.sender;\r\n        token = new Token();\r\n        tokenCounter = 0;\r\n        fundCounter = 0;\r\n    }\r\n\r\n    // NFT functions\r\n\r\n    // returns the tokenURI for the given tokenId\r\n\r\n    function tokenURI(uint _tokenId) public view override returns (string memory) {\r\n        NFTFund memory fund = nftAttributes[_tokenId];\r\n        bytes memory image = abi.encodePacked(\"ipfs://\", fund.imageURI);\r\n\r\n        return string(\r\n            abi.encodePacked(\r\n                \"data:application/json;base64,\",\r\n                Base64.encode(\r\n                    bytes(\r\n                        abi.encodePacked(\r\n                            '{\"name\": \"',\r\n                            fund.title,\r\n                            ' -- Charity NFT #: ',\r\n                            Strings.toString(_tokenId),\r\n                            '\", \"description\": \"',\r\n                            fund.description,\r\n                            '\", \"image\": \"',\r\n                            image,\r\n                            '\", \"attributes\": [{\"trait_type\": \"Amount Donated\", \"value\": ',fund.amountDonated,'}]}'\r\n                            '\"}'\r\n                        )\r\n                    )\r\n                )\r\n            )\r\n        );\r\n    }\r\n\r\n    // Get all NFTs owned by a user\r\n    function getNFTs(address owner) public view returns (NFTFund[] memory) {\r\n        return userNFTs[owner];\r\n    }\r\n\r\n    // Fundraise\r\n\r\n    function createFund(string memory title, string memory description, uint start, uint end, uint goal, string memory imageURI) public {\r\n        Fund storage f = allFunds[fundCounter];\r\n        f.owner = msg.sender;\r\n        f.title = title;\r\n        f.description = description;\r\n        f.start = start;\r\n        f.deadline = end;\r\n        f.goal = goal;\r\n        f.balance = 0;\r\n        f.imageURI = imageURI;\r\n        f.claimed = false;\r\n        fundList.push(f);\r\n        fundCounter++;\r\n    }\r\n\r\n    function pledge(uint fundNum, uint numOfTokens) public payable {\r\n        require(block.timestamp > allFunds[fundNum].start, \"Fund hasn't started\");\r\n        require(block.timestamp < allFunds[fundNum].deadline, \"Deadline has passed\");\r\n        uint allowance = token.allowance(msg.sender, address(this));\r\n        require(allowance >= numOfTokens, \"Not approved to transfer this many tokens\");\r\n        token.transferFrom(msg.sender, address(this), numOfTokens);\r\n\r\n        allFunds[fundNum].balance += numOfTokens;\r\n        fundsDonated[msg.sender][fundNum] += numOfTokens;\r\n    }\r\n\r\n    function refund(uint fundNum) public {\r\n        require(allFunds[fundNum].balance < allFunds[fundNum].goal, \"Goal has been met\");\r\n        require(block.timestamp > allFunds[fundNum].deadline, \"Deadline has not been reached\");\r\n        uint amount = fundsDonated[msg.sender][fundNum];\r\n        require(amount > 0, \"You have not donated to this fund\");\r\n        fundsDonated[msg.sender][fundNum] = 0;\r\n        allFunds[fundNum].balance -= amount;\r\n        token.transfer(msg.sender, amount);\r\n    }\r\n\r\n    function claim(uint fundNum) public {\r\n        require(allFunds[fundNum].claimed == false, \"You have already claimed the funds\");\r\n        require(allFunds[fundNum].balance >= allFunds[fundNum].goal, \"Goal has not been met\");\r\n        require(block.timestamp > allFunds[fundNum].deadline, \"Deadline has not been reached\");\r\n        require(allFunds[fundNum].owner == msg.sender, \"You are not the owner of this fund\");\r\n        allFunds[fundNum].claimed = true;\r\n        token.transfer(msg.sender, allFunds[fundNum].balance);\r\n    }\r\n\r\n    function claimNFT(uint fundNum) public {\r\n        require(allFunds[fundNum].balance >= allFunds[fundNum].goal, \"Goal has not been met\");\r\n        require(block.timestamp > allFunds[fundNum].deadline, \"Deadline has not been reached\");\r\n        uint amount = fundsDonated[msg.sender][fundNum];\r\n        require(amount > 0, \"You have not donated to this fund\");\r\n        fundsDonated[msg.sender][fundNum] = 0;\r\n        string memory _title = allFunds[fundNum].title;\r\n        string memory _description = allFunds[fundNum].description;\r\n        string memory _imageURI = allFunds[fundNum].imageURI;\r\n        \r\n        uint newItemId = tokenCounter;\r\n\t\t_safeMint(msg.sender, newItemId);\r\n        \r\n        nftAttributes[newItemId].title = _title;\r\n        nftAttributes[newItemId].description = _description;\r\n        nftAttributes[newItemId].amountDonated = amount;\r\n        nftAttributes[newItemId].imageURI = _imageURI;\r\n        nftAttributes[newItemId].id = newItemId;\r\n\r\n        userNFTs[msg.sender].push(nftAttributes[newItemId]);\r\n\r\n        tokenCounter++;\r\n    }\r\n\r\n    // Token Shop\r\n\r\n    // user can buy tokens\r\n    function buy() payable public {\r\n        // currently 10000 token == 1 ether\r\n        uint amountTobuy = msg.value * 10000;\r\n        uint contractBalance = token.balanceOf(address(this));\r\n        require(amountTobuy > 0, \"You need to send some ether\");\r\n        require(amountTobuy <= contractBalance, \"Not enough tokens in the reserve\");\r\n        token.transfer(msg.sender, amountTobuy);\r\n    }\r\n\r\n    function sell(uint numOfTokens) public {\r\n        require(numOfTokens > 0, \"You need to sell 0 tokens\");\r\n        uint allowance = token.allowance(msg.sender, address(this));\r\n        require(allowance >= numOfTokens, \"Not approved to transfer this many tokens\");\r\n        \r\n        token.transferFrom(msg.sender, address(this), numOfTokens);\r\n        uint amountToSell = numOfTokens / 10000;\r\n        payable(msg.sender).transfer(amountToSell);\r\n    }\r\n\r\n    // register a new charity\r\n    function newCharity(address beneficiary, string memory name) public {\r\n        require(msg.sender == beneficiary || msg.sender == _owner);\r\n        require(!isRegistered(beneficiary), \"You are already registered\");\r\n        charityList.push(beneficiary);\r\n        \r\n        Charity storage c = allCharities[beneficiary];\r\n        c.isRegistered = true;\r\n        c.name = name;\r\n    }\r\n\r\n    // the sender can send a donation to a charity\r\n    function donateToCharity(address beneficiary, uint numOfTokens) public {\r\n        require(numOfTokens > 0, \"You need to donate more than 0 tokens\");\r\n        require(isRegistered(beneficiary), \"Charity is not registered\");\r\n        uint allowance = token.allowance(msg.sender, address(this));\r\n        require(allowance >= numOfTokens, \"Not approved to transfer this many tokens\");\r\n        token.transferFrom(msg.sender, address(this), numOfTokens);\r\n\r\n        allCharities[beneficiary].amount += numOfTokens;\r\n    }\r\n\r\n    // withdraw/send a given number of tokens to a charity\r\n    function withdraw(address beneficiary, uint numOfTokens) public {\r\n        require(msg.sender == beneficiary, \"You are not the owner of the charity\");\r\n\r\n        uint contractBalance = token.balanceOf(address(this));\r\n        require(numOfTokens > 0, \"You need to transfer more than 0 tokens\");\r\n        require(numOfTokens <= allCharities[beneficiary].amount, \"You do not have that many tokens\");\r\n        require(numOfTokens <= contractBalance, \"Not enough tokens in the reserve\");\r\n        token.transfer(msg.sender, numOfTokens);\r\n\r\n        allCharities[beneficiary].amount -= numOfTokens;\r\n    }\r\n\r\n    function getTokenBalance() public view returns (uint) {\r\n        return token.balanceOf(msg.sender);\r\n    }\r\n\r\n    function getTokenAddress() public view returns (address) {\r\n        return address(token);\r\n    }\r\n\r\n    function getOwner() public view returns (address) {\r\n        return _owner;\r\n    }\r\n\r\n    function getCharity(address beneficiary) public view returns (Charity memory) {\r\n        return allCharities[beneficiary];\r\n    }\r\n\r\n    function getCharityList() public view returns (address[] memory) {\r\n        return charityList;\r\n    }\r\n\r\n    function getFund(uint fundNum) public view returns (Fund memory) {\r\n        return allFunds[fundNum];\r\n    }\r\n\r\n    function getFundList() public view returns (Fund[] memory) {\r\n        return fundList;\r\n    }\r\n\r\n    function getAmountDonatedToFund(address beneficiary, uint fundNum) public view returns (uint tokens) {\r\n        return fundsDonated[beneficiary][fundNum];\r\n    }\r\n\r\n    function isRegistered(address beneficiary) public view returns (bool registered) {\r\n        return allCharities[beneficiary].isRegistered;\r\n    }\r\n\r\n    function getTokensRecieved(address beneficiary) public view returns (uint tokens) {\r\n        return allCharities[beneficiary].amount;\r\n    }\r\n    \r\n    // Function to receive Ether. msg.data must be empty\r\n    receive() external payable {}\r\n\r\n    // Fallback function is called when msg.data is not empty\r\n    fallback() external payable {}\r\n}",
  "sourcePath": "C:\\DEV\\Ethereum\\chairity\\contracts\\Charities.sol",
  "compiler": {
    "name": "solc",
    "version": "0.8.9+commit.e5eed63a.Emscripten.clang"
  },
  "schemaVersion": "3.4.3",
  "updatedAt": "2022-03-31T12:23:20.745Z",
  "networkType": "ethereum",
  "devdoc": {
    "kind": "dev",
    "methods": {
      "approve(address,uint256)": {
        "details": "See {IERC721-approve}."
      },
      "balanceOf(address)": {
        "details": "See {IERC721-balanceOf}."
      },
      "getApproved(uint256)": {
        "details": "See {IERC721-getApproved}."
      },
      "isApprovedForAll(address,address)": {
        "details": "See {IERC721-isApprovedForAll}."
      },
      "name()": {
        "details": "See {IERC721Metadata-name}."
      },
      "ownerOf(uint256)": {
        "details": "See {IERC721-ownerOf}."
      },
      "safeTransferFrom(address,address,uint256)": {
        "details": "See {IERC721-safeTransferFrom}."
      },
      "safeTransferFrom(address,address,uint256,bytes)": {
        "details": "See {IERC721-safeTransferFrom}."
      },
      "setApprovalForAll(address,bool)": {
        "details": "See {IERC721-setApprovalForAll}."
      },
      "supportsInterface(bytes4)": {
        "details": "See {IERC165-supportsInterface}."
      },
      "symbol()": {
        "details": "See {IERC721Metadata-symbol}."
      },
      "transferFrom(address,address,uint256)": {
        "details": "See {IERC721-transferFrom}."
      }
    },
    "version": 1
  },
  "userdoc": {
    "kind": "user",
    "methods": {},
    "version": 1
  }
}