{
  "contractName": "Charities",
  "abi": [
    {
      "inputs": [],
      "stateMutability": "nonpayable",
      "type": "constructor"
    },
    {
      "stateMutability": "payable",
      "type": "fallback",
      "payable": true
    },
    {
      "inputs": [
        {
          "internalType": "address",
          "name": "",
          "type": "address"
        }
      ],
      "name": "allCharities",
      "outputs": [
        {
          "internalType": "bool",
          "name": "isRegistered",
          "type": "bool"
        },
        {
          "internalType": "string",
          "name": "name",
          "type": "string"
        },
        {
          "internalType": "uint256",
          "name": "amount",
          "type": "uint256"
        }
      ],
      "stateMutability": "view",
      "type": "function",
      "constant": true
    },
    {
      "inputs": [
        {
          "internalType": "uint256",
          "name": "",
          "type": "uint256"
        }
      ],
      "name": "allFunds",
      "outputs": [
        {
          "internalType": "address",
          "name": "owner",
          "type": "address"
        },
        {
          "internalType": "string",
          "name": "title",
          "type": "string"
        },
        {
          "internalType": "string",
          "name": "description",
          "type": "string"
        },
        {
          "internalType": "uint256",
          "name": "start",
          "type": "uint256"
        },
        {
          "internalType": "uint256",
          "name": "deadline",
          "type": "uint256"
        },
        {
          "internalType": "uint256",
          "name": "goal",
          "type": "uint256"
        },
        {
          "internalType": "uint256",
          "name": "balance",
          "type": "uint256"
        },
        {
          "internalType": "string",
          "name": "imageURI",
          "type": "string"
        }
      ],
      "stateMutability": "view",
      "type": "function",
      "constant": true
    },
    {
      "inputs": [
        {
          "internalType": "uint256",
          "name": "",
          "type": "uint256"
        }
      ],
      "name": "charityList",
      "outputs": [
        {
          "internalType": "address",
          "name": "",
          "type": "address"
        }
      ],
      "stateMutability": "view",
      "type": "function",
      "constant": true
    },
    {
      "inputs": [],
      "name": "fundCounter",
      "outputs": [
        {
          "internalType": "uint256",
          "name": "",
          "type": "uint256"
        }
      ],
      "stateMutability": "view",
      "type": "function",
      "constant": true
    },
    {
      "inputs": [
        {
          "internalType": "uint256",
          "name": "",
          "type": "uint256"
        }
      ],
      "name": "fundList",
      "outputs": [
        {
          "internalType": "address",
          "name": "owner",
          "type": "address"
        },
        {
          "internalType": "string",
          "name": "title",
          "type": "string"
        },
        {
          "internalType": "string",
          "name": "description",
          "type": "string"
        },
        {
          "internalType": "uint256",
          "name": "start",
          "type": "uint256"
        },
        {
          "internalType": "uint256",
          "name": "deadline",
          "type": "uint256"
        },
        {
          "internalType": "uint256",
          "name": "goal",
          "type": "uint256"
        },
        {
          "internalType": "uint256",
          "name": "balance",
          "type": "uint256"
        },
        {
          "internalType": "string",
          "name": "imageURI",
          "type": "string"
        }
      ],
      "stateMutability": "view",
      "type": "function",
      "constant": true
    },
    {
      "inputs": [
        {
          "internalType": "address",
          "name": "",
          "type": "address"
        },
        {
          "internalType": "uint256",
          "name": "",
          "type": "uint256"
        }
      ],
      "name": "fundsDonated",
      "outputs": [
        {
          "internalType": "uint256",
          "name": "",
          "type": "uint256"
        }
      ],
      "stateMutability": "view",
      "type": "function",
      "constant": true
    },
    {
      "inputs": [],
      "name": "token",
      "outputs": [
        {
          "internalType": "contract IToken",
          "name": "",
          "type": "address"
        }
      ],
      "stateMutability": "view",
      "type": "function",
      "constant": true
    },
    {
      "stateMutability": "payable",
      "type": "receive",
      "payable": true
    },
    {
      "inputs": [
        {
          "internalType": "string",
          "name": "title",
          "type": "string"
        },
        {
          "internalType": "string",
          "name": "description",
          "type": "string"
        },
        {
          "internalType": "uint256",
          "name": "start",
          "type": "uint256"
        },
        {
          "internalType": "uint256",
          "name": "end",
          "type": "uint256"
        },
        {
          "internalType": "uint256",
          "name": "goal",
          "type": "uint256"
        },
        {
          "internalType": "string",
          "name": "imageURI",
          "type": "string"
        }
      ],
      "name": "createFund",
      "outputs": [],
      "stateMutability": "nonpayable",
      "type": "function"
    },
    {
      "inputs": [
        {
          "internalType": "uint256",
          "name": "fundNum",
          "type": "uint256"
        },
        {
          "internalType": "uint256",
          "name": "numOfTokens",
          "type": "uint256"
        }
      ],
      "name": "pledge",
      "outputs": [],
      "stateMutability": "payable",
      "type": "function",
      "payable": true
    },
    {
      "inputs": [
        {
          "internalType": "uint256",
          "name": "fundNum",
          "type": "uint256"
        }
      ],
      "name": "refund",
      "outputs": [],
      "stateMutability": "nonpayable",
      "type": "function"
    },
    {
      "inputs": [
        {
          "internalType": "uint256",
          "name": "fundNum",
          "type": "uint256"
        }
      ],
      "name": "claim",
      "outputs": [],
      "stateMutability": "nonpayable",
      "type": "function"
    },
    {
      "inputs": [],
      "name": "buy",
      "outputs": [],
      "stateMutability": "payable",
      "type": "function",
      "payable": true
    },
    {
      "inputs": [
        {
          "internalType": "uint256",
          "name": "numOfTokens",
          "type": "uint256"
        }
      ],
      "name": "sell",
      "outputs": [],
      "stateMutability": "nonpayable",
      "type": "function"
    },
    {
      "inputs": [
        {
          "internalType": "address",
          "name": "beneficiary",
          "type": "address"
        },
        {
          "internalType": "string",
          "name": "name",
          "type": "string"
        }
      ],
      "name": "newCharity",
      "outputs": [],
      "stateMutability": "nonpayable",
      "type": "function"
    },
    {
      "inputs": [
        {
          "internalType": "address",
          "name": "beneficiary",
          "type": "address"
        },
        {
          "internalType": "uint256",
          "name": "numOfTokens",
          "type": "uint256"
        }
      ],
      "name": "donateToCharity",
      "outputs": [],
      "stateMutability": "nonpayable",
      "type": "function"
    },
    {
      "inputs": [
        {
          "internalType": "address",
          "name": "beneficiary",
          "type": "address"
        },
        {
          "internalType": "uint256",
          "name": "numOfTokens",
          "type": "uint256"
        }
      ],
      "name": "withdraw",
      "outputs": [],
      "stateMutability": "nonpayable",
      "type": "function"
    },
    {
      "inputs": [],
      "name": "getTokenBalance",
      "outputs": [
        {
          "internalType": "uint256",
          "name": "",
          "type": "uint256"
        }
      ],
      "stateMutability": "view",
      "type": "function",
      "constant": true
    },
    {
      "inputs": [],
      "name": "getTokenAddress",
      "outputs": [
        {
          "internalType": "address",
          "name": "",
          "type": "address"
        }
      ],
      "stateMutability": "view",
      "type": "function",
      "constant": true
    },
    {
      "inputs": [],
      "name": "getOwner",
      "outputs": [
        {
          "internalType": "address",
          "name": "",
          "type": "address"
        }
      ],
      "stateMutability": "view",
      "type": "function",
      "constant": true
    },
    {
      "inputs": [
        {
          "internalType": "address",
          "name": "beneficiary",
          "type": "address"
        }
      ],
      "name": "getCharity",
      "outputs": [
        {
          "components": [
            {
              "internalType": "bool",
              "name": "isRegistered",
              "type": "bool"
            },
            {
              "internalType": "string",
              "name": "name",
              "type": "string"
            },
            {
              "internalType": "uint256",
              "name": "amount",
              "type": "uint256"
            }
          ],
          "internalType": "struct Charities.Charity",
          "name": "",
          "type": "tuple"
        }
      ],
      "stateMutability": "view",
      "type": "function",
      "constant": true
    },
    {
      "inputs": [],
      "name": "getCharityList",
      "outputs": [
        {
          "internalType": "address[]",
          "name": "",
          "type": "address[]"
        }
      ],
      "stateMutability": "view",
      "type": "function",
      "constant": true
    },
    {
      "inputs": [
        {
          "internalType": "uint256",
          "name": "fundNum",
          "type": "uint256"
        }
      ],
      "name": "getFund",
      "outputs": [
        {
          "components": [
            {
              "internalType": "address",
              "name": "owner",
              "type": "address"
            },
            {
              "internalType": "string",
              "name": "title",
              "type": "string"
            },
            {
              "internalType": "string",
              "name": "description",
              "type": "string"
            },
            {
              "internalType": "uint256",
              "name": "start",
              "type": "uint256"
            },
            {
              "internalType": "uint256",
              "name": "deadline",
              "type": "uint256"
            },
            {
              "internalType": "uint256",
              "name": "goal",
              "type": "uint256"
            },
            {
              "internalType": "uint256",
              "name": "balance",
              "type": "uint256"
            },
            {
              "internalType": "string",
              "name": "imageURI",
              "type": "string"
            }
          ],
          "internalType": "struct Charities.Fund",
          "name": "",
          "type": "tuple"
        }
      ],
      "stateMutability": "view",
      "type": "function",
      "constant": true
    },
    {
      "inputs": [],
      "name": "getFundList",
      "outputs": [
        {
          "components": [
            {
              "internalType": "address",
              "name": "owner",
              "type": "address"
            },
            {
              "internalType": "string",
              "name": "title",
              "type": "string"
            },
            {
              "internalType": "string",
              "name": "description",
              "type": "string"
            },
            {
              "internalType": "uint256",
              "name": "start",
              "type": "uint256"
            },
            {
              "internalType": "uint256",
              "name": "deadline",
              "type": "uint256"
            },
            {
              "internalType": "uint256",
              "name": "goal",
              "type": "uint256"
            },
            {
              "internalType": "uint256",
              "name": "balance",
              "type": "uint256"
            },
            {
              "internalType": "string",
              "name": "imageURI",
              "type": "string"
            }
          ],
          "internalType": "struct Charities.Fund[]",
          "name": "",
          "type": "tuple[]"
        }
      ],
      "stateMutability": "view",
      "type": "function",
      "constant": true
    },
    {
      "inputs": [
        {
          "internalType": "address",
          "name": "beneficiary",
          "type": "address"
        }
      ],
      "name": "isRegistered",
      "outputs": [
        {
          "internalType": "bool",
          "name": "registered",
          "type": "bool"
        }
      ],
      "stateMutability": "view",
      "type": "function",
      "constant": true
    },
    {
      "inputs": [
        {
          "internalType": "address",
          "name": "beneficiary",
          "type": "address"
        }
      ],
      "name": "getTokensRecieved",
      "outputs": [
        {
          "internalType": "uint256",
          "name": "tokens",
          "type": "uint256"
        }
      ],
      "stateMutability": "view",
      "type": "function",
      "constant": true
    }
  ],
  "bytecode": "0x60806040523480156200001157600080fd5b5033600760006101000a81548173ffffffffffffffffffffffffffffffffffffffff021916908373ffffffffffffffffffffffffffffffffffffffff1602179055506040516200006190620000cd565b604051809103906000f0801580156200007e573d6000803e3d6000fd5b50600660006101000a81548173ffffffffffffffffffffffffffffffffffffffff021916908373ffffffffffffffffffffffffffffffffffffffff1602179055506000600381905550620000db565b6116e280620041bb83390190565b6140d080620000eb6000396000f3fe60806040526004361061016a5760003560e01c806376867eae116100d1578063c3c5a5471161008a578063e7a2843111610064578063e7a2843114610566578063f3fef3a3146105aa578063fc0c546a146105d3578063fde327be146105fe57610171565b8063c3c5a547146104d7578063e4849b3214610514578063e60028bd1461053d57610171565b806376867eae146103e6578063807b91a91461041157806382b2e2571461043a578063893d20e8146104655780638ef06f7314610490578063a6f2ae3a146104cd57610171565b8063379607f511610123578063379607f5146102c25780634961a7b2146102eb57806352c8df641461032a5780635b897c94146103675780636ba4194a1461039057806371a01643146103bb57610171565b80630b262d021461017357806310fe9ae8146101b75780631bf230cd146101e2578063278ecde11461021f57806327d2fb89146102485780632b5ed9d81461028557610171565b3661017157005b005b34801561017f57600080fd5b5061019a60048036038101906101959190612b32565b61061a565b6040516101ae989796959493929190612c48565b60405180910390f35b3480156101c357600080fd5b506101cc61082a565b6040516101d99190612cdb565b60405180910390f35b3480156101ee57600080fd5b5061020960048036038101906102049190612d22565b610854565b6040516102169190612e13565b60405180910390f35b34801561022b57600080fd5b5061024660048036038101906102419190612b32565b610964565b005b34801561025457600080fd5b5061026f600480360381019061026a9190612b32565b610bd2565b60405161027c9190612cdb565b60405180910390f35b34801561029157600080fd5b506102ac60048036038101906102a79190612d22565b610c11565b6040516102b99190612e35565b60405180910390f35b3480156102ce57600080fd5b506102e960048036038101906102e49190612b32565b610c5d565b005b3480156102f757600080fd5b50610312600480360381019061030d9190612d22565b610eb6565b60405161032193929190612e5f565b60405180910390f35b34801561033657600080fd5b50610351600480360381019061034c9190612b32565b610f75565b60405161035e9190612f6a565b60405180910390f35b34801561037357600080fd5b5061038e60048036038101906103899190612f8c565b6111d7565b005b34801561039c57600080fd5b506103a5611466565b6040516103b2919061307b565b60405180910390f35b3480156103c757600080fd5b506103d06114f4565b6040516103dd919061321d565b60405180910390f35b3480156103f257600080fd5b506103fb611788565b6040516104089190612e35565b60405180910390f35b34801561041d57600080fd5b5061043860048036038101906104339190613374565b61178e565b005b34801561044657600080fd5b5061044f611998565b60405161045c9190612e35565b60405180910390f35b34801561047157600080fd5b5061047a611a4a565b6040516104879190612cdb565b60405180910390f35b34801561049c57600080fd5b506104b760048036038101906104b29190612f8c565b611a74565b6040516104c49190612e35565b60405180910390f35b6104d5611a99565b005b3480156104e357600080fd5b506104fe60048036038101906104f99190612d22565b611c94565b60405161050b9190613455565b60405180910390f35b34801561052057600080fd5b5061053b60048036038101906105369190612b32565b611ced565b005b34801561054957600080fd5b50610564600480360381019061055f9190613470565b611f34565b005b34801561057257600080fd5b5061058d60048036038101906105889190612b32565b6120ee565b6040516105a1989796959493929190612c48565b60405180910390f35b3480156105b657600080fd5b506105d160048036038101906105cc9190612f8c565b6122ee565b005b3480156105df57600080fd5b506105e8612624565b6040516105f5919061352b565b60405180910390f35b61061860048036038101906106139190613546565b61264a565b005b6004818154811061062a57600080fd5b90600052602060002090600802016000915090508060000160009054906101000a900473ffffffffffffffffffffffffffffffffffffffff1690806001018054610673906135b5565b80601f016020809104026020016040519081016040528092919081815260200182805461069f906135b5565b80156106ec5780601f106106c1576101008083540402835291602001916106ec565b820191906000526020600020905b8154815290600101906020018083116106cf57829003601f168201915b505050505090806002018054610701906135b5565b80601f016020809104026020016040519081016040528092919081815260200182805461072d906135b5565b801561077a5780601f1061074f5761010080835404028352916020019161077a565b820191906000526020600020905b81548152906001019060200180831161075d57829003601f168201915b5050505050908060030154908060040154908060050154908060060154908060070180546107a7906135b5565b80601f01602080910402602001604051908101604052809291908181526020018280546107d3906135b5565b80156108205780601f106107f557610100808354040283529160200191610820565b820191906000526020600020905b81548152906001019060200180831161080357829003601f168201915b5050505050905088565b6000600660009054906101000a900473ffffffffffffffffffffffffffffffffffffffff16905090565b61085c61293a565b600160008373ffffffffffffffffffffffffffffffffffffffff1673ffffffffffffffffffffffffffffffffffffffff1681526020019081526020016000206040518060600160405290816000820160009054906101000a900460ff161515151581526020016001820180546108d1906135b5565b80601f01602080910402602001604051908101604052809291908181526020018280546108fd906135b5565b801561094a5780601f1061091f5761010080835404028352916020019161094a565b820191906000526020600020905b81548152906001019060200180831161092d57829003601f168201915b505050505081526020016002820154815250509050919050565b60048181548110610978576109776135e7565b5b90600052602060002090600802016005015447106109cb576040517f08c379a00000000000000000000000000000000000000000000000000000000081526004016109c290613662565b60405180910390fd5b600481815481106109df576109de6135e7565b5b9060005260206000209060080201600401544211610a32576040517f08c379a0000000000000000000000000000000000000000000000000000000008152600401610a29906136ce565b60405180910390fd5b60008060003373ffffffffffffffffffffffffffffffffffffffff1673ffffffffffffffffffffffffffffffffffffffff168152602001908152602001600020600083815260200190815260200160002054905060008111610ac9576040517f08c379a0000000000000000000000000000000000000000000000000000000008152600401610ac090613760565b60405180910390fd5b60008060003373ffffffffffffffffffffffffffffffffffffffff1673ffffffffffffffffffffffffffffffffffffffff168152602001908152602001600020600084815260200190815260200160002081905550600660009054906101000a900473ffffffffffffffffffffffffffffffffffffffff1673ffffffffffffffffffffffffffffffffffffffff1663a9059cbb33836040518363ffffffff1660e01b8152600401610b7b929190613780565b602060405180830381600087803b158015610b9557600080fd5b505af1158015610ba9573d6000803e3d6000fd5b505050506040513d601f19601f82011682018060405250810190610bcd91906137d5565b505050565b60028181548110610be257600080fd5b906000526020600020016000915054906101000a900473ffffffffffffffffffffffffffffffffffffffff1681565b6000600160008373ffffffffffffffffffffffffffffffffffffffff1673ffffffffffffffffffffffffffffffffffffffff168152602001908152602001600020600201549050919050565b60048181548110610c7157610c706135e7565b5b9060005260206000209060080201600501544710610cc4576040517f08c379a0000000000000000000000000000000000000000000000000000000008152600401610cbb90613662565b60405180910390fd5b60048181548110610cd857610cd76135e7565b5b9060005260206000209060080201600401544211610d2b576040517f08c379a0000000000000000000000000000000000000000000000000000000008152600401610d22906136ce565b60405180910390fd5b3373ffffffffffffffffffffffffffffffffffffffff1660048281548110610d5657610d556135e7565b5b906000526020600020906008020160000160009054906101000a900473ffffffffffffffffffffffffffffffffffffffff1673ffffffffffffffffffffffffffffffffffffffff1614610dde576040517f08c379a0000000000000000000000000000000000000000000000000000000008152600401610dd590613874565b60405180910390fd5b600660009054906101000a900473ffffffffffffffffffffffffffffffffffffffff1673ffffffffffffffffffffffffffffffffffffffff1663a9059cbb3360048481548110610e3157610e306135e7565b5b9060005260206000209060080201600601546040518363ffffffff1660e01b8152600401610e60929190613780565b602060405180830381600087803b158015610e7a57600080fd5b505af1158015610e8e573d6000803e3d6000fd5b505050506040513d601f19601f82011682018060405250810190610eb291906137d5565b5050565b60016020528060005260406000206000915090508060000160009054906101000a900460ff1690806001018054610eec906135b5565b80601f0160208091040260200160405190810160405280929190818152602001828054610f18906135b5565b8015610f655780601f10610f3a57610100808354040283529160200191610f65565b820191906000526020600020905b815481529060010190602001808311610f4857829003601f168201915b5050505050908060020154905083565b610f7d61295d565b60056000838152602001908152602001600020604051806101000160405290816000820160009054906101000a900473ffffffffffffffffffffffffffffffffffffffff1673ffffffffffffffffffffffffffffffffffffffff1673ffffffffffffffffffffffffffffffffffffffff168152602001600182018054611002906135b5565b80601f016020809104026020016040519081016040528092919081815260200182805461102e906135b5565b801561107b5780601f106110505761010080835404028352916020019161107b565b820191906000526020600020905b81548152906001019060200180831161105e57829003601f168201915b50505050508152602001600282018054611094906135b5565b80601f01602080910402602001604051908101604052809291908181526020018280546110c0906135b5565b801561110d5780601f106110e25761010080835404028352916020019161110d565b820191906000526020600020905b8154815290600101906020018083116110f057829003601f168201915b505050505081526020016003820154815260200160048201548152602001600582015481526020016006820154815260200160078201805461114e906135b5565b80601f016020809104026020016040519081016040528092919081815260200182805461117a906135b5565b80156111c75780601f1061119c576101008083540402835291602001916111c7565b820191906000526020600020905b8154815290600101906020018083116111aa57829003601f168201915b5050505050815250509050919050565b6000811161121a576040517f08c379a000000000000000000000000000000000000000000000000000000000815260040161121190613906565b60405180910390fd5b61122382611c94565b611262576040517f08c379a000000000000000000000000000000000000000000000000000000000815260040161125990613972565b60405180910390fd5b6000600660009054906101000a900473ffffffffffffffffffffffffffffffffffffffff1673ffffffffffffffffffffffffffffffffffffffff1663dd62ed3e33306040518363ffffffff1660e01b81526004016112c1929190613992565b60206040518083038186803b1580156112d957600080fd5b505afa1580156112ed573d6000803e3d6000fd5b505050506040513d601f19601f8201168201806040525081019061131191906139d0565b905081811015611356576040517f08c379a000000000000000000000000000000000000000000000000000000000815260040161134d90613a6f565b60405180910390fd5b600660009054906101000a900473ffffffffffffffffffffffffffffffffffffffff1673ffffffffffffffffffffffffffffffffffffffff166323b872dd3330856040518463ffffffff1660e01b81526004016113b593929190613a8f565b602060405180830381600087803b1580156113cf57600080fd5b505af11580156113e3573d6000803e3d6000fd5b505050506040513d601f19601f8201168201806040525081019061140791906137d5565b5081600160008573ffffffffffffffffffffffffffffffffffffffff1673ffffffffffffffffffffffffffffffffffffffff168152602001908152602001600020600201600082825461145a9190613af5565b92505081905550505050565b606060028054806020026020016040519081016040528092919081815260200182805480156114ea57602002820191906000526020600020905b8160009054906101000a900473ffffffffffffffffffffffffffffffffffffffff1673ffffffffffffffffffffffffffffffffffffffff16815260200190600101908083116114a0575b5050505050905090565b60606004805480602002602001604051908101604052809291908181526020016000905b8282101561177f5783829060005260206000209060080201604051806101000160405290816000820160009054906101000a900473ffffffffffffffffffffffffffffffffffffffff1673ffffffffffffffffffffffffffffffffffffffff1673ffffffffffffffffffffffffffffffffffffffff1681526020016001820180546115a2906135b5565b80601f01602080910402602001604051908101604052809291908181526020018280546115ce906135b5565b801561161b5780601f106115f05761010080835404028352916020019161161b565b820191906000526020600020905b8154815290600101906020018083116115fe57829003601f168201915b50505050508152602001600282018054611634906135b5565b80601f0160208091040260200160405190810160405280929190818152602001828054611660906135b5565b80156116ad5780601f10611682576101008083540402835291602001916116ad565b820191906000526020600020905b81548152906001019060200180831161169057829003601f168201915b50505050508152602001600382015481526020016004820154815260200160058201548152602001600682015481526020016007820180546116ee906135b5565b80601f016020809104026020016040519081016040528092919081815260200182805461171a906135b5565b80156117675780601f1061173c57610100808354040283529160200191611767565b820191906000526020600020905b81548152906001019060200180831161174a57829003601f168201915b50505050508152505081526020019060010190611518565b50505050905090565b60035481565b60006005600060035481526020019081526020016000209050338160000160006101000a81548173ffffffffffffffffffffffffffffffffffffffff021916908373ffffffffffffffffffffffffffffffffffffffff160217905550868160010190805190602001906118029291906129b8565b508581600201908051906020019061181b9291906129b8565b5084816003018190555083816004018190555082816005018190555060008160060181905550818160070190805190602001906118599291906129b8565b5060048190806001815401808255809150506001900390600052602060002090600802016000909190919091506000820160009054906101000a900473ffffffffffffffffffffffffffffffffffffffff168160000160006101000a81548173ffffffffffffffffffffffffffffffffffffffff021916908373ffffffffffffffffffffffffffffffffffffffff1602179055506001820181600101908054611901906135b5565b61190c929190612a3e565b506002820181600201908054611921906135b5565b61192c929190612a3e565b50600382015481600301556004820154816004015560058201548160050155600682015481600601556007820181600701908054611969906135b5565b611974929190612a3e565b5050506003600081548092919061198a90613b4b565b919050555050505050505050565b6000600660009054906101000a900473ffffffffffffffffffffffffffffffffffffffff1673ffffffffffffffffffffffffffffffffffffffff166370a08231336040518263ffffffff1660e01b81526004016119f59190612cdb565b60206040518083038186803b158015611a0d57600080fd5b505afa158015611a21573d6000803e3d6000fd5b505050506040513d601f19601f82011682018060405250810190611a4591906139d0565b905090565b6000600760009054906101000a900473ffffffffffffffffffffffffffffffffffffffff16905090565b6000602052816000526040600020602052806000526040600020600091509150505481565b600061271034611aa99190613b94565b90506000600660009054906101000a900473ffffffffffffffffffffffffffffffffffffffff1673ffffffffffffffffffffffffffffffffffffffff166370a08231306040518263ffffffff1660e01b8152600401611b089190612cdb565b60206040518083038186803b158015611b2057600080fd5b505afa158015611b34573d6000803e3d6000fd5b505050506040513d601f19601f82011682018060405250810190611b5891906139d0565b905060008211611b9d576040517f08c379a0000000000000000000000000000000000000000000000000000000008152600401611b9490613c3a565b60405180910390fd5b80821115611be0576040517f08c379a0000000000000000000000000000000000000000000000000000000008152600401611bd790613ca6565b60405180910390fd5b600660009054906101000a900473ffffffffffffffffffffffffffffffffffffffff1673ffffffffffffffffffffffffffffffffffffffff1663a9059cbb33846040518363ffffffff1660e01b8152600401611c3d929190613780565b602060405180830381600087803b158015611c5757600080fd5b505af1158015611c6b573d6000803e3d6000fd5b505050506040513d601f19601f82011682018060405250810190611c8f91906137d5565b505050565b6000600160008373ffffffffffffffffffffffffffffffffffffffff1673ffffffffffffffffffffffffffffffffffffffff16815260200190815260200160002060000160009054906101000a900460ff169050919050565b60008111611d30576040517f08c379a0000000000000000000000000000000000000000000000000000000008152600401611d2790613d12565b60405180910390fd5b6000600660009054906101000a900473ffffffffffffffffffffffffffffffffffffffff1673ffffffffffffffffffffffffffffffffffffffff1663dd62ed3e33306040518363ffffffff1660e01b8152600401611d8f929190613992565b60206040518083038186803b158015611da757600080fd5b505afa158015611dbb573d6000803e3d6000fd5b505050506040513d601f19601f82011682018060405250810190611ddf91906139d0565b905081811015611e24576040517f08c379a0000000000000000000000000000000000000000000000000000000008152600401611e1b90613a6f565b60405180910390fd5b600660009054906101000a900473ffffffffffffffffffffffffffffffffffffffff1673ffffffffffffffffffffffffffffffffffffffff166323b872dd3330856040518463ffffffff1660e01b8152600401611e8393929190613a8f565b602060405180830381600087803b158015611e9d57600080fd5b505af1158015611eb1573d6000803e3d6000fd5b505050506040513d601f19601f82011682018060405250810190611ed591906137d5565b50600061271083611ee69190613d61565b90503373ffffffffffffffffffffffffffffffffffffffff166108fc829081150290604051600060405180830381858888f19350505050158015611f2e573d6000803e3d6000fd5b50505050565b8173ffffffffffffffffffffffffffffffffffffffff163373ffffffffffffffffffffffffffffffffffffffff161480611fbb5750600760009054906101000a900473ffffffffffffffffffffffffffffffffffffffff1673ffffffffffffffffffffffffffffffffffffffff163373ffffffffffffffffffffffffffffffffffffffff16145b611fc457600080fd5b611fcd82611c94565b1561200d576040517f08c379a000000000000000000000000000000000000000000000000000000000815260040161200490613dde565b60405180910390fd5b6002829080600181540180825580915050600190039060005260206000200160009091909190916101000a81548173ffffffffffffffffffffffffffffffffffffffff021916908373ffffffffffffffffffffffffffffffffffffffff1602179055506000600160008473ffffffffffffffffffffffffffffffffffffffff1673ffffffffffffffffffffffffffffffffffffffff168152602001908152602001600020905060018160000160006101000a81548160ff021916908315150217905550818160010190805190602001906120e89291906129b8565b50505050565b60056020528060005260406000206000915090508060000160009054906101000a900473ffffffffffffffffffffffffffffffffffffffff1690806001018054612137906135b5565b80601f0160208091040260200160405190810160405280929190818152602001828054612163906135b5565b80156121b05780601f10612185576101008083540402835291602001916121b0565b820191906000526020600020905b81548152906001019060200180831161219357829003601f168201915b5050505050908060020180546121c5906135b5565b80601f01602080910402602001604051908101604052809291908181526020018280546121f1906135b5565b801561223e5780601f106122135761010080835404028352916020019161223e565b820191906000526020600020905b81548152906001019060200180831161222157829003601f168201915b50505050509080600301549080600401549080600501549080600601549080600701805461226b906135b5565b80601f0160208091040260200160405190810160405280929190818152602001828054612297906135b5565b80156122e45780601f106122b9576101008083540402835291602001916122e4565b820191906000526020600020905b8154815290600101906020018083116122c757829003601f168201915b5050505050905088565b8173ffffffffffffffffffffffffffffffffffffffff163373ffffffffffffffffffffffffffffffffffffffff161461235c576040517f08c379a000000000000000000000000000000000000000000000000000000000815260040161235390613e70565b60405180910390fd5b6000600660009054906101000a900473ffffffffffffffffffffffffffffffffffffffff1673ffffffffffffffffffffffffffffffffffffffff166370a08231306040518263ffffffff1660e01b81526004016123b99190612cdb565b60206040518083038186803b1580156123d157600080fd5b505afa1580156123e5573d6000803e3d6000fd5b505050506040513d601f19601f8201168201806040525081019061240991906139d0565b90506000821161244e576040517f08c379a000000000000000000000000000000000000000000000000000000000815260040161244590613f02565b60405180910390fd5b600160008473ffffffffffffffffffffffffffffffffffffffff1673ffffffffffffffffffffffffffffffffffffffff168152602001908152602001600020600201548211156124d3576040517f08c379a00000000000000000000000000000000000000000000000000000000081526004016124ca90613f6e565b60405180910390fd5b80821115612516576040517f08c379a000000000000000000000000000000000000000000000000000000000815260040161250d90613ca6565b60405180910390fd5b600660009054906101000a900473ffffffffffffffffffffffffffffffffffffffff1673ffffffffffffffffffffffffffffffffffffffff1663a9059cbb33846040518363ffffffff1660e01b8152600401612573929190613780565b602060405180830381600087803b15801561258d57600080fd5b505af11580156125a1573d6000803e3d6000fd5b505050506040513d601f19601f820116820180604052508101906125c591906137d5565b5081600160008573ffffffffffffffffffffffffffffffffffffffff1673ffffffffffffffffffffffffffffffffffffffff16815260200190815260200160002060020160008282546126189190613f8e565b92505081905550505050565b600660009054906101000a900473ffffffffffffffffffffffffffffffffffffffff1681565b60056000838152602001908152602001600020600301544210156126a3576040517f08c379a000000000000000000000000000000000000000000000000000000000815260040161269a9061400e565b60405180910390fd5b60056000838152602001908152602001600020600401544211156126fc576040517f08c379a00000000000000000000000000000000000000000000000000000000081526004016126f39061407a565b60405180910390fd5b6000600660009054906101000a900473ffffffffffffffffffffffffffffffffffffffff1673ffffffffffffffffffffffffffffffffffffffff1663dd62ed3e33306040518363ffffffff1660e01b815260040161275b929190613992565b60206040518083038186803b15801561277357600080fd5b505afa158015612787573d6000803e3d6000fd5b505050506040513d601f19601f820116820180604052508101906127ab91906139d0565b9050818110156127f0576040517f08c379a00000000000000000000000000000000000000000000000000000000081526004016127e790613a6f565b60405180910390fd5b600660009054906101000a900473ffffffffffffffffffffffffffffffffffffffff1673ffffffffffffffffffffffffffffffffffffffff166323b872dd3330856040518463ffffffff1660e01b815260040161284f93929190613a8f565b602060405180830381600087803b15801561286957600080fd5b505af115801561287d573d6000803e3d6000fd5b505050506040513d601f19601f820116820180604052508101906128a191906137d5565b50816005600085815260200190815260200160002060060160008282546128c89190613af5565b92505081905550816000803373ffffffffffffffffffffffffffffffffffffffff1673ffffffffffffffffffffffffffffffffffffffff1681526020019081526020016000206000858152602001908152602001600020600082825461292e9190613af5565b92505081905550505050565b604051806060016040528060001515815260200160608152602001600081525090565b604051806101000160405280600073ffffffffffffffffffffffffffffffffffffffff168152602001606081526020016060815260200160008152602001600081526020016000815260200160008152602001606081525090565b8280546129c4906135b5565b90600052602060002090601f0160209004810192826129e65760008555612a2d565b82601f106129ff57805160ff1916838001178555612a2d565b82800160010185558215612a2d579182015b82811115612a2c578251825591602001919060010190612a11565b5b509050612a3a9190612acb565b5090565b828054612a4a906135b5565b90600052602060002090601f016020900481019282612a6c5760008555612aba565b82601f10612a7d5780548555612aba565b82800160010185558215612aba57600052602060002091601f016020900482015b82811115612ab9578254825591600101919060010190612a9e565b5b509050612ac79190612acb565b5090565b5b80821115612ae4576000816000905550600101612acc565b5090565b6000604051905090565b600080fd5b600080fd5b6000819050919050565b612b0f81612afc565b8114612b1a57600080fd5b50565b600081359050612b2c81612b06565b92915050565b600060208284031215612b4857612b47612af2565b5b6000612b5684828501612b1d565b91505092915050565b600073ffffffffffffffffffffffffffffffffffffffff82169050919050565b6000612b8a82612b5f565b9050919050565b612b9a81612b7f565b82525050565b600081519050919050565b600082825260208201905092915050565b60005b83811015612bda578082015181840152602081019050612bbf565b83811115612be9576000848401525b50505050565b6000601f19601f8301169050919050565b6000612c0b82612ba0565b612c158185612bab565b9350612c25818560208601612bbc565b612c2e81612bef565b840191505092915050565b612c4281612afc565b82525050565b600061010082019050612c5e600083018b612b91565b8181036020830152612c70818a612c00565b90508181036040830152612c848189612c00565b9050612c936060830188612c39565b612ca06080830187612c39565b612cad60a0830186612c39565b612cba60c0830185612c39565b81810360e0830152612ccc8184612c00565b90509998505050505050505050565b6000602082019050612cf06000830184612b91565b92915050565b612cff81612b7f565b8114612d0a57600080fd5b50565b600081359050612d1c81612cf6565b92915050565b600060208284031215612d3857612d37612af2565b5b6000612d4684828501612d0d565b91505092915050565b60008115159050919050565b612d6481612d4f565b82525050565b600082825260208201905092915050565b6000612d8682612ba0565b612d908185612d6a565b9350612da0818560208601612bbc565b612da981612bef565b840191505092915050565b612dbd81612afc565b82525050565b6000606083016000830151612ddb6000860182612d5b565b5060208301518482036020860152612df38282612d7b565b9150506040830151612e086040860182612db4565b508091505092915050565b60006020820190508181036000830152612e2d8184612dc3565b905092915050565b6000602082019050612e4a6000830184612c39565b92915050565b612e5981612d4f565b82525050565b6000606082019050612e746000830186612e50565b8181036020830152612e868185612c00565b9050612e956040830184612c39565b949350505050565b612ea681612b7f565b82525050565b600061010083016000830151612ec56000860182612e9d565b5060208301518482036020860152612edd8282612d7b565b91505060408301518482036040860152612ef78282612d7b565b9150506060830151612f0c6060860182612db4565b506080830151612f1f6080860182612db4565b5060a0830151612f3260a0860182612db4565b5060c0830151612f4560c0860182612db4565b5060e083015184820360e0860152612f5d8282612d7b565b9150508091505092915050565b60006020820190508181036000830152612f848184612eac565b905092915050565b60008060408385031215612fa357612fa2612af2565b5b6000612fb185828601612d0d565b9250506020612fc285828601612b1d565b9150509250929050565b600081519050919050565b600082825260208201905092915050565b6000819050602082019050919050565b60006130048383612e9d565b60208301905092915050565b6000602082019050919050565b600061302882612fcc565b6130328185612fd7565b935061303d83612fe8565b8060005b8381101561306e5781516130558882612ff8565b975061306083613010565b925050600181019050613041565b5085935050505092915050565b60006020820190508181036000830152613095818461301d565b905092915050565b600081519050919050565b600082825260208201905092915050565b6000819050602082019050919050565b6000610100830160008301516130e26000860182612e9d565b50602083015184820360208601526130fa8282612d7b565b915050604083015184820360408601526131148282612d7b565b91505060608301516131296060860182612db4565b50608083015161313c6080860182612db4565b5060a083015161314f60a0860182612db4565b5060c083015161316260c0860182612db4565b5060e083015184820360e086015261317a8282612d7b565b9150508091505092915050565b600061319383836130c9565b905092915050565b6000602082019050919050565b60006131b38261309d565b6131bd81856130a8565b9350836020820285016131cf856130b9565b8060005b8581101561320b57848403895281516131ec8582613187565b94506131f78361319b565b925060208a019950506001810190506131d3565b50829750879550505050505092915050565b6000602082019050818103600083015261323781846131a8565b905092915050565b600080fd5b600080fd5b7f4e487b7100000000000000000000000000000000000000000000000000000000600052604160045260246000fd5b61328182612bef565b810181811067ffffffffffffffff821117156132a05761329f613249565b5b80604052505050565b60006132b3612ae8565b90506132bf8282613278565b919050565b600067ffffffffffffffff8211156132df576132de613249565b5b6132e882612bef565b9050602081019050919050565b82818337600083830152505050565b6000613317613312846132c4565b6132a9565b90508281526020810184848401111561333357613332613244565b5b61333e8482856132f5565b509392505050565b600082601f83011261335b5761335a61323f565b5b813561336b848260208601613304565b91505092915050565b60008060008060008060c0878903121561339157613390612af2565b5b600087013567ffffffffffffffff8111156133af576133ae612af7565b5b6133bb89828a01613346565b965050602087013567ffffffffffffffff8111156133dc576133db612af7565b5b6133e889828a01613346565b95505060406133f989828a01612b1d565b945050606061340a89828a01612b1d565b935050608061341b89828a01612b1d565b92505060a087013567ffffffffffffffff81111561343c5761343b612af7565b5b61344889828a01613346565b9150509295509295509295565b600060208201905061346a6000830184612e50565b92915050565b6000806040838503121561348757613486612af2565b5b600061349585828601612d0d565b925050602083013567ffffffffffffffff8111156134b6576134b5612af7565b5b6134c285828601613346565b9150509250929050565b6000819050919050565b60006134f16134ec6134e784612b5f565b6134cc565b612b5f565b9050919050565b6000613503826134d6565b9050919050565b6000613515826134f8565b9050919050565b6135258161350a565b82525050565b6000602082019050613540600083018461351c565b92915050565b6000806040838503121561355d5761355c612af2565b5b600061356b85828601612b1d565b925050602061357c85828601612b1d565b9150509250929050565b7f4e487b7100000000000000000000000000000000000000000000000000000000600052602260045260246000fd5b600060028204905060018216806135cd57607f821691505b602082108114156135e1576135e0613586565b5b50919050565b7f4e487b7100000000000000000000000000000000000000000000000000000000600052603260045260246000fd5b7f476f616c20686173206265656e206d6574000000000000000000000000000000600082015250565b600061364c601183612bab565b915061365782613616565b602082019050919050565b6000602082019050818103600083015261367b8161363f565b9050919050565b7f446561646c696e6520686173206e6f74206265656e2072656163686564000000600082015250565b60006136b8601d83612bab565b91506136c382613682565b602082019050919050565b600060208201905081810360008301526136e7816136ab565b9050919050565b7f596f752068617665206e6f7420646f6e6174656420746f20746869732066756e60008201527f6400000000000000000000000000000000000000000000000000000000000000602082015250565b600061374a602183612bab565b9150613755826136ee565b604082019050919050565b600060208201905081810360008301526137798161373d565b9050919050565b60006040820190506137956000830185612b91565b6137a26020830184612c39565b9392505050565b6137b281612d4f565b81146137bd57600080fd5b50565b6000815190506137cf816137a9565b92915050565b6000602082840312156137eb576137ea612af2565b5b60006137f9848285016137c0565b91505092915050565b7f596f7520617265206e6f7420746865206f776e6572206f66207468697320667560008201527f6e64000000000000000000000000000000000000000000000000000000000000602082015250565b600061385e602283612bab565b915061386982613802565b604082019050919050565b6000602082019050818103600083015261388d81613851565b9050919050565b7f596f75206e65656420746f20646f6e617465206d6f7265207468616e2030207460008201527f6f6b656e73000000000000000000000000000000000000000000000000000000602082015250565b60006138f0602583612bab565b91506138fb82613894565b604082019050919050565b6000602082019050818103600083015261391f816138e3565b9050919050565b7f43686172697479206973206e6f74207265676973746572656400000000000000600082015250565b600061395c601983612bab565b915061396782613926565b602082019050919050565b6000602082019050818103600083015261398b8161394f565b9050919050565b60006040820190506139a76000830185612b91565b6139b46020830184612b91565b9392505050565b6000815190506139ca81612b06565b92915050565b6000602082840312156139e6576139e5612af2565b5b60006139f4848285016139bb565b91505092915050565b7f4e6f7420617070726f76656420746f207472616e736665722074686973206d6160008201527f6e7920746f6b656e730000000000000000000000000000000000000000000000602082015250565b6000613a59602983612bab565b9150613a64826139fd565b604082019050919050565b60006020820190508181036000830152613a8881613a4c565b9050919050565b6000606082019050613aa46000830186612b91565b613ab16020830185612b91565b613abe6040830184612c39565b949350505050565b7f4e487b7100000000000000000000000000000000000000000000000000000000600052601160045260246000fd5b6000613b0082612afc565b9150613b0b83612afc565b9250827fffffffffffffffffffffffffffffffffffffffffffffffffffffffffffffffff03821115613b4057613b3f613ac6565b5b828201905092915050565b6000613b5682612afc565b91507fffffffffffffffffffffffffffffffffffffffffffffffffffffffffffffffff821415613b8957613b88613ac6565b5b600182019050919050565b6000613b9f82612afc565b9150613baa83612afc565b9250817fffffffffffffffffffffffffffffffffffffffffffffffffffffffffffffffff0483118215151615613be357613be2613ac6565b5b828202905092915050565b7f596f75206e65656420746f2073656e6420736f6d652065746865720000000000600082015250565b6000613c24601b83612bab565b9150613c2f82613bee565b602082019050919050565b60006020820190508181036000830152613c5381613c17565b9050919050565b7f4e6f7420656e6f75676820746f6b656e7320696e207468652072657365727665600082015250565b6000613c90602083612bab565b9150613c9b82613c5a565b602082019050919050565b60006020820190508181036000830152613cbf81613c83565b9050919050565b7f596f75206e65656420746f2073656c6c203020746f6b656e7300000000000000600082015250565b6000613cfc601983612bab565b9150613d0782613cc6565b602082019050919050565b60006020820190508181036000830152613d2b81613cef565b9050919050565b7f4e487b7100000000000000000000000000000000000000000000000000000000600052601260045260246000fd5b6000613d6c82612afc565b9150613d7783612afc565b925082613d8757613d86613d32565b5b828204905092915050565b7f596f752061726520616c72656164792072656769737465726564000000000000600082015250565b6000613dc8601a83612bab565b9150613dd382613d92565b602082019050919050565b60006020820190508181036000830152613df781613dbb565b9050919050565b7f596f7520617265206e6f7420746865206f776e6572206f66207468652063686160008201527f7269747900000000000000000000000000000000000000000000000000000000602082015250565b6000613e5a602483612bab565b9150613e6582613dfe565b604082019050919050565b60006020820190508181036000830152613e8981613e4d565b9050919050565b7f596f75206e65656420746f207472616e73666572206d6f7265207468616e203060008201527f20746f6b656e7300000000000000000000000000000000000000000000000000602082015250565b6000613eec602783612bab565b9150613ef782613e90565b604082019050919050565b60006020820190508181036000830152613f1b81613edf565b9050919050565b7f596f7520646f206e6f7420686176652074686174206d616e7920746f6b656e73600082015250565b6000613f58602083612bab565b9150613f6382613f22565b602082019050919050565b60006020820190508181036000830152613f8781613f4b565b9050919050565b6000613f9982612afc565b9150613fa483612afc565b925082821015613fb757613fb6613ac6565b5b828203905092915050565b7f46756e64206861736e2774207374617274656400000000000000000000000000600082015250565b6000613ff8601383612bab565b915061400382613fc2565b602082019050919050565b6000602082019050818103600083015261402781613feb565b9050919050565b7f446561646c696e65206861732070617373656400000000000000000000000000600082015250565b6000614064601383612bab565b915061406f8261402e565b602082019050919050565b6000602082019050818103600083015261409381614057565b905091905056fea26469706673582212204de76bd60bf490b353f309b3b9d507712c34296b126093498097e16db2d12f5864736f6c6343000809003360806040526040518060400160405280600d81526020017f4368617269747920546f6b656e0000000000000000000000000000000000000081525060009080519060200190620000519291906200023e565b506040518060400160405280600381526020017f4348540000000000000000000000000000000000000000000000000000000000815250600190805190602001906200009f9291906200023e565b506012600260006101000a81548160ff021916908360ff1602179055506000600355348015620000ce57600080fd5b506200010f33620000e46200011560201b60201c565b600a620000f2919062000488565b633b9aca00620001039190620004d9565b6200012c60201b60201c565b6200062a565b6000600260009054906101000a900460ff16905090565b806003546200013c91906200053a565b60038190555080600460008473ffffffffffffffffffffffffffffffffffffffff1673ffffffffffffffffffffffffffffffffffffffff168152602001908152602001600020546200018f91906200053a565b600460008473ffffffffffffffffffffffffffffffffffffffff1673ffffffffffffffffffffffffffffffffffffffff168152602001908152602001600020819055508173ffffffffffffffffffffffffffffffffffffffff16600073ffffffffffffffffffffffffffffffffffffffff167fddf252ad1be2c89b69c2b068fc378daa952ba7f163c4a11628f55a4df523b3ef83604051620002329190620005a8565b60405180910390a35050565b8280546200024c90620005f4565b90600052602060002090601f016020900481019282620002705760008555620002bc565b82601f106200028b57805160ff1916838001178555620002bc565b82800160010185558215620002bc579182015b82811115620002bb5782518255916020019190600101906200029e565b5b509050620002cb9190620002cf565b5090565b5b80821115620002ea576000816000905550600101620002d0565b5090565b7f4e487b7100000000000000000000000000000000000000000000000000000000600052601160045260246000fd5b60008160011c9050919050565b6000808291508390505b60018511156200037c57808604811115620003545762000353620002ee565b5b6001851615620003645780820291505b808102905062000374856200031d565b945062000334565b94509492505050565b6000826200039757600190506200046a565b81620003a757600090506200046a565b8160018114620003c05760028114620003cb5762000401565b60019150506200046a565b60ff841115620003e057620003df620002ee565b5b8360020a915084821115620003fa57620003f9620002ee565b5b506200046a565b5060208310610133831016604e8410600b84101617156200043b5782820a905083811115620004355762000434620002ee565b5b6200046a565b6200044a84848460016200032a565b92509050818404811115620004645762000463620002ee565b5b81810290505b9392505050565b6000819050919050565b600060ff82169050919050565b6000620004958262000471565b9150620004a2836200047b565b9250620004d17fffffffffffffffffffffffffffffffffffffffffffffffffffffffffffffffff848462000385565b905092915050565b6000620004e68262000471565b9150620004f38362000471565b9250817fffffffffffffffffffffffffffffffffffffffffffffffffffffffffffffffff04831182151516156200052f576200052e620002ee565b5b828202905092915050565b6000620005478262000471565b9150620005548362000471565b9250827fffffffffffffffffffffffffffffffffffffffffffffffffffffffffffffffff038211156200058c576200058b620002ee565b5b828201905092915050565b620005a28162000471565b82525050565b6000602082019050620005bf600083018462000597565b92915050565b7f4e487b7100000000000000000000000000000000000000000000000000000000600052602260045260246000fd5b600060028204905060018216806200060d57607f821691505b60208210811415620006245762000623620005c5565b5b50919050565b6110a8806200063a6000396000f3fe608060405234801561001057600080fd5b50600436106100cf5760003560e01c80633eaaf86b1161008c578063a9059cbb11610066578063a9059cbb14610218578063b09f126614610248578063d28d885214610266578063dd62ed3e14610284576100cf565b80633eaaf86b146101ac57806370a08231146101ca57806395d89b41146101fa576100cf565b806306fdde03146100d4578063095ea7b3146100f257806318160ddd1461012257806323b872dd14610140578063313ce5671461017057806332424aa31461018e575b600080fd5b6100dc6102b4565b6040516100e99190610d06565b60405180910390f35b61010c60048036038101906101079190610dc1565b610346565b6040516101199190610e1c565b60405180910390f35b61012a610471565b6040516101379190610e46565b60405180910390f35b61015a60048036038101906101559190610e61565b61047b565b6040516101679190610e1c565b60405180910390f35b6101786107e6565b6040516101859190610ed0565b60405180910390f35b6101966107fd565b6040516101a39190610ed0565b60405180910390f35b6101b4610810565b6040516101c19190610e46565b60405180910390f35b6101e460048036038101906101df9190610eeb565b610816565b6040516101f19190610e46565b60405180910390f35b61020261085f565b60405161020f9190610d06565b60405180910390f35b610232600480360381019061022d9190610dc1565b6108f1565b60405161023f9190610e1c565b60405180910390f35b610250610aca565b60405161025d9190610d06565b60405180910390f35b61026e610b58565b60405161027b9190610d06565b60405180910390f35b61029e60048036038101906102999190610f18565b610be6565b6040516102ab9190610e46565b60405180910390f35b6060600080546102c390610f87565b80601f01602080910402602001604051908101604052809291908181526020018280546102ef90610f87565b801561033c5780601f106103115761010080835404028352916020019161033c565b820191906000526020600020905b81548152906001019060200180831161031f57829003601f168201915b5050505050905090565b60008073ffffffffffffffffffffffffffffffffffffffff168373ffffffffffffffffffffffffffffffffffffffff16141561038157600080fd5b81600560003373ffffffffffffffffffffffffffffffffffffffff1673ffffffffffffffffffffffffffffffffffffffff16815260200190815260200160002060008573ffffffffffffffffffffffffffffffffffffffff1673ffffffffffffffffffffffffffffffffffffffff168152602001908152602001600020819055508273ffffffffffffffffffffffffffffffffffffffff163373ffffffffffffffffffffffffffffffffffffffff167f8c5be1e5ebec7d5bd14f71427d1e84f3dd0314c0f7b2291e5b200ac8c7c3b9258460405161045f9190610e46565b60405180910390a36001905092915050565b6000600354905090565b600081600460008673ffffffffffffffffffffffffffffffffffffffff1673ffffffffffffffffffffffffffffffffffffffff1681526020019081526020016000205410156104c957600080fd5b81600560008673ffffffffffffffffffffffffffffffffffffffff1673ffffffffffffffffffffffffffffffffffffffff16815260200190815260200160002060003373ffffffffffffffffffffffffffffffffffffffff1673ffffffffffffffffffffffffffffffffffffffff16815260200190815260200160002054101561055257600080fd5b81600460008673ffffffffffffffffffffffffffffffffffffffff1673ffffffffffffffffffffffffffffffffffffffff1681526020019081526020016000205461059d9190610fe8565b600460008673ffffffffffffffffffffffffffffffffffffffff1673ffffffffffffffffffffffffffffffffffffffff1681526020019081526020016000208190555081600460008573ffffffffffffffffffffffffffffffffffffffff1673ffffffffffffffffffffffffffffffffffffffff1681526020019081526020016000205461062b919061101c565b600460008573ffffffffffffffffffffffffffffffffffffffff1673ffffffffffffffffffffffffffffffffffffffff1681526020019081526020016000208190555081600560008673ffffffffffffffffffffffffffffffffffffffff1673ffffffffffffffffffffffffffffffffffffffff16815260200190815260200160002060003373ffffffffffffffffffffffffffffffffffffffff1673ffffffffffffffffffffffffffffffffffffffff168152602001908152602001600020546106f69190610fe8565b600560008673ffffffffffffffffffffffffffffffffffffffff1673ffffffffffffffffffffffffffffffffffffffff16815260200190815260200160002060003373ffffffffffffffffffffffffffffffffffffffff1673ffffffffffffffffffffffffffffffffffffffff168152602001908152602001600020819055508273ffffffffffffffffffffffffffffffffffffffff163373ffffffffffffffffffffffffffffffffffffffff167fddf252ad1be2c89b69c2b068fc378daa952ba7f163c4a11628f55a4df523b3ef846040516107d39190610e46565b60405180910390a3600190509392505050565b6000600260009054906101000a900460ff16905090565b600260009054906101000a900460ff1681565b60035481565b6000600460008373ffffffffffffffffffffffffffffffffffffffff1673ffffffffffffffffffffffffffffffffffffffff168152602001908152602001600020549050919050565b60606001805461086e90610f87565b80601f016020809104026020016040519081016040528092919081815260200182805461089a90610f87565b80156108e75780601f106108bc576101008083540402835291602001916108e7565b820191906000526020600020905b8154815290600101906020018083116108ca57829003601f168201915b5050505050905090565b600081600460003373ffffffffffffffffffffffffffffffffffffffff1673ffffffffffffffffffffffffffffffffffffffff16815260200190815260200160002054101561093f57600080fd5b81600460003373ffffffffffffffffffffffffffffffffffffffff1673ffffffffffffffffffffffffffffffffffffffff1681526020019081526020016000205461098a9190610fe8565b600460003373ffffffffffffffffffffffffffffffffffffffff1673ffffffffffffffffffffffffffffffffffffffff1681526020019081526020016000208190555081600460008573ffffffffffffffffffffffffffffffffffffffff1673ffffffffffffffffffffffffffffffffffffffff16815260200190815260200160002054610a18919061101c565b600460008573ffffffffffffffffffffffffffffffffffffffff1673ffffffffffffffffffffffffffffffffffffffff168152602001908152602001600020819055508273ffffffffffffffffffffffffffffffffffffffff163373ffffffffffffffffffffffffffffffffffffffff167fddf252ad1be2c89b69c2b068fc378daa952ba7f163c4a11628f55a4df523b3ef84604051610ab89190610e46565b60405180910390a36001905092915050565b60018054610ad790610f87565b80601f0160208091040260200160405190810160405280929190818152602001828054610b0390610f87565b8015610b505780601f10610b2557610100808354040283529160200191610b50565b820191906000526020600020905b815481529060010190602001808311610b3357829003601f168201915b505050505081565b60008054610b6590610f87565b80601f0160208091040260200160405190810160405280929190818152602001828054610b9190610f87565b8015610bde5780601f10610bb357610100808354040283529160200191610bde565b820191906000526020600020905b815481529060010190602001808311610bc157829003601f168201915b505050505081565b6000600560008473ffffffffffffffffffffffffffffffffffffffff1673ffffffffffffffffffffffffffffffffffffffff16815260200190815260200160002060008373ffffffffffffffffffffffffffffffffffffffff1673ffffffffffffffffffffffffffffffffffffffff16815260200190815260200160002054905092915050565b600081519050919050565b600082825260208201905092915050565b60005b83811015610ca7578082015181840152602081019050610c8c565b83811115610cb6576000848401525b50505050565b6000601f19601f8301169050919050565b6000610cd882610c6d565b610ce28185610c78565b9350610cf2818560208601610c89565b610cfb81610cbc565b840191505092915050565b60006020820190508181036000830152610d208184610ccd565b905092915050565b600080fd5b600073ffffffffffffffffffffffffffffffffffffffff82169050919050565b6000610d5882610d2d565b9050919050565b610d6881610d4d565b8114610d7357600080fd5b50565b600081359050610d8581610d5f565b92915050565b6000819050919050565b610d9e81610d8b565b8114610da957600080fd5b50565b600081359050610dbb81610d95565b92915050565b60008060408385031215610dd857610dd7610d28565b5b6000610de685828601610d76565b9250506020610df785828601610dac565b9150509250929050565b60008115159050919050565b610e1681610e01565b82525050565b6000602082019050610e316000830184610e0d565b92915050565b610e4081610d8b565b82525050565b6000602082019050610e5b6000830184610e37565b92915050565b600080600060608486031215610e7a57610e79610d28565b5b6000610e8886828701610d76565b9350506020610e9986828701610d76565b9250506040610eaa86828701610dac565b9150509250925092565b600060ff82169050919050565b610eca81610eb4565b82525050565b6000602082019050610ee56000830184610ec1565b92915050565b600060208284031215610f0157610f00610d28565b5b6000610f0f84828501610d76565b91505092915050565b60008060408385031215610f2f57610f2e610d28565b5b6000610f3d85828601610d76565b9250506020610f4e85828601610d76565b9150509250929050565b7f4e487b7100000000000000000000000000000000000000000000000000000000600052602260045260246000fd5b60006002820490506001821680610f9f57607f821691505b60208210811415610fb357610fb2610f58565b5b50919050565b7f4e487b7100000000000000000000000000000000000000000000000000000000600052601160045260246000fd5b6000610ff382610d8b565b9150610ffe83610d8b565b92508282101561101157611010610fb9565b5b828203905092915050565b600061102782610d8b565b915061103283610d8b565b9250827fffffffffffffffffffffffffffffffffffffffffffffffffffffffffffffffff0382111561106757611066610fb9565b5b82820190509291505056fea26469706673582212200cccc9205cc0fa462a4184e021c27faaf0f509b86d8103e5a4b5bd7bca77990664736f6c63430008090033",
  "immutableReferences": {},
  "source": "// SPDX-License-Identifier: MIT\r\npragma solidity ^0.8.9;\r\n\r\nimport \"./Token.sol\";\r\n\r\ncontract Charities {\r\n\r\n    struct Charity {\r\n        // whether the charity has registered\r\n        bool isRegistered;\r\n        // name of the charity\r\n        string name;\r\n        // total amount donated to this charity\r\n        uint amount;\r\n    }\r\n\r\n    struct Fund {\r\n        address owner;\r\n        string title;\r\n        string description;\r\n        uint start;\r\n        uint deadline;\r\n        uint goal;\r\n        uint balance;\r\n        string imageURI;\r\n    }\r\n\r\n    mapping (address => mapping(uint => uint)) public fundsDonated;\r\n    \r\n    mapping (address => Charity) public allCharities;\r\n    // list of registered charities\r\n    address[] public charityList;\r\n\r\n    uint public fundCounter;\r\n\r\n    Fund[] public fundList;\r\n\r\n    mapping (uint => Fund) public allFunds;\r\n\r\n    IToken public token;\r\n\r\n    address private _owner;\r\n\r\n    constructor() {\r\n        _owner = msg.sender;\r\n        token = new Token();\r\n        fundCounter = 0;\r\n    }\r\n\r\n    function createFund(string memory title, string memory description, uint start, uint end, uint goal, string memory imageURI) public {\r\n        Fund storage f = allFunds[fundCounter];\r\n        f.owner = msg.sender;\r\n        f.title = title;\r\n        f.description = description;\r\n        f.start = start;\r\n        f.deadline = end;\r\n        f.goal = goal;\r\n        f.balance = 0;\r\n        f.imageURI = imageURI;\r\n        fundList.push(f);\r\n        fundCounter++;\r\n    }\r\n\r\n    function pledge(uint fundNum, uint numOfTokens) public payable {\r\n        require(block.timestamp >= allFunds[fundNum].start, \"Fund hasn't started\");\r\n        require(block.timestamp <= allFunds[fundNum].deadline, \"Deadline has passed\");\r\n        uint allowance = token.allowance(msg.sender, address(this));\r\n        require(allowance >= numOfTokens, \"Not approved to transfer this many tokens\");\r\n        token.transferFrom(msg.sender, address(this), numOfTokens);\r\n\r\n        allFunds[fundNum].balance += numOfTokens;\r\n        fundsDonated[msg.sender][fundNum] += numOfTokens;\r\n    }\r\n\r\n    function refund(uint fundNum) public {\r\n        require(address(this).balance < fundList[fundNum].goal, \"Goal has been met\");\r\n        require(block.timestamp > fundList[fundNum].deadline, \"Deadline has not been reached\");\r\n        uint amount = fundsDonated[msg.sender][fundNum];\r\n        require(amount > 0, \"You have not donated to this fund\");\r\n        fundsDonated[msg.sender][fundNum] = 0;\r\n        token.transfer(msg.sender, amount);      \r\n    }\r\n\r\n    function claim(uint fundNum) public {\r\n        require(address(this).balance < fundList[fundNum].goal, \"Goal has been met\");\r\n        require(block.timestamp > fundList[fundNum].deadline, \"Deadline has not been reached\");\r\n        require(fundList[fundNum].owner == msg.sender, \"You are not the owner of this fund\");\r\n        token.transfer(msg.sender, fundList[fundNum].balance);\r\n    }\r\n\r\n    // user can buy tokens\r\n    function buy() payable public {\r\n        // currently 10000 token == 1 ether\r\n        uint amountTobuy = msg.value * 10000;\r\n        uint contractBalance = token.balanceOf(address(this));\r\n        require(amountTobuy > 0, \"You need to send some ether\");\r\n        require(amountTobuy <= contractBalance, \"Not enough tokens in the reserve\");\r\n        token.transfer(msg.sender, amountTobuy);\r\n    }\r\n\r\n    function sell(uint numOfTokens) public {\r\n        require(numOfTokens > 0, \"You need to sell 0 tokens\");\r\n        uint allowance = token.allowance(msg.sender, address(this));\r\n        require(allowance >= numOfTokens, \"Not approved to transfer this many tokens\");\r\n        \r\n        token.transferFrom(msg.sender, address(this), numOfTokens);\r\n        uint amountToSell = numOfTokens / 10000;\r\n        payable(msg.sender).transfer(amountToSell);\r\n    }\r\n\r\n    // register a new charity\r\n    function newCharity(address beneficiary, string memory name) public {\r\n        require(msg.sender == beneficiary || msg.sender == _owner);\r\n        require(!isRegistered(beneficiary), \"You are already registered\");\r\n        charityList.push(beneficiary);\r\n        \r\n        Charity storage c = allCharities[beneficiary];\r\n        c.isRegistered = true;\r\n        c.name = name;\r\n    }\r\n\r\n    // the sender can send a donation to a charity\r\n    function donateToCharity(address beneficiary, uint numOfTokens) public {\r\n        require(numOfTokens > 0, \"You need to donate more than 0 tokens\");\r\n        require(isRegistered(beneficiary), \"Charity is not registered\");\r\n        uint allowance = token.allowance(msg.sender, address(this));\r\n        require(allowance >= numOfTokens, \"Not approved to transfer this many tokens\");\r\n        token.transferFrom(msg.sender, address(this), numOfTokens);\r\n\r\n        allCharities[beneficiary].amount += numOfTokens;\r\n    }\r\n\r\n    // withdraw/send a given number of tokens to a charity\r\n    function withdraw(address beneficiary, uint numOfTokens) public {\r\n        require(msg.sender == beneficiary, \"You are not the owner of the charity\");\r\n\r\n        uint contractBalance = token.balanceOf(address(this));\r\n        require(numOfTokens > 0, \"You need to transfer more than 0 tokens\");\r\n        require(numOfTokens <= allCharities[beneficiary].amount, \"You do not have that many tokens\");\r\n        require(numOfTokens <= contractBalance, \"Not enough tokens in the reserve\");\r\n        token.transfer(msg.sender, numOfTokens);\r\n\r\n        allCharities[beneficiary].amount -= numOfTokens;\r\n    }\r\n\r\n    function getTokenBalance() public view returns (uint) {\r\n        return token.balanceOf(msg.sender);\r\n    }\r\n\r\n    function getTokenAddress() public view returns (address) {\r\n        return address(token);\r\n    }\r\n\r\n    function getOwner() public view returns (address) {\r\n        return _owner;\r\n    }\r\n\r\n    function getCharity(address beneficiary) public view returns (Charity memory) {\r\n        return allCharities[beneficiary];\r\n    }\r\n\r\n    function getCharityList() public view returns (address[] memory) {\r\n        return charityList;\r\n    }\r\n\r\n    function getFund(uint fundNum) public view returns (Fund memory) {\r\n        return allFunds[fundNum];\r\n    }\r\n\r\n    function getFundList() public view returns (Fund[] memory) {\r\n        return fundList;\r\n    }\r\n\r\n    function isRegistered(address beneficiary) public view returns (bool registered) {\r\n        return allCharities[beneficiary].isRegistered;\r\n    }\r\n\r\n    function getTokensRecieved(address beneficiary) public view returns (uint tokens) {\r\n        return allCharities[beneficiary].amount;\r\n    }\r\n    \r\n    // Function to receive Ether. msg.data must be empty\r\n    receive() external payable {}\r\n\r\n    // Fallback function is called when msg.data is not empty\r\n    fallback() external payable {}\r\n}",
  "sourcePath": "C:\\DEV\\Ethereum\\Charity\\contracts\\Charities.sol",
  "compiler": {
    "name": "solc",
    "version": "0.8.9+commit.e5eed63a.Emscripten.clang"
  },
  "schemaVersion": "3.4.3",
  "updatedAt": "2022-03-16T14:32:17.089Z",
  "networkType": "ethereum",
  "devdoc": {
    "kind": "dev",
    "methods": {},
    "version": 1
  },
  "userdoc": {
    "kind": "user",
    "methods": {},
    "version": 1
  }
}