{
  "contractName": "Charities",
  "abi": [
    {
      "inputs": [],
      "stateMutability": "nonpayable",
      "type": "constructor"
    },
    {
      "stateMutability": "payable",
      "type": "fallback"
    },
    {
      "inputs": [
        {
          "internalType": "address",
          "name": "",
          "type": "address"
        }
      ],
      "name": "allCharities",
      "outputs": [
        {
          "internalType": "bool",
          "name": "isRegistered",
          "type": "bool"
        },
        {
          "internalType": "string",
          "name": "name",
          "type": "string"
        },
        {
          "internalType": "uint256",
          "name": "amount",
          "type": "uint256"
        }
      ],
      "stateMutability": "view",
      "type": "function"
    },
    {
      "inputs": [
        {
          "internalType": "uint256",
          "name": "",
          "type": "uint256"
        }
      ],
      "name": "allFunds",
      "outputs": [
        {
          "internalType": "address",
          "name": "owner",
          "type": "address"
        },
        {
          "internalType": "string",
          "name": "title",
          "type": "string"
        },
        {
          "internalType": "string",
          "name": "description",
          "type": "string"
        },
        {
          "internalType": "uint256",
          "name": "start",
          "type": "uint256"
        },
        {
          "internalType": "uint256",
          "name": "deadline",
          "type": "uint256"
        },
        {
          "internalType": "uint256",
          "name": "goal",
          "type": "uint256"
        },
        {
          "internalType": "uint256",
          "name": "balance",
          "type": "uint256"
        },
        {
          "internalType": "string",
          "name": "imageURI",
          "type": "string"
        },
        {
          "internalType": "bool",
          "name": "claimed",
          "type": "bool"
        }
      ],
      "stateMutability": "view",
      "type": "function"
    },
    {
      "inputs": [
        {
          "internalType": "uint256",
          "name": "",
          "type": "uint256"
        }
      ],
      "name": "charityList",
      "outputs": [
        {
          "internalType": "address",
          "name": "",
          "type": "address"
        }
      ],
      "stateMutability": "view",
      "type": "function"
    },
    {
      "inputs": [],
      "name": "fundCounter",
      "outputs": [
        {
          "internalType": "uint256",
          "name": "",
          "type": "uint256"
        }
      ],
      "stateMutability": "view",
      "type": "function"
    },
    {
      "inputs": [
        {
          "internalType": "uint256",
          "name": "",
          "type": "uint256"
        }
      ],
      "name": "fundList",
      "outputs": [
        {
          "internalType": "address",
          "name": "owner",
          "type": "address"
        },
        {
          "internalType": "string",
          "name": "title",
          "type": "string"
        },
        {
          "internalType": "string",
          "name": "description",
          "type": "string"
        },
        {
          "internalType": "uint256",
          "name": "start",
          "type": "uint256"
        },
        {
          "internalType": "uint256",
          "name": "deadline",
          "type": "uint256"
        },
        {
          "internalType": "uint256",
          "name": "goal",
          "type": "uint256"
        },
        {
          "internalType": "uint256",
          "name": "balance",
          "type": "uint256"
        },
        {
          "internalType": "string",
          "name": "imageURI",
          "type": "string"
        },
        {
          "internalType": "bool",
          "name": "claimed",
          "type": "bool"
        }
      ],
      "stateMutability": "view",
      "type": "function"
    },
    {
      "inputs": [
        {
          "internalType": "address",
          "name": "",
          "type": "address"
        },
        {
          "internalType": "uint256",
          "name": "",
          "type": "uint256"
        }
      ],
      "name": "fundsDonated",
      "outputs": [
        {
          "internalType": "uint256",
          "name": "",
          "type": "uint256"
        }
      ],
      "stateMutability": "view",
      "type": "function"
    },
    {
      "inputs": [],
      "name": "token",
      "outputs": [
        {
          "internalType": "contract IToken",
          "name": "",
          "type": "address"
        }
      ],
      "stateMutability": "view",
      "type": "function"
    },
    {
      "stateMutability": "payable",
      "type": "receive"
    },
    {
      "inputs": [
        {
          "internalType": "string",
          "name": "title",
          "type": "string"
        },
        {
          "internalType": "string",
          "name": "description",
          "type": "string"
        },
        {
          "internalType": "uint256",
          "name": "start",
          "type": "uint256"
        },
        {
          "internalType": "uint256",
          "name": "end",
          "type": "uint256"
        },
        {
          "internalType": "uint256",
          "name": "goal",
          "type": "uint256"
        },
        {
          "internalType": "string",
          "name": "imageURI",
          "type": "string"
        }
      ],
      "name": "createFund",
      "outputs": [],
      "stateMutability": "nonpayable",
      "type": "function"
    },
    {
      "inputs": [
        {
          "internalType": "uint256",
          "name": "fundNum",
          "type": "uint256"
        },
        {
          "internalType": "uint256",
          "name": "numOfTokens",
          "type": "uint256"
        }
      ],
      "name": "pledge",
      "outputs": [],
      "stateMutability": "payable",
      "type": "function"
    },
    {
      "inputs": [
        {
          "internalType": "uint256",
          "name": "fundNum",
          "type": "uint256"
        }
      ],
      "name": "refund",
      "outputs": [],
      "stateMutability": "nonpayable",
      "type": "function"
    },
    {
      "inputs": [
        {
          "internalType": "uint256",
          "name": "fundNum",
          "type": "uint256"
        }
      ],
      "name": "claim",
      "outputs": [],
      "stateMutability": "nonpayable",
      "type": "function"
    },
    {
      "inputs": [],
      "name": "buy",
      "outputs": [],
      "stateMutability": "payable",
      "type": "function"
    },
    {
      "inputs": [
        {
          "internalType": "uint256",
          "name": "numOfTokens",
          "type": "uint256"
        }
      ],
      "name": "sell",
      "outputs": [],
      "stateMutability": "nonpayable",
      "type": "function"
    },
    {
      "inputs": [
        {
          "internalType": "address",
          "name": "beneficiary",
          "type": "address"
        },
        {
          "internalType": "string",
          "name": "name",
          "type": "string"
        }
      ],
      "name": "newCharity",
      "outputs": [],
      "stateMutability": "nonpayable",
      "type": "function"
    },
    {
      "inputs": [
        {
          "internalType": "address",
          "name": "beneficiary",
          "type": "address"
        },
        {
          "internalType": "uint256",
          "name": "numOfTokens",
          "type": "uint256"
        }
      ],
      "name": "donateToCharity",
      "outputs": [],
      "stateMutability": "nonpayable",
      "type": "function"
    },
    {
      "inputs": [
        {
          "internalType": "address",
          "name": "beneficiary",
          "type": "address"
        },
        {
          "internalType": "uint256",
          "name": "numOfTokens",
          "type": "uint256"
        }
      ],
      "name": "withdraw",
      "outputs": [],
      "stateMutability": "nonpayable",
      "type": "function"
    },
    {
      "inputs": [],
      "name": "getTokenBalance",
      "outputs": [
        {
          "internalType": "uint256",
          "name": "",
          "type": "uint256"
        }
      ],
      "stateMutability": "view",
      "type": "function"
    },
    {
      "inputs": [],
      "name": "getTokenAddress",
      "outputs": [
        {
          "internalType": "address",
          "name": "",
          "type": "address"
        }
      ],
      "stateMutability": "view",
      "type": "function"
    },
    {
      "inputs": [],
      "name": "getOwner",
      "outputs": [
        {
          "internalType": "address",
          "name": "",
          "type": "address"
        }
      ],
      "stateMutability": "view",
      "type": "function"
    },
    {
      "inputs": [
        {
          "internalType": "address",
          "name": "beneficiary",
          "type": "address"
        }
      ],
      "name": "getCharity",
      "outputs": [
        {
          "components": [
            {
              "internalType": "bool",
              "name": "isRegistered",
              "type": "bool"
            },
            {
              "internalType": "string",
              "name": "name",
              "type": "string"
            },
            {
              "internalType": "uint256",
              "name": "amount",
              "type": "uint256"
            }
          ],
          "internalType": "struct Charities.Charity",
          "name": "",
          "type": "tuple"
        }
      ],
      "stateMutability": "view",
      "type": "function"
    },
    {
      "inputs": [],
      "name": "getCharityList",
      "outputs": [
        {
          "internalType": "address[]",
          "name": "",
          "type": "address[]"
        }
      ],
      "stateMutability": "view",
      "type": "function"
    },
    {
      "inputs": [
        {
          "internalType": "uint256",
          "name": "fundNum",
          "type": "uint256"
        }
      ],
      "name": "getFund",
      "outputs": [
        {
          "components": [
            {
              "internalType": "address",
              "name": "owner",
              "type": "address"
            },
            {
              "internalType": "string",
              "name": "title",
              "type": "string"
            },
            {
              "internalType": "string",
              "name": "description",
              "type": "string"
            },
            {
              "internalType": "uint256",
              "name": "start",
              "type": "uint256"
            },
            {
              "internalType": "uint256",
              "name": "deadline",
              "type": "uint256"
            },
            {
              "internalType": "uint256",
              "name": "goal",
              "type": "uint256"
            },
            {
              "internalType": "uint256",
              "name": "balance",
              "type": "uint256"
            },
            {
              "internalType": "string",
              "name": "imageURI",
              "type": "string"
            },
            {
              "internalType": "bool",
              "name": "claimed",
              "type": "bool"
            }
          ],
          "internalType": "struct Charities.Fund",
          "name": "",
          "type": "tuple"
        }
      ],
      "stateMutability": "view",
      "type": "function"
    },
    {
      "inputs": [],
      "name": "getFundList",
      "outputs": [
        {
          "components": [
            {
              "internalType": "address",
              "name": "owner",
              "type": "address"
            },
            {
              "internalType": "string",
              "name": "title",
              "type": "string"
            },
            {
              "internalType": "string",
              "name": "description",
              "type": "string"
            },
            {
              "internalType": "uint256",
              "name": "start",
              "type": "uint256"
            },
            {
              "internalType": "uint256",
              "name": "deadline",
              "type": "uint256"
            },
            {
              "internalType": "uint256",
              "name": "goal",
              "type": "uint256"
            },
            {
              "internalType": "uint256",
              "name": "balance",
              "type": "uint256"
            },
            {
              "internalType": "string",
              "name": "imageURI",
              "type": "string"
            },
            {
              "internalType": "bool",
              "name": "claimed",
              "type": "bool"
            }
          ],
          "internalType": "struct Charities.Fund[]",
          "name": "",
          "type": "tuple[]"
        }
      ],
      "stateMutability": "view",
      "type": "function"
    },
    {
      "inputs": [
        {
          "internalType": "address",
          "name": "beneficiary",
          "type": "address"
        }
      ],
      "name": "isRegistered",
      "outputs": [
        {
          "internalType": "bool",
          "name": "registered",
          "type": "bool"
        }
      ],
      "stateMutability": "view",
      "type": "function"
    },
    {
      "inputs": [
        {
          "internalType": "address",
          "name": "beneficiary",
          "type": "address"
        }
      ],
      "name": "getTokensRecieved",
      "outputs": [
        {
          "internalType": "uint256",
          "name": "tokens",
          "type": "uint256"
        }
      ],
      "stateMutability": "view",
      "type": "function"
    }
  ],
  "bytecode": "0x60806040523480156200001157600080fd5b5033600760006101000a81548173ffffffffffffffffffffffffffffffffffffffff021916908373ffffffffffffffffffffffffffffffffffffffff1602179055506040516200006190620000cd565b604051809103906000f0801580156200007e573d6000803e3d6000fd5b50600660006101000a81548173ffffffffffffffffffffffffffffffffffffffff021916908373ffffffffffffffffffffffffffffffffffffffff1602179055506000600381905550620000db565b6116e280620043c783390190565b6142dc80620000eb6000396000f3fe60806040526004361061016a5760003560e01c806376867eae116100d1578063c3c5a5471161008a578063e7a2843111610064578063e7a2843114610567578063f3fef3a3146105ac578063fc0c546a146105d5578063fde327be1461060057610171565b8063c3c5a547146104d8578063e4849b3214610515578063e60028bd1461053e57610171565b806376867eae146103e7578063807b91a91461041257806382b2e2571461043b578063893d20e8146104665780638ef06f7314610491578063a6f2ae3a146104ce57610171565b8063379607f511610123578063379607f5146102c35780634961a7b2146102ec57806352c8df641461032b5780635b897c94146103685780636ba4194a1461039157806371a01643146103bc57610171565b80630b262d021461017357806310fe9ae8146101b85780631bf230cd146101e3578063278ecde11461022057806327d2fb89146102495780632b5ed9d81461028657610171565b3661017157005b005b34801561017f57600080fd5b5061019a60048036038101906101959190612c36565b61061c565b6040516101af99989796959493929190612d67565b60405180910390f35b3480156101c457600080fd5b506101cd61083f565b6040516101da9190612e09565b60405180910390f35b3480156101ef57600080fd5b5061020a60048036038101906102059190612e50565b610869565b6040516102179190612f35565b60405180910390f35b34801561022c57600080fd5b5061024760048036038101906102429190612c36565b610979565b005b34801561025557600080fd5b50610270600480360381019061026b9190612c36565b610bc9565b60405161027d9190612e09565b60405180910390f35b34801561029257600080fd5b506102ad60048036038101906102a89190612e50565b610c08565b6040516102ba9190612f57565b60405180910390f35b3480156102cf57600080fd5b506102ea60048036038101906102e59190612c36565b610c54565b005b3480156102f857600080fd5b50610313600480360381019061030e9190612e50565b610f20565b60405161032293929190612f72565b60405180910390f35b34801561033757600080fd5b50610352600480360381019061034d9190612c36565b610fdf565b60405161035f9190613092565b60405180910390f35b34801561037457600080fd5b5061038f600480360381019061038a91906130b4565b61125c565b005b34801561039d57600080fd5b506103a66114eb565b6040516103b391906131a3565b60405180910390f35b3480156103c857600080fd5b506103d1611579565b6040516103de919061335a565b60405180910390f35b3480156103f357600080fd5b506103fc611828565b6040516104099190612f57565b60405180910390f35b34801561041e57600080fd5b50610439600480360381019061043491906134b1565b61182e565b005b34801561044757600080fd5b50610450611a82565b60405161045d9190612f57565b60405180910390f35b34801561047257600080fd5b5061047b611b34565b6040516104889190612e09565b60405180910390f35b34801561049d57600080fd5b506104b860048036038101906104b391906130b4565b611b5e565b6040516104c59190612f57565b60405180910390f35b6104d6611b83565b005b3480156104e457600080fd5b506104ff60048036038101906104fa9190612e50565b611d7e565b60405161050c9190613592565b60405180910390f35b34801561052157600080fd5b5061053c60048036038101906105379190612c36565b611dd7565b005b34801561054a57600080fd5b50610565600480360381019061056091906135ad565b61201e565b005b34801561057357600080fd5b5061058e60048036038101906105899190612c36565b6121d8565b6040516105a399989796959493929190612d67565b60405180910390f35b3480156105b857600080fd5b506105d360048036038101906105ce91906130b4565b6123eb565b005b3480156105e157600080fd5b506105ea612721565b6040516105f79190613668565b60405180910390f35b61061a60048036038101906106159190613683565b612747565b005b6004818154811061062c57600080fd5b90600052602060002090600902016000915090508060000160009054906101000a900473ffffffffffffffffffffffffffffffffffffffff1690806001018054610675906136f2565b80601f01602080910402602001604051908101604052809291908181526020018280546106a1906136f2565b80156106ee5780601f106106c3576101008083540402835291602001916106ee565b820191906000526020600020905b8154815290600101906020018083116106d157829003601f168201915b505050505090806002018054610703906136f2565b80601f016020809104026020016040519081016040528092919081815260200182805461072f906136f2565b801561077c5780601f106107515761010080835404028352916020019161077c565b820191906000526020600020905b81548152906001019060200180831161075f57829003601f168201915b5050505050908060030154908060040154908060050154908060060154908060070180546107a9906136f2565b80601f01602080910402602001604051908101604052809291908181526020018280546107d5906136f2565b80156108225780601f106107f757610100808354040283529160200191610822565b820191906000526020600020905b81548152906001019060200180831161080557829003601f168201915b5050505050908060080160009054906101000a900460ff16905089565b6000600660009054906101000a900473ffffffffffffffffffffffffffffffffffffffff16905090565b610871612a35565b600160008373ffffffffffffffffffffffffffffffffffffffff1673ffffffffffffffffffffffffffffffffffffffff1681526020019081526020016000206040518060600160405290816000820160009054906101000a900460ff161515151581526020016001820180546108e6906136f2565b80601f0160208091040260200160405190810160405280929190818152602001828054610912906136f2565b801561095f5780601f106109345761010080835404028352916020019161095f565b820191906000526020600020905b81548152906001019060200180831161094257829003601f168201915b505050505081526020016002820154815250509050919050565b600560008281526020019081526020016000206005015447106109d1576040517f08c379a00000000000000000000000000000000000000000000000000000000081526004016109c890613770565b60405180910390fd5b60056000828152602001908152602001600020600401544211610a29576040517f08c379a0000000000000000000000000000000000000000000000000000000008152600401610a20906137dc565b60405180910390fd5b60008060003373ffffffffffffffffffffffffffffffffffffffff1673ffffffffffffffffffffffffffffffffffffffff168152602001908152602001600020600083815260200190815260200160002054905060008111610ac0576040517f08c379a0000000000000000000000000000000000000000000000000000000008152600401610ab79061386e565b60405180910390fd5b60008060003373ffffffffffffffffffffffffffffffffffffffff1673ffffffffffffffffffffffffffffffffffffffff168152602001908152602001600020600084815260200190815260200160002081905550600660009054906101000a900473ffffffffffffffffffffffffffffffffffffffff1673ffffffffffffffffffffffffffffffffffffffff1663a9059cbb33836040518363ffffffff1660e01b8152600401610b7292919061388e565b602060405180830381600087803b158015610b8c57600080fd5b505af1158015610ba0573d6000803e3d6000fd5b505050506040513d601f19601f82011682018060405250810190610bc491906138e3565b505050565b60028181548110610bd957600080fd5b906000526020600020016000915054906101000a900473ffffffffffffffffffffffffffffffffffffffff1681565b6000600160008373ffffffffffffffffffffffffffffffffffffffff1673ffffffffffffffffffffffffffffffffffffffff168152602001908152602001600020600201549050919050565b600015156005600083815260200190815260200160002060080160009054906101000a900460ff16151514610cbe576040517f08c379a0000000000000000000000000000000000000000000000000000000008152600401610cb590613982565b60405180910390fd5b6005600082815260200190815260200160002060050154600560008381526020019081526020016000206006015410610d2c576040517f08c379a0000000000000000000000000000000000000000000000000000000008152600401610d23906139ee565b60405180910390fd5b60056000828152602001908152602001600020600401544211610d84576040517f08c379a0000000000000000000000000000000000000000000000000000000008152600401610d7b906137dc565b60405180910390fd5b3373ffffffffffffffffffffffffffffffffffffffff166005600083815260200190815260200160002060000160009054906101000a900473ffffffffffffffffffffffffffffffffffffffff1673ffffffffffffffffffffffffffffffffffffffff1614610e28576040517f08c379a0000000000000000000000000000000000000000000000000000000008152600401610e1f90613a80565b60405180910390fd5b60016005600083815260200190815260200160002060080160006101000a81548160ff021916908315150217905550600660009054906101000a900473ffffffffffffffffffffffffffffffffffffffff1673ffffffffffffffffffffffffffffffffffffffff1663a9059cbb3360056000858152602001908152602001600020600601546040518363ffffffff1660e01b8152600401610eca92919061388e565b602060405180830381600087803b158015610ee457600080fd5b505af1158015610ef8573d6000803e3d6000fd5b505050506040513d601f19601f82011682018060405250810190610f1c91906138e3565b5050565b60016020528060005260406000206000915090508060000160009054906101000a900460ff1690806001018054610f56906136f2565b80601f0160208091040260200160405190810160405280929190818152602001828054610f82906136f2565b8015610fcf5780601f10610fa457610100808354040283529160200191610fcf565b820191906000526020600020905b815481529060010190602001808311610fb257829003601f168201915b5050505050908060020154905083565b610fe7612a58565b60056000838152602001908152602001600020604051806101200160405290816000820160009054906101000a900473ffffffffffffffffffffffffffffffffffffffff1673ffffffffffffffffffffffffffffffffffffffff1673ffffffffffffffffffffffffffffffffffffffff16815260200160018201805461106c906136f2565b80601f0160208091040260200160405190810160405280929190818152602001828054611098906136f2565b80156110e55780601f106110ba576101008083540402835291602001916110e5565b820191906000526020600020905b8154815290600101906020018083116110c857829003601f168201915b505050505081526020016002820180546110fe906136f2565b80601f016020809104026020016040519081016040528092919081815260200182805461112a906136f2565b80156111775780601f1061114c57610100808354040283529160200191611177565b820191906000526020600020905b81548152906001019060200180831161115a57829003601f168201915b50505050508152602001600382015481526020016004820154815260200160058201548152602001600682015481526020016007820180546111b8906136f2565b80601f01602080910402602001604051908101604052809291908181526020018280546111e4906136f2565b80156112315780601f1061120657610100808354040283529160200191611231565b820191906000526020600020905b81548152906001019060200180831161121457829003601f168201915b505050505081526020016008820160009054906101000a900460ff1615151515815250509050919050565b6000811161129f576040517f08c379a000000000000000000000000000000000000000000000000000000000815260040161129690613b12565b60405180910390fd5b6112a882611d7e565b6112e7576040517f08c379a00000000000000000000000000000000000000000000000000000000081526004016112de90613b7e565b60405180910390fd5b6000600660009054906101000a900473ffffffffffffffffffffffffffffffffffffffff1673ffffffffffffffffffffffffffffffffffffffff1663dd62ed3e33306040518363ffffffff1660e01b8152600401611346929190613b9e565b60206040518083038186803b15801561135e57600080fd5b505afa158015611372573d6000803e3d6000fd5b505050506040513d601f19601f820116820180604052508101906113969190613bdc565b9050818110156113db576040517f08c379a00000000000000000000000000000000000000000000000000000000081526004016113d290613c7b565b60405180910390fd5b600660009054906101000a900473ffffffffffffffffffffffffffffffffffffffff1673ffffffffffffffffffffffffffffffffffffffff166323b872dd3330856040518463ffffffff1660e01b815260040161143a93929190613c9b565b602060405180830381600087803b15801561145457600080fd5b505af1158015611468573d6000803e3d6000fd5b505050506040513d601f19601f8201168201806040525081019061148c91906138e3565b5081600160008573ffffffffffffffffffffffffffffffffffffffff1673ffffffffffffffffffffffffffffffffffffffff16815260200190815260200160002060020160008282546114df9190613d01565b92505081905550505050565b6060600280548060200260200160405190810160405280929190818152602001828054801561156f57602002820191906000526020600020905b8160009054906101000a900473ffffffffffffffffffffffffffffffffffffffff1673ffffffffffffffffffffffffffffffffffffffff1681526020019060010190808311611525575b5050505050905090565b60606004805480602002602001604051908101604052809291908181526020016000905b8282101561181f5783829060005260206000209060090201604051806101200160405290816000820160009054906101000a900473ffffffffffffffffffffffffffffffffffffffff1673ffffffffffffffffffffffffffffffffffffffff1673ffffffffffffffffffffffffffffffffffffffff168152602001600182018054611627906136f2565b80601f0160208091040260200160405190810160405280929190818152602001828054611653906136f2565b80156116a05780601f10611675576101008083540402835291602001916116a0565b820191906000526020600020905b81548152906001019060200180831161168357829003601f168201915b505050505081526020016002820180546116b9906136f2565b80601f01602080910402602001604051908101604052809291908181526020018280546116e5906136f2565b80156117325780601f1061170757610100808354040283529160200191611732565b820191906000526020600020905b81548152906001019060200180831161171557829003601f168201915b5050505050815260200160038201548152602001600482015481526020016005820154815260200160068201548152602001600782018054611773906136f2565b80601f016020809104026020016040519081016040528092919081815260200182805461179f906136f2565b80156117ec5780601f106117c1576101008083540402835291602001916117ec565b820191906000526020600020905b8154815290600101906020018083116117cf57829003601f168201915b505050505081526020016008820160009054906101000a900460ff1615151515815250508152602001906001019061159d565b50505050905090565b60035481565b60006005600060035481526020019081526020016000209050338160000160006101000a81548173ffffffffffffffffffffffffffffffffffffffff021916908373ffffffffffffffffffffffffffffffffffffffff160217905550868160010190805190602001906118a2929190612abc565b50858160020190805190602001906118bb929190612abc565b5084816003018190555083816004018190555082816005018190555060008160060181905550818160070190805190602001906118f9929190612abc565b5060008160080160006101000a81548160ff02191690831515021790555060048190806001815401808255809150506001900390600052602060002090600902016000909190919091506000820160009054906101000a900473ffffffffffffffffffffffffffffffffffffffff168160000160006101000a81548173ffffffffffffffffffffffffffffffffffffffff021916908373ffffffffffffffffffffffffffffffffffffffff16021790555060018201816001019080546119be906136f2565b6119c9929190612b42565b5060028201816002019080546119de906136f2565b6119e9929190612b42565b50600382015481600301556004820154816004015560058201548160050155600682015481600601556007820181600701908054611a26906136f2565b611a31929190612b42565b506008820160009054906101000a900460ff168160080160006101000a81548160ff021916908315150217905550505060036000815480929190611a7490613d57565b919050555050505050505050565b6000600660009054906101000a900473ffffffffffffffffffffffffffffffffffffffff1673ffffffffffffffffffffffffffffffffffffffff166370a08231336040518263ffffffff1660e01b8152600401611adf9190612e09565b60206040518083038186803b158015611af757600080fd5b505afa158015611b0b573d6000803e3d6000fd5b505050506040513d601f19601f82011682018060405250810190611b2f9190613bdc565b905090565b6000600760009054906101000a900473ffffffffffffffffffffffffffffffffffffffff16905090565b6000602052816000526040600020602052806000526040600020600091509150505481565b600061271034611b939190613da0565b90506000600660009054906101000a900473ffffffffffffffffffffffffffffffffffffffff1673ffffffffffffffffffffffffffffffffffffffff166370a08231306040518263ffffffff1660e01b8152600401611bf29190612e09565b60206040518083038186803b158015611c0a57600080fd5b505afa158015611c1e573d6000803e3d6000fd5b505050506040513d601f19601f82011682018060405250810190611c429190613bdc565b905060008211611c87576040517f08c379a0000000000000000000000000000000000000000000000000000000008152600401611c7e90613e46565b60405180910390fd5b80821115611cca576040517f08c379a0000000000000000000000000000000000000000000000000000000008152600401611cc190613eb2565b60405180910390fd5b600660009054906101000a900473ffffffffffffffffffffffffffffffffffffffff1673ffffffffffffffffffffffffffffffffffffffff1663a9059cbb33846040518363ffffffff1660e01b8152600401611d2792919061388e565b602060405180830381600087803b158015611d4157600080fd5b505af1158015611d55573d6000803e3d6000fd5b505050506040513d601f19601f82011682018060405250810190611d7991906138e3565b505050565b6000600160008373ffffffffffffffffffffffffffffffffffffffff1673ffffffffffffffffffffffffffffffffffffffff16815260200190815260200160002060000160009054906101000a900460ff169050919050565b60008111611e1a576040517f08c379a0000000000000000000000000000000000000000000000000000000008152600401611e1190613f1e565b60405180910390fd5b6000600660009054906101000a900473ffffffffffffffffffffffffffffffffffffffff1673ffffffffffffffffffffffffffffffffffffffff1663dd62ed3e33306040518363ffffffff1660e01b8152600401611e79929190613b9e565b60206040518083038186803b158015611e9157600080fd5b505afa158015611ea5573d6000803e3d6000fd5b505050506040513d601f19601f82011682018060405250810190611ec99190613bdc565b905081811015611f0e576040517f08c379a0000000000000000000000000000000000000000000000000000000008152600401611f0590613c7b565b60405180910390fd5b600660009054906101000a900473ffffffffffffffffffffffffffffffffffffffff1673ffffffffffffffffffffffffffffffffffffffff166323b872dd3330856040518463ffffffff1660e01b8152600401611f6d93929190613c9b565b602060405180830381600087803b158015611f8757600080fd5b505af1158015611f9b573d6000803e3d6000fd5b505050506040513d601f19601f82011682018060405250810190611fbf91906138e3565b50600061271083611fd09190613f6d565b90503373ffffffffffffffffffffffffffffffffffffffff166108fc829081150290604051600060405180830381858888f19350505050158015612018573d6000803e3d6000fd5b50505050565b8173ffffffffffffffffffffffffffffffffffffffff163373ffffffffffffffffffffffffffffffffffffffff1614806120a55750600760009054906101000a900473ffffffffffffffffffffffffffffffffffffffff1673ffffffffffffffffffffffffffffffffffffffff163373ffffffffffffffffffffffffffffffffffffffff16145b6120ae57600080fd5b6120b782611d7e565b156120f7576040517f08c379a00000000000000000000000000000000000000000000000000000000081526004016120ee90613fea565b60405180910390fd5b6002829080600181540180825580915050600190039060005260206000200160009091909190916101000a81548173ffffffffffffffffffffffffffffffffffffffff021916908373ffffffffffffffffffffffffffffffffffffffff1602179055506000600160008473ffffffffffffffffffffffffffffffffffffffff1673ffffffffffffffffffffffffffffffffffffffff168152602001908152602001600020905060018160000160006101000a81548160ff021916908315150217905550818160010190805190602001906121d2929190612abc565b50505050565b60056020528060005260406000206000915090508060000160009054906101000a900473ffffffffffffffffffffffffffffffffffffffff1690806001018054612221906136f2565b80601f016020809104026020016040519081016040528092919081815260200182805461224d906136f2565b801561229a5780601f1061226f5761010080835404028352916020019161229a565b820191906000526020600020905b81548152906001019060200180831161227d57829003601f168201915b5050505050908060020180546122af906136f2565b80601f01602080910402602001604051908101604052809291908181526020018280546122db906136f2565b80156123285780601f106122fd57610100808354040283529160200191612328565b820191906000526020600020905b81548152906001019060200180831161230b57829003601f168201915b505050505090806003015490806004015490806005015490806006015490806007018054612355906136f2565b80601f0160208091040260200160405190810160405280929190818152602001828054612381906136f2565b80156123ce5780601f106123a3576101008083540402835291602001916123ce565b820191906000526020600020905b8154815290600101906020018083116123b157829003601f168201915b5050505050908060080160009054906101000a900460ff16905089565b8173ffffffffffffffffffffffffffffffffffffffff163373ffffffffffffffffffffffffffffffffffffffff1614612459576040517f08c379a00000000000000000000000000000000000000000000000000000000081526004016124509061407c565b60405180910390fd5b6000600660009054906101000a900473ffffffffffffffffffffffffffffffffffffffff1673ffffffffffffffffffffffffffffffffffffffff166370a08231306040518263ffffffff1660e01b81526004016124b69190612e09565b60206040518083038186803b1580156124ce57600080fd5b505afa1580156124e2573d6000803e3d6000fd5b505050506040513d601f19601f820116820180604052508101906125069190613bdc565b90506000821161254b576040517f08c379a00000000000000000000000000000000000000000000000000000000081526004016125429061410e565b60405180910390fd5b600160008473ffffffffffffffffffffffffffffffffffffffff1673ffffffffffffffffffffffffffffffffffffffff168152602001908152602001600020600201548211156125d0576040517f08c379a00000000000000000000000000000000000000000000000000000000081526004016125c79061417a565b60405180910390fd5b80821115612613576040517f08c379a000000000000000000000000000000000000000000000000000000000815260040161260a90613eb2565b60405180910390fd5b600660009054906101000a900473ffffffffffffffffffffffffffffffffffffffff1673ffffffffffffffffffffffffffffffffffffffff1663a9059cbb33846040518363ffffffff1660e01b815260040161267092919061388e565b602060405180830381600087803b15801561268a57600080fd5b505af115801561269e573d6000803e3d6000fd5b505050506040513d601f19601f820116820180604052508101906126c291906138e3565b5081600160008573ffffffffffffffffffffffffffffffffffffffff1673ffffffffffffffffffffffffffffffffffffffff1681526020019081526020016000206002016000828254612715919061419a565b92505081905550505050565b600660009054906101000a900473ffffffffffffffffffffffffffffffffffffffff1681565b6005600083815260200190815260200160002060030154421161279f576040517f08c379a00000000000000000000000000000000000000000000000000000000081526004016127969061421a565b60405180910390fd5b600560008381526020019081526020016000206004015442106127f7576040517f08c379a00000000000000000000000000000000000000000000000000000000081526004016127ee90614286565b60405180910390fd5b6000600660009054906101000a900473ffffffffffffffffffffffffffffffffffffffff1673ffffffffffffffffffffffffffffffffffffffff1663dd62ed3e33306040518363ffffffff1660e01b8152600401612856929190613b9e565b60206040518083038186803b15801561286e57600080fd5b505afa158015612882573d6000803e3d6000fd5b505050506040513d601f19601f820116820180604052508101906128a69190613bdc565b9050818110156128eb576040517f08c379a00000000000000000000000000000000000000000000000000000000081526004016128e290613c7b565b60405180910390fd5b600660009054906101000a900473ffffffffffffffffffffffffffffffffffffffff1673ffffffffffffffffffffffffffffffffffffffff166323b872dd3330856040518463ffffffff1660e01b815260040161294a93929190613c9b565b602060405180830381600087803b15801561296457600080fd5b505af1158015612978573d6000803e3d6000fd5b505050506040513d601f19601f8201168201806040525081019061299c91906138e3565b50816005600085815260200190815260200160002060060160008282546129c39190613d01565b92505081905550816000803373ffffffffffffffffffffffffffffffffffffffff1673ffffffffffffffffffffffffffffffffffffffff16815260200190815260200160002060008581526020019081526020016000206000828254612a299190613d01565b92505081905550505050565b604051806060016040528060001515815260200160608152602001600081525090565b604051806101200160405280600073ffffffffffffffffffffffffffffffffffffffff168152602001606081526020016060815260200160008152602001600081526020016000815260200160008152602001606081526020016000151581525090565b828054612ac8906136f2565b90600052602060002090601f016020900481019282612aea5760008555612b31565b82601f10612b0357805160ff1916838001178555612b31565b82800160010185558215612b31579182015b82811115612b30578251825591602001919060010190612b15565b5b509050612b3e9190612bcf565b5090565b828054612b4e906136f2565b90600052602060002090601f016020900481019282612b705760008555612bbe565b82601f10612b815780548555612bbe565b82800160010185558215612bbe57600052602060002091601f016020900482015b82811115612bbd578254825591600101919060010190612ba2565b5b509050612bcb9190612bcf565b5090565b5b80821115612be8576000816000905550600101612bd0565b5090565b6000604051905090565b600080fd5b600080fd5b6000819050919050565b612c1381612c00565b8114612c1e57600080fd5b50565b600081359050612c3081612c0a565b92915050565b600060208284031215612c4c57612c4b612bf6565b5b6000612c5a84828501612c21565b91505092915050565b600073ffffffffffffffffffffffffffffffffffffffff82169050919050565b6000612c8e82612c63565b9050919050565b612c9e81612c83565b82525050565b600081519050919050565b600082825260208201905092915050565b60005b83811015612cde578082015181840152602081019050612cc3565b83811115612ced576000848401525b50505050565b6000601f19601f8301169050919050565b6000612d0f82612ca4565b612d198185612caf565b9350612d29818560208601612cc0565b612d3281612cf3565b840191505092915050565b612d4681612c00565b82525050565b60008115159050919050565b612d6181612d4c565b82525050565b600061012082019050612d7d600083018c612c95565b8181036020830152612d8f818b612d04565b90508181036040830152612da3818a612d04565b9050612db26060830189612d3d565b612dbf6080830188612d3d565b612dcc60a0830187612d3d565b612dd960c0830186612d3d565b81810360e0830152612deb8185612d04565b9050612dfb610100830184612d58565b9a9950505050505050505050565b6000602082019050612e1e6000830184612c95565b92915050565b612e2d81612c83565b8114612e3857600080fd5b50565b600081359050612e4a81612e24565b92915050565b600060208284031215612e6657612e65612bf6565b5b6000612e7484828501612e3b565b91505092915050565b612e8681612d4c565b82525050565b600082825260208201905092915050565b6000612ea882612ca4565b612eb28185612e8c565b9350612ec2818560208601612cc0565b612ecb81612cf3565b840191505092915050565b612edf81612c00565b82525050565b6000606083016000830151612efd6000860182612e7d565b5060208301518482036020860152612f158282612e9d565b9150506040830151612f2a6040860182612ed6565b508091505092915050565b60006020820190508181036000830152612f4f8184612ee5565b905092915050565b6000602082019050612f6c6000830184612d3d565b92915050565b6000606082019050612f876000830186612d58565b8181036020830152612f998185612d04565b9050612fa86040830184612d3d565b949350505050565b612fb981612c83565b82525050565b600061012083016000830151612fd86000860182612fb0565b5060208301518482036020860152612ff08282612e9d565b9150506040830151848203604086015261300a8282612e9d565b915050606083015161301f6060860182612ed6565b5060808301516130326080860182612ed6565b5060a083015161304560a0860182612ed6565b5060c083015161305860c0860182612ed6565b5060e083015184820360e08601526130708282612e9d565b915050610100830151613087610100860182612e7d565b508091505092915050565b600060208201905081810360008301526130ac8184612fbf565b905092915050565b600080604083850312156130cb576130ca612bf6565b5b60006130d985828601612e3b565b92505060206130ea85828601612c21565b9150509250929050565b600081519050919050565b600082825260208201905092915050565b6000819050602082019050919050565b600061312c8383612fb0565b60208301905092915050565b6000602082019050919050565b6000613150826130f4565b61315a81856130ff565b935061316583613110565b8060005b8381101561319657815161317d8882613120565b975061318883613138565b925050600181019050613169565b5085935050505092915050565b600060208201905081810360008301526131bd8184613145565b905092915050565b600081519050919050565b600082825260208201905092915050565b6000819050602082019050919050565b60006101208301600083015161320a6000860182612fb0565b50602083015184820360208601526132228282612e9d565b9150506040830151848203604086015261323c8282612e9d565b91505060608301516132516060860182612ed6565b5060808301516132646080860182612ed6565b5060a083015161327760a0860182612ed6565b5060c083015161328a60c0860182612ed6565b5060e083015184820360e08601526132a28282612e9d565b9150506101008301516132b9610100860182612e7d565b508091505092915050565b60006132d083836131f1565b905092915050565b6000602082019050919050565b60006132f0826131c5565b6132fa81856131d0565b93508360208202850161330c856131e1565b8060005b85811015613348578484038952815161332985826132c4565b9450613334836132d8565b925060208a01995050600181019050613310565b50829750879550505050505092915050565b6000602082019050818103600083015261337481846132e5565b905092915050565b600080fd5b600080fd5b7f4e487b7100000000000000000000000000000000000000000000000000000000600052604160045260246000fd5b6133be82612cf3565b810181811067ffffffffffffffff821117156133dd576133dc613386565b5b80604052505050565b60006133f0612bec565b90506133fc82826133b5565b919050565b600067ffffffffffffffff82111561341c5761341b613386565b5b61342582612cf3565b9050602081019050919050565b82818337600083830152505050565b600061345461344f84613401565b6133e6565b9050828152602081018484840111156134705761346f613381565b5b61347b848285613432565b509392505050565b600082601f8301126134985761349761337c565b5b81356134a8848260208601613441565b91505092915050565b60008060008060008060c087890312156134ce576134cd612bf6565b5b600087013567ffffffffffffffff8111156134ec576134eb612bfb565b5b6134f889828a01613483565b965050602087013567ffffffffffffffff81111561351957613518612bfb565b5b61352589828a01613483565b955050604061353689828a01612c21565b945050606061354789828a01612c21565b935050608061355889828a01612c21565b92505060a087013567ffffffffffffffff81111561357957613578612bfb565b5b61358589828a01613483565b9150509295509295509295565b60006020820190506135a76000830184612d58565b92915050565b600080604083850312156135c4576135c3612bf6565b5b60006135d285828601612e3b565b925050602083013567ffffffffffffffff8111156135f3576135f2612bfb565b5b6135ff85828601613483565b9150509250929050565b6000819050919050565b600061362e61362961362484612c63565b613609565b612c63565b9050919050565b600061364082613613565b9050919050565b600061365282613635565b9050919050565b61366281613647565b82525050565b600060208201905061367d6000830184613659565b92915050565b6000806040838503121561369a57613699612bf6565b5b60006136a885828601612c21565b92505060206136b985828601612c21565b9150509250929050565b7f4e487b7100000000000000000000000000000000000000000000000000000000600052602260045260246000fd5b6000600282049050600182168061370a57607f821691505b6020821081141561371e5761371d6136c3565b5b50919050565b7f476f616c20686173206265656e206d6574000000000000000000000000000000600082015250565b600061375a601183612caf565b915061376582613724565b602082019050919050565b600060208201905081810360008301526137898161374d565b9050919050565b7f446561646c696e6520686173206e6f74206265656e2072656163686564000000600082015250565b60006137c6601d83612caf565b91506137d182613790565b602082019050919050565b600060208201905081810360008301526137f5816137b9565b9050919050565b7f596f752068617665206e6f7420646f6e6174656420746f20746869732066756e60008201527f6400000000000000000000000000000000000000000000000000000000000000602082015250565b6000613858602183612caf565b9150613863826137fc565b604082019050919050565b600060208201905081810360008301526138878161384b565b9050919050565b60006040820190506138a36000830185612c95565b6138b06020830184612d3d565b9392505050565b6138c081612d4c565b81146138cb57600080fd5b50565b6000815190506138dd816138b7565b92915050565b6000602082840312156138f9576138f8612bf6565b5b6000613907848285016138ce565b91505092915050565b7f596f75206861766520616c726561647920636c61696d6564207468652066756e60008201527f6473000000000000000000000000000000000000000000000000000000000000602082015250565b600061396c602283612caf565b915061397782613910565b604082019050919050565b6000602082019050818103600083015261399b8161395f565b9050919050565b7f476f616c20686173206e6f74206265656e206d65740000000000000000000000600082015250565b60006139d8601583612caf565b91506139e3826139a2565b602082019050919050565b60006020820190508181036000830152613a07816139cb565b9050919050565b7f596f7520617265206e6f7420746865206f776e6572206f66207468697320667560008201527f6e64000000000000000000000000000000000000000000000000000000000000602082015250565b6000613a6a602283612caf565b9150613a7582613a0e565b604082019050919050565b60006020820190508181036000830152613a9981613a5d565b9050919050565b7f596f75206e65656420746f20646f6e617465206d6f7265207468616e2030207460008201527f6f6b656e73000000000000000000000000000000000000000000000000000000602082015250565b6000613afc602583612caf565b9150613b0782613aa0565b604082019050919050565b60006020820190508181036000830152613b2b81613aef565b9050919050565b7f43686172697479206973206e6f74207265676973746572656400000000000000600082015250565b6000613b68601983612caf565b9150613b7382613b32565b602082019050919050565b60006020820190508181036000830152613b9781613b5b565b9050919050565b6000604082019050613bb36000830185612c95565b613bc06020830184612c95565b9392505050565b600081519050613bd681612c0a565b92915050565b600060208284031215613bf257613bf1612bf6565b5b6000613c0084828501613bc7565b91505092915050565b7f4e6f7420617070726f76656420746f207472616e736665722074686973206d6160008201527f6e7920746f6b656e730000000000000000000000000000000000000000000000602082015250565b6000613c65602983612caf565b9150613c7082613c09565b604082019050919050565b60006020820190508181036000830152613c9481613c58565b9050919050565b6000606082019050613cb06000830186612c95565b613cbd6020830185612c95565b613cca6040830184612d3d565b949350505050565b7f4e487b7100000000000000000000000000000000000000000000000000000000600052601160045260246000fd5b6000613d0c82612c00565b9150613d1783612c00565b9250827fffffffffffffffffffffffffffffffffffffffffffffffffffffffffffffffff03821115613d4c57613d4b613cd2565b5b828201905092915050565b6000613d6282612c00565b91507fffffffffffffffffffffffffffffffffffffffffffffffffffffffffffffffff821415613d9557613d94613cd2565b5b600182019050919050565b6000613dab82612c00565b9150613db683612c00565b9250817fffffffffffffffffffffffffffffffffffffffffffffffffffffffffffffffff0483118215151615613def57613dee613cd2565b5b828202905092915050565b7f596f75206e65656420746f2073656e6420736f6d652065746865720000000000600082015250565b6000613e30601b83612caf565b9150613e3b82613dfa565b602082019050919050565b60006020820190508181036000830152613e5f81613e23565b9050919050565b7f4e6f7420656e6f75676820746f6b656e7320696e207468652072657365727665600082015250565b6000613e9c602083612caf565b9150613ea782613e66565b602082019050919050565b60006020820190508181036000830152613ecb81613e8f565b9050919050565b7f596f75206e65656420746f2073656c6c203020746f6b656e7300000000000000600082015250565b6000613f08601983612caf565b9150613f1382613ed2565b602082019050919050565b60006020820190508181036000830152613f3781613efb565b9050919050565b7f4e487b7100000000000000000000000000000000000000000000000000000000600052601260045260246000fd5b6000613f7882612c00565b9150613f8383612c00565b925082613f9357613f92613f3e565b5b828204905092915050565b7f596f752061726520616c72656164792072656769737465726564000000000000600082015250565b6000613fd4601a83612caf565b9150613fdf82613f9e565b602082019050919050565b6000602082019050818103600083015261400381613fc7565b9050919050565b7f596f7520617265206e6f7420746865206f776e6572206f66207468652063686160008201527f7269747900000000000000000000000000000000000000000000000000000000602082015250565b6000614066602483612caf565b91506140718261400a565b604082019050919050565b6000602082019050818103600083015261409581614059565b9050919050565b7f596f75206e65656420746f207472616e73666572206d6f7265207468616e203060008201527f20746f6b656e7300000000000000000000000000000000000000000000000000602082015250565b60006140f8602783612caf565b91506141038261409c565b604082019050919050565b60006020820190508181036000830152614127816140eb565b9050919050565b7f596f7520646f206e6f7420686176652074686174206d616e7920746f6b656e73600082015250565b6000614164602083612caf565b915061416f8261412e565b602082019050919050565b6000602082019050818103600083015261419381614157565b9050919050565b60006141a582612c00565b91506141b083612c00565b9250828210156141c3576141c2613cd2565b5b828203905092915050565b7f46756e64206861736e2774207374617274656400000000000000000000000000600082015250565b6000614204601383612caf565b915061420f826141ce565b602082019050919050565b60006020820190508181036000830152614233816141f7565b9050919050565b7f446561646c696e65206861732070617373656400000000000000000000000000600082015250565b6000614270601383612caf565b915061427b8261423a565b602082019050919050565b6000602082019050818103600083015261429f81614263565b905091905056fea2646970667358221220df057a5effaba5de885aab0f5635dc21998107402c179dc7239aeac78783dda664736f6c6343000809003360806040526040518060400160405280600d81526020017f4368617269747920546f6b656e0000000000000000000000000000000000000081525060009080519060200190620000519291906200023e565b506040518060400160405280600381526020017f4348540000000000000000000000000000000000000000000000000000000000815250600190805190602001906200009f9291906200023e565b506012600260006101000a81548160ff021916908360ff1602179055506000600355348015620000ce57600080fd5b506200010f33620000e46200011560201b60201c565b600a620000f2919062000488565b633b9aca00620001039190620004d9565b6200012c60201b60201c565b6200062a565b6000600260009054906101000a900460ff16905090565b806003546200013c91906200053a565b60038190555080600460008473ffffffffffffffffffffffffffffffffffffffff1673ffffffffffffffffffffffffffffffffffffffff168152602001908152602001600020546200018f91906200053a565b600460008473ffffffffffffffffffffffffffffffffffffffff1673ffffffffffffffffffffffffffffffffffffffff168152602001908152602001600020819055508173ffffffffffffffffffffffffffffffffffffffff16600073ffffffffffffffffffffffffffffffffffffffff167fddf252ad1be2c89b69c2b068fc378daa952ba7f163c4a11628f55a4df523b3ef83604051620002329190620005a8565b60405180910390a35050565b8280546200024c90620005f4565b90600052602060002090601f016020900481019282620002705760008555620002bc565b82601f106200028b57805160ff1916838001178555620002bc565b82800160010185558215620002bc579182015b82811115620002bb5782518255916020019190600101906200029e565b5b509050620002cb9190620002cf565b5090565b5b80821115620002ea576000816000905550600101620002d0565b5090565b7f4e487b7100000000000000000000000000000000000000000000000000000000600052601160045260246000fd5b60008160011c9050919050565b6000808291508390505b60018511156200037c57808604811115620003545762000353620002ee565b5b6001851615620003645780820291505b808102905062000374856200031d565b945062000334565b94509492505050565b6000826200039757600190506200046a565b81620003a757600090506200046a565b8160018114620003c05760028114620003cb5762000401565b60019150506200046a565b60ff841115620003e057620003df620002ee565b5b8360020a915084821115620003fa57620003f9620002ee565b5b506200046a565b5060208310610133831016604e8410600b84101617156200043b5782820a905083811115620004355762000434620002ee565b5b6200046a565b6200044a84848460016200032a565b92509050818404811115620004645762000463620002ee565b5b81810290505b9392505050565b6000819050919050565b600060ff82169050919050565b6000620004958262000471565b9150620004a2836200047b565b9250620004d17fffffffffffffffffffffffffffffffffffffffffffffffffffffffffffffffff848462000385565b905092915050565b6000620004e68262000471565b9150620004f38362000471565b9250817fffffffffffffffffffffffffffffffffffffffffffffffffffffffffffffffff04831182151516156200052f576200052e620002ee565b5b828202905092915050565b6000620005478262000471565b9150620005548362000471565b9250827fffffffffffffffffffffffffffffffffffffffffffffffffffffffffffffffff038211156200058c576200058b620002ee565b5b828201905092915050565b620005a28162000471565b82525050565b6000602082019050620005bf600083018462000597565b92915050565b7f4e487b7100000000000000000000000000000000000000000000000000000000600052602260045260246000fd5b600060028204905060018216806200060d57607f821691505b60208210811415620006245762000623620005c5565b5b50919050565b6110a8806200063a6000396000f3fe608060405234801561001057600080fd5b50600436106100cf5760003560e01c80633eaaf86b1161008c578063a9059cbb11610066578063a9059cbb14610218578063b09f126614610248578063d28d885214610266578063dd62ed3e14610284576100cf565b80633eaaf86b146101ac57806370a08231146101ca57806395d89b41146101fa576100cf565b806306fdde03146100d4578063095ea7b3146100f257806318160ddd1461012257806323b872dd14610140578063313ce5671461017057806332424aa31461018e575b600080fd5b6100dc6102b4565b6040516100e99190610d06565b60405180910390f35b61010c60048036038101906101079190610dc1565b610346565b6040516101199190610e1c565b60405180910390f35b61012a610471565b6040516101379190610e46565b60405180910390f35b61015a60048036038101906101559190610e61565b61047b565b6040516101679190610e1c565b60405180910390f35b6101786107e6565b6040516101859190610ed0565b60405180910390f35b6101966107fd565b6040516101a39190610ed0565b60405180910390f35b6101b4610810565b6040516101c19190610e46565b60405180910390f35b6101e460048036038101906101df9190610eeb565b610816565b6040516101f19190610e46565b60405180910390f35b61020261085f565b60405161020f9190610d06565b60405180910390f35b610232600480360381019061022d9190610dc1565b6108f1565b60405161023f9190610e1c565b60405180910390f35b610250610aca565b60405161025d9190610d06565b60405180910390f35b61026e610b58565b60405161027b9190610d06565b60405180910390f35b61029e60048036038101906102999190610f18565b610be6565b6040516102ab9190610e46565b60405180910390f35b6060600080546102c390610f87565b80601f01602080910402602001604051908101604052809291908181526020018280546102ef90610f87565b801561033c5780601f106103115761010080835404028352916020019161033c565b820191906000526020600020905b81548152906001019060200180831161031f57829003601f168201915b5050505050905090565b60008073ffffffffffffffffffffffffffffffffffffffff168373ffffffffffffffffffffffffffffffffffffffff16141561038157600080fd5b81600560003373ffffffffffffffffffffffffffffffffffffffff1673ffffffffffffffffffffffffffffffffffffffff16815260200190815260200160002060008573ffffffffffffffffffffffffffffffffffffffff1673ffffffffffffffffffffffffffffffffffffffff168152602001908152602001600020819055508273ffffffffffffffffffffffffffffffffffffffff163373ffffffffffffffffffffffffffffffffffffffff167f8c5be1e5ebec7d5bd14f71427d1e84f3dd0314c0f7b2291e5b200ac8c7c3b9258460405161045f9190610e46565b60405180910390a36001905092915050565b6000600354905090565b600081600460008673ffffffffffffffffffffffffffffffffffffffff1673ffffffffffffffffffffffffffffffffffffffff1681526020019081526020016000205410156104c957600080fd5b81600560008673ffffffffffffffffffffffffffffffffffffffff1673ffffffffffffffffffffffffffffffffffffffff16815260200190815260200160002060003373ffffffffffffffffffffffffffffffffffffffff1673ffffffffffffffffffffffffffffffffffffffff16815260200190815260200160002054101561055257600080fd5b81600460008673ffffffffffffffffffffffffffffffffffffffff1673ffffffffffffffffffffffffffffffffffffffff1681526020019081526020016000205461059d9190610fe8565b600460008673ffffffffffffffffffffffffffffffffffffffff1673ffffffffffffffffffffffffffffffffffffffff1681526020019081526020016000208190555081600460008573ffffffffffffffffffffffffffffffffffffffff1673ffffffffffffffffffffffffffffffffffffffff1681526020019081526020016000205461062b919061101c565b600460008573ffffffffffffffffffffffffffffffffffffffff1673ffffffffffffffffffffffffffffffffffffffff1681526020019081526020016000208190555081600560008673ffffffffffffffffffffffffffffffffffffffff1673ffffffffffffffffffffffffffffffffffffffff16815260200190815260200160002060003373ffffffffffffffffffffffffffffffffffffffff1673ffffffffffffffffffffffffffffffffffffffff168152602001908152602001600020546106f69190610fe8565b600560008673ffffffffffffffffffffffffffffffffffffffff1673ffffffffffffffffffffffffffffffffffffffff16815260200190815260200160002060003373ffffffffffffffffffffffffffffffffffffffff1673ffffffffffffffffffffffffffffffffffffffff168152602001908152602001600020819055508273ffffffffffffffffffffffffffffffffffffffff163373ffffffffffffffffffffffffffffffffffffffff167fddf252ad1be2c89b69c2b068fc378daa952ba7f163c4a11628f55a4df523b3ef846040516107d39190610e46565b60405180910390a3600190509392505050565b6000600260009054906101000a900460ff16905090565b600260009054906101000a900460ff1681565b60035481565b6000600460008373ffffffffffffffffffffffffffffffffffffffff1673ffffffffffffffffffffffffffffffffffffffff168152602001908152602001600020549050919050565b60606001805461086e90610f87565b80601f016020809104026020016040519081016040528092919081815260200182805461089a90610f87565b80156108e75780601f106108bc576101008083540402835291602001916108e7565b820191906000526020600020905b8154815290600101906020018083116108ca57829003601f168201915b5050505050905090565b600081600460003373ffffffffffffffffffffffffffffffffffffffff1673ffffffffffffffffffffffffffffffffffffffff16815260200190815260200160002054101561093f57600080fd5b81600460003373ffffffffffffffffffffffffffffffffffffffff1673ffffffffffffffffffffffffffffffffffffffff1681526020019081526020016000205461098a9190610fe8565b600460003373ffffffffffffffffffffffffffffffffffffffff1673ffffffffffffffffffffffffffffffffffffffff1681526020019081526020016000208190555081600460008573ffffffffffffffffffffffffffffffffffffffff1673ffffffffffffffffffffffffffffffffffffffff16815260200190815260200160002054610a18919061101c565b600460008573ffffffffffffffffffffffffffffffffffffffff1673ffffffffffffffffffffffffffffffffffffffff168152602001908152602001600020819055508273ffffffffffffffffffffffffffffffffffffffff163373ffffffffffffffffffffffffffffffffffffffff167fddf252ad1be2c89b69c2b068fc378daa952ba7f163c4a11628f55a4df523b3ef84604051610ab89190610e46565b60405180910390a36001905092915050565b60018054610ad790610f87565b80601f0160208091040260200160405190810160405280929190818152602001828054610b0390610f87565b8015610b505780601f10610b2557610100808354040283529160200191610b50565b820191906000526020600020905b815481529060010190602001808311610b3357829003601f168201915b505050505081565b60008054610b6590610f87565b80601f0160208091040260200160405190810160405280929190818152602001828054610b9190610f87565b8015610bde5780601f10610bb357610100808354040283529160200191610bde565b820191906000526020600020905b815481529060010190602001808311610bc157829003601f168201915b505050505081565b6000600560008473ffffffffffffffffffffffffffffffffffffffff1673ffffffffffffffffffffffffffffffffffffffff16815260200190815260200160002060008373ffffffffffffffffffffffffffffffffffffffff1673ffffffffffffffffffffffffffffffffffffffff16815260200190815260200160002054905092915050565b600081519050919050565b600082825260208201905092915050565b60005b83811015610ca7578082015181840152602081019050610c8c565b83811115610cb6576000848401525b50505050565b6000601f19601f8301169050919050565b6000610cd882610c6d565b610ce28185610c78565b9350610cf2818560208601610c89565b610cfb81610cbc565b840191505092915050565b60006020820190508181036000830152610d208184610ccd565b905092915050565b600080fd5b600073ffffffffffffffffffffffffffffffffffffffff82169050919050565b6000610d5882610d2d565b9050919050565b610d6881610d4d565b8114610d7357600080fd5b50565b600081359050610d8581610d5f565b92915050565b6000819050919050565b610d9e81610d8b565b8114610da957600080fd5b50565b600081359050610dbb81610d95565b92915050565b60008060408385031215610dd857610dd7610d28565b5b6000610de685828601610d76565b9250506020610df785828601610dac565b9150509250929050565b60008115159050919050565b610e1681610e01565b82525050565b6000602082019050610e316000830184610e0d565b92915050565b610e4081610d8b565b82525050565b6000602082019050610e5b6000830184610e37565b92915050565b600080600060608486031215610e7a57610e79610d28565b5b6000610e8886828701610d76565b9350506020610e9986828701610d76565b9250506040610eaa86828701610dac565b9150509250925092565b600060ff82169050919050565b610eca81610eb4565b82525050565b6000602082019050610ee56000830184610ec1565b92915050565b600060208284031215610f0157610f00610d28565b5b6000610f0f84828501610d76565b91505092915050565b60008060408385031215610f2f57610f2e610d28565b5b6000610f3d85828601610d76565b9250506020610f4e85828601610d76565b9150509250929050565b7f4e487b7100000000000000000000000000000000000000000000000000000000600052602260045260246000fd5b60006002820490506001821680610f9f57607f821691505b60208210811415610fb357610fb2610f58565b5b50919050565b7f4e487b7100000000000000000000000000000000000000000000000000000000600052601160045260246000fd5b6000610ff382610d8b565b9150610ffe83610d8b565b92508282101561101157611010610fb9565b5b828203905092915050565b600061102782610d8b565b915061103283610d8b565b9250827fffffffffffffffffffffffffffffffffffffffffffffffffffffffffffffffff0382111561106757611066610fb9565b5b82820190509291505056fea26469706673582212200cccc9205cc0fa462a4184e021c27faaf0f509b86d8103e5a4b5bd7bca77990664736f6c63430008090033",
  "immutableReferences": {},
  "source": "// SPDX-License-Identifier: MIT\r\npragma solidity ^0.8.9;\r\n\r\nimport \"./Token.sol\";\r\n\r\ncontract Charities {\r\n\r\n    struct Charity {\r\n        // whether the charity has registered\r\n        bool isRegistered;\r\n        // name of the charity\r\n        string name;\r\n        // total amount donated to this charity\r\n        uint amount;\r\n    }\r\n\r\n    struct Fund {\r\n        address owner;\r\n        string title;\r\n        string description;\r\n        uint start;\r\n        uint deadline;\r\n        uint goal;\r\n        uint balance;\r\n        string imageURI;\r\n        bool claimed;\r\n    }\r\n\r\n    mapping (address => mapping(uint => uint)) public fundsDonated;\r\n    \r\n    mapping (address => Charity) public allCharities;\r\n    // list of registered charities\r\n    address[] public charityList;\r\n\r\n    uint public fundCounter;\r\n\r\n    Fund[] public fundList;\r\n\r\n    mapping (uint => Fund) public allFunds;\r\n\r\n    IToken public token;\r\n\r\n    address private _owner;\r\n\r\n    constructor() {\r\n        _owner = msg.sender;\r\n        token = new Token();\r\n        fundCounter = 0;\r\n    }\r\n\r\n    function createFund(string memory title, string memory description, uint start, uint end, uint goal, string memory imageURI) public {\r\n        Fund storage f = allFunds[fundCounter];\r\n        f.owner = msg.sender;\r\n        f.title = title;\r\n        f.description = description;\r\n        f.start = start;\r\n        f.deadline = end;\r\n        f.goal = goal;\r\n        f.balance = 0;\r\n        f.imageURI = imageURI;\r\n        f.claimed = false;\r\n        fundList.push(f);\r\n        fundCounter++;\r\n    }\r\n\r\n    function pledge(uint fundNum, uint numOfTokens) public payable {\r\n        require(block.timestamp > allFunds[fundNum].start, \"Fund hasn't started\");\r\n        require(block.timestamp < allFunds[fundNum].deadline, \"Deadline has passed\");\r\n        uint allowance = token.allowance(msg.sender, address(this));\r\n        require(allowance >= numOfTokens, \"Not approved to transfer this many tokens\");\r\n        token.transferFrom(msg.sender, address(this), numOfTokens);\r\n\r\n        allFunds[fundNum].balance += numOfTokens;\r\n        fundsDonated[msg.sender][fundNum] += numOfTokens;\r\n    }\r\n\r\n    function refund(uint fundNum) public {\r\n        require(address(this).balance < allFunds[fundNum].goal, \"Goal has been met\");\r\n        require(block.timestamp > allFunds[fundNum].deadline, \"Deadline has not been reached\");\r\n        uint amount = fundsDonated[msg.sender][fundNum];\r\n        require(amount > 0, \"You have not donated to this fund\");\r\n        fundsDonated[msg.sender][fundNum] = 0;\r\n        token.transfer(msg.sender, amount);      \r\n    }\r\n\r\n    function claim(uint fundNum) public {\r\n        require(allFunds[fundNum].claimed == false, \"You have already claimed the funds\");\r\n        require(allFunds[fundNum].balance < allFunds[fundNum].goal, \"Goal has not been met\");\r\n        require(block.timestamp > allFunds[fundNum].deadline, \"Deadline has not been reached\");\r\n        require(allFunds[fundNum].owner == msg.sender, \"You are not the owner of this fund\");\r\n        allFunds[fundNum].claimed = true;\r\n        token.transfer(msg.sender, allFunds[fundNum].balance);\r\n    }\r\n\r\n    // user can buy tokens\r\n    function buy() payable public {\r\n        // currently 10000 token == 1 ether\r\n        uint amountTobuy = msg.value * 10000;\r\n        uint contractBalance = token.balanceOf(address(this));\r\n        require(amountTobuy > 0, \"You need to send some ether\");\r\n        require(amountTobuy <= contractBalance, \"Not enough tokens in the reserve\");\r\n        token.transfer(msg.sender, amountTobuy);\r\n    }\r\n\r\n    function sell(uint numOfTokens) public {\r\n        require(numOfTokens > 0, \"You need to sell 0 tokens\");\r\n        uint allowance = token.allowance(msg.sender, address(this));\r\n        require(allowance >= numOfTokens, \"Not approved to transfer this many tokens\");\r\n        \r\n        token.transferFrom(msg.sender, address(this), numOfTokens);\r\n        uint amountToSell = numOfTokens / 10000;\r\n        payable(msg.sender).transfer(amountToSell);\r\n    }\r\n\r\n    // register a new charity\r\n    function newCharity(address beneficiary, string memory name) public {\r\n        require(msg.sender == beneficiary || msg.sender == _owner);\r\n        require(!isRegistered(beneficiary), \"You are already registered\");\r\n        charityList.push(beneficiary);\r\n        \r\n        Charity storage c = allCharities[beneficiary];\r\n        c.isRegistered = true;\r\n        c.name = name;\r\n    }\r\n\r\n    // the sender can send a donation to a charity\r\n    function donateToCharity(address beneficiary, uint numOfTokens) public {\r\n        require(numOfTokens > 0, \"You need to donate more than 0 tokens\");\r\n        require(isRegistered(beneficiary), \"Charity is not registered\");\r\n        uint allowance = token.allowance(msg.sender, address(this));\r\n        require(allowance >= numOfTokens, \"Not approved to transfer this many tokens\");\r\n        token.transferFrom(msg.sender, address(this), numOfTokens);\r\n\r\n        allCharities[beneficiary].amount += numOfTokens;\r\n    }\r\n\r\n    // withdraw/send a given number of tokens to a charity\r\n    function withdraw(address beneficiary, uint numOfTokens) public {\r\n        require(msg.sender == beneficiary, \"You are not the owner of the charity\");\r\n\r\n        uint contractBalance = token.balanceOf(address(this));\r\n        require(numOfTokens > 0, \"You need to transfer more than 0 tokens\");\r\n        require(numOfTokens <= allCharities[beneficiary].amount, \"You do not have that many tokens\");\r\n        require(numOfTokens <= contractBalance, \"Not enough tokens in the reserve\");\r\n        token.transfer(msg.sender, numOfTokens);\r\n\r\n        allCharities[beneficiary].amount -= numOfTokens;\r\n    }\r\n\r\n    function getTokenBalance() public view returns (uint) {\r\n        return token.balanceOf(msg.sender);\r\n    }\r\n\r\n    function getTokenAddress() public view returns (address) {\r\n        return address(token);\r\n    }\r\n\r\n    function getOwner() public view returns (address) {\r\n        return _owner;\r\n    }\r\n\r\n    function getCharity(address beneficiary) public view returns (Charity memory) {\r\n        return allCharities[beneficiary];\r\n    }\r\n\r\n    function getCharityList() public view returns (address[] memory) {\r\n        return charityList;\r\n    }\r\n\r\n    function getFund(uint fundNum) public view returns (Fund memory) {\r\n        return allFunds[fundNum];\r\n    }\r\n\r\n    function getFundList() public view returns (Fund[] memory) {\r\n        return fundList;\r\n    }\r\n\r\n    function isRegistered(address beneficiary) public view returns (bool registered) {\r\n        return allCharities[beneficiary].isRegistered;\r\n    }\r\n\r\n    function getTokensRecieved(address beneficiary) public view returns (uint tokens) {\r\n        return allCharities[beneficiary].amount;\r\n    }\r\n    \r\n    // Function to receive Ether. msg.data must be empty\r\n    receive() external payable {}\r\n\r\n    // Fallback function is called when msg.data is not empty\r\n    fallback() external payable {}\r\n}",
  "sourcePath": "C:\\DEV\\Ethereum\\chairity\\contracts\\Charities.sol",
  "compiler": {
    "name": "solc",
    "version": "0.8.9+commit.e5eed63a.Emscripten.clang"
  },
  "schemaVersion": "3.4.3",
  "updatedAt": "2022-03-24T13:43:11.318Z",
  "devdoc": {
    "kind": "dev",
    "methods": {},
    "version": 1
  },
  "userdoc": {
    "kind": "user",
    "methods": {},
    "version": 1
  }
}