{
  "contractName": "Charities",
  "abi": [
    {
      "inputs": [],
      "stateMutability": "nonpayable",
      "type": "constructor"
    },
    {
      "stateMutability": "payable",
      "type": "fallback"
    },
    {
      "inputs": [
        {
          "internalType": "uint256",
          "name": "",
          "type": "uint256"
        }
      ],
      "name": "allCharities",
      "outputs": [
        {
          "internalType": "string",
          "name": "name",
          "type": "string"
        },
        {
          "internalType": "address",
          "name": "beneficiary",
          "type": "address"
        },
        {
          "internalType": "uint256",
          "name": "amount",
          "type": "uint256"
        }
      ],
      "stateMutability": "view",
      "type": "function"
    },
    {
      "inputs": [],
      "name": "numOfCharities",
      "outputs": [
        {
          "internalType": "uint256",
          "name": "",
          "type": "uint256"
        }
      ],
      "stateMutability": "view",
      "type": "function"
    },
    {
      "inputs": [],
      "name": "token",
      "outputs": [
        {
          "internalType": "contract IToken",
          "name": "",
          "type": "address"
        }
      ],
      "stateMutability": "view",
      "type": "function"
    },
    {
      "stateMutability": "payable",
      "type": "receive"
    },
    {
      "inputs": [],
      "name": "getTokenBalance",
      "outputs": [
        {
          "internalType": "uint256",
          "name": "",
          "type": "uint256"
        }
      ],
      "stateMutability": "view",
      "type": "function"
    },
    {
      "inputs": [],
      "name": "getTokenAddress",
      "outputs": [
        {
          "internalType": "address",
          "name": "",
          "type": "address"
        }
      ],
      "stateMutability": "view",
      "type": "function"
    },
    {
      "inputs": [],
      "name": "owner",
      "outputs": [
        {
          "internalType": "address",
          "name": "",
          "type": "address"
        }
      ],
      "stateMutability": "view",
      "type": "function"
    },
    {
      "inputs": [],
      "name": "buy",
      "outputs": [],
      "stateMutability": "payable",
      "type": "function"
    },
    {
      "inputs": [
        {
          "internalType": "uint256",
          "name": "numOfTokens",
          "type": "uint256"
        }
      ],
      "name": "sell",
      "outputs": [],
      "stateMutability": "nonpayable",
      "type": "function"
    },
    {
      "inputs": [
        {
          "internalType": "address",
          "name": "beneficiary",
          "type": "address"
        },
        {
          "internalType": "string",
          "name": "name",
          "type": "string"
        }
      ],
      "name": "newCharity",
      "outputs": [],
      "stateMutability": "nonpayable",
      "type": "function"
    },
    {
      "inputs": [
        {
          "internalType": "uint256",
          "name": "id",
          "type": "uint256"
        },
        {
          "internalType": "uint256",
          "name": "numOfTokens",
          "type": "uint256"
        }
      ],
      "name": "donateToCharity",
      "outputs": [],
      "stateMutability": "nonpayable",
      "type": "function"
    },
    {
      "inputs": [
        {
          "internalType": "uint256",
          "name": "id",
          "type": "uint256"
        }
      ],
      "name": "getCharity",
      "outputs": [
        {
          "components": [
            {
              "internalType": "string",
              "name": "name",
              "type": "string"
            },
            {
              "internalType": "address",
              "name": "beneficiary",
              "type": "address"
            },
            {
              "internalType": "uint256",
              "name": "amount",
              "type": "uint256"
            }
          ],
          "internalType": "struct Charities.Charity",
          "name": "",
          "type": "tuple"
        }
      ],
      "stateMutability": "view",
      "type": "function"
    },
    {
      "inputs": [
        {
          "internalType": "uint256",
          "name": "id",
          "type": "uint256"
        },
        {
          "internalType": "uint256",
          "name": "numOfTokens",
          "type": "uint256"
        }
      ],
      "name": "withdraw",
      "outputs": [],
      "stateMutability": "nonpayable",
      "type": "function"
    }
  ],
  "bytecode": "0x608060405234801561001057600080fd5b5033600360006101000a81548173ffffffffffffffffffffffffffffffffffffffff021916908373ffffffffffffffffffffffffffffffffffffffff1602179055506000600181905550604051610066906100c8565b604051809103906000f080158015610082573d6000803e3d6000fd5b50600260006101000a81548173ffffffffffffffffffffffffffffffffffffffff021916908373ffffffffffffffffffffffffffffffffffffffff1602179055506100d6565b6116e28062001eb683390190565b611dd080620000e66000396000f3fe6080604052600436106100ab5760003560e01c80639d668cf9116100645780639d668cf9146101b2578063a6f2ae3a146101f1578063e4849b32146101fb578063e60028bd14610224578063fc0c546a1461024d578063fd67db8114610278576100b2565b806310fe9ae8146100b45780632fa52baf146100df578063441a3e701461010a5780637c2960591461013357806382b2e2571461015c5780638da5cb5b14610187576100b2565b366100b257005b005b3480156100c057600080fd5b506100c96102b5565b6040516100d69190611171565b60405180910390f35b3480156100eb57600080fd5b506100f46102df565b60405161010191906111a5565b60405180910390f35b34801561011657600080fd5b50610131600480360381019061012c9190611200565b6102e5565b005b34801561013f57600080fd5b5061015a60048036038101906101559190611200565b6105fc565b005b34801561016857600080fd5b50610171610816565b60405161017e91906111a5565b60405180910390f35b34801561019357600080fd5b5061019c6108c8565b6040516101a99190611171565b60405180910390f35b3480156101be57600080fd5b506101d960048036038101906101d49190611240565b6108f2565b6040516101e893929190611306565b60405180910390f35b6101f96109c4565b005b34801561020757600080fd5b50610222600480360381019061021d9190611240565b610bbf565b005b34801561023057600080fd5b5061024b600480360381019061024691906114a5565b610e06565b005b34801561025957600080fd5b50610262610f12565b60405161026f9190611560565b60405180910390f35b34801561028457600080fd5b5061029f600480360381019061029a9190611240565b610f38565b6040516102ac9190611633565b60405180910390f35b6000600260009054906101000a900473ffffffffffffffffffffffffffffffffffffffff16905090565b60015481565b600080600084815260200190815260200160002060010160009054906101000a900473ffffffffffffffffffffffffffffffffffffffff1690508073ffffffffffffffffffffffffffffffffffffffff163373ffffffffffffffffffffffffffffffffffffffff161461038d576040517f08c379a0000000000000000000000000000000000000000000000000000000008152600401610384906116c7565b60405180910390fd5b6000600260009054906101000a900473ffffffffffffffffffffffffffffffffffffffff1673ffffffffffffffffffffffffffffffffffffffff166370a08231306040518263ffffffff1660e01b81526004016103ea9190611171565b60206040518083038186803b15801561040257600080fd5b505afa158015610416573d6000803e3d6000fd5b505050506040513d601f19601f8201168201806040525081019061043a91906116fc565b90506000831161047f576040517f08c379a00000000000000000000000000000000000000000000000000000000081526004016104769061179b565b60405180910390fd5b600080858152602001908152602001600020600201548311156104d7576040517f08c379a00000000000000000000000000000000000000000000000000000000081526004016104ce90611807565b60405180910390fd5b8083111561051a576040517f08c379a000000000000000000000000000000000000000000000000000000000815260040161051190611873565b60405180910390fd5b600260009054906101000a900473ffffffffffffffffffffffffffffffffffffffff1673ffffffffffffffffffffffffffffffffffffffff1663a9059cbb33856040518363ffffffff1660e01b8152600401610577929190611893565b602060405180830381600087803b15801561059157600080fd5b505af11580156105a5573d6000803e3d6000fd5b505050506040513d601f19601f820116820180604052508101906105c991906118f4565b508260008086815260200190815260200160002060020160008282546105ef9190611950565b9250508190555050505050565b6000811161063f576040517f08c379a0000000000000000000000000000000000000000000000000000000008152600401610636906119f6565b60405180910390fd5b6000600260009054906101000a900473ffffffffffffffffffffffffffffffffffffffff1673ffffffffffffffffffffffffffffffffffffffff1663dd62ed3e33306040518363ffffffff1660e01b815260040161069e929190611a16565b60206040518083038186803b1580156106b657600080fd5b505afa1580156106ca573d6000803e3d6000fd5b505050506040513d601f19601f820116820180604052508101906106ee91906116fc565b905081811015610733576040517f08c379a000000000000000000000000000000000000000000000000000000000815260040161072a90611ab1565b60405180910390fd5b600260009054906101000a900473ffffffffffffffffffffffffffffffffffffffff1673ffffffffffffffffffffffffffffffffffffffff166323b872dd3330856040518463ffffffff1660e01b815260040161079293929190611ad1565b602060405180830381600087803b1580156107ac57600080fd5b505af11580156107c0573d6000803e3d6000fd5b505050506040513d601f19601f820116820180604052508101906107e491906118f4565b5081600080858152602001908152602001600020600201600082825461080a9190611b08565b92505081905550505050565b6000600260009054906101000a900473ffffffffffffffffffffffffffffffffffffffff1673ffffffffffffffffffffffffffffffffffffffff166370a08231336040518263ffffffff1660e01b81526004016108739190611171565b60206040518083038186803b15801561088b57600080fd5b505afa15801561089f573d6000803e3d6000fd5b505050506040513d601f19601f820116820180604052508101906108c391906116fc565b905090565b6000600360009054906101000a900473ffffffffffffffffffffffffffffffffffffffff16905090565b600060205280600052604060002060009150905080600001805461091590611b8d565b80601f016020809104026020016040519081016040528092919081815260200182805461094190611b8d565b801561098e5780601f106109635761010080835404028352916020019161098e565b820191906000526020600020905b81548152906001019060200180831161097157829003601f168201915b5050505050908060010160009054906101000a900473ffffffffffffffffffffffffffffffffffffffff16908060020154905083565b6000612710346109d49190611bbf565b90506000600260009054906101000a900473ffffffffffffffffffffffffffffffffffffffff1673ffffffffffffffffffffffffffffffffffffffff166370a08231306040518263ffffffff1660e01b8152600401610a339190611171565b60206040518083038186803b158015610a4b57600080fd5b505afa158015610a5f573d6000803e3d6000fd5b505050506040513d601f19601f82011682018060405250810190610a8391906116fc565b905060008211610ac8576040517f08c379a0000000000000000000000000000000000000000000000000000000008152600401610abf90611c65565b60405180910390fd5b80821115610b0b576040517f08c379a0000000000000000000000000000000000000000000000000000000008152600401610b0290611873565b60405180910390fd5b600260009054906101000a900473ffffffffffffffffffffffffffffffffffffffff1673ffffffffffffffffffffffffffffffffffffffff1663a9059cbb33846040518363ffffffff1660e01b8152600401610b68929190611893565b602060405180830381600087803b158015610b8257600080fd5b505af1158015610b96573d6000803e3d6000fd5b505050506040513d601f19601f82011682018060405250810190610bba91906118f4565b505050565b60008111610c02576040517f08c379a0000000000000000000000000000000000000000000000000000000008152600401610bf990611cd1565b60405180910390fd5b6000600260009054906101000a900473ffffffffffffffffffffffffffffffffffffffff1673ffffffffffffffffffffffffffffffffffffffff1663dd62ed3e33306040518363ffffffff1660e01b8152600401610c61929190611a16565b60206040518083038186803b158015610c7957600080fd5b505afa158015610c8d573d6000803e3d6000fd5b505050506040513d601f19601f82011682018060405250810190610cb191906116fc565b905081811015610cf6576040517f08c379a0000000000000000000000000000000000000000000000000000000008152600401610ced90611ab1565b60405180910390fd5b600260009054906101000a900473ffffffffffffffffffffffffffffffffffffffff1673ffffffffffffffffffffffffffffffffffffffff166323b872dd3330856040518463ffffffff1660e01b8152600401610d5593929190611ad1565b602060405180830381600087803b158015610d6f57600080fd5b505af1158015610d83573d6000803e3d6000fd5b505050506040513d601f19601f82011682018060405250810190610da791906118f4565b50600061271083610db89190611d20565b90503373ffffffffffffffffffffffffffffffffffffffff166108fc829081150290604051600060405180830381858888f19350505050158015610e00573d6000803e3d6000fd5b50505050565b8173ffffffffffffffffffffffffffffffffffffffff163373ffffffffffffffffffffffffffffffffffffffff161480610e725750610e436108c8565b73ffffffffffffffffffffffffffffffffffffffff163373ffffffffffffffffffffffffffffffffffffffff16145b610e7b57600080fd5b60016000815480929190610e8e90611d51565b91905055506000600154905060008060008381526020019081526020016000209050838160010160006101000a81548173ffffffffffffffffffffffffffffffffffffffff021916908373ffffffffffffffffffffffffffffffffffffffff16021790555082816000019080519060200190610f0b929190611056565b5050505050565b600260009054906101000a900473ffffffffffffffffffffffffffffffffffffffff1681565b610f406110dc565b600080838152602001908152602001600020604051806060016040529081600082018054610f6d90611b8d565b80601f0160208091040260200160405190810160405280929190818152602001828054610f9990611b8d565b8015610fe65780601f10610fbb57610100808354040283529160200191610fe6565b820191906000526020600020905b815481529060010190602001808311610fc957829003601f168201915b505050505081526020016001820160009054906101000a900473ffffffffffffffffffffffffffffffffffffffff1673ffffffffffffffffffffffffffffffffffffffff1673ffffffffffffffffffffffffffffffffffffffff1681526020016002820154815250509050919050565b82805461106290611b8d565b90600052602060002090601f01602090048101928261108457600085556110cb565b82601f1061109d57805160ff19168380011785556110cb565b828001600101855582156110cb579182015b828111156110ca5782518255916020019190600101906110af565b5b5090506110d89190611113565b5090565b604051806060016040528060608152602001600073ffffffffffffffffffffffffffffffffffffffff168152602001600081525090565b5b8082111561112c576000816000905550600101611114565b5090565b600073ffffffffffffffffffffffffffffffffffffffff82169050919050565b600061115b82611130565b9050919050565b61116b81611150565b82525050565b60006020820190506111866000830184611162565b92915050565b6000819050919050565b61119f8161118c565b82525050565b60006020820190506111ba6000830184611196565b92915050565b6000604051905090565b600080fd5b600080fd5b6111dd8161118c565b81146111e857600080fd5b50565b6000813590506111fa816111d4565b92915050565b60008060408385031215611217576112166111ca565b5b6000611225858286016111eb565b9250506020611236858286016111eb565b9150509250929050565b600060208284031215611256576112556111ca565b5b6000611264848285016111eb565b91505092915050565b600081519050919050565b600082825260208201905092915050565b60005b838110156112a757808201518184015260208101905061128c565b838111156112b6576000848401525b50505050565b6000601f19601f8301169050919050565b60006112d88261126d565b6112e28185611278565b93506112f2818560208601611289565b6112fb816112bc565b840191505092915050565b6000606082019050818103600083015261132081866112cd565b905061132f6020830185611162565b61133c6040830184611196565b949350505050565b61134d81611150565b811461135857600080fd5b50565b60008135905061136a81611344565b92915050565b600080fd5b600080fd5b7f4e487b7100000000000000000000000000000000000000000000000000000000600052604160045260246000fd5b6113b2826112bc565b810181811067ffffffffffffffff821117156113d1576113d061137a565b5b80604052505050565b60006113e46111c0565b90506113f082826113a9565b919050565b600067ffffffffffffffff8211156114105761140f61137a565b5b611419826112bc565b9050602081019050919050565b82818337600083830152505050565b6000611448611443846113f5565b6113da565b90508281526020810184848401111561146457611463611375565b5b61146f848285611426565b509392505050565b600082601f83011261148c5761148b611370565b5b813561149c848260208601611435565b91505092915050565b600080604083850312156114bc576114bb6111ca565b5b60006114ca8582860161135b565b925050602083013567ffffffffffffffff8111156114eb576114ea6111cf565b5b6114f785828601611477565b9150509250929050565b6000819050919050565b600061152661152161151c84611130565b611501565b611130565b9050919050565b60006115388261150b565b9050919050565b600061154a8261152d565b9050919050565b61155a8161153f565b82525050565b60006020820190506115756000830184611551565b92915050565b600082825260208201905092915050565b60006115978261126d565b6115a1818561157b565b93506115b1818560208601611289565b6115ba816112bc565b840191505092915050565b6115ce81611150565b82525050565b6115dd8161118c565b82525050565b60006060830160008301518482036000860152611600828261158c565b915050602083015161161560208601826115c5565b50604083015161162860408601826115d4565b508091505092915050565b6000602082019050818103600083015261164d81846115e3565b905092915050565b7f596f7520617265206e6f7420746865206f776e6572206f66207468652063686160008201527f7269747900000000000000000000000000000000000000000000000000000000602082015250565b60006116b1602483611278565b91506116bc82611655565b604082019050919050565b600060208201905081810360008301526116e0816116a4565b9050919050565b6000815190506116f6816111d4565b92915050565b600060208284031215611712576117116111ca565b5b6000611720848285016116e7565b91505092915050565b7f596f75206e65656420746f207472616e73666572206d6f7265207468616e203060008201527f20746f6b656e7300000000000000000000000000000000000000000000000000602082015250565b6000611785602783611278565b915061179082611729565b604082019050919050565b600060208201905081810360008301526117b481611778565b9050919050565b7f596f7520646f206e6f7420686176652074686174206d616e7920746f6b656e73600082015250565b60006117f1602083611278565b91506117fc826117bb565b602082019050919050565b60006020820190508181036000830152611820816117e4565b9050919050565b7f4e6f7420656e6f75676820746f6b656e7320696e207468652072657365727665600082015250565b600061185d602083611278565b915061186882611827565b602082019050919050565b6000602082019050818103600083015261188c81611850565b9050919050565b60006040820190506118a86000830185611162565b6118b56020830184611196565b9392505050565b60008115159050919050565b6118d1816118bc565b81146118dc57600080fd5b50565b6000815190506118ee816118c8565b92915050565b60006020828403121561190a576119096111ca565b5b6000611918848285016118df565b91505092915050565b7f4e487b7100000000000000000000000000000000000000000000000000000000600052601160045260246000fd5b600061195b8261118c565b91506119668361118c565b92508282101561197957611978611921565b5b828203905092915050565b7f596f75206e65656420746f20646f6e617465206d6f7265207468616e2030207460008201527f6f6b656e73000000000000000000000000000000000000000000000000000000602082015250565b60006119e0602583611278565b91506119eb82611984565b604082019050919050565b60006020820190508181036000830152611a0f816119d3565b9050919050565b6000604082019050611a2b6000830185611162565b611a386020830184611162565b9392505050565b7f4e6f7420617070726f76656420746f207472616e736665722074686973206d6160008201527f6e7920746f6b656e730000000000000000000000000000000000000000000000602082015250565b6000611a9b602983611278565b9150611aa682611a3f565b604082019050919050565b60006020820190508181036000830152611aca81611a8e565b9050919050565b6000606082019050611ae66000830186611162565b611af36020830185611162565b611b006040830184611196565b949350505050565b6000611b138261118c565b9150611b1e8361118c565b9250827fffffffffffffffffffffffffffffffffffffffffffffffffffffffffffffffff03821115611b5357611b52611921565b5b828201905092915050565b7f4e487b7100000000000000000000000000000000000000000000000000000000600052602260045260246000fd5b60006002820490506001821680611ba557607f821691505b60208210811415611bb957611bb8611b5e565b5b50919050565b6000611bca8261118c565b9150611bd58361118c565b9250817fffffffffffffffffffffffffffffffffffffffffffffffffffffffffffffffff0483118215151615611c0e57611c0d611921565b5b828202905092915050565b7f596f75206e65656420746f2073656e6420736f6d652065746865720000000000600082015250565b6000611c4f601b83611278565b9150611c5a82611c19565b602082019050919050565b60006020820190508181036000830152611c7e81611c42565b9050919050565b7f596f75206e65656420746f2073656c6c203020746f6b656e7300000000000000600082015250565b6000611cbb601983611278565b9150611cc682611c85565b602082019050919050565b60006020820190508181036000830152611cea81611cae565b9050919050565b7f4e487b7100000000000000000000000000000000000000000000000000000000600052601260045260246000fd5b6000611d2b8261118c565b9150611d368361118c565b925082611d4657611d45611cf1565b5b828204905092915050565b6000611d5c8261118c565b91507fffffffffffffffffffffffffffffffffffffffffffffffffffffffffffffffff821415611d8f57611d8e611921565b5b60018201905091905056fea2646970667358221220e3ca09dbaeacb5a601c7559e53b021b6a57316457ad2302238513202dd7f41c264736f6c6343000809003360806040526040518060400160405280600d81526020017f4368617269747920546f6b656e0000000000000000000000000000000000000081525060009080519060200190620000519291906200023e565b506040518060400160405280600381526020017f4348540000000000000000000000000000000000000000000000000000000000815250600190805190602001906200009f9291906200023e565b506012600260006101000a81548160ff021916908360ff1602179055506000600355348015620000ce57600080fd5b506200010f33620000e46200011560201b60201c565b600a620000f2919062000488565b633b9aca00620001039190620004d9565b6200012c60201b60201c565b6200062a565b6000600260009054906101000a900460ff16905090565b806003546200013c91906200053a565b60038190555080600460008473ffffffffffffffffffffffffffffffffffffffff1673ffffffffffffffffffffffffffffffffffffffff168152602001908152602001600020546200018f91906200053a565b600460008473ffffffffffffffffffffffffffffffffffffffff1673ffffffffffffffffffffffffffffffffffffffff168152602001908152602001600020819055508173ffffffffffffffffffffffffffffffffffffffff16600073ffffffffffffffffffffffffffffffffffffffff167fddf252ad1be2c89b69c2b068fc378daa952ba7f163c4a11628f55a4df523b3ef83604051620002329190620005a8565b60405180910390a35050565b8280546200024c90620005f4565b90600052602060002090601f016020900481019282620002705760008555620002bc565b82601f106200028b57805160ff1916838001178555620002bc565b82800160010185558215620002bc579182015b82811115620002bb5782518255916020019190600101906200029e565b5b509050620002cb9190620002cf565b5090565b5b80821115620002ea576000816000905550600101620002d0565b5090565b7f4e487b7100000000000000000000000000000000000000000000000000000000600052601160045260246000fd5b60008160011c9050919050565b6000808291508390505b60018511156200037c57808604811115620003545762000353620002ee565b5b6001851615620003645780820291505b808102905062000374856200031d565b945062000334565b94509492505050565b6000826200039757600190506200046a565b81620003a757600090506200046a565b8160018114620003c05760028114620003cb5762000401565b60019150506200046a565b60ff841115620003e057620003df620002ee565b5b8360020a915084821115620003fa57620003f9620002ee565b5b506200046a565b5060208310610133831016604e8410600b84101617156200043b5782820a905083811115620004355762000434620002ee565b5b6200046a565b6200044a84848460016200032a565b92509050818404811115620004645762000463620002ee565b5b81810290505b9392505050565b6000819050919050565b600060ff82169050919050565b6000620004958262000471565b9150620004a2836200047b565b9250620004d17fffffffffffffffffffffffffffffffffffffffffffffffffffffffffffffffff848462000385565b905092915050565b6000620004e68262000471565b9150620004f38362000471565b9250817fffffffffffffffffffffffffffffffffffffffffffffffffffffffffffffffff04831182151516156200052f576200052e620002ee565b5b828202905092915050565b6000620005478262000471565b9150620005548362000471565b9250827fffffffffffffffffffffffffffffffffffffffffffffffffffffffffffffffff038211156200058c576200058b620002ee565b5b828201905092915050565b620005a28162000471565b82525050565b6000602082019050620005bf600083018462000597565b92915050565b7f4e487b7100000000000000000000000000000000000000000000000000000000600052602260045260246000fd5b600060028204905060018216806200060d57607f821691505b60208210811415620006245762000623620005c5565b5b50919050565b6110a8806200063a6000396000f3fe608060405234801561001057600080fd5b50600436106100cf5760003560e01c80633eaaf86b1161008c578063a9059cbb11610066578063a9059cbb14610218578063b09f126614610248578063d28d885214610266578063dd62ed3e14610284576100cf565b80633eaaf86b146101ac57806370a08231146101ca57806395d89b41146101fa576100cf565b806306fdde03146100d4578063095ea7b3146100f257806318160ddd1461012257806323b872dd14610140578063313ce5671461017057806332424aa31461018e575b600080fd5b6100dc6102b4565b6040516100e99190610d06565b60405180910390f35b61010c60048036038101906101079190610dc1565b610346565b6040516101199190610e1c565b60405180910390f35b61012a610471565b6040516101379190610e46565b60405180910390f35b61015a60048036038101906101559190610e61565b61047b565b6040516101679190610e1c565b60405180910390f35b6101786107e6565b6040516101859190610ed0565b60405180910390f35b6101966107fd565b6040516101a39190610ed0565b60405180910390f35b6101b4610810565b6040516101c19190610e46565b60405180910390f35b6101e460048036038101906101df9190610eeb565b610816565b6040516101f19190610e46565b60405180910390f35b61020261085f565b60405161020f9190610d06565b60405180910390f35b610232600480360381019061022d9190610dc1565b6108f1565b60405161023f9190610e1c565b60405180910390f35b610250610aca565b60405161025d9190610d06565b60405180910390f35b61026e610b58565b60405161027b9190610d06565b60405180910390f35b61029e60048036038101906102999190610f18565b610be6565b6040516102ab9190610e46565b60405180910390f35b6060600080546102c390610f87565b80601f01602080910402602001604051908101604052809291908181526020018280546102ef90610f87565b801561033c5780601f106103115761010080835404028352916020019161033c565b820191906000526020600020905b81548152906001019060200180831161031f57829003601f168201915b5050505050905090565b60008073ffffffffffffffffffffffffffffffffffffffff168373ffffffffffffffffffffffffffffffffffffffff16141561038157600080fd5b81600560003373ffffffffffffffffffffffffffffffffffffffff1673ffffffffffffffffffffffffffffffffffffffff16815260200190815260200160002060008573ffffffffffffffffffffffffffffffffffffffff1673ffffffffffffffffffffffffffffffffffffffff168152602001908152602001600020819055508273ffffffffffffffffffffffffffffffffffffffff163373ffffffffffffffffffffffffffffffffffffffff167f8c5be1e5ebec7d5bd14f71427d1e84f3dd0314c0f7b2291e5b200ac8c7c3b9258460405161045f9190610e46565b60405180910390a36001905092915050565b6000600354905090565b600081600460008673ffffffffffffffffffffffffffffffffffffffff1673ffffffffffffffffffffffffffffffffffffffff1681526020019081526020016000205410156104c957600080fd5b81600560008673ffffffffffffffffffffffffffffffffffffffff1673ffffffffffffffffffffffffffffffffffffffff16815260200190815260200160002060003373ffffffffffffffffffffffffffffffffffffffff1673ffffffffffffffffffffffffffffffffffffffff16815260200190815260200160002054101561055257600080fd5b81600460008673ffffffffffffffffffffffffffffffffffffffff1673ffffffffffffffffffffffffffffffffffffffff1681526020019081526020016000205461059d9190610fe8565b600460008673ffffffffffffffffffffffffffffffffffffffff1673ffffffffffffffffffffffffffffffffffffffff1681526020019081526020016000208190555081600460008573ffffffffffffffffffffffffffffffffffffffff1673ffffffffffffffffffffffffffffffffffffffff1681526020019081526020016000205461062b919061101c565b600460008573ffffffffffffffffffffffffffffffffffffffff1673ffffffffffffffffffffffffffffffffffffffff1681526020019081526020016000208190555081600560008673ffffffffffffffffffffffffffffffffffffffff1673ffffffffffffffffffffffffffffffffffffffff16815260200190815260200160002060003373ffffffffffffffffffffffffffffffffffffffff1673ffffffffffffffffffffffffffffffffffffffff168152602001908152602001600020546106f69190610fe8565b600560008673ffffffffffffffffffffffffffffffffffffffff1673ffffffffffffffffffffffffffffffffffffffff16815260200190815260200160002060003373ffffffffffffffffffffffffffffffffffffffff1673ffffffffffffffffffffffffffffffffffffffff168152602001908152602001600020819055508273ffffffffffffffffffffffffffffffffffffffff163373ffffffffffffffffffffffffffffffffffffffff167fddf252ad1be2c89b69c2b068fc378daa952ba7f163c4a11628f55a4df523b3ef846040516107d39190610e46565b60405180910390a3600190509392505050565b6000600260009054906101000a900460ff16905090565b600260009054906101000a900460ff1681565b60035481565b6000600460008373ffffffffffffffffffffffffffffffffffffffff1673ffffffffffffffffffffffffffffffffffffffff168152602001908152602001600020549050919050565b60606001805461086e90610f87565b80601f016020809104026020016040519081016040528092919081815260200182805461089a90610f87565b80156108e75780601f106108bc576101008083540402835291602001916108e7565b820191906000526020600020905b8154815290600101906020018083116108ca57829003601f168201915b5050505050905090565b600081600460003373ffffffffffffffffffffffffffffffffffffffff1673ffffffffffffffffffffffffffffffffffffffff16815260200190815260200160002054101561093f57600080fd5b81600460003373ffffffffffffffffffffffffffffffffffffffff1673ffffffffffffffffffffffffffffffffffffffff1681526020019081526020016000205461098a9190610fe8565b600460003373ffffffffffffffffffffffffffffffffffffffff1673ffffffffffffffffffffffffffffffffffffffff1681526020019081526020016000208190555081600460008573ffffffffffffffffffffffffffffffffffffffff1673ffffffffffffffffffffffffffffffffffffffff16815260200190815260200160002054610a18919061101c565b600460008573ffffffffffffffffffffffffffffffffffffffff1673ffffffffffffffffffffffffffffffffffffffff168152602001908152602001600020819055508273ffffffffffffffffffffffffffffffffffffffff163373ffffffffffffffffffffffffffffffffffffffff167fddf252ad1be2c89b69c2b068fc378daa952ba7f163c4a11628f55a4df523b3ef84604051610ab89190610e46565b60405180910390a36001905092915050565b60018054610ad790610f87565b80601f0160208091040260200160405190810160405280929190818152602001828054610b0390610f87565b8015610b505780601f10610b2557610100808354040283529160200191610b50565b820191906000526020600020905b815481529060010190602001808311610b3357829003601f168201915b505050505081565b60008054610b6590610f87565b80601f0160208091040260200160405190810160405280929190818152602001828054610b9190610f87565b8015610bde5780601f10610bb357610100808354040283529160200191610bde565b820191906000526020600020905b815481529060010190602001808311610bc157829003601f168201915b505050505081565b6000600560008473ffffffffffffffffffffffffffffffffffffffff1673ffffffffffffffffffffffffffffffffffffffff16815260200190815260200160002060008373ffffffffffffffffffffffffffffffffffffffff1673ffffffffffffffffffffffffffffffffffffffff16815260200190815260200160002054905092915050565b600081519050919050565b600082825260208201905092915050565b60005b83811015610ca7578082015181840152602081019050610c8c565b83811115610cb6576000848401525b50505050565b6000601f19601f8301169050919050565b6000610cd882610c6d565b610ce28185610c78565b9350610cf2818560208601610c89565b610cfb81610cbc565b840191505092915050565b60006020820190508181036000830152610d208184610ccd565b905092915050565b600080fd5b600073ffffffffffffffffffffffffffffffffffffffff82169050919050565b6000610d5882610d2d565b9050919050565b610d6881610d4d565b8114610d7357600080fd5b50565b600081359050610d8581610d5f565b92915050565b6000819050919050565b610d9e81610d8b565b8114610da957600080fd5b50565b600081359050610dbb81610d95565b92915050565b60008060408385031215610dd857610dd7610d28565b5b6000610de685828601610d76565b9250506020610df785828601610dac565b9150509250929050565b60008115159050919050565b610e1681610e01565b82525050565b6000602082019050610e316000830184610e0d565b92915050565b610e4081610d8b565b82525050565b6000602082019050610e5b6000830184610e37565b92915050565b600080600060608486031215610e7a57610e79610d28565b5b6000610e8886828701610d76565b9350506020610e9986828701610d76565b9250506040610eaa86828701610dac565b9150509250925092565b600060ff82169050919050565b610eca81610eb4565b82525050565b6000602082019050610ee56000830184610ec1565b92915050565b600060208284031215610f0157610f00610d28565b5b6000610f0f84828501610d76565b91505092915050565b60008060408385031215610f2f57610f2e610d28565b5b6000610f3d85828601610d76565b9250506020610f4e85828601610d76565b9150509250929050565b7f4e487b7100000000000000000000000000000000000000000000000000000000600052602260045260246000fd5b60006002820490506001821680610f9f57607f821691505b60208210811415610fb357610fb2610f58565b5b50919050565b7f4e487b7100000000000000000000000000000000000000000000000000000000600052601160045260246000fd5b6000610ff382610d8b565b9150610ffe83610d8b565b92508282101561101157611010610fb9565b5b828203905092915050565b600061102782610d8b565b915061103283610d8b565b9250827fffffffffffffffffffffffffffffffffffffffffffffffffffffffffffffffff0382111561106757611066610fb9565b5b82820190509291505056fea26469706673582212200cccc9205cc0fa462a4184e021c27faaf0f509b86d8103e5a4b5bd7bca77990664736f6c63430008090033",
  "immutableReferences": {},
  "source": "// SPDX-License-Identifier: MIT\r\npragma solidity ^0.8.9;\r\n\r\nimport \"./Token.sol\";\r\n\r\ncontract Charities {\r\n\r\n    struct Charity {\r\n        // name of the charity\r\n        string name;\r\n        // address of the charity\r\n        address beneficiary;\r\n        // total amount donated to this charity\r\n        uint amount;\r\n    }\r\n    \r\n    mapping (uint => Charity) public allCharities;\r\n\r\n    // number of registered charities\r\n    uint public numOfCharities;\r\n\r\n    IToken public token;\r\n\r\n    address private _owner;\r\n\r\n    constructor() {\r\n        _owner = msg.sender;\r\n        numOfCharities = 0;\r\n        token = new Token();\r\n    }\r\n\r\n    function getTokenBalance() public view returns (uint) {\r\n        return token.balanceOf(msg.sender);\r\n    }\r\n\r\n    function getTokenAddress() public view returns (address) {\r\n        return address(token);\r\n    }\r\n\r\n    function owner() public view returns (address) {\r\n        return _owner;\r\n    }\r\n\r\n    // user can buy tokens\r\n    function buy() payable public {\r\n        // currently 10000 token == 1 ether\r\n        uint amountTobuy = msg.value * 10000;\r\n        uint contractBalance = token.balanceOf(address(this));\r\n        require(amountTobuy > 0, \"You need to send some ether\");\r\n        require(amountTobuy <= contractBalance, \"Not enough tokens in the reserve\");\r\n        token.transfer(msg.sender, amountTobuy);\r\n    }\r\n\r\n    function sell(uint numOfTokens) public {\r\n        require(numOfTokens > 0, \"You need to sell 0 tokens\");\r\n        uint allowance = token.allowance(msg.sender, address(this));\r\n        require(allowance >= numOfTokens, \"Not approved to transfer this many tokens\");\r\n        \r\n        token.transferFrom(msg.sender, address(this), numOfTokens);\r\n        uint amountToSell = numOfTokens / 10000;\r\n        payable(msg.sender).transfer(amountToSell);\r\n    }\r\n\r\n    // register a new charity\r\n    function newCharity(address beneficiary, string memory name) public {\r\n        require(msg.sender == beneficiary || msg.sender == owner());\r\n        numOfCharities++;\r\n        // each charity will have a unique ID\r\n        uint charityID = numOfCharities;\r\n        \r\n        Charity storage c = allCharities[charityID];\r\n        c.beneficiary = beneficiary;\r\n        c.name = name;\r\n    }\r\n    \r\n    // the sender can send a donation to a charity\r\n    function donateToCharity(uint id, uint numOfTokens) public {\r\n        require(numOfTokens > 0, \"You need to donate more than 0 tokens\");\r\n        uint allowance = token.allowance(msg.sender, address(this));\r\n        require(allowance >= numOfTokens, \"Not approved to transfer this many tokens\");\r\n        token.transferFrom(msg.sender, address(this), numOfTokens);\r\n\r\n        allCharities[id].amount += numOfTokens;\r\n    }\r\n\r\n    function getCharity(uint id) public view returns (Charity memory) {\r\n        return allCharities[id];\r\n    }\r\n    \r\n    // withdraw/send a given number of tokens to a charity\r\n    function withdraw(uint id, uint numOfTokens) public {\r\n        address charityAddress = allCharities[id].beneficiary;\r\n        require(msg.sender == charityAddress, \"You are not the owner of the charity\");\r\n\r\n        uint contractBalance = token.balanceOf(address(this));\r\n        require(numOfTokens > 0, \"You need to transfer more than 0 tokens\");\r\n        require(numOfTokens <= allCharities[id].amount, \"You do not have that many tokens\");\r\n        require(numOfTokens <= contractBalance, \"Not enough tokens in the reserve\");\r\n        token.transfer(msg.sender, numOfTokens);\r\n\r\n        allCharities[id].amount -= numOfTokens;\r\n    }\r\n    \r\n    // Function to receive Ether. msg.data must be empty\r\n    receive() external payable {}\r\n\r\n    // Fallback function is called when msg.data is not empty\r\n    fallback() external payable {}\r\n}",
  "sourcePath": "C:\\DEV\\Ethereum\\Charity\\contracts\\Charities.sol",
  "compiler": {
    "name": "solc",
    "version": "0.8.9+commit.e5eed63a.Emscripten.clang"
  },
  "schemaVersion": "3.4.3",
  "updatedAt": "2022-01-02T16:13:04.485Z",
  "devdoc": {
    "kind": "dev",
    "methods": {},
    "version": 1
  },
  "userdoc": {
    "kind": "user",
    "methods": {},
    "version": 1
  }
}