{
  "contractName": "Charities",
  "abi": [
    {
      "inputs": [],
      "stateMutability": "nonpayable",
      "type": "constructor"
    },
    {
      "stateMutability": "payable",
      "type": "fallback"
    },
    {
      "inputs": [
        {
          "internalType": "address",
          "name": "",
          "type": "address"
        }
      ],
      "name": "allCharities",
      "outputs": [
        {
          "internalType": "bool",
          "name": "isRegistered",
          "type": "bool"
        },
        {
          "internalType": "string",
          "name": "name",
          "type": "string"
        },
        {
          "internalType": "uint256",
          "name": "amount",
          "type": "uint256"
        }
      ],
      "stateMutability": "view",
      "type": "function"
    },
    {
      "inputs": [
        {
          "internalType": "uint256",
          "name": "",
          "type": "uint256"
        }
      ],
      "name": "charityList",
      "outputs": [
        {
          "internalType": "address",
          "name": "",
          "type": "address"
        }
      ],
      "stateMutability": "view",
      "type": "function"
    },
    {
      "inputs": [],
      "name": "fundCounter",
      "outputs": [
        {
          "internalType": "uint256",
          "name": "",
          "type": "uint256"
        }
      ],
      "stateMutability": "view",
      "type": "function"
    },
    {
      "inputs": [
        {
          "internalType": "uint256",
          "name": "",
          "type": "uint256"
        }
      ],
      "name": "fundList",
      "outputs": [
        {
          "internalType": "address",
          "name": "owner",
          "type": "address"
        },
        {
          "internalType": "string",
          "name": "title",
          "type": "string"
        },
        {
          "internalType": "string",
          "name": "description",
          "type": "string"
        },
        {
          "internalType": "uint256",
          "name": "start",
          "type": "uint256"
        },
        {
          "internalType": "uint256",
          "name": "deadline",
          "type": "uint256"
        },
        {
          "internalType": "uint256",
          "name": "goal",
          "type": "uint256"
        },
        {
          "internalType": "uint256",
          "name": "balance",
          "type": "uint256"
        }
      ],
      "stateMutability": "view",
      "type": "function"
    },
    {
      "inputs": [
        {
          "internalType": "address",
          "name": "",
          "type": "address"
        },
        {
          "internalType": "uint256",
          "name": "",
          "type": "uint256"
        }
      ],
      "name": "fundsDonated",
      "outputs": [
        {
          "internalType": "uint256",
          "name": "",
          "type": "uint256"
        }
      ],
      "stateMutability": "view",
      "type": "function"
    },
    {
      "inputs": [],
      "name": "token",
      "outputs": [
        {
          "internalType": "contract IToken",
          "name": "",
          "type": "address"
        }
      ],
      "stateMutability": "view",
      "type": "function"
    },
    {
      "stateMutability": "payable",
      "type": "receive"
    },
    {
      "inputs": [
        {
          "internalType": "string",
          "name": "title",
          "type": "string"
        },
        {
          "internalType": "string",
          "name": "description",
          "type": "string"
        },
        {
          "internalType": "uint256",
          "name": "start",
          "type": "uint256"
        },
        {
          "internalType": "uint256",
          "name": "end",
          "type": "uint256"
        },
        {
          "internalType": "uint256",
          "name": "goal",
          "type": "uint256"
        }
      ],
      "name": "createFund",
      "outputs": [],
      "stateMutability": "nonpayable",
      "type": "function"
    },
    {
      "inputs": [
        {
          "internalType": "uint256",
          "name": "fundNum",
          "type": "uint256"
        },
        {
          "internalType": "uint256",
          "name": "numOfTokens",
          "type": "uint256"
        }
      ],
      "name": "pledge",
      "outputs": [],
      "stateMutability": "payable",
      "type": "function"
    },
    {
      "inputs": [
        {
          "internalType": "uint256",
          "name": "fundNum",
          "type": "uint256"
        }
      ],
      "name": "refund",
      "outputs": [],
      "stateMutability": "nonpayable",
      "type": "function"
    },
    {
      "inputs": [
        {
          "internalType": "uint256",
          "name": "fundNum",
          "type": "uint256"
        }
      ],
      "name": "claim",
      "outputs": [],
      "stateMutability": "nonpayable",
      "type": "function"
    },
    {
      "inputs": [],
      "name": "buy",
      "outputs": [],
      "stateMutability": "payable",
      "type": "function"
    },
    {
      "inputs": [
        {
          "internalType": "uint256",
          "name": "numOfTokens",
          "type": "uint256"
        }
      ],
      "name": "sell",
      "outputs": [],
      "stateMutability": "nonpayable",
      "type": "function"
    },
    {
      "inputs": [
        {
          "internalType": "address",
          "name": "beneficiary",
          "type": "address"
        },
        {
          "internalType": "string",
          "name": "name",
          "type": "string"
        }
      ],
      "name": "newCharity",
      "outputs": [],
      "stateMutability": "nonpayable",
      "type": "function"
    },
    {
      "inputs": [
        {
          "internalType": "address",
          "name": "beneficiary",
          "type": "address"
        },
        {
          "internalType": "uint256",
          "name": "numOfTokens",
          "type": "uint256"
        }
      ],
      "name": "donateToCharity",
      "outputs": [],
      "stateMutability": "nonpayable",
      "type": "function"
    },
    {
      "inputs": [
        {
          "internalType": "address",
          "name": "beneficiary",
          "type": "address"
        },
        {
          "internalType": "uint256",
          "name": "numOfTokens",
          "type": "uint256"
        }
      ],
      "name": "withdraw",
      "outputs": [],
      "stateMutability": "nonpayable",
      "type": "function"
    },
    {
      "inputs": [],
      "name": "getTokenBalance",
      "outputs": [
        {
          "internalType": "uint256",
          "name": "",
          "type": "uint256"
        }
      ],
      "stateMutability": "view",
      "type": "function"
    },
    {
      "inputs": [],
      "name": "getTokenAddress",
      "outputs": [
        {
          "internalType": "address",
          "name": "",
          "type": "address"
        }
      ],
      "stateMutability": "view",
      "type": "function"
    },
    {
      "inputs": [],
      "name": "getOwner",
      "outputs": [
        {
          "internalType": "address",
          "name": "",
          "type": "address"
        }
      ],
      "stateMutability": "view",
      "type": "function"
    },
    {
      "inputs": [
        {
          "internalType": "address",
          "name": "beneficiary",
          "type": "address"
        }
      ],
      "name": "getCharity",
      "outputs": [
        {
          "components": [
            {
              "internalType": "bool",
              "name": "isRegistered",
              "type": "bool"
            },
            {
              "internalType": "string",
              "name": "name",
              "type": "string"
            },
            {
              "internalType": "uint256",
              "name": "amount",
              "type": "uint256"
            }
          ],
          "internalType": "struct Charities.Charity",
          "name": "",
          "type": "tuple"
        }
      ],
      "stateMutability": "view",
      "type": "function"
    },
    {
      "inputs": [],
      "name": "getCharityList",
      "outputs": [
        {
          "internalType": "address[]",
          "name": "",
          "type": "address[]"
        }
      ],
      "stateMutability": "view",
      "type": "function"
    },
    {
      "inputs": [],
      "name": "getFundList",
      "outputs": [
        {
          "components": [
            {
              "internalType": "address",
              "name": "owner",
              "type": "address"
            },
            {
              "internalType": "string",
              "name": "title",
              "type": "string"
            },
            {
              "internalType": "string",
              "name": "description",
              "type": "string"
            },
            {
              "internalType": "uint256",
              "name": "start",
              "type": "uint256"
            },
            {
              "internalType": "uint256",
              "name": "deadline",
              "type": "uint256"
            },
            {
              "internalType": "uint256",
              "name": "goal",
              "type": "uint256"
            },
            {
              "internalType": "uint256",
              "name": "balance",
              "type": "uint256"
            }
          ],
          "internalType": "struct Charities.Fund[]",
          "name": "",
          "type": "tuple[]"
        }
      ],
      "stateMutability": "view",
      "type": "function"
    },
    {
      "inputs": [
        {
          "internalType": "address",
          "name": "beneficiary",
          "type": "address"
        }
      ],
      "name": "isRegistered",
      "outputs": [
        {
          "internalType": "bool",
          "name": "registered",
          "type": "bool"
        }
      ],
      "stateMutability": "view",
      "type": "function"
    },
    {
      "inputs": [
        {
          "internalType": "address",
          "name": "beneficiary",
          "type": "address"
        }
      ],
      "name": "getTokensRecieved",
      "outputs": [
        {
          "internalType": "uint256",
          "name": "tokens",
          "type": "uint256"
        }
      ],
      "stateMutability": "view",
      "type": "function"
    }
  ],
  "bytecode": "0x60806040523480156200001157600080fd5b5033600660006101000a81548173ffffffffffffffffffffffffffffffffffffffff021916908373ffffffffffffffffffffffffffffffffffffffff1602179055506040516200006190620000cd565b604051809103906000f0801580156200007e573d6000803e3d6000fd5b50600560006101000a81548173ffffffffffffffffffffffffffffffffffffffff021916908373ffffffffffffffffffffffffffffffffffffffff1602179055506000600381905550620000db565b6116e2806200395183390190565b61386680620000eb6000396000f3fe6080604052600436106101445760003560e01c806376867eae116100b6578063c3c5a5471161006f578063c3c5a54714610473578063e4849b32146104b0578063e60028bd146104d9578063f3fef3a314610502578063fc0c546a1461052b578063fde327be146105565761014b565b806376867eae1461038257806382b2e257146103ad578063893d20e8146103d85780638ef06f7314610403578063a6f2ae3a14610440578063b849263f1461044a5761014b565b80632b5ed9d8116101085780632b5ed9d81461025e578063379607f51461029b5780634961a7b2146102c45780635b897c94146103035780636ba4194a1461032c57806371a01643146103575761014b565b80630b262d021461014d57806310fe9ae8146101905780631bf230cd146101bb578063278ecde1146101f857806327d2fb89146102215761014b565b3661014b57005b005b34801561015957600080fd5b50610174600480360381019061016f9190612407565b610572565b604051610187979695949392919061251d565b60405180910390f35b34801561019c57600080fd5b506101a56106f4565b6040516101b2919061259a565b60405180910390f35b3480156101c757600080fd5b506101e260048036038101906101dd91906125e1565b61071e565b6040516101ef91906126d2565b60405180910390f35b34801561020457600080fd5b5061021f600480360381019061021a9190612407565b61082e565b005b34801561022d57600080fd5b5061024860048036038101906102439190612407565b610a9c565b604051610255919061259a565b60405180910390f35b34801561026a57600080fd5b50610285600480360381019061028091906125e1565b610adb565b60405161029291906126f4565b60405180910390f35b3480156102a757600080fd5b506102c260048036038101906102bd9190612407565b610b27565b005b3480156102d057600080fd5b506102eb60048036038101906102e691906125e1565b610d80565b6040516102fa9392919061271e565b60405180910390f35b34801561030f57600080fd5b5061032a6004803603810190610325919061275c565b610e3f565b005b34801561033857600080fd5b506103416110ce565b60405161034e919061285a565b60405180910390f35b34801561036357600080fd5b5061036c61115c565b60405161037991906129e1565b60405180910390f35b34801561038e57600080fd5b5061039761135d565b6040516103a491906126f4565b60405180910390f35b3480156103b957600080fd5b506103c2611363565b6040516103cf91906126f4565b60405180910390f35b3480156103e457600080fd5b506103ed611415565b6040516103fa919061259a565b60405180910390f35b34801561040f57600080fd5b5061042a6004803603810190610425919061275c565b61143f565b60405161043791906126f4565b60405180910390f35b610448611464565b005b34801561045657600080fd5b50610471600480360381019061046c9190612b38565b61165f565b005b34801561047f57600080fd5b5061049a600480360381019061049591906125e1565b6117d1565b6040516104a79190612beb565b60405180910390f35b3480156104bc57600080fd5b506104d760048036038101906104d29190612407565b61182a565b005b3480156104e557600080fd5b5061050060048036038101906104fb9190612c06565b611a71565b005b34801561050e57600080fd5b506105296004803603810190610524919061275c565b611c2b565b005b34801561053757600080fd5b50610540611f61565b60405161054d9190612cc1565b60405180910390f35b610570600480360381019061056b9190612cdc565b611f87565b005b6004818154811061058257600080fd5b90600052602060002090600702016000915090508060000160009054906101000a900473ffffffffffffffffffffffffffffffffffffffff16908060010180546105cb90612d4b565b80601f01602080910402602001604051908101604052809291908181526020018280546105f790612d4b565b80156106445780601f1061061957610100808354040283529160200191610644565b820191906000526020600020905b81548152906001019060200180831161062757829003601f168201915b50505050509080600201805461065990612d4b565b80601f016020809104026020016040519081016040528092919081815260200182805461068590612d4b565b80156106d25780601f106106a7576101008083540402835291602001916106d2565b820191906000526020600020905b8154815290600101906020018083116106b557829003601f168201915b5050505050908060030154908060040154908060050154908060060154905087565b6000600560009054906101000a900473ffffffffffffffffffffffffffffffffffffffff16905090565b6107266122a4565b600160008373ffffffffffffffffffffffffffffffffffffffff1673ffffffffffffffffffffffffffffffffffffffff1681526020019081526020016000206040518060600160405290816000820160009054906101000a900460ff1615151515815260200160018201805461079b90612d4b565b80601f01602080910402602001604051908101604052809291908181526020018280546107c790612d4b565b80156108145780601f106107e957610100808354040283529160200191610814565b820191906000526020600020905b8154815290600101906020018083116107f757829003601f168201915b505050505081526020016002820154815250509050919050565b6004818154811061084257610841612d7d565b5b9060005260206000209060070201600501544710610895576040517f08c379a000000000000000000000000000000000000000000000000000000000815260040161088c90612df8565b60405180910390fd5b600481815481106108a9576108a8612d7d565b5b90600052602060002090600702016004015442116108fc576040517f08c379a00000000000000000000000000000000000000000000000000000000081526004016108f390612e64565b60405180910390fd5b60008060003373ffffffffffffffffffffffffffffffffffffffff1673ffffffffffffffffffffffffffffffffffffffff168152602001908152602001600020600083815260200190815260200160002054905060008111610993576040517f08c379a000000000000000000000000000000000000000000000000000000000815260040161098a90612ef6565b60405180910390fd5b60008060003373ffffffffffffffffffffffffffffffffffffffff1673ffffffffffffffffffffffffffffffffffffffff168152602001908152602001600020600084815260200190815260200160002081905550600560009054906101000a900473ffffffffffffffffffffffffffffffffffffffff1673ffffffffffffffffffffffffffffffffffffffff1663a9059cbb33836040518363ffffffff1660e01b8152600401610a45929190612f16565b602060405180830381600087803b158015610a5f57600080fd5b505af1158015610a73573d6000803e3d6000fd5b505050506040513d601f19601f82011682018060405250810190610a979190612f6b565b505050565b60028181548110610aac57600080fd5b906000526020600020016000915054906101000a900473ffffffffffffffffffffffffffffffffffffffff1681565b6000600160008373ffffffffffffffffffffffffffffffffffffffff1673ffffffffffffffffffffffffffffffffffffffff168152602001908152602001600020600201549050919050565b60048181548110610b3b57610b3a612d7d565b5b9060005260206000209060070201600501544710610b8e576040517f08c379a0000000000000000000000000000000000000000000000000000000008152600401610b8590612df8565b60405180910390fd5b60048181548110610ba257610ba1612d7d565b5b9060005260206000209060070201600401544211610bf5576040517f08c379a0000000000000000000000000000000000000000000000000000000008152600401610bec90612e64565b60405180910390fd5b3373ffffffffffffffffffffffffffffffffffffffff1660048281548110610c2057610c1f612d7d565b5b906000526020600020906007020160000160009054906101000a900473ffffffffffffffffffffffffffffffffffffffff1673ffffffffffffffffffffffffffffffffffffffff1614610ca8576040517f08c379a0000000000000000000000000000000000000000000000000000000008152600401610c9f9061300a565b60405180910390fd5b600560009054906101000a900473ffffffffffffffffffffffffffffffffffffffff1673ffffffffffffffffffffffffffffffffffffffff1663a9059cbb3360048481548110610cfb57610cfa612d7d565b5b9060005260206000209060070201600601546040518363ffffffff1660e01b8152600401610d2a929190612f16565b602060405180830381600087803b158015610d4457600080fd5b505af1158015610d58573d6000803e3d6000fd5b505050506040513d601f19601f82011682018060405250810190610d7c9190612f6b565b5050565b60016020528060005260406000206000915090508060000160009054906101000a900460ff1690806001018054610db690612d4b565b80601f0160208091040260200160405190810160405280929190818152602001828054610de290612d4b565b8015610e2f5780601f10610e0457610100808354040283529160200191610e2f565b820191906000526020600020905b815481529060010190602001808311610e1257829003601f168201915b5050505050908060020154905083565b60008111610e82576040517f08c379a0000000000000000000000000000000000000000000000000000000008152600401610e799061309c565b60405180910390fd5b610e8b826117d1565b610eca576040517f08c379a0000000000000000000000000000000000000000000000000000000008152600401610ec190613108565b60405180910390fd5b6000600560009054906101000a900473ffffffffffffffffffffffffffffffffffffffff1673ffffffffffffffffffffffffffffffffffffffff1663dd62ed3e33306040518363ffffffff1660e01b8152600401610f29929190613128565b60206040518083038186803b158015610f4157600080fd5b505afa158015610f55573d6000803e3d6000fd5b505050506040513d601f19601f82011682018060405250810190610f799190613166565b905081811015610fbe576040517f08c379a0000000000000000000000000000000000000000000000000000000008152600401610fb590613205565b60405180910390fd5b600560009054906101000a900473ffffffffffffffffffffffffffffffffffffffff1673ffffffffffffffffffffffffffffffffffffffff166323b872dd3330856040518463ffffffff1660e01b815260040161101d93929190613225565b602060405180830381600087803b15801561103757600080fd5b505af115801561104b573d6000803e3d6000fd5b505050506040513d601f19601f8201168201806040525081019061106f9190612f6b565b5081600160008573ffffffffffffffffffffffffffffffffffffffff1673ffffffffffffffffffffffffffffffffffffffff16815260200190815260200160002060020160008282546110c2919061328b565b92505081905550505050565b6060600280548060200260200160405190810160405280929190818152602001828054801561115257602002820191906000526020600020905b8160009054906101000a900473ffffffffffffffffffffffffffffffffffffffff1673ffffffffffffffffffffffffffffffffffffffff1681526020019060010190808311611108575b5050505050905090565b60606004805480602002602001604051908101604052809291908181526020016000905b8282101561135457838290600052602060002090600702016040518060e00160405290816000820160009054906101000a900473ffffffffffffffffffffffffffffffffffffffff1673ffffffffffffffffffffffffffffffffffffffff1673ffffffffffffffffffffffffffffffffffffffff16815260200160018201805461120990612d4b565b80601f016020809104026020016040519081016040528092919081815260200182805461123590612d4b565b80156112825780601f1061125757610100808354040283529160200191611282565b820191906000526020600020905b81548152906001019060200180831161126557829003601f168201915b5050505050815260200160028201805461129b90612d4b565b80601f01602080910402602001604051908101604052809291908181526020018280546112c790612d4b565b80156113145780601f106112e957610100808354040283529160200191611314565b820191906000526020600020905b8154815290600101906020018083116112f757829003601f168201915b5050505050815260200160038201548152602001600482015481526020016005820154815260200160068201548152505081526020019060010190611180565b50505050905090565b60035481565b6000600560009054906101000a900473ffffffffffffffffffffffffffffffffffffffff1673ffffffffffffffffffffffffffffffffffffffff166370a08231336040518263ffffffff1660e01b81526004016113c0919061259a565b60206040518083038186803b1580156113d857600080fd5b505afa1580156113ec573d6000803e3d6000fd5b505050506040513d601f19601f820116820180604052508101906114109190613166565b905090565b6000600660009054906101000a900473ffffffffffffffffffffffffffffffffffffffff16905090565b6000602052816000526040600020602052806000526040600020600091509150505481565b60006127103461147491906132e1565b90506000600560009054906101000a900473ffffffffffffffffffffffffffffffffffffffff1673ffffffffffffffffffffffffffffffffffffffff166370a08231306040518263ffffffff1660e01b81526004016114d3919061259a565b60206040518083038186803b1580156114eb57600080fd5b505afa1580156114ff573d6000803e3d6000fd5b505050506040513d601f19601f820116820180604052508101906115239190613166565b905060008211611568576040517f08c379a000000000000000000000000000000000000000000000000000000000815260040161155f90613387565b60405180910390fd5b808211156115ab576040517f08c379a00000000000000000000000000000000000000000000000000000000081526004016115a2906133f3565b60405180910390fd5b600560009054906101000a900473ffffffffffffffffffffffffffffffffffffffff1673ffffffffffffffffffffffffffffffffffffffff1663a9059cbb33846040518363ffffffff1660e01b8152600401611608929190612f16565b602060405180830381600087803b15801561162257600080fd5b505af1158015611636573d6000803e3d6000fd5b505050506040513d601f19601f8201168201806040525081019061165a9190612f6b565b505050565b6116676122c7565b33816000019073ffffffffffffffffffffffffffffffffffffffff16908173ffffffffffffffffffffffffffffffffffffffff16815250508581602001819052508481604001819052508381606001818152505082816080018181525050818160a001818152505060008160c0018181525050600481908060018154018082558091505060019003906000526020600020906007020160009091909190915060008201518160000160006101000a81548173ffffffffffffffffffffffffffffffffffffffff021916908373ffffffffffffffffffffffffffffffffffffffff160217905550602082015181600101908051906020019061176992919061231a565b50604082015181600201908051906020019061178692919061231a565b50606082015181600301556080820151816004015560a0820151816005015560c082015181600601555050600360008154809291906117c490613413565b9190505550505050505050565b6000600160008373ffffffffffffffffffffffffffffffffffffffff1673ffffffffffffffffffffffffffffffffffffffff16815260200190815260200160002060000160009054906101000a900460ff169050919050565b6000811161186d576040517f08c379a0000000000000000000000000000000000000000000000000000000008152600401611864906134a8565b60405180910390fd5b6000600560009054906101000a900473ffffffffffffffffffffffffffffffffffffffff1673ffffffffffffffffffffffffffffffffffffffff1663dd62ed3e33306040518363ffffffff1660e01b81526004016118cc929190613128565b60206040518083038186803b1580156118e457600080fd5b505afa1580156118f8573d6000803e3d6000fd5b505050506040513d601f19601f8201168201806040525081019061191c9190613166565b905081811015611961576040517f08c379a000000000000000000000000000000000000000000000000000000000815260040161195890613205565b60405180910390fd5b600560009054906101000a900473ffffffffffffffffffffffffffffffffffffffff1673ffffffffffffffffffffffffffffffffffffffff166323b872dd3330856040518463ffffffff1660e01b81526004016119c093929190613225565b602060405180830381600087803b1580156119da57600080fd5b505af11580156119ee573d6000803e3d6000fd5b505050506040513d601f19601f82011682018060405250810190611a129190612f6b565b50600061271083611a2391906134f7565b90503373ffffffffffffffffffffffffffffffffffffffff166108fc829081150290604051600060405180830381858888f19350505050158015611a6b573d6000803e3d6000fd5b50505050565b8173ffffffffffffffffffffffffffffffffffffffff163373ffffffffffffffffffffffffffffffffffffffff161480611af85750600660009054906101000a900473ffffffffffffffffffffffffffffffffffffffff1673ffffffffffffffffffffffffffffffffffffffff163373ffffffffffffffffffffffffffffffffffffffff16145b611b0157600080fd5b611b0a826117d1565b15611b4a576040517f08c379a0000000000000000000000000000000000000000000000000000000008152600401611b4190613574565b60405180910390fd5b6002829080600181540180825580915050600190039060005260206000200160009091909190916101000a81548173ffffffffffffffffffffffffffffffffffffffff021916908373ffffffffffffffffffffffffffffffffffffffff1602179055506000600160008473ffffffffffffffffffffffffffffffffffffffff1673ffffffffffffffffffffffffffffffffffffffff168152602001908152602001600020905060018160000160006101000a81548160ff02191690831515021790555081816001019080519060200190611c2592919061231a565b50505050565b8173ffffffffffffffffffffffffffffffffffffffff163373ffffffffffffffffffffffffffffffffffffffff1614611c99576040517f08c379a0000000000000000000000000000000000000000000000000000000008152600401611c9090613606565b60405180910390fd5b6000600560009054906101000a900473ffffffffffffffffffffffffffffffffffffffff1673ffffffffffffffffffffffffffffffffffffffff166370a08231306040518263ffffffff1660e01b8152600401611cf6919061259a565b60206040518083038186803b158015611d0e57600080fd5b505afa158015611d22573d6000803e3d6000fd5b505050506040513d601f19601f82011682018060405250810190611d469190613166565b905060008211611d8b576040517f08c379a0000000000000000000000000000000000000000000000000000000008152600401611d8290613698565b60405180910390fd5b600160008473ffffffffffffffffffffffffffffffffffffffff1673ffffffffffffffffffffffffffffffffffffffff16815260200190815260200160002060020154821115611e10576040517f08c379a0000000000000000000000000000000000000000000000000000000008152600401611e0790613704565b60405180910390fd5b80821115611e53576040517f08c379a0000000000000000000000000000000000000000000000000000000008152600401611e4a906133f3565b60405180910390fd5b600560009054906101000a900473ffffffffffffffffffffffffffffffffffffffff1673ffffffffffffffffffffffffffffffffffffffff1663a9059cbb33846040518363ffffffff1660e01b8152600401611eb0929190612f16565b602060405180830381600087803b158015611eca57600080fd5b505af1158015611ede573d6000803e3d6000fd5b505050506040513d601f19601f82011682018060405250810190611f029190612f6b565b5081600160008573ffffffffffffffffffffffffffffffffffffffff1673ffffffffffffffffffffffffffffffffffffffff1681526020019081526020016000206002016000828254611f559190613724565b92505081905550505050565b600560009054906101000a900473ffffffffffffffffffffffffffffffffffffffff1681565b60048281548110611f9b57611f9a612d7d565b5b906000526020600020906007020160030154421015611fef576040517f08c379a0000000000000000000000000000000000000000000000000000000008152600401611fe6906137a4565b60405180910390fd5b6004828154811061200357612002612d7d565b5b906000526020600020906007020160040154421115612057576040517f08c379a000000000000000000000000000000000000000000000000000000000815260040161204e90613810565b60405180910390fd5b6000600560009054906101000a900473ffffffffffffffffffffffffffffffffffffffff1673ffffffffffffffffffffffffffffffffffffffff1663dd62ed3e33306040518363ffffffff1660e01b81526004016120b6929190613128565b60206040518083038186803b1580156120ce57600080fd5b505afa1580156120e2573d6000803e3d6000fd5b505050506040513d601f19601f820116820180604052508101906121069190613166565b90508181101561214b576040517f08c379a000000000000000000000000000000000000000000000000000000000815260040161214290613205565b60405180910390fd5b600560009054906101000a900473ffffffffffffffffffffffffffffffffffffffff1673ffffffffffffffffffffffffffffffffffffffff166323b872dd3330856040518463ffffffff1660e01b81526004016121aa93929190613225565b602060405180830381600087803b1580156121c457600080fd5b505af11580156121d8573d6000803e3d6000fd5b505050506040513d601f19601f820116820180604052508101906121fc9190612f6b565b50816004848154811061221257612211612d7d565b5b90600052602060002090600702016006016000828254612232919061328b565b92505081905550816000803373ffffffffffffffffffffffffffffffffffffffff1673ffffffffffffffffffffffffffffffffffffffff16815260200190815260200160002060008581526020019081526020016000206000828254612298919061328b565b92505081905550505050565b604051806060016040528060001515815260200160608152602001600081525090565b6040518060e00160405280600073ffffffffffffffffffffffffffffffffffffffff1681526020016060815260200160608152602001600081526020016000815260200160008152602001600081525090565b82805461232690612d4b565b90600052602060002090601f016020900481019282612348576000855561238f565b82601f1061236157805160ff191683800117855561238f565b8280016001018555821561238f579182015b8281111561238e578251825591602001919060010190612373565b5b50905061239c91906123a0565b5090565b5b808211156123b95760008160009055506001016123a1565b5090565b6000604051905090565b600080fd5b600080fd5b6000819050919050565b6123e4816123d1565b81146123ef57600080fd5b50565b600081359050612401816123db565b92915050565b60006020828403121561241d5761241c6123c7565b5b600061242b848285016123f2565b91505092915050565b600073ffffffffffffffffffffffffffffffffffffffff82169050919050565b600061245f82612434565b9050919050565b61246f81612454565b82525050565b600081519050919050565b600082825260208201905092915050565b60005b838110156124af578082015181840152602081019050612494565b838111156124be576000848401525b50505050565b6000601f19601f8301169050919050565b60006124e082612475565b6124ea8185612480565b93506124fa818560208601612491565b612503816124c4565b840191505092915050565b612517816123d1565b82525050565b600060e082019050612532600083018a612466565b818103602083015261254481896124d5565b9050818103604083015261255881886124d5565b9050612567606083018761250e565b612574608083018661250e565b61258160a083018561250e565b61258e60c083018461250e565b98975050505050505050565b60006020820190506125af6000830184612466565b92915050565b6125be81612454565b81146125c957600080fd5b50565b6000813590506125db816125b5565b92915050565b6000602082840312156125f7576125f66123c7565b5b6000612605848285016125cc565b91505092915050565b60008115159050919050565b6126238161260e565b82525050565b600082825260208201905092915050565b600061264582612475565b61264f8185612629565b935061265f818560208601612491565b612668816124c4565b840191505092915050565b61267c816123d1565b82525050565b600060608301600083015161269a600086018261261a565b50602083015184820360208601526126b2828261263a565b91505060408301516126c76040860182612673565b508091505092915050565b600060208201905081810360008301526126ec8184612682565b905092915050565b6000602082019050612709600083018461250e565b92915050565b6127188161260e565b82525050565b6000606082019050612733600083018661270f565b818103602083015261274581856124d5565b9050612754604083018461250e565b949350505050565b60008060408385031215612773576127726123c7565b5b6000612781858286016125cc565b9250506020612792858286016123f2565b9150509250929050565b600081519050919050565b600082825260208201905092915050565b6000819050602082019050919050565b6127d181612454565b82525050565b60006127e383836127c8565b60208301905092915050565b6000602082019050919050565b60006128078261279c565b61281181856127a7565b935061281c836127b8565b8060005b8381101561284d57815161283488826127d7565b975061283f836127ef565b925050600181019050612820565b5085935050505092915050565b6000602082019050818103600083015261287481846127fc565b905092915050565b600081519050919050565b600082825260208201905092915050565b6000819050602082019050919050565b600060e0830160008301516128c060008601826127c8565b50602083015184820360208601526128d8828261263a565b915050604083015184820360408601526128f2828261263a565b91505060608301516129076060860182612673565b50608083015161291a6080860182612673565b5060a083015161292d60a0860182612673565b5060c083015161294060c0860182612673565b508091505092915050565b600061295783836128a8565b905092915050565b6000602082019050919050565b60006129778261287c565b6129818185612887565b93508360208202850161299385612898565b8060005b858110156129cf57848403895281516129b0858261294b565b94506129bb8361295f565b925060208a01995050600181019050612997565b50829750879550505050505092915050565b600060208201905081810360008301526129fb818461296c565b905092915050565b600080fd5b600080fd5b7f4e487b7100000000000000000000000000000000000000000000000000000000600052604160045260246000fd5b612a45826124c4565b810181811067ffffffffffffffff82111715612a6457612a63612a0d565b5b80604052505050565b6000612a776123bd565b9050612a838282612a3c565b919050565b600067ffffffffffffffff821115612aa357612aa2612a0d565b5b612aac826124c4565b9050602081019050919050565b82818337600083830152505050565b6000612adb612ad684612a88565b612a6d565b905082815260208101848484011115612af757612af6612a08565b5b612b02848285612ab9565b509392505050565b600082601f830112612b1f57612b1e612a03565b5b8135612b2f848260208601612ac8565b91505092915050565b600080600080600060a08688031215612b5457612b536123c7565b5b600086013567ffffffffffffffff811115612b7257612b716123cc565b5b612b7e88828901612b0a565b955050602086013567ffffffffffffffff811115612b9f57612b9e6123cc565b5b612bab88828901612b0a565b9450506040612bbc888289016123f2565b9350506060612bcd888289016123f2565b9250506080612bde888289016123f2565b9150509295509295909350565b6000602082019050612c00600083018461270f565b92915050565b60008060408385031215612c1d57612c1c6123c7565b5b6000612c2b858286016125cc565b925050602083013567ffffffffffffffff811115612c4c57612c4b6123cc565b5b612c5885828601612b0a565b9150509250929050565b6000819050919050565b6000612c87612c82612c7d84612434565b612c62565b612434565b9050919050565b6000612c9982612c6c565b9050919050565b6000612cab82612c8e565b9050919050565b612cbb81612ca0565b82525050565b6000602082019050612cd66000830184612cb2565b92915050565b60008060408385031215612cf357612cf26123c7565b5b6000612d01858286016123f2565b9250506020612d12858286016123f2565b9150509250929050565b7f4e487b7100000000000000000000000000000000000000000000000000000000600052602260045260246000fd5b60006002820490506001821680612d6357607f821691505b60208210811415612d7757612d76612d1c565b5b50919050565b7f4e487b7100000000000000000000000000000000000000000000000000000000600052603260045260246000fd5b7f476f616c20686173206265656e206d6574000000000000000000000000000000600082015250565b6000612de2601183612480565b9150612ded82612dac565b602082019050919050565b60006020820190508181036000830152612e1181612dd5565b9050919050565b7f446561646c696e6520686173206e6f74206265656e2072656163686564000000600082015250565b6000612e4e601d83612480565b9150612e5982612e18565b602082019050919050565b60006020820190508181036000830152612e7d81612e41565b9050919050565b7f596f752068617665206e6f7420646f6e6174656420746f20746869732066756e60008201527f6400000000000000000000000000000000000000000000000000000000000000602082015250565b6000612ee0602183612480565b9150612eeb82612e84565b604082019050919050565b60006020820190508181036000830152612f0f81612ed3565b9050919050565b6000604082019050612f2b6000830185612466565b612f38602083018461250e565b9392505050565b612f488161260e565b8114612f5357600080fd5b50565b600081519050612f6581612f3f565b92915050565b600060208284031215612f8157612f806123c7565b5b6000612f8f84828501612f56565b91505092915050565b7f596f7520617265206e6f7420746865206f776e6572206f66207468697320667560008201527f6e64000000000000000000000000000000000000000000000000000000000000602082015250565b6000612ff4602283612480565b9150612fff82612f98565b604082019050919050565b6000602082019050818103600083015261302381612fe7565b9050919050565b7f596f75206e65656420746f20646f6e617465206d6f7265207468616e2030207460008201527f6f6b656e73000000000000000000000000000000000000000000000000000000602082015250565b6000613086602583612480565b91506130918261302a565b604082019050919050565b600060208201905081810360008301526130b581613079565b9050919050565b7f43686172697479206973206e6f74207265676973746572656400000000000000600082015250565b60006130f2601983612480565b91506130fd826130bc565b602082019050919050565b60006020820190508181036000830152613121816130e5565b9050919050565b600060408201905061313d6000830185612466565b61314a6020830184612466565b9392505050565b600081519050613160816123db565b92915050565b60006020828403121561317c5761317b6123c7565b5b600061318a84828501613151565b91505092915050565b7f4e6f7420617070726f76656420746f207472616e736665722074686973206d6160008201527f6e7920746f6b656e730000000000000000000000000000000000000000000000602082015250565b60006131ef602983612480565b91506131fa82613193565b604082019050919050565b6000602082019050818103600083015261321e816131e2565b9050919050565b600060608201905061323a6000830186612466565b6132476020830185612466565b613254604083018461250e565b949350505050565b7f4e487b7100000000000000000000000000000000000000000000000000000000600052601160045260246000fd5b6000613296826123d1565b91506132a1836123d1565b9250827fffffffffffffffffffffffffffffffffffffffffffffffffffffffffffffffff038211156132d6576132d561325c565b5b828201905092915050565b60006132ec826123d1565b91506132f7836123d1565b9250817fffffffffffffffffffffffffffffffffffffffffffffffffffffffffffffffff04831182151516156133305761332f61325c565b5b828202905092915050565b7f596f75206e65656420746f2073656e6420736f6d652065746865720000000000600082015250565b6000613371601b83612480565b915061337c8261333b565b602082019050919050565b600060208201905081810360008301526133a081613364565b9050919050565b7f4e6f7420656e6f75676820746f6b656e7320696e207468652072657365727665600082015250565b60006133dd602083612480565b91506133e8826133a7565b602082019050919050565b6000602082019050818103600083015261340c816133d0565b9050919050565b600061341e826123d1565b91507fffffffffffffffffffffffffffffffffffffffffffffffffffffffffffffffff8214156134515761345061325c565b5b600182019050919050565b7f596f75206e65656420746f2073656c6c203020746f6b656e7300000000000000600082015250565b6000613492601983612480565b915061349d8261345c565b602082019050919050565b600060208201905081810360008301526134c181613485565b9050919050565b7f4e487b7100000000000000000000000000000000000000000000000000000000600052601260045260246000fd5b6000613502826123d1565b915061350d836123d1565b92508261351d5761351c6134c8565b5b828204905092915050565b7f596f752061726520616c72656164792072656769737465726564000000000000600082015250565b600061355e601a83612480565b915061356982613528565b602082019050919050565b6000602082019050818103600083015261358d81613551565b9050919050565b7f596f7520617265206e6f7420746865206f776e6572206f66207468652063686160008201527f7269747900000000000000000000000000000000000000000000000000000000602082015250565b60006135f0602483612480565b91506135fb82613594565b604082019050919050565b6000602082019050818103600083015261361f816135e3565b9050919050565b7f596f75206e65656420746f207472616e73666572206d6f7265207468616e203060008201527f20746f6b656e7300000000000000000000000000000000000000000000000000602082015250565b6000613682602783612480565b915061368d82613626565b604082019050919050565b600060208201905081810360008301526136b181613675565b9050919050565b7f596f7520646f206e6f7420686176652074686174206d616e7920746f6b656e73600082015250565b60006136ee602083612480565b91506136f9826136b8565b602082019050919050565b6000602082019050818103600083015261371d816136e1565b9050919050565b600061372f826123d1565b915061373a836123d1565b92508282101561374d5761374c61325c565b5b828203905092915050565b7f46756e64206861736e2774207374617274656400000000000000000000000000600082015250565b600061378e601383612480565b915061379982613758565b602082019050919050565b600060208201905081810360008301526137bd81613781565b9050919050565b7f446561646c696e65206861732070617373656400000000000000000000000000600082015250565b60006137fa601383612480565b9150613805826137c4565b602082019050919050565b60006020820190508181036000830152613829816137ed565b905091905056fea26469706673582212204d71cf8db12c01d30f18c68dc22db00ab093c43d267086dbbe9eb3903cedaf1364736f6c6343000809003360806040526040518060400160405280600d81526020017f4368617269747920546f6b656e0000000000000000000000000000000000000081525060009080519060200190620000519291906200023e565b506040518060400160405280600381526020017f4348540000000000000000000000000000000000000000000000000000000000815250600190805190602001906200009f9291906200023e565b506012600260006101000a81548160ff021916908360ff1602179055506000600355348015620000ce57600080fd5b506200010f33620000e46200011560201b60201c565b600a620000f2919062000488565b633b9aca00620001039190620004d9565b6200012c60201b60201c565b6200062a565b6000600260009054906101000a900460ff16905090565b806003546200013c91906200053a565b60038190555080600460008473ffffffffffffffffffffffffffffffffffffffff1673ffffffffffffffffffffffffffffffffffffffff168152602001908152602001600020546200018f91906200053a565b600460008473ffffffffffffffffffffffffffffffffffffffff1673ffffffffffffffffffffffffffffffffffffffff168152602001908152602001600020819055508173ffffffffffffffffffffffffffffffffffffffff16600073ffffffffffffffffffffffffffffffffffffffff167fddf252ad1be2c89b69c2b068fc378daa952ba7f163c4a11628f55a4df523b3ef83604051620002329190620005a8565b60405180910390a35050565b8280546200024c90620005f4565b90600052602060002090601f016020900481019282620002705760008555620002bc565b82601f106200028b57805160ff1916838001178555620002bc565b82800160010185558215620002bc579182015b82811115620002bb5782518255916020019190600101906200029e565b5b509050620002cb9190620002cf565b5090565b5b80821115620002ea576000816000905550600101620002d0565b5090565b7f4e487b7100000000000000000000000000000000000000000000000000000000600052601160045260246000fd5b60008160011c9050919050565b6000808291508390505b60018511156200037c57808604811115620003545762000353620002ee565b5b6001851615620003645780820291505b808102905062000374856200031d565b945062000334565b94509492505050565b6000826200039757600190506200046a565b81620003a757600090506200046a565b8160018114620003c05760028114620003cb5762000401565b60019150506200046a565b60ff841115620003e057620003df620002ee565b5b8360020a915084821115620003fa57620003f9620002ee565b5b506200046a565b5060208310610133831016604e8410600b84101617156200043b5782820a905083811115620004355762000434620002ee565b5b6200046a565b6200044a84848460016200032a565b92509050818404811115620004645762000463620002ee565b5b81810290505b9392505050565b6000819050919050565b600060ff82169050919050565b6000620004958262000471565b9150620004a2836200047b565b9250620004d17fffffffffffffffffffffffffffffffffffffffffffffffffffffffffffffffff848462000385565b905092915050565b6000620004e68262000471565b9150620004f38362000471565b9250817fffffffffffffffffffffffffffffffffffffffffffffffffffffffffffffffff04831182151516156200052f576200052e620002ee565b5b828202905092915050565b6000620005478262000471565b9150620005548362000471565b9250827fffffffffffffffffffffffffffffffffffffffffffffffffffffffffffffffff038211156200058c576200058b620002ee565b5b828201905092915050565b620005a28162000471565b82525050565b6000602082019050620005bf600083018462000597565b92915050565b7f4e487b7100000000000000000000000000000000000000000000000000000000600052602260045260246000fd5b600060028204905060018216806200060d57607f821691505b60208210811415620006245762000623620005c5565b5b50919050565b6110a8806200063a6000396000f3fe608060405234801561001057600080fd5b50600436106100cf5760003560e01c80633eaaf86b1161008c578063a9059cbb11610066578063a9059cbb14610218578063b09f126614610248578063d28d885214610266578063dd62ed3e14610284576100cf565b80633eaaf86b146101ac57806370a08231146101ca57806395d89b41146101fa576100cf565b806306fdde03146100d4578063095ea7b3146100f257806318160ddd1461012257806323b872dd14610140578063313ce5671461017057806332424aa31461018e575b600080fd5b6100dc6102b4565b6040516100e99190610d06565b60405180910390f35b61010c60048036038101906101079190610dc1565b610346565b6040516101199190610e1c565b60405180910390f35b61012a610471565b6040516101379190610e46565b60405180910390f35b61015a60048036038101906101559190610e61565b61047b565b6040516101679190610e1c565b60405180910390f35b6101786107e6565b6040516101859190610ed0565b60405180910390f35b6101966107fd565b6040516101a39190610ed0565b60405180910390f35b6101b4610810565b6040516101c19190610e46565b60405180910390f35b6101e460048036038101906101df9190610eeb565b610816565b6040516101f19190610e46565b60405180910390f35b61020261085f565b60405161020f9190610d06565b60405180910390f35b610232600480360381019061022d9190610dc1565b6108f1565b60405161023f9190610e1c565b60405180910390f35b610250610aca565b60405161025d9190610d06565b60405180910390f35b61026e610b58565b60405161027b9190610d06565b60405180910390f35b61029e60048036038101906102999190610f18565b610be6565b6040516102ab9190610e46565b60405180910390f35b6060600080546102c390610f87565b80601f01602080910402602001604051908101604052809291908181526020018280546102ef90610f87565b801561033c5780601f106103115761010080835404028352916020019161033c565b820191906000526020600020905b81548152906001019060200180831161031f57829003601f168201915b5050505050905090565b60008073ffffffffffffffffffffffffffffffffffffffff168373ffffffffffffffffffffffffffffffffffffffff16141561038157600080fd5b81600560003373ffffffffffffffffffffffffffffffffffffffff1673ffffffffffffffffffffffffffffffffffffffff16815260200190815260200160002060008573ffffffffffffffffffffffffffffffffffffffff1673ffffffffffffffffffffffffffffffffffffffff168152602001908152602001600020819055508273ffffffffffffffffffffffffffffffffffffffff163373ffffffffffffffffffffffffffffffffffffffff167f8c5be1e5ebec7d5bd14f71427d1e84f3dd0314c0f7b2291e5b200ac8c7c3b9258460405161045f9190610e46565b60405180910390a36001905092915050565b6000600354905090565b600081600460008673ffffffffffffffffffffffffffffffffffffffff1673ffffffffffffffffffffffffffffffffffffffff1681526020019081526020016000205410156104c957600080fd5b81600560008673ffffffffffffffffffffffffffffffffffffffff1673ffffffffffffffffffffffffffffffffffffffff16815260200190815260200160002060003373ffffffffffffffffffffffffffffffffffffffff1673ffffffffffffffffffffffffffffffffffffffff16815260200190815260200160002054101561055257600080fd5b81600460008673ffffffffffffffffffffffffffffffffffffffff1673ffffffffffffffffffffffffffffffffffffffff1681526020019081526020016000205461059d9190610fe8565b600460008673ffffffffffffffffffffffffffffffffffffffff1673ffffffffffffffffffffffffffffffffffffffff1681526020019081526020016000208190555081600460008573ffffffffffffffffffffffffffffffffffffffff1673ffffffffffffffffffffffffffffffffffffffff1681526020019081526020016000205461062b919061101c565b600460008573ffffffffffffffffffffffffffffffffffffffff1673ffffffffffffffffffffffffffffffffffffffff1681526020019081526020016000208190555081600560008673ffffffffffffffffffffffffffffffffffffffff1673ffffffffffffffffffffffffffffffffffffffff16815260200190815260200160002060003373ffffffffffffffffffffffffffffffffffffffff1673ffffffffffffffffffffffffffffffffffffffff168152602001908152602001600020546106f69190610fe8565b600560008673ffffffffffffffffffffffffffffffffffffffff1673ffffffffffffffffffffffffffffffffffffffff16815260200190815260200160002060003373ffffffffffffffffffffffffffffffffffffffff1673ffffffffffffffffffffffffffffffffffffffff168152602001908152602001600020819055508273ffffffffffffffffffffffffffffffffffffffff163373ffffffffffffffffffffffffffffffffffffffff167fddf252ad1be2c89b69c2b068fc378daa952ba7f163c4a11628f55a4df523b3ef846040516107d39190610e46565b60405180910390a3600190509392505050565b6000600260009054906101000a900460ff16905090565b600260009054906101000a900460ff1681565b60035481565b6000600460008373ffffffffffffffffffffffffffffffffffffffff1673ffffffffffffffffffffffffffffffffffffffff168152602001908152602001600020549050919050565b60606001805461086e90610f87565b80601f016020809104026020016040519081016040528092919081815260200182805461089a90610f87565b80156108e75780601f106108bc576101008083540402835291602001916108e7565b820191906000526020600020905b8154815290600101906020018083116108ca57829003601f168201915b5050505050905090565b600081600460003373ffffffffffffffffffffffffffffffffffffffff1673ffffffffffffffffffffffffffffffffffffffff16815260200190815260200160002054101561093f57600080fd5b81600460003373ffffffffffffffffffffffffffffffffffffffff1673ffffffffffffffffffffffffffffffffffffffff1681526020019081526020016000205461098a9190610fe8565b600460003373ffffffffffffffffffffffffffffffffffffffff1673ffffffffffffffffffffffffffffffffffffffff1681526020019081526020016000208190555081600460008573ffffffffffffffffffffffffffffffffffffffff1673ffffffffffffffffffffffffffffffffffffffff16815260200190815260200160002054610a18919061101c565b600460008573ffffffffffffffffffffffffffffffffffffffff1673ffffffffffffffffffffffffffffffffffffffff168152602001908152602001600020819055508273ffffffffffffffffffffffffffffffffffffffff163373ffffffffffffffffffffffffffffffffffffffff167fddf252ad1be2c89b69c2b068fc378daa952ba7f163c4a11628f55a4df523b3ef84604051610ab89190610e46565b60405180910390a36001905092915050565b60018054610ad790610f87565b80601f0160208091040260200160405190810160405280929190818152602001828054610b0390610f87565b8015610b505780601f10610b2557610100808354040283529160200191610b50565b820191906000526020600020905b815481529060010190602001808311610b3357829003601f168201915b505050505081565b60008054610b6590610f87565b80601f0160208091040260200160405190810160405280929190818152602001828054610b9190610f87565b8015610bde5780601f10610bb357610100808354040283529160200191610bde565b820191906000526020600020905b815481529060010190602001808311610bc157829003601f168201915b505050505081565b6000600560008473ffffffffffffffffffffffffffffffffffffffff1673ffffffffffffffffffffffffffffffffffffffff16815260200190815260200160002060008373ffffffffffffffffffffffffffffffffffffffff1673ffffffffffffffffffffffffffffffffffffffff16815260200190815260200160002054905092915050565b600081519050919050565b600082825260208201905092915050565b60005b83811015610ca7578082015181840152602081019050610c8c565b83811115610cb6576000848401525b50505050565b6000601f19601f8301169050919050565b6000610cd882610c6d565b610ce28185610c78565b9350610cf2818560208601610c89565b610cfb81610cbc565b840191505092915050565b60006020820190508181036000830152610d208184610ccd565b905092915050565b600080fd5b600073ffffffffffffffffffffffffffffffffffffffff82169050919050565b6000610d5882610d2d565b9050919050565b610d6881610d4d565b8114610d7357600080fd5b50565b600081359050610d8581610d5f565b92915050565b6000819050919050565b610d9e81610d8b565b8114610da957600080fd5b50565b600081359050610dbb81610d95565b92915050565b60008060408385031215610dd857610dd7610d28565b5b6000610de685828601610d76565b9250506020610df785828601610dac565b9150509250929050565b60008115159050919050565b610e1681610e01565b82525050565b6000602082019050610e316000830184610e0d565b92915050565b610e4081610d8b565b82525050565b6000602082019050610e5b6000830184610e37565b92915050565b600080600060608486031215610e7a57610e79610d28565b5b6000610e8886828701610d76565b9350506020610e9986828701610d76565b9250506040610eaa86828701610dac565b9150509250925092565b600060ff82169050919050565b610eca81610eb4565b82525050565b6000602082019050610ee56000830184610ec1565b92915050565b600060208284031215610f0157610f00610d28565b5b6000610f0f84828501610d76565b91505092915050565b60008060408385031215610f2f57610f2e610d28565b5b6000610f3d85828601610d76565b9250506020610f4e85828601610d76565b9150509250929050565b7f4e487b7100000000000000000000000000000000000000000000000000000000600052602260045260246000fd5b60006002820490506001821680610f9f57607f821691505b60208210811415610fb357610fb2610f58565b5b50919050565b7f4e487b7100000000000000000000000000000000000000000000000000000000600052601160045260246000fd5b6000610ff382610d8b565b9150610ffe83610d8b565b92508282101561101157611010610fb9565b5b828203905092915050565b600061102782610d8b565b915061103283610d8b565b9250827fffffffffffffffffffffffffffffffffffffffffffffffffffffffffffffffff0382111561106757611066610fb9565b5b82820190509291505056fea26469706673582212200cccc9205cc0fa462a4184e021c27faaf0f509b86d8103e5a4b5bd7bca77990664736f6c63430008090033",
  "immutableReferences": {},
  "source": "// SPDX-License-Identifier: MIT\r\npragma solidity ^0.8.9;\r\n\r\nimport \"./Token.sol\";\r\n\r\ncontract Charities {\r\n\r\n    struct Charity {\r\n        // whether the charity has registered\r\n        bool isRegistered;\r\n        // name of the charity\r\n        string name;\r\n        // total amount donated to this charity\r\n        uint amount;\r\n    }\r\n\r\n    struct Fund {\r\n        address owner;\r\n        string title;\r\n        string description;\r\n        uint start;\r\n        uint deadline;\r\n        uint goal;\r\n        uint balance;\r\n    }\r\n\r\n    mapping (address => mapping(uint => uint)) public fundsDonated;\r\n    \r\n    mapping (address => Charity) public allCharities;\r\n    // list of registered charities\r\n    address[] public charityList;\r\n\r\n    uint public fundCounter;\r\n\r\n    Fund[] public fundList;\r\n\r\n    IToken public token;\r\n\r\n    address private _owner;\r\n\r\n    constructor() {\r\n        _owner = msg.sender;\r\n        token = new Token();\r\n        fundCounter = 0;\r\n    }\r\n\r\n    function createFund(string memory title, string memory description, uint start, uint end, uint goal) public {\r\n        Fund memory f;\r\n        f.owner = msg.sender;\r\n        f.title = title;\r\n        f.description = description;\r\n        f.start = start;\r\n        f.deadline = end;\r\n        f.goal = goal;\r\n        f.balance = 0;\r\n        fundList.push(f);\r\n        fundCounter++;\r\n    }\r\n\r\n    function pledge(uint fundNum, uint numOfTokens) public payable {\r\n        require(block.timestamp >= fundList[fundNum].start, \"Fund hasn't started\");\r\n        require(block.timestamp <= fundList[fundNum].deadline, \"Deadline has passed\");\r\n        uint allowance = token.allowance(msg.sender, address(this));\r\n        require(allowance >= numOfTokens, \"Not approved to transfer this many tokens\");\r\n        token.transferFrom(msg.sender, address(this), numOfTokens);\r\n\r\n        fundList[fundNum].balance += numOfTokens;\r\n        fundsDonated[msg.sender][fundNum] += numOfTokens;\r\n    }\r\n\r\n    function refund(uint fundNum) public {\r\n        require(address(this).balance < fundList[fundNum].goal, \"Goal has been met\");\r\n        require(block.timestamp > fundList[fundNum].deadline, \"Deadline has not been reached\");\r\n        uint amount = fundsDonated[msg.sender][fundNum];\r\n        require(amount > 0, \"You have not donated to this fund\");\r\n        fundsDonated[msg.sender][fundNum] = 0;\r\n        token.transfer(msg.sender, amount);      \r\n    }\r\n\r\n    function claim(uint fundNum) public {\r\n        require(address(this).balance < fundList[fundNum].goal, \"Goal has been met\");\r\n        require(block.timestamp > fundList[fundNum].deadline, \"Deadline has not been reached\");\r\n        require(fundList[fundNum].owner == msg.sender, \"You are not the owner of this fund\");\r\n        token.transfer(msg.sender, fundList[fundNum].balance);\r\n    }\r\n\r\n    // user can buy tokens\r\n    function buy() payable public {\r\n        // currently 10000 token == 1 ether\r\n        uint amountTobuy = msg.value * 10000;\r\n        uint contractBalance = token.balanceOf(address(this));\r\n        require(amountTobuy > 0, \"You need to send some ether\");\r\n        require(amountTobuy <= contractBalance, \"Not enough tokens in the reserve\");\r\n        token.transfer(msg.sender, amountTobuy);\r\n    }\r\n\r\n    function sell(uint numOfTokens) public {\r\n        require(numOfTokens > 0, \"You need to sell 0 tokens\");\r\n        uint allowance = token.allowance(msg.sender, address(this));\r\n        require(allowance >= numOfTokens, \"Not approved to transfer this many tokens\");\r\n        \r\n        token.transferFrom(msg.sender, address(this), numOfTokens);\r\n        uint amountToSell = numOfTokens / 10000;\r\n        payable(msg.sender).transfer(amountToSell);\r\n    }\r\n\r\n    // register a new charity\r\n    function newCharity(address beneficiary, string memory name) public {\r\n        require(msg.sender == beneficiary || msg.sender == _owner);\r\n        require(!isRegistered(beneficiary), \"You are already registered\");\r\n        charityList.push(beneficiary);\r\n        \r\n        Charity storage c = allCharities[beneficiary];\r\n        c.isRegistered = true;\r\n        c.name = name;\r\n    }\r\n\r\n    // the sender can send a donation to a charity\r\n    function donateToCharity(address beneficiary, uint numOfTokens) public {\r\n        require(numOfTokens > 0, \"You need to donate more than 0 tokens\");\r\n        require(isRegistered(beneficiary), \"Charity is not registered\");\r\n        uint allowance = token.allowance(msg.sender, address(this));\r\n        require(allowance >= numOfTokens, \"Not approved to transfer this many tokens\");\r\n        token.transferFrom(msg.sender, address(this), numOfTokens);\r\n\r\n        allCharities[beneficiary].amount += numOfTokens;\r\n    }\r\n\r\n    // withdraw/send a given number of tokens to a charity\r\n    function withdraw(address beneficiary, uint numOfTokens) public {\r\n        require(msg.sender == beneficiary, \"You are not the owner of the charity\");\r\n\r\n        uint contractBalance = token.balanceOf(address(this));\r\n        require(numOfTokens > 0, \"You need to transfer more than 0 tokens\");\r\n        require(numOfTokens <= allCharities[beneficiary].amount, \"You do not have that many tokens\");\r\n        require(numOfTokens <= contractBalance, \"Not enough tokens in the reserve\");\r\n        token.transfer(msg.sender, numOfTokens);\r\n\r\n        allCharities[beneficiary].amount -= numOfTokens;\r\n    }\r\n\r\n    function getTokenBalance() public view returns (uint) {\r\n        return token.balanceOf(msg.sender);\r\n    }\r\n\r\n    function getTokenAddress() public view returns (address) {\r\n        return address(token);\r\n    }\r\n\r\n    function getOwner() public view returns (address) {\r\n        return _owner;\r\n    }\r\n\r\n    function getCharity(address beneficiary) public view returns (Charity memory) {\r\n        return allCharities[beneficiary];\r\n    }\r\n\r\n    function getCharityList() public view returns (address[] memory) {\r\n        return charityList;\r\n    }\r\n\r\n    function getFundList() public view returns (Fund[] memory) {\r\n        return fundList;\r\n    }\r\n\r\n    function isRegistered(address beneficiary) public view returns (bool registered) {\r\n        return allCharities[beneficiary].isRegistered;\r\n    }\r\n\r\n    function getTokensRecieved(address beneficiary) public view returns (uint tokens) {\r\n        return allCharities[beneficiary].amount;\r\n    }\r\n    \r\n    // Function to receive Ether. msg.data must be empty\r\n    receive() external payable {}\r\n\r\n    // Fallback function is called when msg.data is not empty\r\n    fallback() external payable {}\r\n}",
  "sourcePath": "C:\\DEV\\Ethereum\\Charity\\contracts\\Charities.sol",
  "compiler": {
    "name": "solc",
    "version": "0.8.9+commit.e5eed63a.Emscripten.clang"
  },
  "schemaVersion": "3.4.3",
  "updatedAt": "2022-02-14T03:35:33.499Z",
  "devdoc": {
    "kind": "dev",
    "methods": {},
    "version": 1
  },
  "userdoc": {
    "kind": "user",
    "methods": {},
    "version": 1
  }
}