{
  "contractName": "Charities",
  "abi": [
    {
      "inputs": [],
      "stateMutability": "nonpayable",
      "type": "constructor"
    },
    {
      "stateMutability": "payable",
      "type": "fallback",
      "payable": true
    },
    {
      "inputs": [
        {
          "internalType": "address",
          "name": "",
          "type": "address"
        }
      ],
      "name": "allCharities",
      "outputs": [
        {
          "internalType": "bool",
          "name": "isRegistered",
          "type": "bool"
        },
        {
          "internalType": "string",
          "name": "name",
          "type": "string"
        },
        {
          "internalType": "uint256",
          "name": "amount",
          "type": "uint256"
        }
      ],
      "stateMutability": "view",
      "type": "function",
      "constant": true
    },
    {
      "inputs": [
        {
          "internalType": "uint256",
          "name": "",
          "type": "uint256"
        }
      ],
      "name": "allFunds",
      "outputs": [
        {
          "internalType": "address",
          "name": "owner",
          "type": "address"
        },
        {
          "internalType": "string",
          "name": "title",
          "type": "string"
        },
        {
          "internalType": "string",
          "name": "description",
          "type": "string"
        },
        {
          "internalType": "uint256",
          "name": "start",
          "type": "uint256"
        },
        {
          "internalType": "uint256",
          "name": "deadline",
          "type": "uint256"
        },
        {
          "internalType": "uint256",
          "name": "goal",
          "type": "uint256"
        },
        {
          "internalType": "uint256",
          "name": "balance",
          "type": "uint256"
        }
      ],
      "stateMutability": "view",
      "type": "function",
      "constant": true
    },
    {
      "inputs": [
        {
          "internalType": "uint256",
          "name": "",
          "type": "uint256"
        }
      ],
      "name": "charityList",
      "outputs": [
        {
          "internalType": "address",
          "name": "",
          "type": "address"
        }
      ],
      "stateMutability": "view",
      "type": "function",
      "constant": true
    },
    {
      "inputs": [],
      "name": "fundCounter",
      "outputs": [
        {
          "internalType": "uint256",
          "name": "",
          "type": "uint256"
        }
      ],
      "stateMutability": "view",
      "type": "function",
      "constant": true
    },
    {
      "inputs": [
        {
          "internalType": "uint256",
          "name": "",
          "type": "uint256"
        }
      ],
      "name": "fundList",
      "outputs": [
        {
          "internalType": "address",
          "name": "owner",
          "type": "address"
        },
        {
          "internalType": "string",
          "name": "title",
          "type": "string"
        },
        {
          "internalType": "string",
          "name": "description",
          "type": "string"
        },
        {
          "internalType": "uint256",
          "name": "start",
          "type": "uint256"
        },
        {
          "internalType": "uint256",
          "name": "deadline",
          "type": "uint256"
        },
        {
          "internalType": "uint256",
          "name": "goal",
          "type": "uint256"
        },
        {
          "internalType": "uint256",
          "name": "balance",
          "type": "uint256"
        }
      ],
      "stateMutability": "view",
      "type": "function",
      "constant": true
    },
    {
      "inputs": [
        {
          "internalType": "address",
          "name": "",
          "type": "address"
        },
        {
          "internalType": "uint256",
          "name": "",
          "type": "uint256"
        }
      ],
      "name": "fundsDonated",
      "outputs": [
        {
          "internalType": "uint256",
          "name": "",
          "type": "uint256"
        }
      ],
      "stateMutability": "view",
      "type": "function",
      "constant": true
    },
    {
      "inputs": [],
      "name": "token",
      "outputs": [
        {
          "internalType": "contract IToken",
          "name": "",
          "type": "address"
        }
      ],
      "stateMutability": "view",
      "type": "function",
      "constant": true
    },
    {
      "stateMutability": "payable",
      "type": "receive",
      "payable": true
    },
    {
      "inputs": [
        {
          "internalType": "string",
          "name": "title",
          "type": "string"
        },
        {
          "internalType": "string",
          "name": "description",
          "type": "string"
        },
        {
          "internalType": "uint256",
          "name": "start",
          "type": "uint256"
        },
        {
          "internalType": "uint256",
          "name": "end",
          "type": "uint256"
        },
        {
          "internalType": "uint256",
          "name": "goal",
          "type": "uint256"
        }
      ],
      "name": "createFund",
      "outputs": [],
      "stateMutability": "nonpayable",
      "type": "function"
    },
    {
      "inputs": [
        {
          "internalType": "uint256",
          "name": "fundNum",
          "type": "uint256"
        },
        {
          "internalType": "uint256",
          "name": "numOfTokens",
          "type": "uint256"
        }
      ],
      "name": "pledge",
      "outputs": [],
      "stateMutability": "payable",
      "type": "function",
      "payable": true
    },
    {
      "inputs": [
        {
          "internalType": "uint256",
          "name": "fundNum",
          "type": "uint256"
        }
      ],
      "name": "refund",
      "outputs": [],
      "stateMutability": "nonpayable",
      "type": "function"
    },
    {
      "inputs": [
        {
          "internalType": "uint256",
          "name": "fundNum",
          "type": "uint256"
        }
      ],
      "name": "claim",
      "outputs": [],
      "stateMutability": "nonpayable",
      "type": "function"
    },
    {
      "inputs": [],
      "name": "buy",
      "outputs": [],
      "stateMutability": "payable",
      "type": "function",
      "payable": true
    },
    {
      "inputs": [
        {
          "internalType": "uint256",
          "name": "numOfTokens",
          "type": "uint256"
        }
      ],
      "name": "sell",
      "outputs": [],
      "stateMutability": "nonpayable",
      "type": "function"
    },
    {
      "inputs": [
        {
          "internalType": "address",
          "name": "beneficiary",
          "type": "address"
        },
        {
          "internalType": "string",
          "name": "name",
          "type": "string"
        }
      ],
      "name": "newCharity",
      "outputs": [],
      "stateMutability": "nonpayable",
      "type": "function"
    },
    {
      "inputs": [
        {
          "internalType": "address",
          "name": "beneficiary",
          "type": "address"
        },
        {
          "internalType": "uint256",
          "name": "numOfTokens",
          "type": "uint256"
        }
      ],
      "name": "donateToCharity",
      "outputs": [],
      "stateMutability": "nonpayable",
      "type": "function"
    },
    {
      "inputs": [
        {
          "internalType": "address",
          "name": "beneficiary",
          "type": "address"
        },
        {
          "internalType": "uint256",
          "name": "numOfTokens",
          "type": "uint256"
        }
      ],
      "name": "withdraw",
      "outputs": [],
      "stateMutability": "nonpayable",
      "type": "function"
    },
    {
      "inputs": [],
      "name": "getTokenBalance",
      "outputs": [
        {
          "internalType": "uint256",
          "name": "",
          "type": "uint256"
        }
      ],
      "stateMutability": "view",
      "type": "function",
      "constant": true
    },
    {
      "inputs": [],
      "name": "getTokenAddress",
      "outputs": [
        {
          "internalType": "address",
          "name": "",
          "type": "address"
        }
      ],
      "stateMutability": "view",
      "type": "function",
      "constant": true
    },
    {
      "inputs": [],
      "name": "getOwner",
      "outputs": [
        {
          "internalType": "address",
          "name": "",
          "type": "address"
        }
      ],
      "stateMutability": "view",
      "type": "function",
      "constant": true
    },
    {
      "inputs": [
        {
          "internalType": "address",
          "name": "beneficiary",
          "type": "address"
        }
      ],
      "name": "getCharity",
      "outputs": [
        {
          "components": [
            {
              "internalType": "bool",
              "name": "isRegistered",
              "type": "bool"
            },
            {
              "internalType": "string",
              "name": "name",
              "type": "string"
            },
            {
              "internalType": "uint256",
              "name": "amount",
              "type": "uint256"
            }
          ],
          "internalType": "struct Charities.Charity",
          "name": "",
          "type": "tuple"
        }
      ],
      "stateMutability": "view",
      "type": "function",
      "constant": true
    },
    {
      "inputs": [],
      "name": "getCharityList",
      "outputs": [
        {
          "internalType": "address[]",
          "name": "",
          "type": "address[]"
        }
      ],
      "stateMutability": "view",
      "type": "function",
      "constant": true
    },
    {
      "inputs": [
        {
          "internalType": "uint256",
          "name": "fundNum",
          "type": "uint256"
        }
      ],
      "name": "getFund",
      "outputs": [
        {
          "components": [
            {
              "internalType": "address",
              "name": "owner",
              "type": "address"
            },
            {
              "internalType": "string",
              "name": "title",
              "type": "string"
            },
            {
              "internalType": "string",
              "name": "description",
              "type": "string"
            },
            {
              "internalType": "uint256",
              "name": "start",
              "type": "uint256"
            },
            {
              "internalType": "uint256",
              "name": "deadline",
              "type": "uint256"
            },
            {
              "internalType": "uint256",
              "name": "goal",
              "type": "uint256"
            },
            {
              "internalType": "uint256",
              "name": "balance",
              "type": "uint256"
            }
          ],
          "internalType": "struct Charities.Fund",
          "name": "",
          "type": "tuple"
        }
      ],
      "stateMutability": "view",
      "type": "function",
      "constant": true
    },
    {
      "inputs": [],
      "name": "getFundList",
      "outputs": [
        {
          "components": [
            {
              "internalType": "address",
              "name": "owner",
              "type": "address"
            },
            {
              "internalType": "string",
              "name": "title",
              "type": "string"
            },
            {
              "internalType": "string",
              "name": "description",
              "type": "string"
            },
            {
              "internalType": "uint256",
              "name": "start",
              "type": "uint256"
            },
            {
              "internalType": "uint256",
              "name": "deadline",
              "type": "uint256"
            },
            {
              "internalType": "uint256",
              "name": "goal",
              "type": "uint256"
            },
            {
              "internalType": "uint256",
              "name": "balance",
              "type": "uint256"
            }
          ],
          "internalType": "struct Charities.Fund[]",
          "name": "",
          "type": "tuple[]"
        }
      ],
      "stateMutability": "view",
      "type": "function",
      "constant": true
    },
    {
      "inputs": [
        {
          "internalType": "address",
          "name": "beneficiary",
          "type": "address"
        }
      ],
      "name": "isRegistered",
      "outputs": [
        {
          "internalType": "bool",
          "name": "registered",
          "type": "bool"
        }
      ],
      "stateMutability": "view",
      "type": "function",
      "constant": true
    },
    {
      "inputs": [
        {
          "internalType": "address",
          "name": "beneficiary",
          "type": "address"
        }
      ],
      "name": "getTokensRecieved",
      "outputs": [
        {
          "internalType": "uint256",
          "name": "tokens",
          "type": "uint256"
        }
      ],
      "stateMutability": "view",
      "type": "function",
      "constant": true
    }
  ],
  "bytecode": "0x60806040523480156200001157600080fd5b5033600760006101000a81548173ffffffffffffffffffffffffffffffffffffffff021916908373ffffffffffffffffffffffffffffffffffffffff1602179055506040516200006190620000cd565b604051809103906000f0801580156200007e573d6000803e3d6000fd5b50600660006101000a81548173ffffffffffffffffffffffffffffffffffffffff021916908373ffffffffffffffffffffffffffffffffffffffff1602179055506000600381905550620000db565b6116e28062003ebb83390190565b613dd080620000eb6000396000f3fe60806040526004361061016a5760003560e01c806376867eae116100d1578063c3c5a5471161008a578063e7a2843111610064578063e7a2843114610565578063f3fef3a3146105a8578063fc0c546a146105d1578063fde327be146105fc57610171565b8063c3c5a547146104d6578063e4849b3214610513578063e60028bd1461053c57610171565b806376867eae146103e557806382b2e25714610410578063893d20e81461043b5780638ef06f7314610466578063a6f2ae3a146104a3578063b849263f146104ad57610171565b8063379607f511610123578063379607f5146102c15780634961a7b2146102ea57806352c8df64146103295780635b897c94146103665780636ba4194a1461038f57806371a01643146103ba57610171565b80630b262d021461017357806310fe9ae8146101b65780631bf230cd146101e1578063278ecde11461021e57806327d2fb89146102475780632b5ed9d81461028457610171565b3661017157005b005b34801561017f57600080fd5b5061019a600480360381019061019591906128ac565b610618565b6040516101ad97969594939291906129c2565b60405180910390f35b3480156101c257600080fd5b506101cb61079a565b6040516101d89190612a3f565b60405180910390f35b3480156101ed57600080fd5b5061020860048036038101906102039190612a86565b6107c4565b6040516102159190612b77565b60405180910390f35b34801561022a57600080fd5b50610245600480360381019061024091906128ac565b6108d4565b005b34801561025357600080fd5b5061026e600480360381019061026991906128ac565b610b42565b60405161027b9190612a3f565b60405180910390f35b34801561029057600080fd5b506102ab60048036038101906102a69190612a86565b610b81565b6040516102b89190612b99565b60405180910390f35b3480156102cd57600080fd5b506102e860048036038101906102e391906128ac565b610bcd565b005b3480156102f657600080fd5b50610311600480360381019061030c9190612a86565b610e26565b60405161032093929190612bc3565b60405180910390f35b34801561033557600080fd5b50610350600480360381019061034b91906128ac565b610ee5565b60405161035d9190612cb3565b60405180910390f35b34801561037257600080fd5b5061038d60048036038101906103889190612cd5565b6110b4565b005b34801561039b57600080fd5b506103a4611343565b6040516103b19190612dc4565b60405180910390f35b3480156103c657600080fd5b506103cf6113d1565b6040516103dc9190612f4b565b60405180910390f35b3480156103f157600080fd5b506103fa6115d2565b6040516104079190612b99565b60405180910390f35b34801561041c57600080fd5b506104256115d8565b6040516104329190612b99565b60405180910390f35b34801561044757600080fd5b5061045061168a565b60405161045d9190612a3f565b60405180910390f35b34801561047257600080fd5b5061048d60048036038101906104889190612cd5565b6116b4565b60405161049a9190612b99565b60405180910390f35b6104ab6116d9565b005b3480156104b957600080fd5b506104d460048036038101906104cf91906130a2565b6118d4565b005b3480156104e257600080fd5b506104fd60048036038101906104f89190612a86565b611aa4565b60405161050a9190613155565b60405180910390f35b34801561051f57600080fd5b5061053a600480360381019061053591906128ac565b611afd565b005b34801561054857600080fd5b50610563600480360381019061055e9190613170565b611d44565b005b34801561057157600080fd5b5061058c600480360381019061058791906128ac565b611efe565b60405161059f97969594939291906129c2565b60405180910390f35b3480156105b457600080fd5b506105cf60048036038101906105ca9190612cd5565b612070565b005b3480156105dd57600080fd5b506105e66123a6565b6040516105f3919061322b565b60405180910390f35b61061660048036038101906106119190613246565b6123cc565b005b6004818154811061062857600080fd5b90600052602060002090600702016000915090508060000160009054906101000a900473ffffffffffffffffffffffffffffffffffffffff1690806001018054610671906132b5565b80601f016020809104026020016040519081016040528092919081815260200182805461069d906132b5565b80156106ea5780601f106106bf576101008083540402835291602001916106ea565b820191906000526020600020905b8154815290600101906020018083116106cd57829003601f168201915b5050505050908060020180546106ff906132b5565b80601f016020809104026020016040519081016040528092919081815260200182805461072b906132b5565b80156107785780601f1061074d57610100808354040283529160200191610778565b820191906000526020600020905b81548152906001019060200180831161075b57829003601f168201915b5050505050908060030154908060040154908060050154908060060154905087565b6000600660009054906101000a900473ffffffffffffffffffffffffffffffffffffffff16905090565b6107cc6126bc565b600160008373ffffffffffffffffffffffffffffffffffffffff1673ffffffffffffffffffffffffffffffffffffffff1681526020019081526020016000206040518060600160405290816000820160009054906101000a900460ff16151515158152602001600182018054610841906132b5565b80601f016020809104026020016040519081016040528092919081815260200182805461086d906132b5565b80156108ba5780601f1061088f576101008083540402835291602001916108ba565b820191906000526020600020905b81548152906001019060200180831161089d57829003601f168201915b505050505081526020016002820154815250509050919050565b600481815481106108e8576108e76132e7565b5b906000526020600020906007020160050154471061093b576040517f08c379a000000000000000000000000000000000000000000000000000000000815260040161093290613362565b60405180910390fd5b6004818154811061094f5761094e6132e7565b5b90600052602060002090600702016004015442116109a2576040517f08c379a0000000000000000000000000000000000000000000000000000000008152600401610999906133ce565b60405180910390fd5b60008060003373ffffffffffffffffffffffffffffffffffffffff1673ffffffffffffffffffffffffffffffffffffffff168152602001908152602001600020600083815260200190815260200160002054905060008111610a39576040517f08c379a0000000000000000000000000000000000000000000000000000000008152600401610a3090613460565b60405180910390fd5b60008060003373ffffffffffffffffffffffffffffffffffffffff1673ffffffffffffffffffffffffffffffffffffffff168152602001908152602001600020600084815260200190815260200160002081905550600660009054906101000a900473ffffffffffffffffffffffffffffffffffffffff1673ffffffffffffffffffffffffffffffffffffffff1663a9059cbb33836040518363ffffffff1660e01b8152600401610aeb929190613480565b602060405180830381600087803b158015610b0557600080fd5b505af1158015610b19573d6000803e3d6000fd5b505050506040513d601f19601f82011682018060405250810190610b3d91906134d5565b505050565b60028181548110610b5257600080fd5b906000526020600020016000915054906101000a900473ffffffffffffffffffffffffffffffffffffffff1681565b6000600160008373ffffffffffffffffffffffffffffffffffffffff1673ffffffffffffffffffffffffffffffffffffffff168152602001908152602001600020600201549050919050565b60048181548110610be157610be06132e7565b5b9060005260206000209060070201600501544710610c34576040517f08c379a0000000000000000000000000000000000000000000000000000000008152600401610c2b90613362565b60405180910390fd5b60048181548110610c4857610c476132e7565b5b9060005260206000209060070201600401544211610c9b576040517f08c379a0000000000000000000000000000000000000000000000000000000008152600401610c92906133ce565b60405180910390fd5b3373ffffffffffffffffffffffffffffffffffffffff1660048281548110610cc657610cc56132e7565b5b906000526020600020906007020160000160009054906101000a900473ffffffffffffffffffffffffffffffffffffffff1673ffffffffffffffffffffffffffffffffffffffff1614610d4e576040517f08c379a0000000000000000000000000000000000000000000000000000000008152600401610d4590613574565b60405180910390fd5b600660009054906101000a900473ffffffffffffffffffffffffffffffffffffffff1673ffffffffffffffffffffffffffffffffffffffff1663a9059cbb3360048481548110610da157610da06132e7565b5b9060005260206000209060070201600601546040518363ffffffff1660e01b8152600401610dd0929190613480565b602060405180830381600087803b158015610dea57600080fd5b505af1158015610dfe573d6000803e3d6000fd5b505050506040513d601f19601f82011682018060405250810190610e2291906134d5565b5050565b60016020528060005260406000206000915090508060000160009054906101000a900460ff1690806001018054610e5c906132b5565b80601f0160208091040260200160405190810160405280929190818152602001828054610e88906132b5565b8015610ed55780601f10610eaa57610100808354040283529160200191610ed5565b820191906000526020600020905b815481529060010190602001808311610eb857829003601f168201915b5050505050908060020154905083565b610eed6126df565b600560008381526020019081526020016000206040518060e00160405290816000820160009054906101000a900473ffffffffffffffffffffffffffffffffffffffff1673ffffffffffffffffffffffffffffffffffffffff1673ffffffffffffffffffffffffffffffffffffffff168152602001600182018054610f71906132b5565b80601f0160208091040260200160405190810160405280929190818152602001828054610f9d906132b5565b8015610fea5780601f10610fbf57610100808354040283529160200191610fea565b820191906000526020600020905b815481529060010190602001808311610fcd57829003601f168201915b50505050508152602001600282018054611003906132b5565b80601f016020809104026020016040519081016040528092919081815260200182805461102f906132b5565b801561107c5780601f106110515761010080835404028352916020019161107c565b820191906000526020600020905b81548152906001019060200180831161105f57829003601f168201915b505050505081526020016003820154815260200160048201548152602001600582015481526020016006820154815250509050919050565b600081116110f7576040517f08c379a00000000000000000000000000000000000000000000000000000000081526004016110ee90613606565b60405180910390fd5b61110082611aa4565b61113f576040517f08c379a000000000000000000000000000000000000000000000000000000000815260040161113690613672565b60405180910390fd5b6000600660009054906101000a900473ffffffffffffffffffffffffffffffffffffffff1673ffffffffffffffffffffffffffffffffffffffff1663dd62ed3e33306040518363ffffffff1660e01b815260040161119e929190613692565b60206040518083038186803b1580156111b657600080fd5b505afa1580156111ca573d6000803e3d6000fd5b505050506040513d601f19601f820116820180604052508101906111ee91906136d0565b905081811015611233576040517f08c379a000000000000000000000000000000000000000000000000000000000815260040161122a9061376f565b60405180910390fd5b600660009054906101000a900473ffffffffffffffffffffffffffffffffffffffff1673ffffffffffffffffffffffffffffffffffffffff166323b872dd3330856040518463ffffffff1660e01b81526004016112929392919061378f565b602060405180830381600087803b1580156112ac57600080fd5b505af11580156112c0573d6000803e3d6000fd5b505050506040513d601f19601f820116820180604052508101906112e491906134d5565b5081600160008573ffffffffffffffffffffffffffffffffffffffff1673ffffffffffffffffffffffffffffffffffffffff168152602001908152602001600020600201600082825461133791906137f5565b92505081905550505050565b606060028054806020026020016040519081016040528092919081815260200182805480156113c757602002820191906000526020600020905b8160009054906101000a900473ffffffffffffffffffffffffffffffffffffffff1673ffffffffffffffffffffffffffffffffffffffff168152602001906001019080831161137d575b5050505050905090565b60606004805480602002602001604051908101604052809291908181526020016000905b828210156115c957838290600052602060002090600702016040518060e00160405290816000820160009054906101000a900473ffffffffffffffffffffffffffffffffffffffff1673ffffffffffffffffffffffffffffffffffffffff1673ffffffffffffffffffffffffffffffffffffffff16815260200160018201805461147e906132b5565b80601f01602080910402602001604051908101604052809291908181526020018280546114aa906132b5565b80156114f75780601f106114cc576101008083540402835291602001916114f7565b820191906000526020600020905b8154815290600101906020018083116114da57829003601f168201915b50505050508152602001600282018054611510906132b5565b80601f016020809104026020016040519081016040528092919081815260200182805461153c906132b5565b80156115895780601f1061155e57610100808354040283529160200191611589565b820191906000526020600020905b81548152906001019060200180831161156c57829003601f168201915b50505050508152602001600382015481526020016004820154815260200160058201548152602001600682015481525050815260200190600101906113f5565b50505050905090565b60035481565b6000600660009054906101000a900473ffffffffffffffffffffffffffffffffffffffff1673ffffffffffffffffffffffffffffffffffffffff166370a08231336040518263ffffffff1660e01b81526004016116359190612a3f565b60206040518083038186803b15801561164d57600080fd5b505afa158015611661573d6000803e3d6000fd5b505050506040513d601f19601f8201168201806040525081019061168591906136d0565b905090565b6000600760009054906101000a900473ffffffffffffffffffffffffffffffffffffffff16905090565b6000602052816000526040600020602052806000526040600020600091509150505481565b6000612710346116e9919061384b565b90506000600660009054906101000a900473ffffffffffffffffffffffffffffffffffffffff1673ffffffffffffffffffffffffffffffffffffffff166370a08231306040518263ffffffff1660e01b81526004016117489190612a3f565b60206040518083038186803b15801561176057600080fd5b505afa158015611774573d6000803e3d6000fd5b505050506040513d601f19601f8201168201806040525081019061179891906136d0565b9050600082116117dd576040517f08c379a00000000000000000000000000000000000000000000000000000000081526004016117d4906138f1565b60405180910390fd5b80821115611820576040517f08c379a00000000000000000000000000000000000000000000000000000000081526004016118179061395d565b60405180910390fd5b600660009054906101000a900473ffffffffffffffffffffffffffffffffffffffff1673ffffffffffffffffffffffffffffffffffffffff1663a9059cbb33846040518363ffffffff1660e01b815260040161187d929190613480565b602060405180830381600087803b15801561189757600080fd5b505af11580156118ab573d6000803e3d6000fd5b505050506040513d601f19601f820116820180604052508101906118cf91906134d5565b505050565b60006005600060035481526020019081526020016000209050338160000160006101000a81548173ffffffffffffffffffffffffffffffffffffffff021916908373ffffffffffffffffffffffffffffffffffffffff16021790555085816001019080519060200190611948929190612732565b5084816002019080519060200190611961929190612732565b508381600301819055508281600401819055508181600501819055506000816006018190555060048190806001815401808255809150506001900390600052602060002090600702016000909190919091506000820160009054906101000a900473ffffffffffffffffffffffffffffffffffffffff168160000160006101000a81548173ffffffffffffffffffffffffffffffffffffffff021916908373ffffffffffffffffffffffffffffffffffffffff1602179055506001820181600101908054611a2e906132b5565b611a399291906127b8565b506002820181600201908054611a4e906132b5565b611a599291906127b8565b5060038201548160030155600482015481600401556005820154816005015560068201548160060155505060036000815480929190611a979061397d565b9190505550505050505050565b6000600160008373ffffffffffffffffffffffffffffffffffffffff1673ffffffffffffffffffffffffffffffffffffffff16815260200190815260200160002060000160009054906101000a900460ff169050919050565b60008111611b40576040517f08c379a0000000000000000000000000000000000000000000000000000000008152600401611b3790613a12565b60405180910390fd5b6000600660009054906101000a900473ffffffffffffffffffffffffffffffffffffffff1673ffffffffffffffffffffffffffffffffffffffff1663dd62ed3e33306040518363ffffffff1660e01b8152600401611b9f929190613692565b60206040518083038186803b158015611bb757600080fd5b505afa158015611bcb573d6000803e3d6000fd5b505050506040513d601f19601f82011682018060405250810190611bef91906136d0565b905081811015611c34576040517f08c379a0000000000000000000000000000000000000000000000000000000008152600401611c2b9061376f565b60405180910390fd5b600660009054906101000a900473ffffffffffffffffffffffffffffffffffffffff1673ffffffffffffffffffffffffffffffffffffffff166323b872dd3330856040518463ffffffff1660e01b8152600401611c939392919061378f565b602060405180830381600087803b158015611cad57600080fd5b505af1158015611cc1573d6000803e3d6000fd5b505050506040513d601f19601f82011682018060405250810190611ce591906134d5565b50600061271083611cf69190613a61565b90503373ffffffffffffffffffffffffffffffffffffffff166108fc829081150290604051600060405180830381858888f19350505050158015611d3e573d6000803e3d6000fd5b50505050565b8173ffffffffffffffffffffffffffffffffffffffff163373ffffffffffffffffffffffffffffffffffffffff161480611dcb5750600760009054906101000a900473ffffffffffffffffffffffffffffffffffffffff1673ffffffffffffffffffffffffffffffffffffffff163373ffffffffffffffffffffffffffffffffffffffff16145b611dd457600080fd5b611ddd82611aa4565b15611e1d576040517f08c379a0000000000000000000000000000000000000000000000000000000008152600401611e1490613ade565b60405180910390fd5b6002829080600181540180825580915050600190039060005260206000200160009091909190916101000a81548173ffffffffffffffffffffffffffffffffffffffff021916908373ffffffffffffffffffffffffffffffffffffffff1602179055506000600160008473ffffffffffffffffffffffffffffffffffffffff1673ffffffffffffffffffffffffffffffffffffffff168152602001908152602001600020905060018160000160006101000a81548160ff02191690831515021790555081816001019080519060200190611ef8929190612732565b50505050565b60056020528060005260406000206000915090508060000160009054906101000a900473ffffffffffffffffffffffffffffffffffffffff1690806001018054611f47906132b5565b80601f0160208091040260200160405190810160405280929190818152602001828054611f73906132b5565b8015611fc05780601f10611f9557610100808354040283529160200191611fc0565b820191906000526020600020905b815481529060010190602001808311611fa357829003601f168201915b505050505090806002018054611fd5906132b5565b80601f0160208091040260200160405190810160405280929190818152602001828054612001906132b5565b801561204e5780601f106120235761010080835404028352916020019161204e565b820191906000526020600020905b81548152906001019060200180831161203157829003601f168201915b5050505050908060030154908060040154908060050154908060060154905087565b8173ffffffffffffffffffffffffffffffffffffffff163373ffffffffffffffffffffffffffffffffffffffff16146120de576040517f08c379a00000000000000000000000000000000000000000000000000000000081526004016120d590613b70565b60405180910390fd5b6000600660009054906101000a900473ffffffffffffffffffffffffffffffffffffffff1673ffffffffffffffffffffffffffffffffffffffff166370a08231306040518263ffffffff1660e01b815260040161213b9190612a3f565b60206040518083038186803b15801561215357600080fd5b505afa158015612167573d6000803e3d6000fd5b505050506040513d601f19601f8201168201806040525081019061218b91906136d0565b9050600082116121d0576040517f08c379a00000000000000000000000000000000000000000000000000000000081526004016121c790613c02565b60405180910390fd5b600160008473ffffffffffffffffffffffffffffffffffffffff1673ffffffffffffffffffffffffffffffffffffffff16815260200190815260200160002060020154821115612255576040517f08c379a000000000000000000000000000000000000000000000000000000000815260040161224c90613c6e565b60405180910390fd5b80821115612298576040517f08c379a000000000000000000000000000000000000000000000000000000000815260040161228f9061395d565b60405180910390fd5b600660009054906101000a900473ffffffffffffffffffffffffffffffffffffffff1673ffffffffffffffffffffffffffffffffffffffff1663a9059cbb33846040518363ffffffff1660e01b81526004016122f5929190613480565b602060405180830381600087803b15801561230f57600080fd5b505af1158015612323573d6000803e3d6000fd5b505050506040513d601f19601f8201168201806040525081019061234791906134d5565b5081600160008573ffffffffffffffffffffffffffffffffffffffff1673ffffffffffffffffffffffffffffffffffffffff168152602001908152602001600020600201600082825461239a9190613c8e565b92505081905550505050565b600660009054906101000a900473ffffffffffffffffffffffffffffffffffffffff1681565b6005600083815260200190815260200160002060030154421015612425576040517f08c379a000000000000000000000000000000000000000000000000000000000815260040161241c90613d0e565b60405180910390fd5b600560008381526020019081526020016000206004015442111561247e576040517f08c379a000000000000000000000000000000000000000000000000000000000815260040161247590613d7a565b60405180910390fd5b6000600660009054906101000a900473ffffffffffffffffffffffffffffffffffffffff1673ffffffffffffffffffffffffffffffffffffffff1663dd62ed3e33306040518363ffffffff1660e01b81526004016124dd929190613692565b60206040518083038186803b1580156124f557600080fd5b505afa158015612509573d6000803e3d6000fd5b505050506040513d601f19601f8201168201806040525081019061252d91906136d0565b905081811015612572576040517f08c379a00000000000000000000000000000000000000000000000000000000081526004016125699061376f565b60405180910390fd5b600660009054906101000a900473ffffffffffffffffffffffffffffffffffffffff1673ffffffffffffffffffffffffffffffffffffffff166323b872dd3330856040518463ffffffff1660e01b81526004016125d19392919061378f565b602060405180830381600087803b1580156125eb57600080fd5b505af11580156125ff573d6000803e3d6000fd5b505050506040513d601f19601f8201168201806040525081019061262391906134d5565b508160056000858152602001908152602001600020600601600082825461264a91906137f5565b92505081905550816000803373ffffffffffffffffffffffffffffffffffffffff1673ffffffffffffffffffffffffffffffffffffffff168152602001908152602001600020600085815260200190815260200160002060008282546126b091906137f5565b92505081905550505050565b604051806060016040528060001515815260200160608152602001600081525090565b6040518060e00160405280600073ffffffffffffffffffffffffffffffffffffffff1681526020016060815260200160608152602001600081526020016000815260200160008152602001600081525090565b82805461273e906132b5565b90600052602060002090601f01602090048101928261276057600085556127a7565b82601f1061277957805160ff19168380011785556127a7565b828001600101855582156127a7579182015b828111156127a657825182559160200191906001019061278b565b5b5090506127b49190612845565b5090565b8280546127c4906132b5565b90600052602060002090601f0160209004810192826127e65760008555612834565b82601f106127f75780548555612834565b8280016001018555821561283457600052602060002091601f016020900482015b82811115612833578254825591600101919060010190612818565b5b5090506128419190612845565b5090565b5b8082111561285e576000816000905550600101612846565b5090565b6000604051905090565b600080fd5b600080fd5b6000819050919050565b61288981612876565b811461289457600080fd5b50565b6000813590506128a681612880565b92915050565b6000602082840312156128c2576128c161286c565b5b60006128d084828501612897565b91505092915050565b600073ffffffffffffffffffffffffffffffffffffffff82169050919050565b6000612904826128d9565b9050919050565b612914816128f9565b82525050565b600081519050919050565b600082825260208201905092915050565b60005b83811015612954578082015181840152602081019050612939565b83811115612963576000848401525b50505050565b6000601f19601f8301169050919050565b60006129858261291a565b61298f8185612925565b935061299f818560208601612936565b6129a881612969565b840191505092915050565b6129bc81612876565b82525050565b600060e0820190506129d7600083018a61290b565b81810360208301526129e9818961297a565b905081810360408301526129fd818861297a565b9050612a0c60608301876129b3565b612a1960808301866129b3565b612a2660a08301856129b3565b612a3360c08301846129b3565b98975050505050505050565b6000602082019050612a54600083018461290b565b92915050565b612a63816128f9565b8114612a6e57600080fd5b50565b600081359050612a8081612a5a565b92915050565b600060208284031215612a9c57612a9b61286c565b5b6000612aaa84828501612a71565b91505092915050565b60008115159050919050565b612ac881612ab3565b82525050565b600082825260208201905092915050565b6000612aea8261291a565b612af48185612ace565b9350612b04818560208601612936565b612b0d81612969565b840191505092915050565b612b2181612876565b82525050565b6000606083016000830151612b3f6000860182612abf565b5060208301518482036020860152612b578282612adf565b9150506040830151612b6c6040860182612b18565b508091505092915050565b60006020820190508181036000830152612b918184612b27565b905092915050565b6000602082019050612bae60008301846129b3565b92915050565b612bbd81612ab3565b82525050565b6000606082019050612bd86000830186612bb4565b8181036020830152612bea818561297a565b9050612bf960408301846129b3565b949350505050565b612c0a816128f9565b82525050565b600060e083016000830151612c286000860182612c01565b5060208301518482036020860152612c408282612adf565b91505060408301518482036040860152612c5a8282612adf565b9150506060830151612c6f6060860182612b18565b506080830151612c826080860182612b18565b5060a0830151612c9560a0860182612b18565b5060c0830151612ca860c0860182612b18565b508091505092915050565b60006020820190508181036000830152612ccd8184612c10565b905092915050565b60008060408385031215612cec57612ceb61286c565b5b6000612cfa85828601612a71565b9250506020612d0b85828601612897565b9150509250929050565b600081519050919050565b600082825260208201905092915050565b6000819050602082019050919050565b6000612d4d8383612c01565b60208301905092915050565b6000602082019050919050565b6000612d7182612d15565b612d7b8185612d20565b9350612d8683612d31565b8060005b83811015612db7578151612d9e8882612d41565b9750612da983612d59565b925050600181019050612d8a565b5085935050505092915050565b60006020820190508181036000830152612dde8184612d66565b905092915050565b600081519050919050565b600082825260208201905092915050565b6000819050602082019050919050565b600060e083016000830151612e2a6000860182612c01565b5060208301518482036020860152612e428282612adf565b91505060408301518482036040860152612e5c8282612adf565b9150506060830151612e716060860182612b18565b506080830151612e846080860182612b18565b5060a0830151612e9760a0860182612b18565b5060c0830151612eaa60c0860182612b18565b508091505092915050565b6000612ec18383612e12565b905092915050565b6000602082019050919050565b6000612ee182612de6565b612eeb8185612df1565b935083602082028501612efd85612e02565b8060005b85811015612f395784840389528151612f1a8582612eb5565b9450612f2583612ec9565b925060208a01995050600181019050612f01565b50829750879550505050505092915050565b60006020820190508181036000830152612f658184612ed6565b905092915050565b600080fd5b600080fd5b7f4e487b7100000000000000000000000000000000000000000000000000000000600052604160045260246000fd5b612faf82612969565b810181811067ffffffffffffffff82111715612fce57612fcd612f77565b5b80604052505050565b6000612fe1612862565b9050612fed8282612fa6565b919050565b600067ffffffffffffffff82111561300d5761300c612f77565b5b61301682612969565b9050602081019050919050565b82818337600083830152505050565b600061304561304084612ff2565b612fd7565b90508281526020810184848401111561306157613060612f72565b5b61306c848285613023565b509392505050565b600082601f83011261308957613088612f6d565b5b8135613099848260208601613032565b91505092915050565b600080600080600060a086880312156130be576130bd61286c565b5b600086013567ffffffffffffffff8111156130dc576130db612871565b5b6130e888828901613074565b955050602086013567ffffffffffffffff81111561310957613108612871565b5b61311588828901613074565b945050604061312688828901612897565b935050606061313788828901612897565b925050608061314888828901612897565b9150509295509295909350565b600060208201905061316a6000830184612bb4565b92915050565b600080604083850312156131875761318661286c565b5b600061319585828601612a71565b925050602083013567ffffffffffffffff8111156131b6576131b5612871565b5b6131c285828601613074565b9150509250929050565b6000819050919050565b60006131f16131ec6131e7846128d9565b6131cc565b6128d9565b9050919050565b6000613203826131d6565b9050919050565b6000613215826131f8565b9050919050565b6132258161320a565b82525050565b6000602082019050613240600083018461321c565b92915050565b6000806040838503121561325d5761325c61286c565b5b600061326b85828601612897565b925050602061327c85828601612897565b9150509250929050565b7f4e487b7100000000000000000000000000000000000000000000000000000000600052602260045260246000fd5b600060028204905060018216806132cd57607f821691505b602082108114156132e1576132e0613286565b5b50919050565b7f4e487b7100000000000000000000000000000000000000000000000000000000600052603260045260246000fd5b7f476f616c20686173206265656e206d6574000000000000000000000000000000600082015250565b600061334c601183612925565b915061335782613316565b602082019050919050565b6000602082019050818103600083015261337b8161333f565b9050919050565b7f446561646c696e6520686173206e6f74206265656e2072656163686564000000600082015250565b60006133b8601d83612925565b91506133c382613382565b602082019050919050565b600060208201905081810360008301526133e7816133ab565b9050919050565b7f596f752068617665206e6f7420646f6e6174656420746f20746869732066756e60008201527f6400000000000000000000000000000000000000000000000000000000000000602082015250565b600061344a602183612925565b9150613455826133ee565b604082019050919050565b600060208201905081810360008301526134798161343d565b9050919050565b6000604082019050613495600083018561290b565b6134a260208301846129b3565b9392505050565b6134b281612ab3565b81146134bd57600080fd5b50565b6000815190506134cf816134a9565b92915050565b6000602082840312156134eb576134ea61286c565b5b60006134f9848285016134c0565b91505092915050565b7f596f7520617265206e6f7420746865206f776e6572206f66207468697320667560008201527f6e64000000000000000000000000000000000000000000000000000000000000602082015250565b600061355e602283612925565b915061356982613502565b604082019050919050565b6000602082019050818103600083015261358d81613551565b9050919050565b7f596f75206e65656420746f20646f6e617465206d6f7265207468616e2030207460008201527f6f6b656e73000000000000000000000000000000000000000000000000000000602082015250565b60006135f0602583612925565b91506135fb82613594565b604082019050919050565b6000602082019050818103600083015261361f816135e3565b9050919050565b7f43686172697479206973206e6f74207265676973746572656400000000000000600082015250565b600061365c601983612925565b915061366782613626565b602082019050919050565b6000602082019050818103600083015261368b8161364f565b9050919050565b60006040820190506136a7600083018561290b565b6136b4602083018461290b565b9392505050565b6000815190506136ca81612880565b92915050565b6000602082840312156136e6576136e561286c565b5b60006136f4848285016136bb565b91505092915050565b7f4e6f7420617070726f76656420746f207472616e736665722074686973206d6160008201527f6e7920746f6b656e730000000000000000000000000000000000000000000000602082015250565b6000613759602983612925565b9150613764826136fd565b604082019050919050565b600060208201905081810360008301526137888161374c565b9050919050565b60006060820190506137a4600083018661290b565b6137b1602083018561290b565b6137be60408301846129b3565b949350505050565b7f4e487b7100000000000000000000000000000000000000000000000000000000600052601160045260246000fd5b600061380082612876565b915061380b83612876565b9250827fffffffffffffffffffffffffffffffffffffffffffffffffffffffffffffffff038211156138405761383f6137c6565b5b828201905092915050565b600061385682612876565b915061386183612876565b9250817fffffffffffffffffffffffffffffffffffffffffffffffffffffffffffffffff048311821515161561389a576138996137c6565b5b828202905092915050565b7f596f75206e65656420746f2073656e6420736f6d652065746865720000000000600082015250565b60006138db601b83612925565b91506138e6826138a5565b602082019050919050565b6000602082019050818103600083015261390a816138ce565b9050919050565b7f4e6f7420656e6f75676820746f6b656e7320696e207468652072657365727665600082015250565b6000613947602083612925565b915061395282613911565b602082019050919050565b600060208201905081810360008301526139768161393a565b9050919050565b600061398882612876565b91507fffffffffffffffffffffffffffffffffffffffffffffffffffffffffffffffff8214156139bb576139ba6137c6565b5b600182019050919050565b7f596f75206e65656420746f2073656c6c203020746f6b656e7300000000000000600082015250565b60006139fc601983612925565b9150613a07826139c6565b602082019050919050565b60006020820190508181036000830152613a2b816139ef565b9050919050565b7f4e487b7100000000000000000000000000000000000000000000000000000000600052601260045260246000fd5b6000613a6c82612876565b9150613a7783612876565b925082613a8757613a86613a32565b5b828204905092915050565b7f596f752061726520616c72656164792072656769737465726564000000000000600082015250565b6000613ac8601a83612925565b9150613ad382613a92565b602082019050919050565b60006020820190508181036000830152613af781613abb565b9050919050565b7f596f7520617265206e6f7420746865206f776e6572206f66207468652063686160008201527f7269747900000000000000000000000000000000000000000000000000000000602082015250565b6000613b5a602483612925565b9150613b6582613afe565b604082019050919050565b60006020820190508181036000830152613b8981613b4d565b9050919050565b7f596f75206e65656420746f207472616e73666572206d6f7265207468616e203060008201527f20746f6b656e7300000000000000000000000000000000000000000000000000602082015250565b6000613bec602783612925565b9150613bf782613b90565b604082019050919050565b60006020820190508181036000830152613c1b81613bdf565b9050919050565b7f596f7520646f206e6f7420686176652074686174206d616e7920746f6b656e73600082015250565b6000613c58602083612925565b9150613c6382613c22565b602082019050919050565b60006020820190508181036000830152613c8781613c4b565b9050919050565b6000613c9982612876565b9150613ca483612876565b925082821015613cb757613cb66137c6565b5b828203905092915050565b7f46756e64206861736e2774207374617274656400000000000000000000000000600082015250565b6000613cf8601383612925565b9150613d0382613cc2565b602082019050919050565b60006020820190508181036000830152613d2781613ceb565b9050919050565b7f446561646c696e65206861732070617373656400000000000000000000000000600082015250565b6000613d64601383612925565b9150613d6f82613d2e565b602082019050919050565b60006020820190508181036000830152613d9381613d57565b905091905056fea2646970667358221220c4d9aa48f13649208caa893662fc7c5d046366a7760843679d17ad085d97ff9764736f6c6343000809003360806040526040518060400160405280600d81526020017f4368617269747920546f6b656e0000000000000000000000000000000000000081525060009080519060200190620000519291906200023e565b506040518060400160405280600381526020017f4348540000000000000000000000000000000000000000000000000000000000815250600190805190602001906200009f9291906200023e565b506012600260006101000a81548160ff021916908360ff1602179055506000600355348015620000ce57600080fd5b506200010f33620000e46200011560201b60201c565b600a620000f2919062000488565b633b9aca00620001039190620004d9565b6200012c60201b60201c565b6200062a565b6000600260009054906101000a900460ff16905090565b806003546200013c91906200053a565b60038190555080600460008473ffffffffffffffffffffffffffffffffffffffff1673ffffffffffffffffffffffffffffffffffffffff168152602001908152602001600020546200018f91906200053a565b600460008473ffffffffffffffffffffffffffffffffffffffff1673ffffffffffffffffffffffffffffffffffffffff168152602001908152602001600020819055508173ffffffffffffffffffffffffffffffffffffffff16600073ffffffffffffffffffffffffffffffffffffffff167fddf252ad1be2c89b69c2b068fc378daa952ba7f163c4a11628f55a4df523b3ef83604051620002329190620005a8565b60405180910390a35050565b8280546200024c90620005f4565b90600052602060002090601f016020900481019282620002705760008555620002bc565b82601f106200028b57805160ff1916838001178555620002bc565b82800160010185558215620002bc579182015b82811115620002bb5782518255916020019190600101906200029e565b5b509050620002cb9190620002cf565b5090565b5b80821115620002ea576000816000905550600101620002d0565b5090565b7f4e487b7100000000000000000000000000000000000000000000000000000000600052601160045260246000fd5b60008160011c9050919050565b6000808291508390505b60018511156200037c57808604811115620003545762000353620002ee565b5b6001851615620003645780820291505b808102905062000374856200031d565b945062000334565b94509492505050565b6000826200039757600190506200046a565b81620003a757600090506200046a565b8160018114620003c05760028114620003cb5762000401565b60019150506200046a565b60ff841115620003e057620003df620002ee565b5b8360020a915084821115620003fa57620003f9620002ee565b5b506200046a565b5060208310610133831016604e8410600b84101617156200043b5782820a905083811115620004355762000434620002ee565b5b6200046a565b6200044a84848460016200032a565b92509050818404811115620004645762000463620002ee565b5b81810290505b9392505050565b6000819050919050565b600060ff82169050919050565b6000620004958262000471565b9150620004a2836200047b565b9250620004d17fffffffffffffffffffffffffffffffffffffffffffffffffffffffffffffffff848462000385565b905092915050565b6000620004e68262000471565b9150620004f38362000471565b9250817fffffffffffffffffffffffffffffffffffffffffffffffffffffffffffffffff04831182151516156200052f576200052e620002ee565b5b828202905092915050565b6000620005478262000471565b9150620005548362000471565b9250827fffffffffffffffffffffffffffffffffffffffffffffffffffffffffffffffff038211156200058c576200058b620002ee565b5b828201905092915050565b620005a28162000471565b82525050565b6000602082019050620005bf600083018462000597565b92915050565b7f4e487b7100000000000000000000000000000000000000000000000000000000600052602260045260246000fd5b600060028204905060018216806200060d57607f821691505b60208210811415620006245762000623620005c5565b5b50919050565b6110a8806200063a6000396000f3fe608060405234801561001057600080fd5b50600436106100cf5760003560e01c80633eaaf86b1161008c578063a9059cbb11610066578063a9059cbb14610218578063b09f126614610248578063d28d885214610266578063dd62ed3e14610284576100cf565b80633eaaf86b146101ac57806370a08231146101ca57806395d89b41146101fa576100cf565b806306fdde03146100d4578063095ea7b3146100f257806318160ddd1461012257806323b872dd14610140578063313ce5671461017057806332424aa31461018e575b600080fd5b6100dc6102b4565b6040516100e99190610d06565b60405180910390f35b61010c60048036038101906101079190610dc1565b610346565b6040516101199190610e1c565b60405180910390f35b61012a610471565b6040516101379190610e46565b60405180910390f35b61015a60048036038101906101559190610e61565b61047b565b6040516101679190610e1c565b60405180910390f35b6101786107e6565b6040516101859190610ed0565b60405180910390f35b6101966107fd565b6040516101a39190610ed0565b60405180910390f35b6101b4610810565b6040516101c19190610e46565b60405180910390f35b6101e460048036038101906101df9190610eeb565b610816565b6040516101f19190610e46565b60405180910390f35b61020261085f565b60405161020f9190610d06565b60405180910390f35b610232600480360381019061022d9190610dc1565b6108f1565b60405161023f9190610e1c565b60405180910390f35b610250610aca565b60405161025d9190610d06565b60405180910390f35b61026e610b58565b60405161027b9190610d06565b60405180910390f35b61029e60048036038101906102999190610f18565b610be6565b6040516102ab9190610e46565b60405180910390f35b6060600080546102c390610f87565b80601f01602080910402602001604051908101604052809291908181526020018280546102ef90610f87565b801561033c5780601f106103115761010080835404028352916020019161033c565b820191906000526020600020905b81548152906001019060200180831161031f57829003601f168201915b5050505050905090565b60008073ffffffffffffffffffffffffffffffffffffffff168373ffffffffffffffffffffffffffffffffffffffff16141561038157600080fd5b81600560003373ffffffffffffffffffffffffffffffffffffffff1673ffffffffffffffffffffffffffffffffffffffff16815260200190815260200160002060008573ffffffffffffffffffffffffffffffffffffffff1673ffffffffffffffffffffffffffffffffffffffff168152602001908152602001600020819055508273ffffffffffffffffffffffffffffffffffffffff163373ffffffffffffffffffffffffffffffffffffffff167f8c5be1e5ebec7d5bd14f71427d1e84f3dd0314c0f7b2291e5b200ac8c7c3b9258460405161045f9190610e46565b60405180910390a36001905092915050565b6000600354905090565b600081600460008673ffffffffffffffffffffffffffffffffffffffff1673ffffffffffffffffffffffffffffffffffffffff1681526020019081526020016000205410156104c957600080fd5b81600560008673ffffffffffffffffffffffffffffffffffffffff1673ffffffffffffffffffffffffffffffffffffffff16815260200190815260200160002060003373ffffffffffffffffffffffffffffffffffffffff1673ffffffffffffffffffffffffffffffffffffffff16815260200190815260200160002054101561055257600080fd5b81600460008673ffffffffffffffffffffffffffffffffffffffff1673ffffffffffffffffffffffffffffffffffffffff1681526020019081526020016000205461059d9190610fe8565b600460008673ffffffffffffffffffffffffffffffffffffffff1673ffffffffffffffffffffffffffffffffffffffff1681526020019081526020016000208190555081600460008573ffffffffffffffffffffffffffffffffffffffff1673ffffffffffffffffffffffffffffffffffffffff1681526020019081526020016000205461062b919061101c565b600460008573ffffffffffffffffffffffffffffffffffffffff1673ffffffffffffffffffffffffffffffffffffffff1681526020019081526020016000208190555081600560008673ffffffffffffffffffffffffffffffffffffffff1673ffffffffffffffffffffffffffffffffffffffff16815260200190815260200160002060003373ffffffffffffffffffffffffffffffffffffffff1673ffffffffffffffffffffffffffffffffffffffff168152602001908152602001600020546106f69190610fe8565b600560008673ffffffffffffffffffffffffffffffffffffffff1673ffffffffffffffffffffffffffffffffffffffff16815260200190815260200160002060003373ffffffffffffffffffffffffffffffffffffffff1673ffffffffffffffffffffffffffffffffffffffff168152602001908152602001600020819055508273ffffffffffffffffffffffffffffffffffffffff163373ffffffffffffffffffffffffffffffffffffffff167fddf252ad1be2c89b69c2b068fc378daa952ba7f163c4a11628f55a4df523b3ef846040516107d39190610e46565b60405180910390a3600190509392505050565b6000600260009054906101000a900460ff16905090565b600260009054906101000a900460ff1681565b60035481565b6000600460008373ffffffffffffffffffffffffffffffffffffffff1673ffffffffffffffffffffffffffffffffffffffff168152602001908152602001600020549050919050565b60606001805461086e90610f87565b80601f016020809104026020016040519081016040528092919081815260200182805461089a90610f87565b80156108e75780601f106108bc576101008083540402835291602001916108e7565b820191906000526020600020905b8154815290600101906020018083116108ca57829003601f168201915b5050505050905090565b600081600460003373ffffffffffffffffffffffffffffffffffffffff1673ffffffffffffffffffffffffffffffffffffffff16815260200190815260200160002054101561093f57600080fd5b81600460003373ffffffffffffffffffffffffffffffffffffffff1673ffffffffffffffffffffffffffffffffffffffff1681526020019081526020016000205461098a9190610fe8565b600460003373ffffffffffffffffffffffffffffffffffffffff1673ffffffffffffffffffffffffffffffffffffffff1681526020019081526020016000208190555081600460008573ffffffffffffffffffffffffffffffffffffffff1673ffffffffffffffffffffffffffffffffffffffff16815260200190815260200160002054610a18919061101c565b600460008573ffffffffffffffffffffffffffffffffffffffff1673ffffffffffffffffffffffffffffffffffffffff168152602001908152602001600020819055508273ffffffffffffffffffffffffffffffffffffffff163373ffffffffffffffffffffffffffffffffffffffff167fddf252ad1be2c89b69c2b068fc378daa952ba7f163c4a11628f55a4df523b3ef84604051610ab89190610e46565b60405180910390a36001905092915050565b60018054610ad790610f87565b80601f0160208091040260200160405190810160405280929190818152602001828054610b0390610f87565b8015610b505780601f10610b2557610100808354040283529160200191610b50565b820191906000526020600020905b815481529060010190602001808311610b3357829003601f168201915b505050505081565b60008054610b6590610f87565b80601f0160208091040260200160405190810160405280929190818152602001828054610b9190610f87565b8015610bde5780601f10610bb357610100808354040283529160200191610bde565b820191906000526020600020905b815481529060010190602001808311610bc157829003601f168201915b505050505081565b6000600560008473ffffffffffffffffffffffffffffffffffffffff1673ffffffffffffffffffffffffffffffffffffffff16815260200190815260200160002060008373ffffffffffffffffffffffffffffffffffffffff1673ffffffffffffffffffffffffffffffffffffffff16815260200190815260200160002054905092915050565b600081519050919050565b600082825260208201905092915050565b60005b83811015610ca7578082015181840152602081019050610c8c565b83811115610cb6576000848401525b50505050565b6000601f19601f8301169050919050565b6000610cd882610c6d565b610ce28185610c78565b9350610cf2818560208601610c89565b610cfb81610cbc565b840191505092915050565b60006020820190508181036000830152610d208184610ccd565b905092915050565b600080fd5b600073ffffffffffffffffffffffffffffffffffffffff82169050919050565b6000610d5882610d2d565b9050919050565b610d6881610d4d565b8114610d7357600080fd5b50565b600081359050610d8581610d5f565b92915050565b6000819050919050565b610d9e81610d8b565b8114610da957600080fd5b50565b600081359050610dbb81610d95565b92915050565b60008060408385031215610dd857610dd7610d28565b5b6000610de685828601610d76565b9250506020610df785828601610dac565b9150509250929050565b60008115159050919050565b610e1681610e01565b82525050565b6000602082019050610e316000830184610e0d565b92915050565b610e4081610d8b565b82525050565b6000602082019050610e5b6000830184610e37565b92915050565b600080600060608486031215610e7a57610e79610d28565b5b6000610e8886828701610d76565b9350506020610e9986828701610d76565b9250506040610eaa86828701610dac565b9150509250925092565b600060ff82169050919050565b610eca81610eb4565b82525050565b6000602082019050610ee56000830184610ec1565b92915050565b600060208284031215610f0157610f00610d28565b5b6000610f0f84828501610d76565b91505092915050565b60008060408385031215610f2f57610f2e610d28565b5b6000610f3d85828601610d76565b9250506020610f4e85828601610d76565b9150509250929050565b7f4e487b7100000000000000000000000000000000000000000000000000000000600052602260045260246000fd5b60006002820490506001821680610f9f57607f821691505b60208210811415610fb357610fb2610f58565b5b50919050565b7f4e487b7100000000000000000000000000000000000000000000000000000000600052601160045260246000fd5b6000610ff382610d8b565b9150610ffe83610d8b565b92508282101561101157611010610fb9565b5b828203905092915050565b600061102782610d8b565b915061103283610d8b565b9250827fffffffffffffffffffffffffffffffffffffffffffffffffffffffffffffffff0382111561106757611066610fb9565b5b82820190509291505056fea26469706673582212200cccc9205cc0fa462a4184e021c27faaf0f509b86d8103e5a4b5bd7bca77990664736f6c63430008090033",
  "immutableReferences": {},
  "source": "// SPDX-License-Identifier: MIT\r\npragma solidity ^0.8.9;\r\n\r\nimport \"./Token.sol\";\r\n\r\ncontract Charities {\r\n\r\n    struct Charity {\r\n        // whether the charity has registered\r\n        bool isRegistered;\r\n        // name of the charity\r\n        string name;\r\n        // total amount donated to this charity\r\n        uint amount;\r\n    }\r\n\r\n    struct Fund {\r\n        address owner;\r\n        string title;\r\n        string description;\r\n        uint start;\r\n        uint deadline;\r\n        uint goal;\r\n        uint balance;\r\n    }\r\n\r\n    mapping (address => mapping(uint => uint)) public fundsDonated;\r\n    \r\n    mapping (address => Charity) public allCharities;\r\n    // list of registered charities\r\n    address[] public charityList;\r\n\r\n    uint public fundCounter;\r\n\r\n    Fund[] public fundList;\r\n\r\n    mapping (uint => Fund) public allFunds;\r\n\r\n    IToken public token;\r\n\r\n    address private _owner;\r\n\r\n    constructor() {\r\n        _owner = msg.sender;\r\n        token = new Token();\r\n        fundCounter = 0;\r\n    }\r\n\r\n    function createFund(string memory title, string memory description, uint start, uint end, uint goal) public {\r\n        Fund storage f = allFunds[fundCounter];\r\n        f.owner = msg.sender;\r\n        f.title = title;\r\n        f.description = description;\r\n        f.start = start;\r\n        f.deadline = end;\r\n        f.goal = goal;\r\n        f.balance = 0;\r\n        fundList.push(f);\r\n        fundCounter++;\r\n    }\r\n\r\n    function pledge(uint fundNum, uint numOfTokens) public payable {\r\n        require(block.timestamp >= allFunds[fundNum].start, \"Fund hasn't started\");\r\n        require(block.timestamp <= allFunds[fundNum].deadline, \"Deadline has passed\");\r\n        uint allowance = token.allowance(msg.sender, address(this));\r\n        require(allowance >= numOfTokens, \"Not approved to transfer this many tokens\");\r\n        token.transferFrom(msg.sender, address(this), numOfTokens);\r\n\r\n        allFunds[fundNum].balance += numOfTokens;\r\n        fundsDonated[msg.sender][fundNum] += numOfTokens;\r\n    }\r\n\r\n    function refund(uint fundNum) public {\r\n        require(address(this).balance < fundList[fundNum].goal, \"Goal has been met\");\r\n        require(block.timestamp > fundList[fundNum].deadline, \"Deadline has not been reached\");\r\n        uint amount = fundsDonated[msg.sender][fundNum];\r\n        require(amount > 0, \"You have not donated to this fund\");\r\n        fundsDonated[msg.sender][fundNum] = 0;\r\n        token.transfer(msg.sender, amount);      \r\n    }\r\n\r\n    function claim(uint fundNum) public {\r\n        require(address(this).balance < fundList[fundNum].goal, \"Goal has been met\");\r\n        require(block.timestamp > fundList[fundNum].deadline, \"Deadline has not been reached\");\r\n        require(fundList[fundNum].owner == msg.sender, \"You are not the owner of this fund\");\r\n        token.transfer(msg.sender, fundList[fundNum].balance);\r\n    }\r\n\r\n    // user can buy tokens\r\n    function buy() payable public {\r\n        // currently 10000 token == 1 ether\r\n        uint amountTobuy = msg.value * 10000;\r\n        uint contractBalance = token.balanceOf(address(this));\r\n        require(amountTobuy > 0, \"You need to send some ether\");\r\n        require(amountTobuy <= contractBalance, \"Not enough tokens in the reserve\");\r\n        token.transfer(msg.sender, amountTobuy);\r\n    }\r\n\r\n    function sell(uint numOfTokens) public {\r\n        require(numOfTokens > 0, \"You need to sell 0 tokens\");\r\n        uint allowance = token.allowance(msg.sender, address(this));\r\n        require(allowance >= numOfTokens, \"Not approved to transfer this many tokens\");\r\n        \r\n        token.transferFrom(msg.sender, address(this), numOfTokens);\r\n        uint amountToSell = numOfTokens / 10000;\r\n        payable(msg.sender).transfer(amountToSell);\r\n    }\r\n\r\n    // register a new charity\r\n    function newCharity(address beneficiary, string memory name) public {\r\n        require(msg.sender == beneficiary || msg.sender == _owner);\r\n        require(!isRegistered(beneficiary), \"You are already registered\");\r\n        charityList.push(beneficiary);\r\n        \r\n        Charity storage c = allCharities[beneficiary];\r\n        c.isRegistered = true;\r\n        c.name = name;\r\n    }\r\n\r\n    // the sender can send a donation to a charity\r\n    function donateToCharity(address beneficiary, uint numOfTokens) public {\r\n        require(numOfTokens > 0, \"You need to donate more than 0 tokens\");\r\n        require(isRegistered(beneficiary), \"Charity is not registered\");\r\n        uint allowance = token.allowance(msg.sender, address(this));\r\n        require(allowance >= numOfTokens, \"Not approved to transfer this many tokens\");\r\n        token.transferFrom(msg.sender, address(this), numOfTokens);\r\n\r\n        allCharities[beneficiary].amount += numOfTokens;\r\n    }\r\n\r\n    // withdraw/send a given number of tokens to a charity\r\n    function withdraw(address beneficiary, uint numOfTokens) public {\r\n        require(msg.sender == beneficiary, \"You are not the owner of the charity\");\r\n\r\n        uint contractBalance = token.balanceOf(address(this));\r\n        require(numOfTokens > 0, \"You need to transfer more than 0 tokens\");\r\n        require(numOfTokens <= allCharities[beneficiary].amount, \"You do not have that many tokens\");\r\n        require(numOfTokens <= contractBalance, \"Not enough tokens in the reserve\");\r\n        token.transfer(msg.sender, numOfTokens);\r\n\r\n        allCharities[beneficiary].amount -= numOfTokens;\r\n    }\r\n\r\n    function getTokenBalance() public view returns (uint) {\r\n        return token.balanceOf(msg.sender);\r\n    }\r\n\r\n    function getTokenAddress() public view returns (address) {\r\n        return address(token);\r\n    }\r\n\r\n    function getOwner() public view returns (address) {\r\n        return _owner;\r\n    }\r\n\r\n    function getCharity(address beneficiary) public view returns (Charity memory) {\r\n        return allCharities[beneficiary];\r\n    }\r\n\r\n    function getCharityList() public view returns (address[] memory) {\r\n        return charityList;\r\n    }\r\n\r\n    function getFund(uint fundNum) public view returns (Fund memory) {\r\n        return allFunds[fundNum];\r\n    }\r\n\r\n    function getFundList() public view returns (Fund[] memory) {\r\n        return fundList;\r\n    }\r\n\r\n    function isRegistered(address beneficiary) public view returns (bool registered) {\r\n        return allCharities[beneficiary].isRegistered;\r\n    }\r\n\r\n    function getTokensRecieved(address beneficiary) public view returns (uint tokens) {\r\n        return allCharities[beneficiary].amount;\r\n    }\r\n    \r\n    // Function to receive Ether. msg.data must be empty\r\n    receive() external payable {}\r\n\r\n    // Fallback function is called when msg.data is not empty\r\n    fallback() external payable {}\r\n}",
  "sourcePath": "C:\\DEV\\Ethereum\\Charity\\contracts\\Charities.sol",
  "compiler": {
    "name": "solc",
    "version": "0.8.9+commit.e5eed63a.Emscripten.clang"
  },
  "schemaVersion": "3.4.3",
  "updatedAt": "2022-03-04T12:21:06.684Z",
  "networkType": "ethereum",
  "devdoc": {
    "kind": "dev",
    "methods": {},
    "version": 1
  },
  "userdoc": {
    "kind": "user",
    "methods": {},
    "version": 1
  }
}