{
  "contractName": "NFTReward",
  "abi": [
    {
      "inputs": [],
      "stateMutability": "nonpayable",
      "type": "constructor"
    },
    {
      "anonymous": false,
      "inputs": [
        {
          "indexed": true,
          "internalType": "address",
          "name": "owner",
          "type": "address"
        },
        {
          "indexed": true,
          "internalType": "address",
          "name": "approved",
          "type": "address"
        },
        {
          "indexed": true,
          "internalType": "uint256",
          "name": "tokenId",
          "type": "uint256"
        }
      ],
      "name": "Approval",
      "type": "event"
    },
    {
      "anonymous": false,
      "inputs": [
        {
          "indexed": true,
          "internalType": "address",
          "name": "owner",
          "type": "address"
        },
        {
          "indexed": true,
          "internalType": "address",
          "name": "operator",
          "type": "address"
        },
        {
          "indexed": false,
          "internalType": "bool",
          "name": "approved",
          "type": "bool"
        }
      ],
      "name": "ApprovalForAll",
      "type": "event"
    },
    {
      "anonymous": false,
      "inputs": [
        {
          "indexed": true,
          "internalType": "address",
          "name": "from",
          "type": "address"
        },
        {
          "indexed": true,
          "internalType": "address",
          "name": "to",
          "type": "address"
        },
        {
          "indexed": true,
          "internalType": "uint256",
          "name": "tokenId",
          "type": "uint256"
        }
      ],
      "name": "Transfer",
      "type": "event"
    },
    {
      "inputs": [
        {
          "internalType": "address",
          "name": "to",
          "type": "address"
        },
        {
          "internalType": "uint256",
          "name": "tokenId",
          "type": "uint256"
        }
      ],
      "name": "approve",
      "outputs": [],
      "stateMutability": "nonpayable",
      "type": "function"
    },
    {
      "inputs": [
        {
          "internalType": "address",
          "name": "owner",
          "type": "address"
        }
      ],
      "name": "balanceOf",
      "outputs": [
        {
          "internalType": "uint256",
          "name": "",
          "type": "uint256"
        }
      ],
      "stateMutability": "view",
      "type": "function"
    },
    {
      "inputs": [
        {
          "internalType": "uint256",
          "name": "tokenId",
          "type": "uint256"
        }
      ],
      "name": "getApproved",
      "outputs": [
        {
          "internalType": "address",
          "name": "",
          "type": "address"
        }
      ],
      "stateMutability": "view",
      "type": "function"
    },
    {
      "inputs": [
        {
          "internalType": "address",
          "name": "owner",
          "type": "address"
        },
        {
          "internalType": "address",
          "name": "operator",
          "type": "address"
        }
      ],
      "name": "isApprovedForAll",
      "outputs": [
        {
          "internalType": "bool",
          "name": "",
          "type": "bool"
        }
      ],
      "stateMutability": "view",
      "type": "function"
    },
    {
      "inputs": [],
      "name": "name",
      "outputs": [
        {
          "internalType": "string",
          "name": "",
          "type": "string"
        }
      ],
      "stateMutability": "view",
      "type": "function"
    },
    {
      "inputs": [
        {
          "internalType": "uint256",
          "name": "",
          "type": "uint256"
        }
      ],
      "name": "nftAttributes",
      "outputs": [
        {
          "internalType": "string",
          "name": "title",
          "type": "string"
        },
        {
          "internalType": "string",
          "name": "description",
          "type": "string"
        },
        {
          "internalType": "uint256",
          "name": "amountDonated",
          "type": "uint256"
        },
        {
          "internalType": "string",
          "name": "imageURI",
          "type": "string"
        }
      ],
      "stateMutability": "view",
      "type": "function"
    },
    {
      "inputs": [
        {
          "internalType": "uint256",
          "name": "tokenId",
          "type": "uint256"
        }
      ],
      "name": "ownerOf",
      "outputs": [
        {
          "internalType": "address",
          "name": "",
          "type": "address"
        }
      ],
      "stateMutability": "view",
      "type": "function"
    },
    {
      "inputs": [
        {
          "internalType": "address",
          "name": "from",
          "type": "address"
        },
        {
          "internalType": "address",
          "name": "to",
          "type": "address"
        },
        {
          "internalType": "uint256",
          "name": "tokenId",
          "type": "uint256"
        }
      ],
      "name": "safeTransferFrom",
      "outputs": [],
      "stateMutability": "nonpayable",
      "type": "function"
    },
    {
      "inputs": [
        {
          "internalType": "address",
          "name": "from",
          "type": "address"
        },
        {
          "internalType": "address",
          "name": "to",
          "type": "address"
        },
        {
          "internalType": "uint256",
          "name": "tokenId",
          "type": "uint256"
        },
        {
          "internalType": "bytes",
          "name": "_data",
          "type": "bytes"
        }
      ],
      "name": "safeTransferFrom",
      "outputs": [],
      "stateMutability": "nonpayable",
      "type": "function"
    },
    {
      "inputs": [
        {
          "internalType": "address",
          "name": "operator",
          "type": "address"
        },
        {
          "internalType": "bool",
          "name": "approved",
          "type": "bool"
        }
      ],
      "name": "setApprovalForAll",
      "outputs": [],
      "stateMutability": "nonpayable",
      "type": "function"
    },
    {
      "inputs": [
        {
          "internalType": "bytes4",
          "name": "interfaceId",
          "type": "bytes4"
        }
      ],
      "name": "supportsInterface",
      "outputs": [
        {
          "internalType": "bool",
          "name": "",
          "type": "bool"
        }
      ],
      "stateMutability": "view",
      "type": "function"
    },
    {
      "inputs": [],
      "name": "symbol",
      "outputs": [
        {
          "internalType": "string",
          "name": "",
          "type": "string"
        }
      ],
      "stateMutability": "view",
      "type": "function"
    },
    {
      "inputs": [],
      "name": "tokenCounter",
      "outputs": [
        {
          "internalType": "uint256",
          "name": "",
          "type": "uint256"
        }
      ],
      "stateMutability": "view",
      "type": "function"
    },
    {
      "inputs": [
        {
          "internalType": "address",
          "name": "from",
          "type": "address"
        },
        {
          "internalType": "address",
          "name": "to",
          "type": "address"
        },
        {
          "internalType": "uint256",
          "name": "tokenId",
          "type": "uint256"
        }
      ],
      "name": "transferFrom",
      "outputs": [],
      "stateMutability": "nonpayable",
      "type": "function"
    },
    {
      "inputs": [
        {
          "internalType": "address",
          "name": "",
          "type": "address"
        },
        {
          "internalType": "uint256",
          "name": "",
          "type": "uint256"
        }
      ],
      "name": "userNFTs",
      "outputs": [
        {
          "internalType": "uint256",
          "name": "",
          "type": "uint256"
        }
      ],
      "stateMutability": "view",
      "type": "function"
    },
    {
      "inputs": [
        {
          "internalType": "string",
          "name": "_title",
          "type": "string"
        },
        {
          "internalType": "string",
          "name": "_description",
          "type": "string"
        },
        {
          "internalType": "string",
          "name": "_imageURI",
          "type": "string"
        }
      ],
      "name": "mintNFT",
      "outputs": [],
      "stateMutability": "nonpayable",
      "type": "function"
    },
    {
      "inputs": [
        {
          "internalType": "uint256",
          "name": "_tokenId",
          "type": "uint256"
        }
      ],
      "name": "tokenURI",
      "outputs": [
        {
          "internalType": "string",
          "name": "",
          "type": "string"
        }
      ],
      "stateMutability": "view",
      "type": "function"
    },
    {
      "inputs": [
        {
          "internalType": "address",
          "name": "owner",
          "type": "address"
        }
      ],
      "name": "getNFTs",
      "outputs": [
        {
          "internalType": "uint256[]",
          "name": "",
          "type": "uint256[]"
        }
      ],
      "stateMutability": "view",
      "type": "function"
    }
  ],
  "bytecode": "0x60806040523480156200001157600080fd5b506040518060400160405280600981526020017f4e465452657761726400000000000000000000000000000000000000000000008152506040518060400160405280600381526020017f524557000000000000000000000000000000000000000000000000000000000081525081600090805190602001906200009692919062000101565b508060019080519060200190620000af92919062000101565b505050600060088190555033600960006101000a81548173ffffffffffffffffffffffffffffffffffffffff021916908373ffffffffffffffffffffffffffffffffffffffff16021790555062000216565b8280546200010f90620001e0565b90600052602060002090601f0160209004810192826200013357600085556200017f565b82601f106200014e57805160ff19168380011785556200017f565b828001600101855582156200017f579182015b828111156200017e57825182559160200191906001019062000161565b5b5090506200018e919062000192565b5090565b5b80821115620001ad57600081600090555060010162000193565b5090565b7f4e487b7100000000000000000000000000000000000000000000000000000000600052602260045260246000fd5b60006002820490506001821680620001f957607f821691505b6020821081141562000210576200020f620001b1565b5b50919050565b6134b880620002266000396000f3fe608060405234801561001057600080fd5b50600436106101165760003560e01c806370a08231116100a2578063b88d4fde11610071578063b88d4fde14610303578063c87b56dd1461031f578063d082e3811461034f578063d4b5d6031461036d578063e985e9c5146103a057610116565b806370a082311461026957806382183fb01461029957806395d89b41146102c9578063a22cb465146102e757610116565b80630c3b7b72116100e95780630c3b7b72146101b557806323b872dd146101d1578063291c73c3146101ed57806342842e0e1461021d5780636352211e1461023957610116565b806301ffc9a71461011b57806306fdde031461014b578063081812fc14610169578063095ea7b314610199575b600080fd5b61013560048036038101906101309190611f1f565b6103d0565b6040516101429190611f67565b60405180910390f35b6101536104b2565b604051610160919061201b565b60405180910390f35b610183600480360381019061017e9190612073565b610544565b60405161019091906120e1565b60405180910390f35b6101b360048036038101906101ae9190612128565b6105c9565b005b6101cf60048036038101906101ca919061229d565b6106e1565b005b6101eb60048036038101906101e69190612344565b6107f7565b005b61020760048036038101906102029190612128565b610857565b60405161021491906123a6565b60405180910390f35b61023760048036038101906102329190612344565b610888565b005b610253600480360381019061024e9190612073565b6108a8565b60405161026091906120e1565b60405180910390f35b610283600480360381019061027e91906123c1565b61095a565b60405161029091906123a6565b60405180910390f35b6102b360048036038101906102ae91906123c1565b610a12565b6040516102c091906124ac565b60405180910390f35b6102d1610aa9565b6040516102de919061201b565b60405180910390f35b61030160048036038101906102fc91906124fa565b610b3b565b005b61031d600480360381019061031891906125db565b610b51565b005b61033960048036038101906103349190612073565b610bb3565b604051610346919061201b565b60405180910390f35b610357610e0c565b60405161036491906123a6565b60405180910390f35b61038760048036038101906103829190612073565b610e12565b604051610397949392919061265e565b60405180910390f35b6103ba60048036038101906103b591906126b8565b610fda565b6040516103c79190611f67565b60405180910390f35b60007f80ac58cd000000000000000000000000000000000000000000000000000000007bffffffffffffffffffffffffffffffffffffffffffffffffffffffff1916827bffffffffffffffffffffffffffffffffffffffffffffffffffffffff1916148061049b57507f5b5e139f000000000000000000000000000000000000000000000000000000007bffffffffffffffffffffffffffffffffffffffffffffffffffffffff1916827bffffffffffffffffffffffffffffffffffffffffffffffffffffffff1916145b806104ab57506104aa8261106e565b5b9050919050565b6060600080546104c190612727565b80601f01602080910402602001604051908101604052809291908181526020018280546104ed90612727565b801561053a5780601f1061050f5761010080835404028352916020019161053a565b820191906000526020600020905b81548152906001019060200180831161051d57829003601f168201915b5050505050905090565b600061054f826110d8565b61058e576040517f08c379a0000000000000000000000000000000000000000000000000000000008152600401610585906127cb565b60405180910390fd5b6004600083815260200190815260200160002060009054906101000a900473ffffffffffffffffffffffffffffffffffffffff169050919050565b60006105d4826108a8565b90508073ffffffffffffffffffffffffffffffffffffffff168373ffffffffffffffffffffffffffffffffffffffff161415610645576040517f08c379a000000000000000000000000000000000000000000000000000000000815260040161063c9061285d565b60405180910390fd5b8073ffffffffffffffffffffffffffffffffffffffff16610664611144565b73ffffffffffffffffffffffffffffffffffffffff16148061069357506106928161068d611144565b610fda565b5b6106d2576040517f08c379a00000000000000000000000000000000000000000000000000000000081526004016106c9906128ef565b60405180910390fd5b6106dc838361114c565b505050565b600060085490506106f23382611205565b8360076000838152602001908152602001600020600001908051906020019061071c929190611e10565b5082600760008381526020019081526020016000206001019080519060200190610747929190611e10565b5081600760008381526020019081526020016000206003019080519060200190610772929190611e10565b50600a60003373ffffffffffffffffffffffffffffffffffffffff1673ffffffffffffffffffffffffffffffffffffffff168152602001908152602001600020819080600181540180825580915050600190039060005260206000200160009091909190915055600860008154809291906107ec9061293e565b919050555050505050565b610808610802611144565b82611223565b610847576040517f08c379a000000000000000000000000000000000000000000000000000000000815260040161083e906129f9565b60405180910390fd5b610852838383611301565b505050565b600a602052816000526040600020818154811061087357600080fd5b90600052602060002001600091509150505481565b6108a383838360405180602001604052806000815250610b51565b505050565b6000806002600084815260200190815260200160002060009054906101000a900473ffffffffffffffffffffffffffffffffffffffff169050600073ffffffffffffffffffffffffffffffffffffffff168173ffffffffffffffffffffffffffffffffffffffff161415610951576040517f08c379a000000000000000000000000000000000000000000000000000000000815260040161094890612a8b565b60405180910390fd5b80915050919050565b60008073ffffffffffffffffffffffffffffffffffffffff168273ffffffffffffffffffffffffffffffffffffffff1614156109cb576040517f08c379a00000000000000000000000000000000000000000000000000000000081526004016109c290612b1d565b60405180910390fd5b600360008373ffffffffffffffffffffffffffffffffffffffff1673ffffffffffffffffffffffffffffffffffffffff168152602001908152602001600020549050919050565b6060600a60008373ffffffffffffffffffffffffffffffffffffffff1673ffffffffffffffffffffffffffffffffffffffff168152602001908152602001600020805480602002602001604051908101604052809291908181526020018280548015610a9d57602002820191906000526020600020905b815481526020019060010190808311610a89575b50505050509050919050565b606060018054610ab890612727565b80601f0160208091040260200160405190810160405280929190818152602001828054610ae490612727565b8015610b315780601f10610b0657610100808354040283529160200191610b31565b820191906000526020600020905b815481529060010190602001808311610b1457829003601f168201915b5050505050905090565b610b4d610b46611144565b8383611568565b5050565b610b62610b5c611144565b83611223565b610ba1576040517f08c379a0000000000000000000000000000000000000000000000000000000008152600401610b98906129f9565b60405180910390fd5b610bad848484846116d5565b50505050565b6060600060076000848152602001908152602001600020604051806080016040529081600082018054610be590612727565b80601f0160208091040260200160405190810160405280929190818152602001828054610c1190612727565b8015610c5e5780601f10610c3357610100808354040283529160200191610c5e565b820191906000526020600020905b815481529060010190602001808311610c4157829003601f168201915b50505050508152602001600182018054610c7790612727565b80601f0160208091040260200160405190810160405280929190818152602001828054610ca390612727565b8015610cf05780601f10610cc557610100808354040283529160200191610cf0565b820191906000526020600020905b815481529060010190602001808311610cd357829003601f168201915b5050505050815260200160028201548152602001600382018054610d1390612727565b80601f0160208091040260200160405190810160405280929190818152602001828054610d3f90612727565b8015610d8c5780601f10610d6157610100808354040283529160200191610d8c565b820191906000526020600020905b815481529060010190602001808311610d6f57829003601f168201915b50505050508152505090506000610ddb8260000151610daa86611731565b84602001518560600151604051602001610dc79493929190612d41565b604051602081830303815290604052611892565b9050600081604051602001610df09190612e0d565b6040516020818303038152906040529050809350505050919050565b60085481565b6007602052806000526040600020600091509050806000018054610e3590612727565b80601f0160208091040260200160405190810160405280929190818152602001828054610e6190612727565b8015610eae5780601f10610e8357610100808354040283529160200191610eae565b820191906000526020600020905b815481529060010190602001808311610e9157829003601f168201915b505050505090806001018054610ec390612727565b80601f0160208091040260200160405190810160405280929190818152602001828054610eef90612727565b8015610f3c5780601f10610f1157610100808354040283529160200191610f3c565b820191906000526020600020905b815481529060010190602001808311610f1f57829003601f168201915b505050505090806002015490806003018054610f5790612727565b80601f0160208091040260200160405190810160405280929190818152602001828054610f8390612727565b8015610fd05780601f10610fa557610100808354040283529160200191610fd0565b820191906000526020600020905b815481529060010190602001808311610fb357829003601f168201915b5050505050905084565b6000600560008473ffffffffffffffffffffffffffffffffffffffff1673ffffffffffffffffffffffffffffffffffffffff16815260200190815260200160002060008373ffffffffffffffffffffffffffffffffffffffff1673ffffffffffffffffffffffffffffffffffffffff16815260200190815260200160002060009054906101000a900460ff16905092915050565b60007f01ffc9a7000000000000000000000000000000000000000000000000000000007bffffffffffffffffffffffffffffffffffffffffffffffffffffffff1916827bffffffffffffffffffffffffffffffffffffffffffffffffffffffff1916149050919050565b60008073ffffffffffffffffffffffffffffffffffffffff166002600084815260200190815260200160002060009054906101000a900473ffffffffffffffffffffffffffffffffffffffff1673ffffffffffffffffffffffffffffffffffffffff1614159050919050565b600033905090565b816004600083815260200190815260200160002060006101000a81548173ffffffffffffffffffffffffffffffffffffffff021916908373ffffffffffffffffffffffffffffffffffffffff160217905550808273ffffffffffffffffffffffffffffffffffffffff166111bf836108a8565b73ffffffffffffffffffffffffffffffffffffffff167f8c5be1e5ebec7d5bd14f71427d1e84f3dd0314c0f7b2291e5b200ac8c7c3b92560405160405180910390a45050565b61121f828260405180602001604052806000815250611a17565b5050565b600061122e826110d8565b61126d576040517f08c379a000000000000000000000000000000000000000000000000000000000815260040161126490612ea1565b60405180910390fd5b6000611278836108a8565b90508073ffffffffffffffffffffffffffffffffffffffff168473ffffffffffffffffffffffffffffffffffffffff1614806112e757508373ffffffffffffffffffffffffffffffffffffffff166112cf84610544565b73ffffffffffffffffffffffffffffffffffffffff16145b806112f857506112f78185610fda565b5b91505092915050565b8273ffffffffffffffffffffffffffffffffffffffff16611321826108a8565b73ffffffffffffffffffffffffffffffffffffffff1614611377576040517f08c379a000000000000000000000000000000000000000000000000000000000815260040161136e90612f33565b60405180910390fd5b600073ffffffffffffffffffffffffffffffffffffffff168273ffffffffffffffffffffffffffffffffffffffff1614156113e7576040517f08c379a00000000000000000000000000000000000000000000000000000000081526004016113de90612fc5565b60405180910390fd5b6113f2838383611a72565b6113fd60008261114c565b6001600360008573ffffffffffffffffffffffffffffffffffffffff1673ffffffffffffffffffffffffffffffffffffffff168152602001908152602001600020600082825461144d9190612fe5565b925050819055506001600360008473ffffffffffffffffffffffffffffffffffffffff1673ffffffffffffffffffffffffffffffffffffffff16815260200190815260200160002060008282546114a49190613019565b92505081905550816002600083815260200190815260200160002060006101000a81548173ffffffffffffffffffffffffffffffffffffffff021916908373ffffffffffffffffffffffffffffffffffffffff160217905550808273ffffffffffffffffffffffffffffffffffffffff168473ffffffffffffffffffffffffffffffffffffffff167fddf252ad1be2c89b69c2b068fc378daa952ba7f163c4a11628f55a4df523b3ef60405160405180910390a4611563838383611a77565b505050565b8173ffffffffffffffffffffffffffffffffffffffff168373ffffffffffffffffffffffffffffffffffffffff1614156115d7576040517f08c379a00000000000000000000000000000000000000000000000000000000081526004016115ce906130bb565b60405180910390fd5b80600560008573ffffffffffffffffffffffffffffffffffffffff1673ffffffffffffffffffffffffffffffffffffffff16815260200190815260200160002060008473ffffffffffffffffffffffffffffffffffffffff1673ffffffffffffffffffffffffffffffffffffffff16815260200190815260200160002060006101000a81548160ff0219169083151502179055508173ffffffffffffffffffffffffffffffffffffffff168373ffffffffffffffffffffffffffffffffffffffff167f17307eab39ab6107e8899845ad3d59bd9653f200f220920489ca2b5937696c31836040516116c89190611f67565b60405180910390a3505050565b6116e0848484611301565b6116ec84848484611a7c565b61172b576040517f08c379a00000000000000000000000000000000000000000000000000000000081526004016117229061314d565b60405180910390fd5b50505050565b60606000821415611779576040518060400160405280600181526020017f3000000000000000000000000000000000000000000000000000000000000000815250905061188d565b600082905060005b600082146117ab5780806117949061293e565b915050600a826117a4919061319c565b9150611781565b60008167ffffffffffffffff8111156117c7576117c6612172565b5b6040519080825280601f01601f1916602001820160405280156117f95781602001600182028036833780820191505090505b5090505b60008514611886576001826118129190612fe5565b9150600a8561182191906131cd565b603061182d9190613019565b60f81b818381518110611843576118426131fe565b5b60200101907effffffffffffffffffffffffffffffffffffffffffffffffffffffffffffff1916908160001a905350600a8561187f919061319c565b94506117fd565b8093505050505b919050565b60606000825114156118b557604051806020016040528060008152509050611a12565b600060405180606001604052806040815260200161344360409139905060006003600285516118e49190613019565b6118ee919061319c565b60046118fa919061322d565b9050600060208261190b9190613019565b67ffffffffffffffff81111561192457611923612172565b5b6040519080825280601f01601f1916602001820160405280156119565781602001600182028036833780820191505090505b509050818152600183018586518101602084015b818310156119d1576003830192508251603f8160121c1685015160f81b8252600182019150603f81600c1c1685015160f81b8252600182019150603f8160061c1685015160f81b8252600182019150603f811685015160f81b82526001820191505061196a565b6003895106600181146119eb57600281146119fb57611a06565b613d3d60f01b6002830352611a06565b603d60f81b60018303525b50505050508093505050505b919050565b611a218383611c13565b611a2e6000848484611a7c565b611a6d576040517f08c379a0000000000000000000000000000000000000000000000000000000008152600401611a649061314d565b60405180910390fd5b505050565b505050565b505050565b6000611a9d8473ffffffffffffffffffffffffffffffffffffffff16611ded565b15611c06578373ffffffffffffffffffffffffffffffffffffffff1663150b7a02611ac6611144565b8786866040518563ffffffff1660e01b8152600401611ae894939291906132dc565b602060405180830381600087803b158015611b0257600080fd5b505af1925050508015611b3357506040513d601f19601f82011682018060405250810190611b30919061333d565b60015b611bb6573d8060008114611b63576040519150601f19603f3d011682016040523d82523d6000602084013e611b68565b606091505b50600081511415611bae576040517f08c379a0000000000000000000000000000000000000000000000000000000008152600401611ba59061314d565b60405180910390fd5b805181602001fd5b63150b7a0260e01b7bffffffffffffffffffffffffffffffffffffffffffffffffffffffff1916817bffffffffffffffffffffffffffffffffffffffffffffffffffffffff191614915050611c0b565b600190505b949350505050565b600073ffffffffffffffffffffffffffffffffffffffff168273ffffffffffffffffffffffffffffffffffffffff161415611c83576040517f08c379a0000000000000000000000000000000000000000000000000000000008152600401611c7a906133b6565b60405180910390fd5b611c8c816110d8565b15611ccc576040517f08c379a0000000000000000000000000000000000000000000000000000000008152600401611cc390613422565b60405180910390fd5b611cd860008383611a72565b6001600360008473ffffffffffffffffffffffffffffffffffffffff1673ffffffffffffffffffffffffffffffffffffffff1681526020019081526020016000206000828254611d289190613019565b92505081905550816002600083815260200190815260200160002060006101000a81548173ffffffffffffffffffffffffffffffffffffffff021916908373ffffffffffffffffffffffffffffffffffffffff160217905550808273ffffffffffffffffffffffffffffffffffffffff16600073ffffffffffffffffffffffffffffffffffffffff167fddf252ad1be2c89b69c2b068fc378daa952ba7f163c4a11628f55a4df523b3ef60405160405180910390a4611de960008383611a77565b5050565b6000808273ffffffffffffffffffffffffffffffffffffffff163b119050919050565b828054611e1c90612727565b90600052602060002090601f016020900481019282611e3e5760008555611e85565b82601f10611e5757805160ff1916838001178555611e85565b82800160010185558215611e85579182015b82811115611e84578251825591602001919060010190611e69565b5b509050611e929190611e96565b5090565b5b80821115611eaf576000816000905550600101611e97565b5090565b6000604051905090565b600080fd5b600080fd5b60007fffffffff0000000000000000000000000000000000000000000000000000000082169050919050565b611efc81611ec7565b8114611f0757600080fd5b50565b600081359050611f1981611ef3565b92915050565b600060208284031215611f3557611f34611ebd565b5b6000611f4384828501611f0a565b91505092915050565b60008115159050919050565b611f6181611f4c565b82525050565b6000602082019050611f7c6000830184611f58565b92915050565b600081519050919050565b600082825260208201905092915050565b60005b83811015611fbc578082015181840152602081019050611fa1565b83811115611fcb576000848401525b50505050565b6000601f19601f8301169050919050565b6000611fed82611f82565b611ff78185611f8d565b9350612007818560208601611f9e565b61201081611fd1565b840191505092915050565b600060208201905081810360008301526120358184611fe2565b905092915050565b6000819050919050565b6120508161203d565b811461205b57600080fd5b50565b60008135905061206d81612047565b92915050565b60006020828403121561208957612088611ebd565b5b60006120978482850161205e565b91505092915050565b600073ffffffffffffffffffffffffffffffffffffffff82169050919050565b60006120cb826120a0565b9050919050565b6120db816120c0565b82525050565b60006020820190506120f660008301846120d2565b92915050565b612105816120c0565b811461211057600080fd5b50565b600081359050612122816120fc565b92915050565b6000806040838503121561213f5761213e611ebd565b5b600061214d85828601612113565b925050602061215e8582860161205e565b9150509250929050565b600080fd5b600080fd5b7f4e487b7100000000000000000000000000000000000000000000000000000000600052604160045260246000fd5b6121aa82611fd1565b810181811067ffffffffffffffff821117156121c9576121c8612172565b5b80604052505050565b60006121dc611eb3565b90506121e882826121a1565b919050565b600067ffffffffffffffff82111561220857612207612172565b5b61221182611fd1565b9050602081019050919050565b82818337600083830152505050565b600061224061223b846121ed565b6121d2565b90508281526020810184848401111561225c5761225b61216d565b5b61226784828561221e565b509392505050565b600082601f83011261228457612283612168565b5b813561229484826020860161222d565b91505092915050565b6000806000606084860312156122b6576122b5611ebd565b5b600084013567ffffffffffffffff8111156122d4576122d3611ec2565b5b6122e08682870161226f565b935050602084013567ffffffffffffffff81111561230157612300611ec2565b5b61230d8682870161226f565b925050604084013567ffffffffffffffff81111561232e5761232d611ec2565b5b61233a8682870161226f565b9150509250925092565b60008060006060848603121561235d5761235c611ebd565b5b600061236b86828701612113565b935050602061237c86828701612113565b925050604061238d8682870161205e565b9150509250925092565b6123a08161203d565b82525050565b60006020820190506123bb6000830184612397565b92915050565b6000602082840312156123d7576123d6611ebd565b5b60006123e584828501612113565b91505092915050565b600081519050919050565b600082825260208201905092915050565b6000819050602082019050919050565b6124238161203d565b82525050565b6000612435838361241a565b60208301905092915050565b6000602082019050919050565b6000612459826123ee565b61246381856123f9565b935061246e8361240a565b8060005b8381101561249f5781516124868882612429565b975061249183612441565b925050600181019050612472565b5085935050505092915050565b600060208201905081810360008301526124c6818461244e565b905092915050565b6124d781611f4c565b81146124e257600080fd5b50565b6000813590506124f4816124ce565b92915050565b6000806040838503121561251157612510611ebd565b5b600061251f85828601612113565b9250506020612530858286016124e5565b9150509250929050565b600067ffffffffffffffff82111561255557612554612172565b5b61255e82611fd1565b9050602081019050919050565b600061257e6125798461253a565b6121d2565b90508281526020810184848401111561259a5761259961216d565b5b6125a584828561221e565b509392505050565b600082601f8301126125c2576125c1612168565b5b81356125d284826020860161256b565b91505092915050565b600080600080608085870312156125f5576125f4611ebd565b5b600061260387828801612113565b945050602061261487828801612113565b93505060406126258782880161205e565b925050606085013567ffffffffffffffff81111561264657612645611ec2565b5b612652878288016125ad565b91505092959194509250565b600060808201905081810360008301526126788187611fe2565b9050818103602083015261268c8186611fe2565b905061269b6040830185612397565b81810360608301526126ad8184611fe2565b905095945050505050565b600080604083850312156126cf576126ce611ebd565b5b60006126dd85828601612113565b92505060206126ee85828601612113565b9150509250929050565b7f4e487b7100000000000000000000000000000000000000000000000000000000600052602260045260246000fd5b6000600282049050600182168061273f57607f821691505b60208210811415612753576127526126f8565b5b50919050565b7f4552433732313a20617070726f76656420717565727920666f72206e6f6e657860008201527f697374656e7420746f6b656e0000000000000000000000000000000000000000602082015250565b60006127b5602c83611f8d565b91506127c082612759565b604082019050919050565b600060208201905081810360008301526127e4816127a8565b9050919050565b7f4552433732313a20617070726f76616c20746f2063757272656e74206f776e6560008201527f7200000000000000000000000000000000000000000000000000000000000000602082015250565b6000612847602183611f8d565b9150612852826127eb565b604082019050919050565b600060208201905081810360008301526128768161283a565b9050919050565b7f4552433732313a20617070726f76652063616c6c6572206973206e6f74206f7760008201527f6e6572206e6f7220617070726f76656420666f7220616c6c0000000000000000602082015250565b60006128d9603883611f8d565b91506128e48261287d565b604082019050919050565b60006020820190508181036000830152612908816128cc565b9050919050565b7f4e487b7100000000000000000000000000000000000000000000000000000000600052601160045260246000fd5b60006129498261203d565b91507fffffffffffffffffffffffffffffffffffffffffffffffffffffffffffffffff82141561297c5761297b61290f565b5b600182019050919050565b7f4552433732313a207472616e736665722063616c6c6572206973206e6f74206f60008201527f776e6572206e6f7220617070726f766564000000000000000000000000000000602082015250565b60006129e3603183611f8d565b91506129ee82612987565b604082019050919050565b60006020820190508181036000830152612a12816129d6565b9050919050565b7f4552433732313a206f776e657220717565727920666f72206e6f6e657869737460008201527f656e7420746f6b656e0000000000000000000000000000000000000000000000602082015250565b6000612a75602983611f8d565b9150612a8082612a19565b604082019050919050565b60006020820190508181036000830152612aa481612a68565b9050919050565b7f4552433732313a2062616c616e636520717565727920666f7220746865207a6560008201527f726f206164647265737300000000000000000000000000000000000000000000602082015250565b6000612b07602a83611f8d565b9150612b1282612aab565b604082019050919050565b60006020820190508181036000830152612b3681612afa565b9050919050565b600081905092915050565b7f7b227469746c65223a2022000000000000000000000000000000000000000000600082015250565b6000612b7e600b83612b3d565b9150612b8982612b48565b600b82019050919050565b6000612b9f82611f82565b612ba98185612b3d565b9350612bb9818560208601611f9e565b80840191505092915050565b7f202d2d204e465420233a20000000000000000000000000000000000000000000600082015250565b6000612bfb600b83612b3d565b9150612c0682612bc5565b600b82019050919050565b7f222c20226465736372697074696f6e223a202200000000000000000000000000600082015250565b6000612c47601383612b3d565b9150612c5282612c11565b601382019050919050565b7f222c2022696d616765555249223a202200000000000000000000000000000000600082015250565b6000612c93601083612b3d565b9150612c9e82612c5d565b601082019050919050565b7f697066733a2f2f00000000000000000000000000000000000000000000000000600082015250565b6000612cdf600783612b3d565b9150612cea82612ca9565b600782019050919050565b7f227d000000000000000000000000000000000000000000000000000000000000600082015250565b6000612d2b600283612b3d565b9150612d3682612cf5565b600282019050919050565b6000612d4c82612b71565b9150612d588287612b94565b9150612d6382612bee565b9150612d6f8286612b94565b9150612d7a82612c3a565b9150612d868285612b94565b9150612d9182612c86565b9150612d9c82612cd2565b9150612da88284612b94565b9150612db382612d1e565b915081905095945050505050565b7f646174613a6170706c69636174696f6e2f6a736f6e3b6261736536342c000000600082015250565b6000612df7601d83612b3d565b9150612e0282612dc1565b601d82019050919050565b6000612e1882612dea565b9150612e248284612b94565b915081905092915050565b7f4552433732313a206f70657261746f7220717565727920666f72206e6f6e657860008201527f697374656e7420746f6b656e0000000000000000000000000000000000000000602082015250565b6000612e8b602c83611f8d565b9150612e9682612e2f565b604082019050919050565b60006020820190508181036000830152612eba81612e7e565b9050919050565b7f4552433732313a207472616e736665722066726f6d20696e636f72726563742060008201527f6f776e6572000000000000000000000000000000000000000000000000000000602082015250565b6000612f1d602583611f8d565b9150612f2882612ec1565b604082019050919050565b60006020820190508181036000830152612f4c81612f10565b9050919050565b7f4552433732313a207472616e7366657220746f20746865207a65726f2061646460008201527f7265737300000000000000000000000000000000000000000000000000000000602082015250565b6000612faf602483611f8d565b9150612fba82612f53565b604082019050919050565b60006020820190508181036000830152612fde81612fa2565b9050919050565b6000612ff08261203d565b9150612ffb8361203d565b92508282101561300e5761300d61290f565b5b828203905092915050565b60006130248261203d565b915061302f8361203d565b9250827fffffffffffffffffffffffffffffffffffffffffffffffffffffffffffffffff038211156130645761306361290f565b5b828201905092915050565b7f4552433732313a20617070726f766520746f2063616c6c657200000000000000600082015250565b60006130a5601983611f8d565b91506130b08261306f565b602082019050919050565b600060208201905081810360008301526130d481613098565b9050919050565b7f4552433732313a207472616e7366657220746f206e6f6e20455243373231526560008201527f63656976657220696d706c656d656e7465720000000000000000000000000000602082015250565b6000613137603283611f8d565b9150613142826130db565b604082019050919050565b600060208201905081810360008301526131668161312a565b9050919050565b7f4e487b7100000000000000000000000000000000000000000000000000000000600052601260045260246000fd5b60006131a78261203d565b91506131b28361203d565b9250826131c2576131c161316d565b5b828204905092915050565b60006131d88261203d565b91506131e38361203d565b9250826131f3576131f261316d565b5b828206905092915050565b7f4e487b7100000000000000000000000000000000000000000000000000000000600052603260045260246000fd5b60006132388261203d565b91506132438361203d565b9250817fffffffffffffffffffffffffffffffffffffffffffffffffffffffffffffffff048311821515161561327c5761327b61290f565b5b828202905092915050565b600081519050919050565b600082825260208201905092915050565b60006132ae82613287565b6132b88185613292565b93506132c8818560208601611f9e565b6132d181611fd1565b840191505092915050565b60006080820190506132f160008301876120d2565b6132fe60208301866120d2565b61330b6040830185612397565b818103606083015261331d81846132a3565b905095945050505050565b60008151905061333781611ef3565b92915050565b60006020828403121561335357613352611ebd565b5b600061336184828501613328565b91505092915050565b7f4552433732313a206d696e7420746f20746865207a65726f2061646472657373600082015250565b60006133a0602083611f8d565b91506133ab8261336a565b602082019050919050565b600060208201905081810360008301526133cf81613393565b9050919050565b7f4552433732313a20746f6b656e20616c7265616479206d696e74656400000000600082015250565b600061340c601c83611f8d565b9150613417826133d6565b602082019050919050565b6000602082019050818103600083015261343b816133ff565b905091905056fe4142434445464748494a4b4c4d4e4f505152535455565758595a6162636465666768696a6b6c6d6e6f707172737475767778797a303132333435363738392b2fa26469706673582212200ce65a7d85d053e18f7638ddf0818de71f8b23ae2c3636e9c360bbed7b3be46a64736f6c63430008090033",
  "immutableReferences": {},
  "source": "// SPDX-License-Identifier: MIT\r\npragma solidity ^0.8.9;\r\n\r\n// NFT contract to inherit from.\r\nimport \"@openzeppelin/contracts/token/ERC721/extensions/ERC721URIStorage.sol\";\r\nimport \"@openzeppelin/contracts/utils/Strings.sol\";\r\nimport 'base64-sol/base64.sol';\r\n\r\ninterface INFTReward {\r\n    function mintNFT(string memory _title, string memory _description, string memory _imageURI) external;\r\n    function getNFTs(address _owner) external view returns (uint[] memory); \r\n}\r\n\r\ncontract NFTReward is ERC721URIStorage, INFTReward {\r\n\r\n    struct NFTFund {\r\n        string title;\r\n        string description;\r\n        uint amountDonated;\r\n        string imageURI;\r\n    }\r\n\r\n    // NFTs tokenId => that NFTs attributes.\r\n    mapping(uint256 => NFTFund) public nftAttributes;\r\n\r\n    uint public tokenCounter;\r\n\r\n    address private _owner;\r\n\r\n    // track each users NFTs\r\n    mapping(address => uint[]) public userNFTs;\r\n\r\n    constructor() ERC721(\"NFTReward\", \"REW\") {\r\n        tokenCounter = 0;\r\n        _owner = msg.sender;\r\n    }\r\n\r\n    // NFT functions\r\n\r\n    function mintNFT(string memory _title, string memory _description, string memory _imageURI) external {\r\n        uint newItemId = tokenCounter;\r\n\t\t_safeMint(msg.sender, newItemId);\r\n        \r\n        nftAttributes[newItemId].title = _title;\r\n        nftAttributes[newItemId].description = _description;\r\n        nftAttributes[newItemId].imageURI = _imageURI;\r\n\r\n        userNFTs[msg.sender].push(newItemId);\r\n\r\n        tokenCounter++;\r\n    }\r\n\r\n    // returns the tokenURI for the given tokenId\r\n\r\n    function tokenURI(uint _tokenId) public view override returns (string memory) {\r\n        NFTFund memory fund = nftAttributes[_tokenId];\r\n\r\n        string memory json = Base64.encode(\r\n            bytes(\r\n                string(\r\n                    abi.encodePacked(\r\n                        '{\"title\": \"',\r\n                        fund.title,\r\n                        ' -- NFT #: ',\r\n                        Strings.toString(_tokenId),\r\n                        '\", \"description\": \"',\r\n                        fund.description,\r\n                        '\", \"imageURI\": \"',\r\n                        \"ipfs://\", fund.imageURI, '\"}'\r\n                    )\r\n                )\r\n            )\r\n        );\r\n\r\n        string memory uri = string(\r\n            abi.encodePacked(\"data:application/json;base64,\", json)\r\n        );\r\n\r\n        return uri;\r\n    }\r\n\r\n    // Get all NFTs owned by a user\r\n    function getNFTs(address owner) public view returns (uint[] memory) {\r\n        return userNFTs[owner];\r\n    }\r\n}\r\n\r\n",
  "sourcePath": "C:\\DEV\\Ethereum\\chairity\\contracts\\NFTReward.sol",
  "compiler": {
    "name": "solc",
    "version": "0.8.9+commit.e5eed63a.Emscripten.clang"
  },
  "schemaVersion": "3.4.3",
  "updatedAt": "2022-03-30T04:08:26.278Z",
  "networkType": "ethereum",
  "devdoc": {
    "kind": "dev",
    "methods": {
      "approve(address,uint256)": {
        "details": "See {IERC721-approve}."
      },
      "balanceOf(address)": {
        "details": "See {IERC721-balanceOf}."
      },
      "getApproved(uint256)": {
        "details": "See {IERC721-getApproved}."
      },
      "isApprovedForAll(address,address)": {
        "details": "See {IERC721-isApprovedForAll}."
      },
      "name()": {
        "details": "See {IERC721Metadata-name}."
      },
      "ownerOf(uint256)": {
        "details": "See {IERC721-ownerOf}."
      },
      "safeTransferFrom(address,address,uint256)": {
        "details": "See {IERC721-safeTransferFrom}."
      },
      "safeTransferFrom(address,address,uint256,bytes)": {
        "details": "See {IERC721-safeTransferFrom}."
      },
      "setApprovalForAll(address,bool)": {
        "details": "See {IERC721-setApprovalForAll}."
      },
      "supportsInterface(bytes4)": {
        "details": "See {IERC165-supportsInterface}."
      },
      "symbol()": {
        "details": "See {IERC721Metadata-symbol}."
      },
      "transferFrom(address,address,uint256)": {
        "details": "See {IERC721-transferFrom}."
      }
    },
    "version": 1
  },
  "userdoc": {
    "kind": "user",
    "methods": {},
    "version": 1
  }
}